{
	"data": {
		"bytecode": {
			"linkReferences": {},
			"object": "6080604052662386f26fc1000060065566038d7ea4c680006007556002600855600a6009555f600a5f6101000a81548160ff0219169083151502179055505f600a60016101000a81548160ff02191690831515021790555034801562000063575f80fd5b506040516200430538038062004305833981810160405281019062000089919062000299565b80604051806060016040528060368152602001620042cf60369139620000b5816200015c60201b60201c565b505f73ffffffffffffffffffffffffffffffffffffffff168173ffffffffffffffffffffffffffffffffffffffff160362000129575f6040517f1e4fbdf7000000000000000000000000000000000000000000000000000000008152600401620001209190620002da565b60405180910390fd5b6200013a816200017160201b60201c565b505f600360146101000a81548160ff021916908315150217905550506200063d565b80600290816200016d919062000559565b5050565b5f60035f9054906101000a900473ffffffffffffffffffffffffffffffffffffffff1690508160035f6101000a81548173ffffffffffffffffffffffffffffffffffffffff021916908373ffffffffffffffffffffffffffffffffffffffff1602179055508173ffffffffffffffffffffffffffffffffffffffff168173ffffffffffffffffffffffffffffffffffffffff167f8be0079c531659141344cd1fd0a4f28419497f9722a3daafe3b4186f6b6457e060405160405180910390a35050565b5f80fd5b5f73ffffffffffffffffffffffffffffffffffffffff82169050919050565b5f620002638262000238565b9050919050565b620002758162000257565b811462000280575f80fd5b50565b5f8151905062000293816200026a565b92915050565b5f60208284031215620002b157620002b062000234565b5b5f620002c08482850162000283565b91505092915050565b620002d48162000257565b82525050565b5f602082019050620002ef5f830184620002c9565b92915050565b5f81519050919050565b7f4e487b71000000000000000000000000000000000000000000000000000000005f52604160045260245ffd5b7f4e487b71000000000000000000000000000000000000000000000000000000005f52602260045260245ffd5b5f60028204905060018216806200037157607f821691505b6020821081036200038757620003866200032c565b5b50919050565b5f819050815f5260205f209050919050565b5f6020601f8301049050919050565b5f82821b905092915050565b5f60088302620003eb7fffffffffffffffffffffffffffffffffffffffffffffffffffffffffffffffff82620003ae565b620003f78683620003ae565b95508019841693508086168417925050509392505050565b5f819050919050565b5f819050919050565b5f620004416200043b62000435846200040f565b62000418565b6200040f565b9050919050565b5f819050919050565b6200045c8362000421565b620004746200046b8262000448565b848454620003ba565b825550505050565b5f90565b6200048a6200047c565b6200049781848462000451565b505050565b5b81811015620004be57620004b25f8262000480565b6001810190506200049d565b5050565b601f8211156200050d57620004d7816200038d565b620004e2846200039f565b81016020851015620004f2578190505b6200050a62000501856200039f565b8301826200049c565b50505b505050565b5f82821c905092915050565b5f6200052f5f198460080262000512565b1980831691505092915050565b5f6200054983836200051e565b9150826002028217905092915050565b6200056482620002f5565b67ffffffffffffffff81111562000580576200057f620002ff565b5b6200058c825462000359565b62000599828285620004c2565b5f60209050601f831160018114620005cf575f8415620005ba578287015190505b620005c685826200053c565b86555062000635565b601f198416620005df866200038d565b5f5b828110156200060857848901518255600182019150602085019450602081019050620005e1565b8683101562000628578489015162000624601f8916826200051e565b8355505b6001600288020188555050505b505050505050565b613c84806200064b5f395ff3fe6080604052600436106101e1575f3560e01c80635c975abb11610101578063a24e515311610094578063d75e029311610063578063d75e029314610695578063e985e9c5146106bd578063f242432a146106f9578063f2fde38b14610721576101e1565b8063a24e5153146105db578063a945bf8014610605578063bcc9ca5b1461062f578063bd85b03914610659576101e1565b8063715018a6116100d0578063715018a61461055d5780638456cb59146105735780638da5cb5b14610589578063a22cb465146105b3576101e1565b80635c975abb146104b75780636447c35d146104e1578063665ccfb4146105095780636939606914610533576101e1565b80631f7fdffa116101795780633f4ba83a116101485780633f4ba83a146104015780634e1273f4146104175780634f558e791461045357806351cff8d91461048f576101e1565b80631f7fdffa1461034d5780632848aeaf146103755780632eb2c2d6146103b15780632f48de79146103d9576101e1565b80630e89341c116101b55780630e89341c146102af578063128ac91b146102eb57806318160ddd146103075780631b2ef1ca14610331576101e1565b8062fdd58e146101e557806301ffc9a71461022157806302fe53051461025d578063085c9bac14610285575b5f80fd5b3480156101f0575f80fd5b5061020b60048036038101906102069190612712565b610749565b604051610218919061275f565b60405180910390f35b34801561022c575f80fd5b50610247600480360381019061024291906127cd565b61079e565b6040516102549190612812565b60405180910390f35b348015610268575f80fd5b50610283600480360381019061027e9190612967565b61087f565b005b348015610290575f80fd5b50610299610893565b6040516102a69190612812565b60405180910390f35b3480156102ba575f80fd5b506102d560048036038101906102d091906129ae565b6108a6565b6040516102e29190612a53565b60405180910390f35b61030560048036038101906103009190612a73565b610929565b005b348015610312575f80fd5b5061031b610b0a565b604051610328919061275f565b60405180910390f35b61034b60048036038101906103469190612a73565b610b13565b005b348015610358575f80fd5b50610373600480360381019061036e9190612c13565b610c6a565b005b348015610380575f80fd5b5061039b60048036038101906103969190612ccb565b610c84565b6040516103a89190612812565b60405180910390f35b3480156103bc575f80fd5b506103d760048036038101906103d29190612cf6565b610ca1565b005b3480156103e4575f80fd5b506103ff60048036038101906103fa9190612deb565b610d48565b005b34801561040c575f80fd5b50610415610d87565b005b348015610422575f80fd5b5061043d60048036038101906104389190612ee9565b610d99565b60405161044a9190613016565b60405180910390f35b34801561045e575f80fd5b50610479600480360381019061047491906129ae565b610ea0565b6040516104869190612812565b60405180910390f35b34801561049a575f80fd5b506104b560048036038101906104b09190612ccb565b610eb3565b005b3480156104c2575f80fd5b506104cb610f07565b6040516104d89190612812565b60405180910390f35b3480156104ec575f80fd5b506105076004803603810190610502919061308f565b610f1d565b005b348015610514575f80fd5b5061051d610fc0565b60405161052a919061275f565b60405180910390f35b34801561053e575f80fd5b50610547610fc6565b604051610554919061275f565b60405180910390f35b348015610568575f80fd5b50610571610fcc565b005b34801561057e575f80fd5b50610587610fdf565b005b348015610594575f80fd5b5061059d610ff1565b6040516105aa91906130e9565b60405180910390f35b3480156105be575f80fd5b506105d960048036038101906105d49190613102565b611019565b005b3480156105e6575f80fd5b506105ef61102f565b6040516105fc919061275f565b60405180910390f35b348015610610575f80fd5b50610619611035565b604051610626919061275f565b60405180910390f35b34801561063a575f80fd5b5061064361103b565b6040516106509190612812565b60405180910390f35b348015610664575f80fd5b5061067f600480360381019061067a91906129ae565b61104d565b60405161068c919061275f565b60405180910390f35b3480156106a0575f80fd5b506106bb60048036038101906106b69190613102565b611067565b005b3480156106c8575f80fd5b506106e360048036038101906106de9190613140565b6110c7565b6040516106f09190612812565b60405180910390f35b348015610704575f80fd5b5061071f600480360381019061071a919061317e565b611155565b005b34801561072c575f80fd5b5061074760048036038101906107429190612ccb565b6111fc565b005b5f805f8381526020019081526020015f205f8473ffffffffffffffffffffffffffffffffffffffff1673ffffffffffffffffffffffffffffffffffffffff1681526020019081526020015f2054905092915050565b5f7fd9b67a26000000000000000000000000000000000000000000000000000000007bffffffffffffffffffffffffffffffffffffffffffffffffffffffff1916827bffffffffffffffffffffffffffffffffffffffffffffffffffffffff1916148061086857507f0e89341c000000000000000000000000000000000000000000000000000000007bffffffffffffffffffffffffffffffffffffffffffffffffffffffff1916827bffffffffffffffffffffffffffffffffffffffffffffffffffffffff1916145b80610878575061087782611280565b5b9050919050565b6108876112e9565b61089081611370565b50565b600a60019054906101000a900460ff1681565b60606108b182610ea0565b6108f0576040517f08c379a00000000000000000000000000000000000000000000000000000000081526004016108e79061325b565b60405180910390fd5b6108f982611383565b61090283611415565b6040516020016109139291906132fd565b6040516020818303038152906040529050919050565b600a60019054906101000a900460ff16610978576040517f08c379a000000000000000000000000000000000000000000000000000000000815260040161096f90613375565b60405180910390fd5b600b5f3373ffffffffffffffffffffffffffffffffffffffff1673ffffffffffffffffffffffffffffffffffffffff1681526020019081526020015f205f9054906101000a900460ff16610a01576040517f08c379a00000000000000000000000000000000000000000000000000000000081526004016109f8906133dd565b60405180910390fd5b600a821115610a45576040517f08c379a0000000000000000000000000000000000000000000000000000000008152600401610a3c9061346b565b60405180910390fd5b60085481610a528461104d565b610a5c91906134b6565b1115610a9d576040517f08c379a0000000000000000000000000000000000000000000000000000000008152600401610a9490613533565b60405180910390fd5b80600754610aab9190613551565b3414610aec576040517f08c379a0000000000000000000000000000000000000000000000000000000008152600401610ae390613602565b60405180910390fd5b610b0633838360405180602001604052805f8152506114df565b5050565b5f600554905090565b600a5f9054906101000a900460ff16610b61576040517f08c379a0000000000000000000000000000000000000000000000000000000008152600401610b589061366a565b60405180910390fd5b600a821115610ba5576040517f08c379a0000000000000000000000000000000000000000000000000000000008152600401610b9c9061346b565b60405180910390fd5b60085481610bb28461104d565b610bbc91906134b6565b1115610bfd576040517f08c379a0000000000000000000000000000000000000000000000000000000008152600401610bf490613533565b60405180910390fd5b80600654610c0b9190613551565b3414610c4c576040517f08c379a0000000000000000000000000000000000000000000000000000000008152600401610c43906136f8565b60405180910390fd5b610c6633838360405180602001604052805f8152506114df565b5050565b610c726112e9565b610c7e84848484611574565b50505050565b600b602052805f5260405f205f915054906101000a900460ff1681565b5f610caa6115f7565b90508073ffffffffffffffffffffffffffffffffffffffff168673ffffffffffffffffffffffffffffffffffffffff1614158015610cef5750610ced86826110c7565b155b15610d335780866040517fe237d922000000000000000000000000000000000000000000000000000000008152600401610d2a929190613716565b60405180910390fd5b610d4086868686866115fe565b505050505050565b610d506112e9565b81600a5f6101000a81548160ff02191690831515021790555080600a60016101000a81548160ff0219169083151502179055505050565b610d8f6112e9565b610d976116f2565b565b60608151835114610de557815183516040517f5b059991000000000000000000000000000000000000000000000000000000008152600401610ddc92919061373d565b60405180910390fd5b5f835167ffffffffffffffff811115610e0157610e00612843565b5b604051908082528060200260200182016040528015610e2f5781602001602082028036833780820191505090505b5090505f5b8451811015610e9557610e6b610e53828761175490919063ffffffff16565b610e66838761176790919063ffffffff16565b610749565b828281518110610e7e57610e7d613764565b5b602002602001018181525050806001019050610e34565b508091505092915050565b5f80610eab8361104d565b119050919050565b610ebb6112e9565b5f4790508173ffffffffffffffffffffffffffffffffffffffff166108fc8290811502906040515f60405180830381858888f19350505050158015610f02573d5f803e3d5ffd5b505050565b5f600360149054906101000a900460ff16905090565b610f256112e9565b5f5b82829050811015610fbb576001600b5f858585818110610f4a57610f49613764565b5b9050602002016020810190610f5f9190612ccb565b73ffffffffffffffffffffffffffffffffffffffff1673ffffffffffffffffffffffffffffffffffffffff1681526020019081526020015f205f6101000a81548160ff0219169083151502179055508080600101915050610f27565b505050565b60085481565b60095481565b610fd46112e9565b610fdd5f61177a565b565b610fe76112e9565b610fef61183d565b565b5f60035f9054906101000a900473ffffffffffffffffffffffffffffffffffffffff16905090565b61102b6110246115f7565b83836118a0565b5050565b60075481565b60065481565b600a5f9054906101000a900460ff1681565b5f60045f8381526020019081526020015f20549050919050565b61106f6112e9565b80600b5f8473ffffffffffffffffffffffffffffffffffffffff1673ffffffffffffffffffffffffffffffffffffffff1681526020019081526020015f205f6101000a81548160ff0219169083151502179055505050565b5f60015f8473ffffffffffffffffffffffffffffffffffffffff1673ffffffffffffffffffffffffffffffffffffffff1681526020019081526020015f205f8373ffffffffffffffffffffffffffffffffffffffff1673ffffffffffffffffffffffffffffffffffffffff1681526020019081526020015f205f9054906101000a900460ff16905092915050565b5f61115e6115f7565b90508073ffffffffffffffffffffffffffffffffffffffff168673ffffffffffffffffffffffffffffffffffffffff16141580156111a357506111a186826110c7565b155b156111e75780866040517fe237d9220000000000000000000000000000000000000000000000000000000081526004016111de929190613716565b60405180910390fd5b6111f48686868686611a09565b505050505050565b6112046112e9565b5f73ffffffffffffffffffffffffffffffffffffffff168173ffffffffffffffffffffffffffffffffffffffff1603611274575f6040517f1e4fbdf700000000000000000000000000000000000000000000000000000000815260040161126b91906130e9565b60405180910390fd5b61127d8161177a565b50565b5f7f01ffc9a7000000000000000000000000000000000000000000000000000000007bffffffffffffffffffffffffffffffffffffffffffffffffffffffff1916827bffffffffffffffffffffffffffffffffffffffffffffffffffffffff1916149050919050565b6112f16115f7565b73ffffffffffffffffffffffffffffffffffffffff1661130f610ff1565b73ffffffffffffffffffffffffffffffffffffffff161461136e576113326115f7565b6040517f118cdaa700000000000000000000000000000000000000000000000000000000815260040161136591906130e9565b60405180910390fd5b565b806002908161137f919061398b565b5050565b606060028054611392906137be565b80601f01602080910402602001604051908101604052809291908181526020018280546113be906137be565b80156114095780601f106113e057610100808354040283529160200191611409565b820191905f5260205f20905b8154815290600101906020018083116113ec57829003601f168201915b50505050509050919050565b60605f600161142384611b0f565b0190505f8167ffffffffffffffff81111561144157611440612843565b5b6040519080825280601f01601f1916602001820160405280156114735781602001600182028036833780820191505090505b5090505f82602001820190505b6001156114d4578080600190039150507f3031323334353637383961626364656600000000000000000000000000000000600a86061a8153600a85816114c9576114c8613a5a565b5b0494505f8503611480575b819350505050919050565b5f73ffffffffffffffffffffffffffffffffffffffff168473ffffffffffffffffffffffffffffffffffffffff160361154f575f6040517f57f447ce00000000000000000000000000000000000000000000000000000000815260040161154691906130e9565b60405180910390fd5b5f8061155b8585611c60565b9150915061156c5f87848487611c90565b505050505050565b5f73ffffffffffffffffffffffffffffffffffffffff168473ffffffffffffffffffffffffffffffffffffffff16036115e4575f6040517f57f447ce0000000000000000000000000000000000000000000000000000000081526004016115db91906130e9565b60405180910390fd5b6115f15f85858585611c90565b50505050565b5f33905090565b5f73ffffffffffffffffffffffffffffffffffffffff168473ffffffffffffffffffffffffffffffffffffffff160361166e575f6040517f57f447ce00000000000000000000000000000000000000000000000000000000815260040161166591906130e9565b60405180910390fd5b5f73ffffffffffffffffffffffffffffffffffffffff168573ffffffffffffffffffffffffffffffffffffffff16036116de575f6040517f01a835140000000000000000000000000000000000000000000000000000000081526004016116d591906130e9565b60405180910390fd5b6116eb8585858585611c90565b5050505050565b6116fa611d3c565b5f600360146101000a81548160ff0219169083151502179055507f5db9ee0a495bf2e6ff9c91a7834c1ba4fdd244a5e8aa4e537bd38aeae4b073aa61173d6115f7565b60405161174a91906130e9565b60405180910390a1565b5f60208202602084010151905092915050565b5f60208202602084010151905092915050565b5f60035f9054906101000a900473ffffffffffffffffffffffffffffffffffffffff1690508160035f6101000a81548173ffffffffffffffffffffffffffffffffffffffff021916908373ffffffffffffffffffffffffffffffffffffffff1602179055508173ffffffffffffffffffffffffffffffffffffffff168173ffffffffffffffffffffffffffffffffffffffff167f8be0079c531659141344cd1fd0a4f28419497f9722a3daafe3b4186f6b6457e060405160405180910390a35050565b611845611d7c565b6001600360146101000a81548160ff0219169083151502179055507f62e78cea01bee320cd4e420270b5ea74000d11b0c9f74754ebdbfc544b05a2586118896115f7565b60405161189691906130e9565b60405180910390a1565b5f73ffffffffffffffffffffffffffffffffffffffff168273ffffffffffffffffffffffffffffffffffffffff1603611910575f6040517fced3e10000000000000000000000000000000000000000000000000000000000815260040161190791906130e9565b60405180910390fd5b8060015f8573ffffffffffffffffffffffffffffffffffffffff1673ffffffffffffffffffffffffffffffffffffffff1681526020019081526020015f205f8473ffffffffffffffffffffffffffffffffffffffff1673ffffffffffffffffffffffffffffffffffffffff1681526020019081526020015f205f6101000a81548160ff0219169083151502179055508173ffffffffffffffffffffffffffffffffffffffff168373ffffffffffffffffffffffffffffffffffffffff167f17307eab39ab6107e8899845ad3d59bd9653f200f220920489ca2b5937696c31836040516119fc9190612812565b60405180910390a3505050565b5f73ffffffffffffffffffffffffffffffffffffffff168473ffffffffffffffffffffffffffffffffffffffff1603611a79575f6040517f57f447ce000000000000000000000000000000000000000000000000000000008152600401611a7091906130e9565b60405180910390fd5b5f73ffffffffffffffffffffffffffffffffffffffff168573ffffffffffffffffffffffffffffffffffffffff1603611ae9575f6040517f01a83514000000000000000000000000000000000000000000000000000000008152600401611ae091906130e9565b60405180910390fd5b5f80611af58585611c60565b91509150611b068787848487611c90565b50505050505050565b5f805f90507a184f03e93ff9f4daa797ed6e38ed64bf6a1f0100000000000000008310611b6b577a184f03e93ff9f4daa797ed6e38ed64bf6a1f0100000000000000008381611b6157611b60613a5a565b5b0492506040810190505b6d04ee2d6d415b85acef81000000008310611ba8576d04ee2d6d415b85acef81000000008381611b9e57611b9d613a5a565b5b0492506020810190505b662386f26fc100008310611bd757662386f26fc100008381611bcd57611bcc613a5a565b5b0492506010810190505b6305f5e1008310611c00576305f5e1008381611bf657611bf5613a5a565b5b0492506008810190505b6127108310611c25576127108381611c1b57611c1a613a5a565b5b0492506004810190505b60648310611c485760648381611c3e57611c3d613a5a565b5b0492506002810190505b600a8310611c57576001810190505b80915050919050565b60608060405191506001825283602083015260408201905060018152826020820152604081016040529250929050565b611c9c85858585611dbd565b5f73ffffffffffffffffffffffffffffffffffffffff168473ffffffffffffffffffffffffffffffffffffffff1614611d35575f611cd86115f7565b90506001845103611d24575f611cf75f8661176790919063ffffffff16565b90505f611d0d5f8661176790919063ffffffff16565b9050611d1d838989858589611dcf565b5050611d33565b611d32818787878787611f7e565b5b505b5050505050565b611d44610f07565b611d7a576040517f8dfc202b00000000000000000000000000000000000000000000000000000000815260040160405180910390fd5b565b611d84610f07565b15611dbb576040517fd93c066500000000000000000000000000000000000000000000000000000000815260040160405180910390fd5b565b611dc98484848461212d565b50505050565b5f8473ffffffffffffffffffffffffffffffffffffffff163b1115611f76578373ffffffffffffffffffffffffffffffffffffffff1663f23a6e6187878686866040518663ffffffff1660e01b8152600401611e2f959493929190613ad9565b6020604051808303815f875af1925050508015611e6a57506040513d601f19601f82011682018060405250810190611e679190613b45565b60015b611eeb573d805f8114611e98576040519150601f19603f3d011682016040523d82523d5f602084013e611e9d565b606091505b505f815103611ee357846040517f57f447ce000000000000000000000000000000000000000000000000000000008152600401611eda91906130e9565b60405180910390fd5b805181602001fd5b63f23a6e6160e01b7bffffffffffffffffffffffffffffffffffffffffffffffffffffffff1916817bffffffffffffffffffffffffffffffffffffffffffffffffffffffff191614611f7457846040517f57f447ce000000000000000000000000000000000000000000000000000000008152600401611f6b91906130e9565b60405180910390fd5b505b505050505050565b5f8473ffffffffffffffffffffffffffffffffffffffff163b1115612125578373ffffffffffffffffffffffffffffffffffffffff1663bc197c8187878686866040518663ffffffff1660e01b8152600401611fde959493929190613b70565b6020604051808303815f875af192505050801561201957506040513d601f19601f820116820180604052508101906120169190613b45565b60015b61209a573d805f8114612047576040519150601f19603f3d011682016040523d82523d5f602084013e61204c565b606091505b505f81510361209257846040517f57f447ce00000000000000000000000000000000000000000000000000000000815260040161208991906130e9565b60405180910390fd5b805181602001fd5b63bc197c8160e01b7bffffffffffffffffffffffffffffffffffffffffffffffffffffffff1916817bffffffffffffffffffffffffffffffffffffffffffffffffffffffff19161461212357846040517f57f447ce00000000000000000000000000000000000000000000000000000000815260040161211a91906130e9565b60405180910390fd5b505b505050505050565b612139848484846122ca565b5f73ffffffffffffffffffffffffffffffffffffffff168473ffffffffffffffffffffffffffffffffffffffff160361220c575f805b83518110156121f1575f83828151811061218c5761218b613764565b5b602002602001015190508060045f8785815181106121ad576121ac613764565b5b602002602001015181526020019081526020015f205f8282546121d091906134b6565b9250508190555080836121e391906134b6565b92505080600101905061216f565b508060055f82825461220391906134b6565b92505081905550505b5f73ffffffffffffffffffffffffffffffffffffffff168373ffffffffffffffffffffffffffffffffffffffff16036122c4575f805b83518110156122b2575f83828151811061225f5761225e613764565b5b602002602001015190508060045f8785815181106122805761227f613764565b5b602002602001015181526020019081526020015f205f8282540392505081905550808301925050806001019050612242565b508060055f8282540392505081905550505b50505050565b6122d2611d7c565b6122de848484846122e4565b50505050565b805182511461232e57815181516040517f5b05999100000000000000000000000000000000000000000000000000000000815260040161232592919061373d565b60405180910390fd5b5f6123376115f7565b90505f5b8351811015612533575f612358828661176790919063ffffffff16565b90505f61236e838661176790919063ffffffff16565b90505f73ffffffffffffffffffffffffffffffffffffffff168873ffffffffffffffffffffffffffffffffffffffff1614612491575f805f8481526020019081526020015f205f8a73ffffffffffffffffffffffffffffffffffffffff1673ffffffffffffffffffffffffffffffffffffffff1681526020019081526020015f205490508181101561243d57888183856040517f03dee4c50000000000000000000000000000000000000000000000000000000081526004016124349493929190613bd6565b60405180910390fd5b8181035f808581526020019081526020015f205f8b73ffffffffffffffffffffffffffffffffffffffff1673ffffffffffffffffffffffffffffffffffffffff1681526020019081526020015f2081905550505b5f73ffffffffffffffffffffffffffffffffffffffff168773ffffffffffffffffffffffffffffffffffffffff161461252657805f808481526020019081526020015f205f8973ffffffffffffffffffffffffffffffffffffffff1673ffffffffffffffffffffffffffffffffffffffff1681526020019081526020015f205f82825461251e91906134b6565b925050819055505b505080600101905061233b565b5060018351036125ee575f6125515f8561176790919063ffffffff16565b90505f6125675f8561176790919063ffffffff16565b90508573ffffffffffffffffffffffffffffffffffffffff168773ffffffffffffffffffffffffffffffffffffffff168473ffffffffffffffffffffffffffffffffffffffff167fc3d58168c5ae7397731d063d5bbf3d657854427343f4c083240f7aacaa2d0f6285856040516125df92919061373d565b60405180910390a4505061266d565b8373ffffffffffffffffffffffffffffffffffffffff168573ffffffffffffffffffffffffffffffffffffffff168273ffffffffffffffffffffffffffffffffffffffff167f4a39dc06d4c0dbc64b70af90fd698a233a518aa5d07e595d983b8c0526c8f7fb8686604051612664929190613c19565b60405180910390a45b5050505050565b5f604051905090565b5f80fd5b5f80fd5b5f73ffffffffffffffffffffffffffffffffffffffff82169050919050565b5f6126ae82612685565b9050919050565b6126be816126a4565b81146126c8575f80fd5b50565b5f813590506126d9816126b5565b92915050565b5f819050919050565b6126f1816126df565b81146126fb575f80fd5b50565b5f8135905061270c816126e8565b92915050565b5f80604083850312156127285761272761267d565b5b5f612735858286016126cb565b9250506020612746858286016126fe565b9150509250929050565b612759816126df565b82525050565b5f6020820190506127725f830184612750565b92915050565b5f7fffffffff0000000000000000000000000000000000000000000000000000000082169050919050565b6127ac81612778565b81146127b6575f80fd5b50565b5f813590506127c7816127a3565b92915050565b5f602082840312156127e2576127e161267d565b5b5f6127ef848285016127b9565b91505092915050565b5f8115159050919050565b61280c816127f8565b82525050565b5f6020820190506128255f830184612803565b92915050565b5f80fd5b5f80fd5b5f601f19601f8301169050919050565b7f4e487b71000000000000000000000000000000000000000000000000000000005f52604160045260245ffd5b61287982612833565b810181811067ffffffffffffffff8211171561289857612897612843565b5b80604052505050565b5f6128aa612674565b90506128b68282612870565b919050565b5f67ffffffffffffffff8211156128d5576128d4612843565b5b6128de82612833565b9050602081019050919050565b828183375f83830152505050565b5f61290b612906846128bb565b6128a1565b9050828152602081018484840111156129275761292661282f565b5b6129328482856128eb565b509392505050565b5f82601f83011261294e5761294d61282b565b5b813561295e8482602086016128f9565b91505092915050565b5f6020828403121561297c5761297b61267d565b5b5f82013567ffffffffffffffff81111561299957612998612681565b5b6129a58482850161293a565b91505092915050565b5f602082840312156129c3576129c261267d565b5b5f6129d0848285016126fe565b91505092915050565b5f81519050919050565b5f82825260208201905092915050565b5f5b83811015612a105780820151818401526020810190506129f5565b5f8484015250505050565b5f612a25826129d9565b612a2f81856129e3565b9350612a3f8185602086016129f3565b612a4881612833565b840191505092915050565b5f6020820190508181035f830152612a6b8184612a1b565b905092915050565b5f8060408385031215612a8957612a8861267d565b5b5f612a96858286016126fe565b9250506020612aa7858286016126fe565b9150509250929050565b5f67ffffffffffffffff821115612acb57612aca612843565b5b602082029050602081019050919050565b5f80fd5b5f612af2612aed84612ab1565b6128a1565b90508083825260208201905060208402830185811115612b1557612b14612adc565b5b835b81811015612b3e5780612b2a88826126fe565b845260208401935050602081019050612b17565b5050509392505050565b5f82601f830112612b5c57612b5b61282b565b5b8135612b6c848260208601612ae0565b91505092915050565b5f67ffffffffffffffff821115612b8f57612b8e612843565b5b612b9882612833565b9050602081019050919050565b5f612bb7612bb284612b75565b6128a1565b905082815260208101848484011115612bd357612bd261282f565b5b612bde8482856128eb565b509392505050565b5f82601f830112612bfa57612bf961282b565b5b8135612c0a848260208601612ba5565b91505092915050565b5f805f8060808587031215612c2b57612c2a61267d565b5b5f612c38878288016126cb565b945050602085013567ffffffffffffffff811115612c5957612c58612681565b5b612c6587828801612b48565b935050604085013567ffffffffffffffff811115612c8657612c85612681565b5b612c9287828801612b48565b925050606085013567ffffffffffffffff811115612cb357612cb2612681565b5b612cbf87828801612be6565b91505092959194509250565b5f60208284031215612ce057612cdf61267d565b5b5f612ced848285016126cb565b91505092915050565b5f805f805f60a08688031215612d0f57612d0e61267d565b5b5f612d1c888289016126cb565b9550506020612d2d888289016126cb565b945050604086013567ffffffffffffffff811115612d4e57612d4d612681565b5b612d5a88828901612b48565b935050606086013567ffffffffffffffff811115612d7b57612d7a612681565b5b612d8788828901612b48565b925050608086013567ffffffffffffffff811115612da857612da7612681565b5b612db488828901612be6565b9150509295509295909350565b612dca816127f8565b8114612dd4575f80fd5b50565b5f81359050612de581612dc1565b92915050565b5f8060408385031215612e0157612e0061267d565b5b5f612e0e85828601612dd7565b9250506020612e1f85828601612dd7565b9150509250929050565b5f67ffffffffffffffff821115612e4357612e42612843565b5b602082029050602081019050919050565b5f612e66612e6184612e29565b6128a1565b90508083825260208201905060208402830185811115612e8957612e88612adc565b5b835b81811015612eb25780612e9e88826126cb565b845260208401935050602081019050612e8b565b5050509392505050565b5f82601f830112612ed057612ecf61282b565b5b8135612ee0848260208601612e54565b91505092915050565b5f8060408385031215612eff57612efe61267d565b5b5f83013567ffffffffffffffff811115612f1c57612f1b612681565b5b612f2885828601612ebc565b925050602083013567ffffffffffffffff811115612f4957612f48612681565b5b612f5585828601612b48565b9150509250929050565b5f81519050919050565b5f82825260208201905092915050565b5f819050602082019050919050565b612f91816126df565b82525050565b5f612fa28383612f88565b60208301905092915050565b5f602082019050919050565b5f612fc482612f5f565b612fce8185612f69565b9350612fd983612f79565b805f5b83811015613009578151612ff08882612f97565b9750612ffb83612fae565b925050600181019050612fdc565b5085935050505092915050565b5f6020820190508181035f83015261302e8184612fba565b905092915050565b5f80fd5b5f8083601f84011261304f5761304e61282b565b5b8235905067ffffffffffffffff81111561306c5761306b613036565b5b60208301915083602082028301111561308857613087612adc565b5b9250929050565b5f80602083850312156130a5576130a461267d565b5b5f83013567ffffffffffffffff8111156130c2576130c1612681565b5b6130ce8582860161303a565b92509250509250929050565b6130e3816126a4565b82525050565b5f6020820190506130fc5f8301846130da565b92915050565b5f80604083850312156131185761311761267d565b5b5f613125858286016126cb565b925050602061313685828601612dd7565b9150509250929050565b5f80604083850312156131565761315561267d565b5b5f613163858286016126cb565b9250506020613174858286016126cb565b9150509250929050565b5f805f805f60a086880312156131975761319661267d565b5b5f6131a4888289016126cb565b95505060206131b5888289016126cb565b94505060406131c6888289016126fe565b93505060606131d7888289016126fe565b925050608086013567ffffffffffffffff8111156131f8576131f7612681565b5b61320488828901612be6565b9150509295509295909350565b7f555249206572726f722c20746f6b656e20646f6573206e6f74206578697374215f82015250565b5f6132456020836129e3565b915061325082613211565b602082019050919050565b5f6020820190508181035f83015261327281613239565b9050919050565b5f81905092915050565b5f61328d826129d9565b6132978185613279565b93506132a78185602086016129f3565b80840191505092915050565b7f2e6a736f6e0000000000000000000000000000000000000000000000000000005f82015250565b5f6132e7600583613279565b91506132f2826132b3565b600582019050919050565b5f6133088285613283565b91506133148284613283565b915061331f826132db565b91508190509392505050565b7f416c6c6f77206c697374206d696e7420636c6f7365642e0000000000000000005f82015250565b5f61335f6017836129e3565b915061336a8261332b565b602082019050919050565b5f6020820190508181035f83015261338c81613353565b9050919050565b7f596f7520617265206e6f74206f6e2074686520616c6c6f77206c6973742100005f82015250565b5f6133c7601e836129e3565b91506133d282613393565b602082019050919050565b5f6020820190508181035f8301526133f4816133bb565b9050919050565b7f4d696e74696e672077726f6e6720746f6b656e206e756d62657220286f6e6c795f8201527f20302d313020746f6b656e732900000000000000000000000000000000000000602082015250565b5f613455602d836129e3565b9150613460826133fb565b604082019050919050565b5f6020820190508181035f83015261348281613449565b9050919050565b7f4e487b71000000000000000000000000000000000000000000000000000000005f52601160045260245ffd5b5f6134c0826126df565b91506134cb836126df565b92508282019050808211156134e3576134e2613489565b5b92915050565b7f4d617820737570706c7920666f7220746f6b656e20726561636865642e0000005f82015250565b5f61351d601d836129e3565b9150613528826134e9565b602082019050919050565b5f6020820190508181035f83015261354a81613511565b9050919050565b5f61355b826126df565b9150613566836126df565b9250828202613574816126df565b9150828204841483151761358b5761358a613489565b5b5092915050565b7f6e6f7420656e6f7567682066756e64732c20302e3030312045544820706572205f8201527f6d696e7400000000000000000000000000000000000000000000000000000000602082015250565b5f6135ec6024836129e3565b91506135f782613592565b604082019050919050565b5f6020820190508181035f830152613619816135e0565b9050919050565b7f5075626c6963206d696e7420697320636c6f7365642e000000000000000000005f82015250565b5f6136546016836129e3565b915061365f82613620565b602082019050919050565b5f6020820190508181035f83015261368181613648565b9050919050565b7f4e6f7420656e6f7567682066756e64732c20726571756972657320302e3031205f8201527f4554480000000000000000000000000000000000000000000000000000000000602082015250565b5f6136e26023836129e3565b91506136ed82613688565b604082019050919050565b5f6020820190508181035f83015261370f816136d6565b9050919050565b5f6040820190506137295f8301856130da565b61373660208301846130da565b9392505050565b5f6040820190506137505f830185612750565b61375d6020830184612750565b9392505050565b7f4e487b71000000000000000000000000000000000000000000000000000000005f52603260045260245ffd5b7f4e487b71000000000000000000000000000000000000000000000000000000005f52602260045260245ffd5b5f60028204905060018216806137d557607f821691505b6020821081036137e8576137e7613791565b5b50919050565b5f819050815f5260205f209050919050565b5f6020601f8301049050919050565b5f82821b905092915050565b5f6008830261384a7fffffffffffffffffffffffffffffffffffffffffffffffffffffffffffffffff8261380f565b613854868361380f565b95508019841693508086168417925050509392505050565b5f819050919050565b5f61388f61388a613885846126df565b61386c565b6126df565b9050919050565b5f819050919050565b6138a883613875565b6138bc6138b482613896565b84845461381b565b825550505050565b5f90565b6138d06138c4565b6138db81848461389f565b505050565b5b818110156138fe576138f35f826138c8565b6001810190506138e1565b5050565b601f82111561394357613914816137ee565b61391d84613800565b8101602085101561392c578190505b61394061393885613800565b8301826138e0565b50505b505050565b5f82821c905092915050565b5f6139635f1984600802613948565b1980831691505092915050565b5f61397b8383613954565b9150826002028217905092915050565b613994826129d9565b67ffffffffffffffff8111156139ad576139ac612843565b5b6139b782546137be565b6139c2828285613902565b5f60209050601f8311600181146139f3575f84156139e1578287015190505b6139eb8582613970565b865550613a52565b601f198416613a01866137ee565b5f5b82811015613a2857848901518255600182019150602085019450602081019050613a03565b86831015613a455784890151613a41601f891682613954565b8355505b6001600288020188555050505b505050505050565b7f4e487b71000000000000000000000000000000000000000000000000000000005f52601260045260245ffd5b5f81519050919050565b5f82825260208201905092915050565b5f613aab82613a87565b613ab58185613a91565b9350613ac58185602086016129f3565b613ace81612833565b840191505092915050565b5f60a082019050613aec5f8301886130da565b613af960208301876130da565b613b066040830186612750565b613b136060830185612750565b8181036080830152613b258184613aa1565b90509695505050505050565b5f81519050613b3f816127a3565b92915050565b5f60208284031215613b5a57613b5961267d565b5b5f613b6784828501613b31565b91505092915050565b5f60a082019050613b835f8301886130da565b613b9060208301876130da565b8181036040830152613ba28186612fba565b90508181036060830152613bb68185612fba565b90508181036080830152613bca8184613aa1565b90509695505050505050565b5f608082019050613be95f8301876130da565b613bf66020830186612750565b613c036040830185612750565b613c106060830184612750565b95945050505050565b5f6040820190508181035f830152613c318185612fba565b90508181036020830152613c458184612fba565b9050939250505056fea2646970667358221220020ef4cb7e6cedec9e82a2bc5d3ec1b3056d183aaf89d26043587c9418f3e33064736f6c63430008160033697066733a2f2f516d5938736e39637034466d7256635165625379686f4e34313936586b57644e6d664d53727057566e78574a4c702f",
			"opcodes": "PUSH1 0x80 PUSH1 0x40 MSTORE PUSH7 0x2386F26FC10000 PUSH1 0x6 SSTORE PUSH7 0x38D7EA4C68000 PUSH1 0x7 SSTORE PUSH1 0x2 PUSH1 0x8 SSTORE PUSH1 0xA PUSH1 0x9 SSTORE PUSH0 PUSH1 0xA PUSH0 PUSH2 0x100 EXP DUP2 SLOAD DUP2 PUSH1 0xFF MUL NOT AND SWAP1 DUP4 ISZERO ISZERO MUL OR SWAP1 SSTORE POP PUSH0 PUSH1 0xA PUSH1 0x1 PUSH2 0x100 EXP DUP2 SLOAD DUP2 PUSH1 0xFF MUL NOT AND SWAP1 DUP4 ISZERO ISZERO MUL OR SWAP1 SSTORE POP CALLVALUE DUP1 ISZERO PUSH3 0x63 JUMPI PUSH0 DUP1 REVERT JUMPDEST POP PUSH1 0x40 MLOAD PUSH3 0x4305 CODESIZE SUB DUP1 PUSH3 0x4305 DUP4 CODECOPY DUP2 DUP2 ADD PUSH1 0x40 MSTORE DUP2 ADD SWAP1 PUSH3 0x89 SWAP2 SWAP1 PUSH3 0x299 JUMP JUMPDEST DUP1 PUSH1 0x40 MLOAD DUP1 PUSH1 0x60 ADD PUSH1 0x40 MSTORE DUP1 PUSH1 0x36 DUP2 MSTORE PUSH1 0x20 ADD PUSH3 0x42CF PUSH1 0x36 SWAP2 CODECOPY PUSH3 0xB5 DUP2 PUSH3 0x15C PUSH1 0x20 SHL PUSH1 0x20 SHR JUMP JUMPDEST POP PUSH0 PUSH20 0xFFFFFFFFFFFFFFFFFFFFFFFFFFFFFFFFFFFFFFFF AND DUP2 PUSH20 0xFFFFFFFFFFFFFFFFFFFFFFFFFFFFFFFFFFFFFFFF AND SUB PUSH3 0x129 JUMPI PUSH0 PUSH1 0x40 MLOAD PUSH32 0x1E4FBDF700000000000000000000000000000000000000000000000000000000 DUP2 MSTORE PUSH1 0x4 ADD PUSH3 0x120 SWAP2 SWAP1 PUSH3 0x2DA JUMP JUMPDEST PUSH1 0x40 MLOAD DUP1 SWAP2 SUB SWAP1 REVERT JUMPDEST PUSH3 0x13A DUP2 PUSH3 0x171 PUSH1 0x20 SHL PUSH1 0x20 SHR JUMP JUMPDEST POP PUSH0 PUSH1 0x3 PUSH1 0x14 PUSH2 0x100 EXP DUP2 SLOAD DUP2 PUSH1 0xFF MUL NOT AND SWAP1 DUP4 ISZERO ISZERO MUL OR SWAP1 SSTORE POP POP PUSH3 0x63D JUMP JUMPDEST DUP1 PUSH1 0x2 SWAP1 DUP2 PUSH3 0x16D SWAP2 SWAP1 PUSH3 0x559 JUMP JUMPDEST POP POP JUMP JUMPDEST PUSH0 PUSH1 0x3 PUSH0 SWAP1 SLOAD SWAP1 PUSH2 0x100 EXP SWAP1 DIV PUSH20 0xFFFFFFFFFFFFFFFFFFFFFFFFFFFFFFFFFFFFFFFF AND SWAP1 POP DUP2 PUSH1 0x3 PUSH0 PUSH2 0x100 EXP DUP2 SLOAD DUP2 PUSH20 0xFFFFFFFFFFFFFFFFFFFFFFFFFFFFFFFFFFFFFFFF MUL NOT AND SWAP1 DUP4 PUSH20 0xFFFFFFFFFFFFFFFFFFFFFFFFFFFFFFFFFFFFFFFF AND MUL OR SWAP1 SSTORE POP DUP2 PUSH20 0xFFFFFFFFFFFFFFFFFFFFFFFFFFFFFFFFFFFFFFFF AND DUP2 PUSH20 0xFFFFFFFFFFFFFFFFFFFFFFFFFFFFFFFFFFFFFFFF AND PUSH32 0x8BE0079C531659141344CD1FD0A4F28419497F9722A3DAAFE3B4186F6B6457E0 PUSH1 0x40 MLOAD PUSH1 0x40 MLOAD DUP1 SWAP2 SUB SWAP1 LOG3 POP POP JUMP JUMPDEST PUSH0 DUP1 REVERT JUMPDEST PUSH0 PUSH20 0xFFFFFFFFFFFFFFFFFFFFFFFFFFFFFFFFFFFFFFFF DUP3 AND SWAP1 POP SWAP2 SWAP1 POP JUMP JUMPDEST PUSH0 PUSH3 0x263 DUP3 PUSH3 0x238 JUMP JUMPDEST SWAP1 POP SWAP2 SWAP1 POP JUMP JUMPDEST PUSH3 0x275 DUP2 PUSH3 0x257 JUMP JUMPDEST DUP2 EQ PUSH3 0x280 JUMPI PUSH0 DUP1 REVERT JUMPDEST POP JUMP JUMPDEST PUSH0 DUP2 MLOAD SWAP1 POP PUSH3 0x293 DUP2 PUSH3 0x26A JUMP JUMPDEST SWAP3 SWAP2 POP POP JUMP JUMPDEST PUSH0 PUSH1 0x20 DUP3 DUP5 SUB SLT ISZERO PUSH3 0x2B1 JUMPI PUSH3 0x2B0 PUSH3 0x234 JUMP JUMPDEST JUMPDEST PUSH0 PUSH3 0x2C0 DUP5 DUP3 DUP6 ADD PUSH3 0x283 JUMP JUMPDEST SWAP2 POP POP SWAP3 SWAP2 POP POP JUMP JUMPDEST PUSH3 0x2D4 DUP2 PUSH3 0x257 JUMP JUMPDEST DUP3 MSTORE POP POP JUMP JUMPDEST PUSH0 PUSH1 0x20 DUP3 ADD SWAP1 POP PUSH3 0x2EF PUSH0 DUP4 ADD DUP5 PUSH3 0x2C9 JUMP JUMPDEST SWAP3 SWAP2 POP POP JUMP JUMPDEST PUSH0 DUP2 MLOAD SWAP1 POP SWAP2 SWAP1 POP JUMP JUMPDEST PUSH32 0x4E487B7100000000000000000000000000000000000000000000000000000000 PUSH0 MSTORE PUSH1 0x41 PUSH1 0x4 MSTORE PUSH1 0x24 PUSH0 REVERT JUMPDEST PUSH32 0x4E487B7100000000000000000000000000000000000000000000000000000000 PUSH0 MSTORE PUSH1 0x22 PUSH1 0x4 MSTORE PUSH1 0x24 PUSH0 REVERT JUMPDEST PUSH0 PUSH1 0x2 DUP3 DIV SWAP1 POP PUSH1 0x1 DUP3 AND DUP1 PUSH3 0x371 JUMPI PUSH1 0x7F DUP3 AND SWAP2 POP JUMPDEST PUSH1 0x20 DUP3 LT DUP2 SUB PUSH3 0x387 JUMPI PUSH3 0x386 PUSH3 0x32C JUMP JUMPDEST JUMPDEST POP SWAP2 SWAP1 POP JUMP JUMPDEST PUSH0 DUP2 SWAP1 POP DUP2 PUSH0 MSTORE PUSH1 0x20 PUSH0 KECCAK256 SWAP1 POP SWAP2 SWAP1 POP JUMP JUMPDEST PUSH0 PUSH1 0x20 PUSH1 0x1F DUP4 ADD DIV SWAP1 POP SWAP2 SWAP1 POP JUMP JUMPDEST PUSH0 DUP3 DUP3 SHL SWAP1 POP SWAP3 SWAP2 POP POP JUMP JUMPDEST PUSH0 PUSH1 0x8 DUP4 MUL PUSH3 0x3EB PUSH32 0xFFFFFFFFFFFFFFFFFFFFFFFFFFFFFFFFFFFFFFFFFFFFFFFFFFFFFFFFFFFFFFFF DUP3 PUSH3 0x3AE JUMP JUMPDEST PUSH3 0x3F7 DUP7 DUP4 PUSH3 0x3AE JUMP JUMPDEST SWAP6 POP DUP1 NOT DUP5 AND SWAP4 POP DUP1 DUP7 AND DUP5 OR SWAP3 POP POP POP SWAP4 SWAP3 POP POP POP JUMP JUMPDEST PUSH0 DUP2 SWAP1 POP SWAP2 SWAP1 POP JUMP JUMPDEST PUSH0 DUP2 SWAP1 POP SWAP2 SWAP1 POP JUMP JUMPDEST PUSH0 PUSH3 0x441 PUSH3 0x43B PUSH3 0x435 DUP5 PUSH3 0x40F JUMP JUMPDEST PUSH3 0x418 JUMP JUMPDEST PUSH3 0x40F JUMP JUMPDEST SWAP1 POP SWAP2 SWAP1 POP JUMP JUMPDEST PUSH0 DUP2 SWAP1 POP SWAP2 SWAP1 POP JUMP JUMPDEST PUSH3 0x45C DUP4 PUSH3 0x421 JUMP JUMPDEST PUSH3 0x474 PUSH3 0x46B DUP3 PUSH3 0x448 JUMP JUMPDEST DUP5 DUP5 SLOAD PUSH3 0x3BA JUMP JUMPDEST DUP3 SSTORE POP POP POP POP JUMP JUMPDEST PUSH0 SWAP1 JUMP JUMPDEST PUSH3 0x48A PUSH3 0x47C JUMP JUMPDEST PUSH3 0x497 DUP2 DUP5 DUP5 PUSH3 0x451 JUMP JUMPDEST POP POP POP JUMP JUMPDEST JUMPDEST DUP2 DUP2 LT ISZERO PUSH3 0x4BE JUMPI PUSH3 0x4B2 PUSH0 DUP3 PUSH3 0x480 JUMP JUMPDEST PUSH1 0x1 DUP2 ADD SWAP1 POP PUSH3 0x49D JUMP JUMPDEST POP POP JUMP JUMPDEST PUSH1 0x1F DUP3 GT ISZERO PUSH3 0x50D JUMPI PUSH3 0x4D7 DUP2 PUSH3 0x38D JUMP JUMPDEST PUSH3 0x4E2 DUP5 PUSH3 0x39F JUMP JUMPDEST DUP2 ADD PUSH1 0x20 DUP6 LT ISZERO PUSH3 0x4F2 JUMPI DUP2 SWAP1 POP JUMPDEST PUSH3 0x50A PUSH3 0x501 DUP6 PUSH3 0x39F JUMP JUMPDEST DUP4 ADD DUP3 PUSH3 0x49C JUMP JUMPDEST POP POP JUMPDEST POP POP POP JUMP JUMPDEST PUSH0 DUP3 DUP3 SHR SWAP1 POP SWAP3 SWAP2 POP POP JUMP JUMPDEST PUSH0 PUSH3 0x52F PUSH0 NOT DUP5 PUSH1 0x8 MUL PUSH3 0x512 JUMP JUMPDEST NOT DUP1 DUP4 AND SWAP2 POP POP SWAP3 SWAP2 POP POP JUMP JUMPDEST PUSH0 PUSH3 0x549 DUP4 DUP4 PUSH3 0x51E JUMP JUMPDEST SWAP2 POP DUP3 PUSH1 0x2 MUL DUP3 OR SWAP1 POP SWAP3 SWAP2 POP POP JUMP JUMPDEST PUSH3 0x564 DUP3 PUSH3 0x2F5 JUMP JUMPDEST PUSH8 0xFFFFFFFFFFFFFFFF DUP2 GT ISZERO PUSH3 0x580 JUMPI PUSH3 0x57F PUSH3 0x2FF JUMP JUMPDEST JUMPDEST PUSH3 0x58C DUP3 SLOAD PUSH3 0x359 JUMP JUMPDEST PUSH3 0x599 DUP3 DUP3 DUP6 PUSH3 0x4C2 JUMP JUMPDEST PUSH0 PUSH1 0x20 SWAP1 POP PUSH1 0x1F DUP4 GT PUSH1 0x1 DUP2 EQ PUSH3 0x5CF JUMPI PUSH0 DUP5 ISZERO PUSH3 0x5BA JUMPI DUP3 DUP8 ADD MLOAD SWAP1 POP JUMPDEST PUSH3 0x5C6 DUP6 DUP3 PUSH3 0x53C JUMP JUMPDEST DUP7 SSTORE POP PUSH3 0x635 JUMP JUMPDEST PUSH1 0x1F NOT DUP5 AND PUSH3 0x5DF DUP7 PUSH3 0x38D JUMP JUMPDEST PUSH0 JUMPDEST DUP3 DUP2 LT ISZERO PUSH3 0x608 JUMPI DUP5 DUP10 ADD MLOAD DUP3 SSTORE PUSH1 0x1 DUP3 ADD SWAP2 POP PUSH1 0x20 DUP6 ADD SWAP5 POP PUSH1 0x20 DUP2 ADD SWAP1 POP PUSH3 0x5E1 JUMP JUMPDEST DUP7 DUP4 LT ISZERO PUSH3 0x628 JUMPI DUP5 DUP10 ADD MLOAD PUSH3 0x624 PUSH1 0x1F DUP10 AND DUP3 PUSH3 0x51E JUMP JUMPDEST DUP4 SSTORE POP JUMPDEST PUSH1 0x1 PUSH1 0x2 DUP9 MUL ADD DUP9 SSTORE POP POP POP JUMPDEST POP POP POP POP POP POP JUMP JUMPDEST PUSH2 0x3C84 DUP1 PUSH3 0x64B PUSH0 CODECOPY PUSH0 RETURN INVALID PUSH1 0x80 PUSH1 0x40 MSTORE PUSH1 0x4 CALLDATASIZE LT PUSH2 0x1E1 JUMPI PUSH0 CALLDATALOAD PUSH1 0xE0 SHR DUP1 PUSH4 0x5C975ABB GT PUSH2 0x101 JUMPI DUP1 PUSH4 0xA24E5153 GT PUSH2 0x94 JUMPI DUP1 PUSH4 0xD75E0293 GT PUSH2 0x63 JUMPI DUP1 PUSH4 0xD75E0293 EQ PUSH2 0x695 JUMPI DUP1 PUSH4 0xE985E9C5 EQ PUSH2 0x6BD JUMPI DUP1 PUSH4 0xF242432A EQ PUSH2 0x6F9 JUMPI DUP1 PUSH4 0xF2FDE38B EQ PUSH2 0x721 JUMPI PUSH2 0x1E1 JUMP JUMPDEST DUP1 PUSH4 0xA24E5153 EQ PUSH2 0x5DB JUMPI DUP1 PUSH4 0xA945BF80 EQ PUSH2 0x605 JUMPI DUP1 PUSH4 0xBCC9CA5B EQ PUSH2 0x62F JUMPI DUP1 PUSH4 0xBD85B039 EQ PUSH2 0x659 JUMPI PUSH2 0x1E1 JUMP JUMPDEST DUP1 PUSH4 0x715018A6 GT PUSH2 0xD0 JUMPI DUP1 PUSH4 0x715018A6 EQ PUSH2 0x55D JUMPI DUP1 PUSH4 0x8456CB59 EQ PUSH2 0x573 JUMPI DUP1 PUSH4 0x8DA5CB5B EQ PUSH2 0x589 JUMPI DUP1 PUSH4 0xA22CB465 EQ PUSH2 0x5B3 JUMPI PUSH2 0x1E1 JUMP JUMPDEST DUP1 PUSH4 0x5C975ABB EQ PUSH2 0x4B7 JUMPI DUP1 PUSH4 0x6447C35D EQ PUSH2 0x4E1 JUMPI DUP1 PUSH4 0x665CCFB4 EQ PUSH2 0x509 JUMPI DUP1 PUSH4 0x69396069 EQ PUSH2 0x533 JUMPI PUSH2 0x1E1 JUMP JUMPDEST DUP1 PUSH4 0x1F7FDFFA GT PUSH2 0x179 JUMPI DUP1 PUSH4 0x3F4BA83A GT PUSH2 0x148 JUMPI DUP1 PUSH4 0x3F4BA83A EQ PUSH2 0x401 JUMPI DUP1 PUSH4 0x4E1273F4 EQ PUSH2 0x417 JUMPI DUP1 PUSH4 0x4F558E79 EQ PUSH2 0x453 JUMPI DUP1 PUSH4 0x51CFF8D9 EQ PUSH2 0x48F JUMPI PUSH2 0x1E1 JUMP JUMPDEST DUP1 PUSH4 0x1F7FDFFA EQ PUSH2 0x34D JUMPI DUP1 PUSH4 0x2848AEAF EQ PUSH2 0x375 JUMPI DUP1 PUSH4 0x2EB2C2D6 EQ PUSH2 0x3B1 JUMPI DUP1 PUSH4 0x2F48DE79 EQ PUSH2 0x3D9 JUMPI PUSH2 0x1E1 JUMP JUMPDEST DUP1 PUSH4 0xE89341C GT PUSH2 0x1B5 JUMPI DUP1 PUSH4 0xE89341C EQ PUSH2 0x2AF JUMPI DUP1 PUSH4 0x128AC91B EQ PUSH2 0x2EB JUMPI DUP1 PUSH4 0x18160DDD EQ PUSH2 0x307 JUMPI DUP1 PUSH4 0x1B2EF1CA EQ PUSH2 0x331 JUMPI PUSH2 0x1E1 JUMP JUMPDEST DUP1 PUSH3 0xFDD58E EQ PUSH2 0x1E5 JUMPI DUP1 PUSH4 0x1FFC9A7 EQ PUSH2 0x221 JUMPI DUP1 PUSH4 0x2FE5305 EQ PUSH2 0x25D JUMPI DUP1 PUSH4 0x85C9BAC EQ PUSH2 0x285 JUMPI JUMPDEST PUSH0 DUP1 REVERT JUMPDEST CALLVALUE DUP1 ISZERO PUSH2 0x1F0 JUMPI PUSH0 DUP1 REVERT JUMPDEST POP PUSH2 0x20B PUSH1 0x4 DUP1 CALLDATASIZE SUB DUP2 ADD SWAP1 PUSH2 0x206 SWAP2 SWAP1 PUSH2 0x2712 JUMP JUMPDEST PUSH2 0x749 JUMP JUMPDEST PUSH1 0x40 MLOAD PUSH2 0x218 SWAP2 SWAP1 PUSH2 0x275F JUMP JUMPDEST PUSH1 0x40 MLOAD DUP1 SWAP2 SUB SWAP1 RETURN JUMPDEST CALLVALUE DUP1 ISZERO PUSH2 0x22C JUMPI PUSH0 DUP1 REVERT JUMPDEST POP PUSH2 0x247 PUSH1 0x4 DUP1 CALLDATASIZE SUB DUP2 ADD SWAP1 PUSH2 0x242 SWAP2 SWAP1 PUSH2 0x27CD JUMP JUMPDEST PUSH2 0x79E JUMP JUMPDEST PUSH1 0x40 MLOAD PUSH2 0x254 SWAP2 SWAP1 PUSH2 0x2812 JUMP JUMPDEST PUSH1 0x40 MLOAD DUP1 SWAP2 SUB SWAP1 RETURN JUMPDEST CALLVALUE DUP1 ISZERO PUSH2 0x268 JUMPI PUSH0 DUP1 REVERT JUMPDEST POP PUSH2 0x283 PUSH1 0x4 DUP1 CALLDATASIZE SUB DUP2 ADD SWAP1 PUSH2 0x27E SWAP2 SWAP1 PUSH2 0x2967 JUMP JUMPDEST PUSH2 0x87F JUMP JUMPDEST STOP JUMPDEST CALLVALUE DUP1 ISZERO PUSH2 0x290 JUMPI PUSH0 DUP1 REVERT JUMPDEST POP PUSH2 0x299 PUSH2 0x893 JUMP JUMPDEST PUSH1 0x40 MLOAD PUSH2 0x2A6 SWAP2 SWAP1 PUSH2 0x2812 JUMP JUMPDEST PUSH1 0x40 MLOAD DUP1 SWAP2 SUB SWAP1 RETURN JUMPDEST CALLVALUE DUP1 ISZERO PUSH2 0x2BA JUMPI PUSH0 DUP1 REVERT JUMPDEST POP PUSH2 0x2D5 PUSH1 0x4 DUP1 CALLDATASIZE SUB DUP2 ADD SWAP1 PUSH2 0x2D0 SWAP2 SWAP1 PUSH2 0x29AE JUMP JUMPDEST PUSH2 0x8A6 JUMP JUMPDEST PUSH1 0x40 MLOAD PUSH2 0x2E2 SWAP2 SWAP1 PUSH2 0x2A53 JUMP JUMPDEST PUSH1 0x40 MLOAD DUP1 SWAP2 SUB SWAP1 RETURN JUMPDEST PUSH2 0x305 PUSH1 0x4 DUP1 CALLDATASIZE SUB DUP2 ADD SWAP1 PUSH2 0x300 SWAP2 SWAP1 PUSH2 0x2A73 JUMP JUMPDEST PUSH2 0x929 JUMP JUMPDEST STOP JUMPDEST CALLVALUE DUP1 ISZERO PUSH2 0x312 JUMPI PUSH0 DUP1 REVERT JUMPDEST POP PUSH2 0x31B PUSH2 0xB0A JUMP JUMPDEST PUSH1 0x40 MLOAD PUSH2 0x328 SWAP2 SWAP1 PUSH2 0x275F JUMP JUMPDEST PUSH1 0x40 MLOAD DUP1 SWAP2 SUB SWAP1 RETURN JUMPDEST PUSH2 0x34B PUSH1 0x4 DUP1 CALLDATASIZE SUB DUP2 ADD SWAP1 PUSH2 0x346 SWAP2 SWAP1 PUSH2 0x2A73 JUMP JUMPDEST PUSH2 0xB13 JUMP JUMPDEST STOP JUMPDEST CALLVALUE DUP1 ISZERO PUSH2 0x358 JUMPI PUSH0 DUP1 REVERT JUMPDEST POP PUSH2 0x373 PUSH1 0x4 DUP1 CALLDATASIZE SUB DUP2 ADD SWAP1 PUSH2 0x36E SWAP2 SWAP1 PUSH2 0x2C13 JUMP JUMPDEST PUSH2 0xC6A JUMP JUMPDEST STOP JUMPDEST CALLVALUE DUP1 ISZERO PUSH2 0x380 JUMPI PUSH0 DUP1 REVERT JUMPDEST POP PUSH2 0x39B PUSH1 0x4 DUP1 CALLDATASIZE SUB DUP2 ADD SWAP1 PUSH2 0x396 SWAP2 SWAP1 PUSH2 0x2CCB JUMP JUMPDEST PUSH2 0xC84 JUMP JUMPDEST PUSH1 0x40 MLOAD PUSH2 0x3A8 SWAP2 SWAP1 PUSH2 0x2812 JUMP JUMPDEST PUSH1 0x40 MLOAD DUP1 SWAP2 SUB SWAP1 RETURN JUMPDEST CALLVALUE DUP1 ISZERO PUSH2 0x3BC JUMPI PUSH0 DUP1 REVERT JUMPDEST POP PUSH2 0x3D7 PUSH1 0x4 DUP1 CALLDATASIZE SUB DUP2 ADD SWAP1 PUSH2 0x3D2 SWAP2 SWAP1 PUSH2 0x2CF6 JUMP JUMPDEST PUSH2 0xCA1 JUMP JUMPDEST STOP JUMPDEST CALLVALUE DUP1 ISZERO PUSH2 0x3E4 JUMPI PUSH0 DUP1 REVERT JUMPDEST POP PUSH2 0x3FF PUSH1 0x4 DUP1 CALLDATASIZE SUB DUP2 ADD SWAP1 PUSH2 0x3FA SWAP2 SWAP1 PUSH2 0x2DEB JUMP JUMPDEST PUSH2 0xD48 JUMP JUMPDEST STOP JUMPDEST CALLVALUE DUP1 ISZERO PUSH2 0x40C JUMPI PUSH0 DUP1 REVERT JUMPDEST POP PUSH2 0x415 PUSH2 0xD87 JUMP JUMPDEST STOP JUMPDEST CALLVALUE DUP1 ISZERO PUSH2 0x422 JUMPI PUSH0 DUP1 REVERT JUMPDEST POP PUSH2 0x43D PUSH1 0x4 DUP1 CALLDATASIZE SUB DUP2 ADD SWAP1 PUSH2 0x438 SWAP2 SWAP1 PUSH2 0x2EE9 JUMP JUMPDEST PUSH2 0xD99 JUMP JUMPDEST PUSH1 0x40 MLOAD PUSH2 0x44A SWAP2 SWAP1 PUSH2 0x3016 JUMP JUMPDEST PUSH1 0x40 MLOAD DUP1 SWAP2 SUB SWAP1 RETURN JUMPDEST CALLVALUE DUP1 ISZERO PUSH2 0x45E JUMPI PUSH0 DUP1 REVERT JUMPDEST POP PUSH2 0x479 PUSH1 0x4 DUP1 CALLDATASIZE SUB DUP2 ADD SWAP1 PUSH2 0x474 SWAP2 SWAP1 PUSH2 0x29AE JUMP JUMPDEST PUSH2 0xEA0 JUMP JUMPDEST PUSH1 0x40 MLOAD PUSH2 0x486 SWAP2 SWAP1 PUSH2 0x2812 JUMP JUMPDEST PUSH1 0x40 MLOAD DUP1 SWAP2 SUB SWAP1 RETURN JUMPDEST CALLVALUE DUP1 ISZERO PUSH2 0x49A JUMPI PUSH0 DUP1 REVERT JUMPDEST POP PUSH2 0x4B5 PUSH1 0x4 DUP1 CALLDATASIZE SUB DUP2 ADD SWAP1 PUSH2 0x4B0 SWAP2 SWAP1 PUSH2 0x2CCB JUMP JUMPDEST PUSH2 0xEB3 JUMP JUMPDEST STOP JUMPDEST CALLVALUE DUP1 ISZERO PUSH2 0x4C2 JUMPI PUSH0 DUP1 REVERT JUMPDEST POP PUSH2 0x4CB PUSH2 0xF07 JUMP JUMPDEST PUSH1 0x40 MLOAD PUSH2 0x4D8 SWAP2 SWAP1 PUSH2 0x2812 JUMP JUMPDEST PUSH1 0x40 MLOAD DUP1 SWAP2 SUB SWAP1 RETURN JUMPDEST CALLVALUE DUP1 ISZERO PUSH2 0x4EC JUMPI PUSH0 DUP1 REVERT JUMPDEST POP PUSH2 0x507 PUSH1 0x4 DUP1 CALLDATASIZE SUB DUP2 ADD SWAP1 PUSH2 0x502 SWAP2 SWAP1 PUSH2 0x308F JUMP JUMPDEST PUSH2 0xF1D JUMP JUMPDEST STOP JUMPDEST CALLVALUE DUP1 ISZERO PUSH2 0x514 JUMPI PUSH0 DUP1 REVERT JUMPDEST POP PUSH2 0x51D PUSH2 0xFC0 JUMP JUMPDEST PUSH1 0x40 MLOAD PUSH2 0x52A SWAP2 SWAP1 PUSH2 0x275F JUMP JUMPDEST PUSH1 0x40 MLOAD DUP1 SWAP2 SUB SWAP1 RETURN JUMPDEST CALLVALUE DUP1 ISZERO PUSH2 0x53E JUMPI PUSH0 DUP1 REVERT JUMPDEST POP PUSH2 0x547 PUSH2 0xFC6 JUMP JUMPDEST PUSH1 0x40 MLOAD PUSH2 0x554 SWAP2 SWAP1 PUSH2 0x275F JUMP JUMPDEST PUSH1 0x40 MLOAD DUP1 SWAP2 SUB SWAP1 RETURN JUMPDEST CALLVALUE DUP1 ISZERO PUSH2 0x568 JUMPI PUSH0 DUP1 REVERT JUMPDEST POP PUSH2 0x571 PUSH2 0xFCC JUMP JUMPDEST STOP JUMPDEST CALLVALUE DUP1 ISZERO PUSH2 0x57E JUMPI PUSH0 DUP1 REVERT JUMPDEST POP PUSH2 0x587 PUSH2 0xFDF JUMP JUMPDEST STOP JUMPDEST CALLVALUE DUP1 ISZERO PUSH2 0x594 JUMPI PUSH0 DUP1 REVERT JUMPDEST POP PUSH2 0x59D PUSH2 0xFF1 JUMP JUMPDEST PUSH1 0x40 MLOAD PUSH2 0x5AA SWAP2 SWAP1 PUSH2 0x30E9 JUMP JUMPDEST PUSH1 0x40 MLOAD DUP1 SWAP2 SUB SWAP1 RETURN JUMPDEST CALLVALUE DUP1 ISZERO PUSH2 0x5BE JUMPI PUSH0 DUP1 REVERT JUMPDEST POP PUSH2 0x5D9 PUSH1 0x4 DUP1 CALLDATASIZE SUB DUP2 ADD SWAP1 PUSH2 0x5D4 SWAP2 SWAP1 PUSH2 0x3102 JUMP JUMPDEST PUSH2 0x1019 JUMP JUMPDEST STOP JUMPDEST CALLVALUE DUP1 ISZERO PUSH2 0x5E6 JUMPI PUSH0 DUP1 REVERT JUMPDEST POP PUSH2 0x5EF PUSH2 0x102F JUMP JUMPDEST PUSH1 0x40 MLOAD PUSH2 0x5FC SWAP2 SWAP1 PUSH2 0x275F JUMP JUMPDEST PUSH1 0x40 MLOAD DUP1 SWAP2 SUB SWAP1 RETURN JUMPDEST CALLVALUE DUP1 ISZERO PUSH2 0x610 JUMPI PUSH0 DUP1 REVERT JUMPDEST POP PUSH2 0x619 PUSH2 0x1035 JUMP JUMPDEST PUSH1 0x40 MLOAD PUSH2 0x626 SWAP2 SWAP1 PUSH2 0x275F JUMP JUMPDEST PUSH1 0x40 MLOAD DUP1 SWAP2 SUB SWAP1 RETURN JUMPDEST CALLVALUE DUP1 ISZERO PUSH2 0x63A JUMPI PUSH0 DUP1 REVERT JUMPDEST POP PUSH2 0x643 PUSH2 0x103B JUMP JUMPDEST PUSH1 0x40 MLOAD PUSH2 0x650 SWAP2 SWAP1 PUSH2 0x2812 JUMP JUMPDEST PUSH1 0x40 MLOAD DUP1 SWAP2 SUB SWAP1 RETURN JUMPDEST CALLVALUE DUP1 ISZERO PUSH2 0x664 JUMPI PUSH0 DUP1 REVERT JUMPDEST POP PUSH2 0x67F PUSH1 0x4 DUP1 CALLDATASIZE SUB DUP2 ADD SWAP1 PUSH2 0x67A SWAP2 SWAP1 PUSH2 0x29AE JUMP JUMPDEST PUSH2 0x104D JUMP JUMPDEST PUSH1 0x40 MLOAD PUSH2 0x68C SWAP2 SWAP1 PUSH2 0x275F JUMP JUMPDEST PUSH1 0x40 MLOAD DUP1 SWAP2 SUB SWAP1 RETURN JUMPDEST CALLVALUE DUP1 ISZERO PUSH2 0x6A0 JUMPI PUSH0 DUP1 REVERT JUMPDEST POP PUSH2 0x6BB PUSH1 0x4 DUP1 CALLDATASIZE SUB DUP2 ADD SWAP1 PUSH2 0x6B6 SWAP2 SWAP1 PUSH2 0x3102 JUMP JUMPDEST PUSH2 0x1067 JUMP JUMPDEST STOP JUMPDEST CALLVALUE DUP1 ISZERO PUSH2 0x6C8 JUMPI PUSH0 DUP1 REVERT JUMPDEST POP PUSH2 0x6E3 PUSH1 0x4 DUP1 CALLDATASIZE SUB DUP2 ADD SWAP1 PUSH2 0x6DE SWAP2 SWAP1 PUSH2 0x3140 JUMP JUMPDEST PUSH2 0x10C7 JUMP JUMPDEST PUSH1 0x40 MLOAD PUSH2 0x6F0 SWAP2 SWAP1 PUSH2 0x2812 JUMP JUMPDEST PUSH1 0x40 MLOAD DUP1 SWAP2 SUB SWAP1 RETURN JUMPDEST CALLVALUE DUP1 ISZERO PUSH2 0x704 JUMPI PUSH0 DUP1 REVERT JUMPDEST POP PUSH2 0x71F PUSH1 0x4 DUP1 CALLDATASIZE SUB DUP2 ADD SWAP1 PUSH2 0x71A SWAP2 SWAP1 PUSH2 0x317E JUMP JUMPDEST PUSH2 0x1155 JUMP JUMPDEST STOP JUMPDEST CALLVALUE DUP1 ISZERO PUSH2 0x72C JUMPI PUSH0 DUP1 REVERT JUMPDEST POP PUSH2 0x747 PUSH1 0x4 DUP1 CALLDATASIZE SUB DUP2 ADD SWAP1 PUSH2 0x742 SWAP2 SWAP1 PUSH2 0x2CCB JUMP JUMPDEST PUSH2 0x11FC JUMP JUMPDEST STOP JUMPDEST PUSH0 DUP1 PUSH0 DUP4 DUP2 MSTORE PUSH1 0x20 ADD SWAP1 DUP2 MSTORE PUSH1 0x20 ADD PUSH0 KECCAK256 PUSH0 DUP5 PUSH20 0xFFFFFFFFFFFFFFFFFFFFFFFFFFFFFFFFFFFFFFFF AND PUSH20 0xFFFFFFFFFFFFFFFFFFFFFFFFFFFFFFFFFFFFFFFF AND DUP2 MSTORE PUSH1 0x20 ADD SWAP1 DUP2 MSTORE PUSH1 0x20 ADD PUSH0 KECCAK256 SLOAD SWAP1 POP SWAP3 SWAP2 POP POP JUMP JUMPDEST PUSH0 PUSH32 0xD9B67A2600000000000000000000000000000000000000000000000000000000 PUSH28 0xFFFFFFFFFFFFFFFFFFFFFFFFFFFFFFFFFFFFFFFFFFFFFFFFFFFFFFFF NOT AND DUP3 PUSH28 0xFFFFFFFFFFFFFFFFFFFFFFFFFFFFFFFFFFFFFFFFFFFFFFFFFFFFFFFF NOT AND EQ DUP1 PUSH2 0x868 JUMPI POP PUSH32 0xE89341C00000000000000000000000000000000000000000000000000000000 PUSH28 0xFFFFFFFFFFFFFFFFFFFFFFFFFFFFFFFFFFFFFFFFFFFFFFFFFFFFFFFF NOT AND DUP3 PUSH28 0xFFFFFFFFFFFFFFFFFFFFFFFFFFFFFFFFFFFFFFFFFFFFFFFFFFFFFFFF NOT AND EQ JUMPDEST DUP1 PUSH2 0x878 JUMPI POP PUSH2 0x877 DUP3 PUSH2 0x1280 JUMP JUMPDEST JUMPDEST SWAP1 POP SWAP2 SWAP1 POP JUMP JUMPDEST PUSH2 0x887 PUSH2 0x12E9 JUMP JUMPDEST PUSH2 0x890 DUP2 PUSH2 0x1370 JUMP JUMPDEST POP JUMP JUMPDEST PUSH1 0xA PUSH1 0x1 SWAP1 SLOAD SWAP1 PUSH2 0x100 EXP SWAP1 DIV PUSH1 0xFF AND DUP2 JUMP JUMPDEST PUSH1 0x60 PUSH2 0x8B1 DUP3 PUSH2 0xEA0 JUMP JUMPDEST PUSH2 0x8F0 JUMPI PUSH1 0x40 MLOAD PUSH32 0x8C379A000000000000000000000000000000000000000000000000000000000 DUP2 MSTORE PUSH1 0x4 ADD PUSH2 0x8E7 SWAP1 PUSH2 0x325B JUMP JUMPDEST PUSH1 0x40 MLOAD DUP1 SWAP2 SUB SWAP1 REVERT JUMPDEST PUSH2 0x8F9 DUP3 PUSH2 0x1383 JUMP JUMPDEST PUSH2 0x902 DUP4 PUSH2 0x1415 JUMP JUMPDEST PUSH1 0x40 MLOAD PUSH1 0x20 ADD PUSH2 0x913 SWAP3 SWAP2 SWAP1 PUSH2 0x32FD JUMP JUMPDEST PUSH1 0x40 MLOAD PUSH1 0x20 DUP2 DUP4 SUB SUB DUP2 MSTORE SWAP1 PUSH1 0x40 MSTORE SWAP1 POP SWAP2 SWAP1 POP JUMP JUMPDEST PUSH1 0xA PUSH1 0x1 SWAP1 SLOAD SWAP1 PUSH2 0x100 EXP SWAP1 DIV PUSH1 0xFF AND PUSH2 0x978 JUMPI PUSH1 0x40 MLOAD PUSH32 0x8C379A000000000000000000000000000000000000000000000000000000000 DUP2 MSTORE PUSH1 0x4 ADD PUSH2 0x96F SWAP1 PUSH2 0x3375 JUMP JUMPDEST PUSH1 0x40 MLOAD DUP1 SWAP2 SUB SWAP1 REVERT JUMPDEST PUSH1 0xB PUSH0 CALLER PUSH20 0xFFFFFFFFFFFFFFFFFFFFFFFFFFFFFFFFFFFFFFFF AND PUSH20 0xFFFFFFFFFFFFFFFFFFFFFFFFFFFFFFFFFFFFFFFF AND DUP2 MSTORE PUSH1 0x20 ADD SWAP1 DUP2 MSTORE PUSH1 0x20 ADD PUSH0 KECCAK256 PUSH0 SWAP1 SLOAD SWAP1 PUSH2 0x100 EXP SWAP1 DIV PUSH1 0xFF AND PUSH2 0xA01 JUMPI PUSH1 0x40 MLOAD PUSH32 0x8C379A000000000000000000000000000000000000000000000000000000000 DUP2 MSTORE PUSH1 0x4 ADD PUSH2 0x9F8 SWAP1 PUSH2 0x33DD JUMP JUMPDEST PUSH1 0x40 MLOAD DUP1 SWAP2 SUB SWAP1 REVERT JUMPDEST PUSH1 0xA DUP3 GT ISZERO PUSH2 0xA45 JUMPI PUSH1 0x40 MLOAD PUSH32 0x8C379A000000000000000000000000000000000000000000000000000000000 DUP2 MSTORE PUSH1 0x4 ADD PUSH2 0xA3C SWAP1 PUSH2 0x346B JUMP JUMPDEST PUSH1 0x40 MLOAD DUP1 SWAP2 SUB SWAP1 REVERT JUMPDEST PUSH1 0x8 SLOAD DUP2 PUSH2 0xA52 DUP5 PUSH2 0x104D JUMP JUMPDEST PUSH2 0xA5C SWAP2 SWAP1 PUSH2 0x34B6 JUMP JUMPDEST GT ISZERO PUSH2 0xA9D JUMPI PUSH1 0x40 MLOAD PUSH32 0x8C379A000000000000000000000000000000000000000000000000000000000 DUP2 MSTORE PUSH1 0x4 ADD PUSH2 0xA94 SWAP1 PUSH2 0x3533 JUMP JUMPDEST PUSH1 0x40 MLOAD DUP1 SWAP2 SUB SWAP1 REVERT JUMPDEST DUP1 PUSH1 0x7 SLOAD PUSH2 0xAAB SWAP2 SWAP1 PUSH2 0x3551 JUMP JUMPDEST CALLVALUE EQ PUSH2 0xAEC JUMPI PUSH1 0x40 MLOAD PUSH32 0x8C379A000000000000000000000000000000000000000000000000000000000 DUP2 MSTORE PUSH1 0x4 ADD PUSH2 0xAE3 SWAP1 PUSH2 0x3602 JUMP JUMPDEST PUSH1 0x40 MLOAD DUP1 SWAP2 SUB SWAP1 REVERT JUMPDEST PUSH2 0xB06 CALLER DUP4 DUP4 PUSH1 0x40 MLOAD DUP1 PUSH1 0x20 ADD PUSH1 0x40 MSTORE DUP1 PUSH0 DUP2 MSTORE POP PUSH2 0x14DF JUMP JUMPDEST POP POP JUMP JUMPDEST PUSH0 PUSH1 0x5 SLOAD SWAP1 POP SWAP1 JUMP JUMPDEST PUSH1 0xA PUSH0 SWAP1 SLOAD SWAP1 PUSH2 0x100 EXP SWAP1 DIV PUSH1 0xFF AND PUSH2 0xB61 JUMPI PUSH1 0x40 MLOAD PUSH32 0x8C379A000000000000000000000000000000000000000000000000000000000 DUP2 MSTORE PUSH1 0x4 ADD PUSH2 0xB58 SWAP1 PUSH2 0x366A JUMP JUMPDEST PUSH1 0x40 MLOAD DUP1 SWAP2 SUB SWAP1 REVERT JUMPDEST PUSH1 0xA DUP3 GT ISZERO PUSH2 0xBA5 JUMPI PUSH1 0x40 MLOAD PUSH32 0x8C379A000000000000000000000000000000000000000000000000000000000 DUP2 MSTORE PUSH1 0x4 ADD PUSH2 0xB9C SWAP1 PUSH2 0x346B JUMP JUMPDEST PUSH1 0x40 MLOAD DUP1 SWAP2 SUB SWAP1 REVERT JUMPDEST PUSH1 0x8 SLOAD DUP2 PUSH2 0xBB2 DUP5 PUSH2 0x104D JUMP JUMPDEST PUSH2 0xBBC SWAP2 SWAP1 PUSH2 0x34B6 JUMP JUMPDEST GT ISZERO PUSH2 0xBFD JUMPI PUSH1 0x40 MLOAD PUSH32 0x8C379A000000000000000000000000000000000000000000000000000000000 DUP2 MSTORE PUSH1 0x4 ADD PUSH2 0xBF4 SWAP1 PUSH2 0x3533 JUMP JUMPDEST PUSH1 0x40 MLOAD DUP1 SWAP2 SUB SWAP1 REVERT JUMPDEST DUP1 PUSH1 0x6 SLOAD PUSH2 0xC0B SWAP2 SWAP1 PUSH2 0x3551 JUMP JUMPDEST CALLVALUE EQ PUSH2 0xC4C JUMPI PUSH1 0x40 MLOAD PUSH32 0x8C379A000000000000000000000000000000000000000000000000000000000 DUP2 MSTORE PUSH1 0x4 ADD PUSH2 0xC43 SWAP1 PUSH2 0x36F8 JUMP JUMPDEST PUSH1 0x40 MLOAD DUP1 SWAP2 SUB SWAP1 REVERT JUMPDEST PUSH2 0xC66 CALLER DUP4 DUP4 PUSH1 0x40 MLOAD DUP1 PUSH1 0x20 ADD PUSH1 0x40 MSTORE DUP1 PUSH0 DUP2 MSTORE POP PUSH2 0x14DF JUMP JUMPDEST POP POP JUMP JUMPDEST PUSH2 0xC72 PUSH2 0x12E9 JUMP JUMPDEST PUSH2 0xC7E DUP5 DUP5 DUP5 DUP5 PUSH2 0x1574 JUMP JUMPDEST POP POP POP POP JUMP JUMPDEST PUSH1 0xB PUSH1 0x20 MSTORE DUP1 PUSH0 MSTORE PUSH1 0x40 PUSH0 KECCAK256 PUSH0 SWAP2 POP SLOAD SWAP1 PUSH2 0x100 EXP SWAP1 DIV PUSH1 0xFF AND DUP2 JUMP JUMPDEST PUSH0 PUSH2 0xCAA PUSH2 0x15F7 JUMP JUMPDEST SWAP1 POP DUP1 PUSH20 0xFFFFFFFFFFFFFFFFFFFFFFFFFFFFFFFFFFFFFFFF AND DUP7 PUSH20 0xFFFFFFFFFFFFFFFFFFFFFFFFFFFFFFFFFFFFFFFF AND EQ ISZERO DUP1 ISZERO PUSH2 0xCEF JUMPI POP PUSH2 0xCED DUP7 DUP3 PUSH2 0x10C7 JUMP JUMPDEST ISZERO JUMPDEST ISZERO PUSH2 0xD33 JUMPI DUP1 DUP7 PUSH1 0x40 MLOAD PUSH32 0xE237D92200000000000000000000000000000000000000000000000000000000 DUP2 MSTORE PUSH1 0x4 ADD PUSH2 0xD2A SWAP3 SWAP2 SWAP1 PUSH2 0x3716 JUMP JUMPDEST PUSH1 0x40 MLOAD DUP1 SWAP2 SUB SWAP1 REVERT JUMPDEST PUSH2 0xD40 DUP7 DUP7 DUP7 DUP7 DUP7 PUSH2 0x15FE JUMP JUMPDEST POP POP POP POP POP POP JUMP JUMPDEST PUSH2 0xD50 PUSH2 0x12E9 JUMP JUMPDEST DUP2 PUSH1 0xA PUSH0 PUSH2 0x100 EXP DUP2 SLOAD DUP2 PUSH1 0xFF MUL NOT AND SWAP1 DUP4 ISZERO ISZERO MUL OR SWAP1 SSTORE POP DUP1 PUSH1 0xA PUSH1 0x1 PUSH2 0x100 EXP DUP2 SLOAD DUP2 PUSH1 0xFF MUL NOT AND SWAP1 DUP4 ISZERO ISZERO MUL OR SWAP1 SSTORE POP POP POP JUMP JUMPDEST PUSH2 0xD8F PUSH2 0x12E9 JUMP JUMPDEST PUSH2 0xD97 PUSH2 0x16F2 JUMP JUMPDEST JUMP JUMPDEST PUSH1 0x60 DUP2 MLOAD DUP4 MLOAD EQ PUSH2 0xDE5 JUMPI DUP2 MLOAD DUP4 MLOAD PUSH1 0x40 MLOAD PUSH32 0x5B05999100000000000000000000000000000000000000000000000000000000 DUP2 MSTORE PUSH1 0x4 ADD PUSH2 0xDDC SWAP3 SWAP2 SWAP1 PUSH2 0x373D JUMP JUMPDEST PUSH1 0x40 MLOAD DUP1 SWAP2 SUB SWAP1 REVERT JUMPDEST PUSH0 DUP4 MLOAD PUSH8 0xFFFFFFFFFFFFFFFF DUP2 GT ISZERO PUSH2 0xE01 JUMPI PUSH2 0xE00 PUSH2 0x2843 JUMP JUMPDEST JUMPDEST PUSH1 0x40 MLOAD SWAP1 DUP1 DUP3 MSTORE DUP1 PUSH1 0x20 MUL PUSH1 0x20 ADD DUP3 ADD PUSH1 0x40 MSTORE DUP1 ISZERO PUSH2 0xE2F JUMPI DUP2 PUSH1 0x20 ADD PUSH1 0x20 DUP3 MUL DUP1 CALLDATASIZE DUP4 CALLDATACOPY DUP1 DUP3 ADD SWAP2 POP POP SWAP1 POP JUMPDEST POP SWAP1 POP PUSH0 JUMPDEST DUP5 MLOAD DUP2 LT ISZERO PUSH2 0xE95 JUMPI PUSH2 0xE6B PUSH2 0xE53 DUP3 DUP8 PUSH2 0x1754 SWAP1 SWAP2 SWAP1 PUSH4 0xFFFFFFFF AND JUMP JUMPDEST PUSH2 0xE66 DUP4 DUP8 PUSH2 0x1767 SWAP1 SWAP2 SWAP1 PUSH4 0xFFFFFFFF AND JUMP JUMPDEST PUSH2 0x749 JUMP JUMPDEST DUP3 DUP3 DUP2 MLOAD DUP2 LT PUSH2 0xE7E JUMPI PUSH2 0xE7D PUSH2 0x3764 JUMP JUMPDEST JUMPDEST PUSH1 0x20 MUL PUSH1 0x20 ADD ADD DUP2 DUP2 MSTORE POP POP DUP1 PUSH1 0x1 ADD SWAP1 POP PUSH2 0xE34 JUMP JUMPDEST POP DUP1 SWAP2 POP POP SWAP3 SWAP2 POP POP JUMP JUMPDEST PUSH0 DUP1 PUSH2 0xEAB DUP4 PUSH2 0x104D JUMP JUMPDEST GT SWAP1 POP SWAP2 SWAP1 POP JUMP JUMPDEST PUSH2 0xEBB PUSH2 0x12E9 JUMP JUMPDEST PUSH0 SELFBALANCE SWAP1 POP DUP2 PUSH20 0xFFFFFFFFFFFFFFFFFFFFFFFFFFFFFFFFFFFFFFFF AND PUSH2 0x8FC DUP3 SWAP1 DUP2 ISZERO MUL SWAP1 PUSH1 0x40 MLOAD PUSH0 PUSH1 0x40 MLOAD DUP1 DUP4 SUB DUP2 DUP6 DUP9 DUP9 CALL SWAP4 POP POP POP POP ISZERO DUP1 ISZERO PUSH2 0xF02 JUMPI RETURNDATASIZE PUSH0 DUP1 RETURNDATACOPY RETURNDATASIZE PUSH0 REVERT JUMPDEST POP POP POP JUMP JUMPDEST PUSH0 PUSH1 0x3 PUSH1 0x14 SWAP1 SLOAD SWAP1 PUSH2 0x100 EXP SWAP1 DIV PUSH1 0xFF AND SWAP1 POP SWAP1 JUMP JUMPDEST PUSH2 0xF25 PUSH2 0x12E9 JUMP JUMPDEST PUSH0 JUMPDEST DUP3 DUP3 SWAP1 POP DUP2 LT ISZERO PUSH2 0xFBB JUMPI PUSH1 0x1 PUSH1 0xB PUSH0 DUP6 DUP6 DUP6 DUP2 DUP2 LT PUSH2 0xF4A JUMPI PUSH2 0xF49 PUSH2 0x3764 JUMP JUMPDEST JUMPDEST SWAP1 POP PUSH1 0x20 MUL ADD PUSH1 0x20 DUP2 ADD SWAP1 PUSH2 0xF5F SWAP2 SWAP1 PUSH2 0x2CCB JUMP JUMPDEST PUSH20 0xFFFFFFFFFFFFFFFFFFFFFFFFFFFFFFFFFFFFFFFF AND PUSH20 0xFFFFFFFFFFFFFFFFFFFFFFFFFFFFFFFFFFFFFFFF AND DUP2 MSTORE PUSH1 0x20 ADD SWAP1 DUP2 MSTORE PUSH1 0x20 ADD PUSH0 KECCAK256 PUSH0 PUSH2 0x100 EXP DUP2 SLOAD DUP2 PUSH1 0xFF MUL NOT AND SWAP1 DUP4 ISZERO ISZERO MUL OR SWAP1 SSTORE POP DUP1 DUP1 PUSH1 0x1 ADD SWAP2 POP POP PUSH2 0xF27 JUMP JUMPDEST POP POP POP JUMP JUMPDEST PUSH1 0x8 SLOAD DUP2 JUMP JUMPDEST PUSH1 0x9 SLOAD DUP2 JUMP JUMPDEST PUSH2 0xFD4 PUSH2 0x12E9 JUMP JUMPDEST PUSH2 0xFDD PUSH0 PUSH2 0x177A JUMP JUMPDEST JUMP JUMPDEST PUSH2 0xFE7 PUSH2 0x12E9 JUMP JUMPDEST PUSH2 0xFEF PUSH2 0x183D JUMP JUMPDEST JUMP JUMPDEST PUSH0 PUSH1 0x3 PUSH0 SWAP1 SLOAD SWAP1 PUSH2 0x100 EXP SWAP1 DIV PUSH20 0xFFFFFFFFFFFFFFFFFFFFFFFFFFFFFFFFFFFFFFFF AND SWAP1 POP SWAP1 JUMP JUMPDEST PUSH2 0x102B PUSH2 0x1024 PUSH2 0x15F7 JUMP JUMPDEST DUP4 DUP4 PUSH2 0x18A0 JUMP JUMPDEST POP POP JUMP JUMPDEST PUSH1 0x7 SLOAD DUP2 JUMP JUMPDEST PUSH1 0x6 SLOAD DUP2 JUMP JUMPDEST PUSH1 0xA PUSH0 SWAP1 SLOAD SWAP1 PUSH2 0x100 EXP SWAP1 DIV PUSH1 0xFF AND DUP2 JUMP JUMPDEST PUSH0 PUSH1 0x4 PUSH0 DUP4 DUP2 MSTORE PUSH1 0x20 ADD SWAP1 DUP2 MSTORE PUSH1 0x20 ADD PUSH0 KECCAK256 SLOAD SWAP1 POP SWAP2 SWAP1 POP JUMP JUMPDEST PUSH2 0x106F PUSH2 0x12E9 JUMP JUMPDEST DUP1 PUSH1 0xB PUSH0 DUP5 PUSH20 0xFFFFFFFFFFFFFFFFFFFFFFFFFFFFFFFFFFFFFFFF AND PUSH20 0xFFFFFFFFFFFFFFFFFFFFFFFFFFFFFFFFFFFFFFFF AND DUP2 MSTORE PUSH1 0x20 ADD SWAP1 DUP2 MSTORE PUSH1 0x20 ADD PUSH0 KECCAK256 PUSH0 PUSH2 0x100 EXP DUP2 SLOAD DUP2 PUSH1 0xFF MUL NOT AND SWAP1 DUP4 ISZERO ISZERO MUL OR SWAP1 SSTORE POP POP POP JUMP JUMPDEST PUSH0 PUSH1 0x1 PUSH0 DUP5 PUSH20 0xFFFFFFFFFFFFFFFFFFFFFFFFFFFFFFFFFFFFFFFF AND PUSH20 0xFFFFFFFFFFFFFFFFFFFFFFFFFFFFFFFFFFFFFFFF AND DUP2 MSTORE PUSH1 0x20 ADD SWAP1 DUP2 MSTORE PUSH1 0x20 ADD PUSH0 KECCAK256 PUSH0 DUP4 PUSH20 0xFFFFFFFFFFFFFFFFFFFFFFFFFFFFFFFFFFFFFFFF AND PUSH20 0xFFFFFFFFFFFFFFFFFFFFFFFFFFFFFFFFFFFFFFFF AND DUP2 MSTORE PUSH1 0x20 ADD SWAP1 DUP2 MSTORE PUSH1 0x20 ADD PUSH0 KECCAK256 PUSH0 SWAP1 SLOAD SWAP1 PUSH2 0x100 EXP SWAP1 DIV PUSH1 0xFF AND SWAP1 POP SWAP3 SWAP2 POP POP JUMP JUMPDEST PUSH0 PUSH2 0x115E PUSH2 0x15F7 JUMP JUMPDEST SWAP1 POP DUP1 PUSH20 0xFFFFFFFFFFFFFFFFFFFFFFFFFFFFFFFFFFFFFFFF AND DUP7 PUSH20 0xFFFFFFFFFFFFFFFFFFFFFFFFFFFFFFFFFFFFFFFF AND EQ ISZERO DUP1 ISZERO PUSH2 0x11A3 JUMPI POP PUSH2 0x11A1 DUP7 DUP3 PUSH2 0x10C7 JUMP JUMPDEST ISZERO JUMPDEST ISZERO PUSH2 0x11E7 JUMPI DUP1 DUP7 PUSH1 0x40 MLOAD PUSH32 0xE237D92200000000000000000000000000000000000000000000000000000000 DUP2 MSTORE PUSH1 0x4 ADD PUSH2 0x11DE SWAP3 SWAP2 SWAP1 PUSH2 0x3716 JUMP JUMPDEST PUSH1 0x40 MLOAD DUP1 SWAP2 SUB SWAP1 REVERT JUMPDEST PUSH2 0x11F4 DUP7 DUP7 DUP7 DUP7 DUP7 PUSH2 0x1A09 JUMP JUMPDEST POP POP POP POP POP POP JUMP JUMPDEST PUSH2 0x1204 PUSH2 0x12E9 JUMP JUMPDEST PUSH0 PUSH20 0xFFFFFFFFFFFFFFFFFFFFFFFFFFFFFFFFFFFFFFFF AND DUP2 PUSH20 0xFFFFFFFFFFFFFFFFFFFFFFFFFFFFFFFFFFFFFFFF AND SUB PUSH2 0x1274 JUMPI PUSH0 PUSH1 0x40 MLOAD PUSH32 0x1E4FBDF700000000000000000000000000000000000000000000000000000000 DUP2 MSTORE PUSH1 0x4 ADD PUSH2 0x126B SWAP2 SWAP1 PUSH2 0x30E9 JUMP JUMPDEST PUSH1 0x40 MLOAD DUP1 SWAP2 SUB SWAP1 REVERT JUMPDEST PUSH2 0x127D DUP2 PUSH2 0x177A JUMP JUMPDEST POP JUMP JUMPDEST PUSH0 PUSH32 0x1FFC9A700000000000000000000000000000000000000000000000000000000 PUSH28 0xFFFFFFFFFFFFFFFFFFFFFFFFFFFFFFFFFFFFFFFFFFFFFFFFFFFFFFFF NOT AND DUP3 PUSH28 0xFFFFFFFFFFFFFFFFFFFFFFFFFFFFFFFFFFFFFFFFFFFFFFFFFFFFFFFF NOT AND EQ SWAP1 POP SWAP2 SWAP1 POP JUMP JUMPDEST PUSH2 0x12F1 PUSH2 0x15F7 JUMP JUMPDEST PUSH20 0xFFFFFFFFFFFFFFFFFFFFFFFFFFFFFFFFFFFFFFFF AND PUSH2 0x130F PUSH2 0xFF1 JUMP JUMPDEST PUSH20 0xFFFFFFFFFFFFFFFFFFFFFFFFFFFFFFFFFFFFFFFF AND EQ PUSH2 0x136E JUMPI PUSH2 0x1332 PUSH2 0x15F7 JUMP JUMPDEST PUSH1 0x40 MLOAD PUSH32 0x118CDAA700000000000000000000000000000000000000000000000000000000 DUP2 MSTORE PUSH1 0x4 ADD PUSH2 0x1365 SWAP2 SWAP1 PUSH2 0x30E9 JUMP JUMPDEST PUSH1 0x40 MLOAD DUP1 SWAP2 SUB SWAP1 REVERT JUMPDEST JUMP JUMPDEST DUP1 PUSH1 0x2 SWAP1 DUP2 PUSH2 0x137F SWAP2 SWAP1 PUSH2 0x398B JUMP JUMPDEST POP POP JUMP JUMPDEST PUSH1 0x60 PUSH1 0x2 DUP1 SLOAD PUSH2 0x1392 SWAP1 PUSH2 0x37BE JUMP JUMPDEST DUP1 PUSH1 0x1F ADD PUSH1 0x20 DUP1 SWAP2 DIV MUL PUSH1 0x20 ADD PUSH1 0x40 MLOAD SWAP1 DUP2 ADD PUSH1 0x40 MSTORE DUP1 SWAP3 SWAP2 SWAP1 DUP2 DUP2 MSTORE PUSH1 0x20 ADD DUP3 DUP1 SLOAD PUSH2 0x13BE SWAP1 PUSH2 0x37BE JUMP JUMPDEST DUP1 ISZERO PUSH2 0x1409 JUMPI DUP1 PUSH1 0x1F LT PUSH2 0x13E0 JUMPI PUSH2 0x100 DUP1 DUP4 SLOAD DIV MUL DUP4 MSTORE SWAP2 PUSH1 0x20 ADD SWAP2 PUSH2 0x1409 JUMP JUMPDEST DUP3 ADD SWAP2 SWAP1 PUSH0 MSTORE PUSH1 0x20 PUSH0 KECCAK256 SWAP1 JUMPDEST DUP2 SLOAD DUP2 MSTORE SWAP1 PUSH1 0x1 ADD SWAP1 PUSH1 0x20 ADD DUP1 DUP4 GT PUSH2 0x13EC JUMPI DUP3 SWAP1 SUB PUSH1 0x1F AND DUP3 ADD SWAP2 JUMPDEST POP POP POP POP POP SWAP1 POP SWAP2 SWAP1 POP JUMP JUMPDEST PUSH1 0x60 PUSH0 PUSH1 0x1 PUSH2 0x1423 DUP5 PUSH2 0x1B0F JUMP JUMPDEST ADD SWAP1 POP PUSH0 DUP2 PUSH8 0xFFFFFFFFFFFFFFFF DUP2 GT ISZERO PUSH2 0x1441 JUMPI PUSH2 0x1440 PUSH2 0x2843 JUMP JUMPDEST JUMPDEST PUSH1 0x40 MLOAD SWAP1 DUP1 DUP3 MSTORE DUP1 PUSH1 0x1F ADD PUSH1 0x1F NOT AND PUSH1 0x20 ADD DUP3 ADD PUSH1 0x40 MSTORE DUP1 ISZERO PUSH2 0x1473 JUMPI DUP2 PUSH1 0x20 ADD PUSH1 0x1 DUP3 MUL DUP1 CALLDATASIZE DUP4 CALLDATACOPY DUP1 DUP3 ADD SWAP2 POP POP SWAP1 POP JUMPDEST POP SWAP1 POP PUSH0 DUP3 PUSH1 0x20 ADD DUP3 ADD SWAP1 POP JUMPDEST PUSH1 0x1 ISZERO PUSH2 0x14D4 JUMPI DUP1 DUP1 PUSH1 0x1 SWAP1 SUB SWAP2 POP POP PUSH32 0x3031323334353637383961626364656600000000000000000000000000000000 PUSH1 0xA DUP7 MOD BYTE DUP2 MSTORE8 PUSH1 0xA DUP6 DUP2 PUSH2 0x14C9 JUMPI PUSH2 0x14C8 PUSH2 0x3A5A JUMP JUMPDEST JUMPDEST DIV SWAP5 POP PUSH0 DUP6 SUB PUSH2 0x1480 JUMPI JUMPDEST DUP2 SWAP4 POP POP POP POP SWAP2 SWAP1 POP JUMP JUMPDEST PUSH0 PUSH20 0xFFFFFFFFFFFFFFFFFFFFFFFFFFFFFFFFFFFFFFFF AND DUP5 PUSH20 0xFFFFFFFFFFFFFFFFFFFFFFFFFFFFFFFFFFFFFFFF AND SUB PUSH2 0x154F JUMPI PUSH0 PUSH1 0x40 MLOAD PUSH32 0x57F447CE00000000000000000000000000000000000000000000000000000000 DUP2 MSTORE PUSH1 0x4 ADD PUSH2 0x1546 SWAP2 SWAP1 PUSH2 0x30E9 JUMP JUMPDEST PUSH1 0x40 MLOAD DUP1 SWAP2 SUB SWAP1 REVERT JUMPDEST PUSH0 DUP1 PUSH2 0x155B DUP6 DUP6 PUSH2 0x1C60 JUMP JUMPDEST SWAP2 POP SWAP2 POP PUSH2 0x156C PUSH0 DUP8 DUP5 DUP5 DUP8 PUSH2 0x1C90 JUMP JUMPDEST POP POP POP POP POP POP JUMP JUMPDEST PUSH0 PUSH20 0xFFFFFFFFFFFFFFFFFFFFFFFFFFFFFFFFFFFFFFFF AND DUP5 PUSH20 0xFFFFFFFFFFFFFFFFFFFFFFFFFFFFFFFFFFFFFFFF AND SUB PUSH2 0x15E4 JUMPI PUSH0 PUSH1 0x40 MLOAD PUSH32 0x57F447CE00000000000000000000000000000000000000000000000000000000 DUP2 MSTORE PUSH1 0x4 ADD PUSH2 0x15DB SWAP2 SWAP1 PUSH2 0x30E9 JUMP JUMPDEST PUSH1 0x40 MLOAD DUP1 SWAP2 SUB SWAP1 REVERT JUMPDEST PUSH2 0x15F1 PUSH0 DUP6 DUP6 DUP6 DUP6 PUSH2 0x1C90 JUMP JUMPDEST POP POP POP POP JUMP JUMPDEST PUSH0 CALLER SWAP1 POP SWAP1 JUMP JUMPDEST PUSH0 PUSH20 0xFFFFFFFFFFFFFFFFFFFFFFFFFFFFFFFFFFFFFFFF AND DUP5 PUSH20 0xFFFFFFFFFFFFFFFFFFFFFFFFFFFFFFFFFFFFFFFF AND SUB PUSH2 0x166E JUMPI PUSH0 PUSH1 0x40 MLOAD PUSH32 0x57F447CE00000000000000000000000000000000000000000000000000000000 DUP2 MSTORE PUSH1 0x4 ADD PUSH2 0x1665 SWAP2 SWAP1 PUSH2 0x30E9 JUMP JUMPDEST PUSH1 0x40 MLOAD DUP1 SWAP2 SUB SWAP1 REVERT JUMPDEST PUSH0 PUSH20 0xFFFFFFFFFFFFFFFFFFFFFFFFFFFFFFFFFFFFFFFF AND DUP6 PUSH20 0xFFFFFFFFFFFFFFFFFFFFFFFFFFFFFFFFFFFFFFFF AND SUB PUSH2 0x16DE JUMPI PUSH0 PUSH1 0x40 MLOAD PUSH32 0x1A8351400000000000000000000000000000000000000000000000000000000 DUP2 MSTORE PUSH1 0x4 ADD PUSH2 0x16D5 SWAP2 SWAP1 PUSH2 0x30E9 JUMP JUMPDEST PUSH1 0x40 MLOAD DUP1 SWAP2 SUB SWAP1 REVERT JUMPDEST PUSH2 0x16EB DUP6 DUP6 DUP6 DUP6 DUP6 PUSH2 0x1C90 JUMP JUMPDEST POP POP POP POP POP JUMP JUMPDEST PUSH2 0x16FA PUSH2 0x1D3C JUMP JUMPDEST PUSH0 PUSH1 0x3 PUSH1 0x14 PUSH2 0x100 EXP DUP2 SLOAD DUP2 PUSH1 0xFF MUL NOT AND SWAP1 DUP4 ISZERO ISZERO MUL OR SWAP1 SSTORE POP PUSH32 0x5DB9EE0A495BF2E6FF9C91A7834C1BA4FDD244A5E8AA4E537BD38AEAE4B073AA PUSH2 0x173D PUSH2 0x15F7 JUMP JUMPDEST PUSH1 0x40 MLOAD PUSH2 0x174A SWAP2 SWAP1 PUSH2 0x30E9 JUMP JUMPDEST PUSH1 0x40 MLOAD DUP1 SWAP2 SUB SWAP1 LOG1 JUMP JUMPDEST PUSH0 PUSH1 0x20 DUP3 MUL PUSH1 0x20 DUP5 ADD ADD MLOAD SWAP1 POP SWAP3 SWAP2 POP POP JUMP JUMPDEST PUSH0 PUSH1 0x20 DUP3 MUL PUSH1 0x20 DUP5 ADD ADD MLOAD SWAP1 POP SWAP3 SWAP2 POP POP JUMP JUMPDEST PUSH0 PUSH1 0x3 PUSH0 SWAP1 SLOAD SWAP1 PUSH2 0x100 EXP SWAP1 DIV PUSH20 0xFFFFFFFFFFFFFFFFFFFFFFFFFFFFFFFFFFFFFFFF AND SWAP1 POP DUP2 PUSH1 0x3 PUSH0 PUSH2 0x100 EXP DUP2 SLOAD DUP2 PUSH20 0xFFFFFFFFFFFFFFFFFFFFFFFFFFFFFFFFFFFFFFFF MUL NOT AND SWAP1 DUP4 PUSH20 0xFFFFFFFFFFFFFFFFFFFFFFFFFFFFFFFFFFFFFFFF AND MUL OR SWAP1 SSTORE POP DUP2 PUSH20 0xFFFFFFFFFFFFFFFFFFFFFFFFFFFFFFFFFFFFFFFF AND DUP2 PUSH20 0xFFFFFFFFFFFFFFFFFFFFFFFFFFFFFFFFFFFFFFFF AND PUSH32 0x8BE0079C531659141344CD1FD0A4F28419497F9722A3DAAFE3B4186F6B6457E0 PUSH1 0x40 MLOAD PUSH1 0x40 MLOAD DUP1 SWAP2 SUB SWAP1 LOG3 POP POP JUMP JUMPDEST PUSH2 0x1845 PUSH2 0x1D7C JUMP JUMPDEST PUSH1 0x1 PUSH1 0x3 PUSH1 0x14 PUSH2 0x100 EXP DUP2 SLOAD DUP2 PUSH1 0xFF MUL NOT AND SWAP1 DUP4 ISZERO ISZERO MUL OR SWAP1 SSTORE POP PUSH32 0x62E78CEA01BEE320CD4E420270B5EA74000D11B0C9F74754EBDBFC544B05A258 PUSH2 0x1889 PUSH2 0x15F7 JUMP JUMPDEST PUSH1 0x40 MLOAD PUSH2 0x1896 SWAP2 SWAP1 PUSH2 0x30E9 JUMP JUMPDEST PUSH1 0x40 MLOAD DUP1 SWAP2 SUB SWAP1 LOG1 JUMP JUMPDEST PUSH0 PUSH20 0xFFFFFFFFFFFFFFFFFFFFFFFFFFFFFFFFFFFFFFFF AND DUP3 PUSH20 0xFFFFFFFFFFFFFFFFFFFFFFFFFFFFFFFFFFFFFFFF AND SUB PUSH2 0x1910 JUMPI PUSH0 PUSH1 0x40 MLOAD PUSH32 0xCED3E10000000000000000000000000000000000000000000000000000000000 DUP2 MSTORE PUSH1 0x4 ADD PUSH2 0x1907 SWAP2 SWAP1 PUSH2 0x30E9 JUMP JUMPDEST PUSH1 0x40 MLOAD DUP1 SWAP2 SUB SWAP1 REVERT JUMPDEST DUP1 PUSH1 0x1 PUSH0 DUP6 PUSH20 0xFFFFFFFFFFFFFFFFFFFFFFFFFFFFFFFFFFFFFFFF AND PUSH20 0xFFFFFFFFFFFFFFFFFFFFFFFFFFFFFFFFFFFFFFFF AND DUP2 MSTORE PUSH1 0x20 ADD SWAP1 DUP2 MSTORE PUSH1 0x20 ADD PUSH0 KECCAK256 PUSH0 DUP5 PUSH20 0xFFFFFFFFFFFFFFFFFFFFFFFFFFFFFFFFFFFFFFFF AND PUSH20 0xFFFFFFFFFFFFFFFFFFFFFFFFFFFFFFFFFFFFFFFF AND DUP2 MSTORE PUSH1 0x20 ADD SWAP1 DUP2 MSTORE PUSH1 0x20 ADD PUSH0 KECCAK256 PUSH0 PUSH2 0x100 EXP DUP2 SLOAD DUP2 PUSH1 0xFF MUL NOT AND SWAP1 DUP4 ISZERO ISZERO MUL OR SWAP1 SSTORE POP DUP2 PUSH20 0xFFFFFFFFFFFFFFFFFFFFFFFFFFFFFFFFFFFFFFFF AND DUP4 PUSH20 0xFFFFFFFFFFFFFFFFFFFFFFFFFFFFFFFFFFFFFFFF AND PUSH32 0x17307EAB39AB6107E8899845AD3D59BD9653F200F220920489CA2B5937696C31 DUP4 PUSH1 0x40 MLOAD PUSH2 0x19FC SWAP2 SWAP1 PUSH2 0x2812 JUMP JUMPDEST PUSH1 0x40 MLOAD DUP1 SWAP2 SUB SWAP1 LOG3 POP POP POP JUMP JUMPDEST PUSH0 PUSH20 0xFFFFFFFFFFFFFFFFFFFFFFFFFFFFFFFFFFFFFFFF AND DUP5 PUSH20 0xFFFFFFFFFFFFFFFFFFFFFFFFFFFFFFFFFFFFFFFF AND SUB PUSH2 0x1A79 JUMPI PUSH0 PUSH1 0x40 MLOAD PUSH32 0x57F447CE00000000000000000000000000000000000000000000000000000000 DUP2 MSTORE PUSH1 0x4 ADD PUSH2 0x1A70 SWAP2 SWAP1 PUSH2 0x30E9 JUMP JUMPDEST PUSH1 0x40 MLOAD DUP1 SWAP2 SUB SWAP1 REVERT JUMPDEST PUSH0 PUSH20 0xFFFFFFFFFFFFFFFFFFFFFFFFFFFFFFFFFFFFFFFF AND DUP6 PUSH20 0xFFFFFFFFFFFFFFFFFFFFFFFFFFFFFFFFFFFFFFFF AND SUB PUSH2 0x1AE9 JUMPI PUSH0 PUSH1 0x40 MLOAD PUSH32 0x1A8351400000000000000000000000000000000000000000000000000000000 DUP2 MSTORE PUSH1 0x4 ADD PUSH2 0x1AE0 SWAP2 SWAP1 PUSH2 0x30E9 JUMP JUMPDEST PUSH1 0x40 MLOAD DUP1 SWAP2 SUB SWAP1 REVERT JUMPDEST PUSH0 DUP1 PUSH2 0x1AF5 DUP6 DUP6 PUSH2 0x1C60 JUMP JUMPDEST SWAP2 POP SWAP2 POP PUSH2 0x1B06 DUP8 DUP8 DUP5 DUP5 DUP8 PUSH2 0x1C90 JUMP JUMPDEST POP POP POP POP POP POP POP JUMP JUMPDEST PUSH0 DUP1 PUSH0 SWAP1 POP PUSH27 0x184F03E93FF9F4DAA797ED6E38ED64BF6A1F010000000000000000 DUP4 LT PUSH2 0x1B6B JUMPI PUSH27 0x184F03E93FF9F4DAA797ED6E38ED64BF6A1F010000000000000000 DUP4 DUP2 PUSH2 0x1B61 JUMPI PUSH2 0x1B60 PUSH2 0x3A5A JUMP JUMPDEST JUMPDEST DIV SWAP3 POP PUSH1 0x40 DUP2 ADD SWAP1 POP JUMPDEST PUSH14 0x4EE2D6D415B85ACEF8100000000 DUP4 LT PUSH2 0x1BA8 JUMPI PUSH14 0x4EE2D6D415B85ACEF8100000000 DUP4 DUP2 PUSH2 0x1B9E JUMPI PUSH2 0x1B9D PUSH2 0x3A5A JUMP JUMPDEST JUMPDEST DIV SWAP3 POP PUSH1 0x20 DUP2 ADD SWAP1 POP JUMPDEST PUSH7 0x2386F26FC10000 DUP4 LT PUSH2 0x1BD7 JUMPI PUSH7 0x2386F26FC10000 DUP4 DUP2 PUSH2 0x1BCD JUMPI PUSH2 0x1BCC PUSH2 0x3A5A JUMP JUMPDEST JUMPDEST DIV SWAP3 POP PUSH1 0x10 DUP2 ADD SWAP1 POP JUMPDEST PUSH4 0x5F5E100 DUP4 LT PUSH2 0x1C00 JUMPI PUSH4 0x5F5E100 DUP4 DUP2 PUSH2 0x1BF6 JUMPI PUSH2 0x1BF5 PUSH2 0x3A5A JUMP JUMPDEST JUMPDEST DIV SWAP3 POP PUSH1 0x8 DUP2 ADD SWAP1 POP JUMPDEST PUSH2 0x2710 DUP4 LT PUSH2 0x1C25 JUMPI PUSH2 0x2710 DUP4 DUP2 PUSH2 0x1C1B JUMPI PUSH2 0x1C1A PUSH2 0x3A5A JUMP JUMPDEST JUMPDEST DIV SWAP3 POP PUSH1 0x4 DUP2 ADD SWAP1 POP JUMPDEST PUSH1 0x64 DUP4 LT PUSH2 0x1C48 JUMPI PUSH1 0x64 DUP4 DUP2 PUSH2 0x1C3E JUMPI PUSH2 0x1C3D PUSH2 0x3A5A JUMP JUMPDEST JUMPDEST DIV SWAP3 POP PUSH1 0x2 DUP2 ADD SWAP1 POP JUMPDEST PUSH1 0xA DUP4 LT PUSH2 0x1C57 JUMPI PUSH1 0x1 DUP2 ADD SWAP1 POP JUMPDEST DUP1 SWAP2 POP POP SWAP2 SWAP1 POP JUMP JUMPDEST PUSH1 0x60 DUP1 PUSH1 0x40 MLOAD SWAP2 POP PUSH1 0x1 DUP3 MSTORE DUP4 PUSH1 0x20 DUP4 ADD MSTORE PUSH1 0x40 DUP3 ADD SWAP1 POP PUSH1 0x1 DUP2 MSTORE DUP3 PUSH1 0x20 DUP3 ADD MSTORE PUSH1 0x40 DUP2 ADD PUSH1 0x40 MSTORE SWAP3 POP SWAP3 SWAP1 POP JUMP JUMPDEST PUSH2 0x1C9C DUP6 DUP6 DUP6 DUP6 PUSH2 0x1DBD JUMP JUMPDEST PUSH0 PUSH20 0xFFFFFFFFFFFFFFFFFFFFFFFFFFFFFFFFFFFFFFFF AND DUP5 PUSH20 0xFFFFFFFFFFFFFFFFFFFFFFFFFFFFFFFFFFFFFFFF AND EQ PUSH2 0x1D35 JUMPI PUSH0 PUSH2 0x1CD8 PUSH2 0x15F7 JUMP JUMPDEST SWAP1 POP PUSH1 0x1 DUP5 MLOAD SUB PUSH2 0x1D24 JUMPI PUSH0 PUSH2 0x1CF7 PUSH0 DUP7 PUSH2 0x1767 SWAP1 SWAP2 SWAP1 PUSH4 0xFFFFFFFF AND JUMP JUMPDEST SWAP1 POP PUSH0 PUSH2 0x1D0D PUSH0 DUP7 PUSH2 0x1767 SWAP1 SWAP2 SWAP1 PUSH4 0xFFFFFFFF AND JUMP JUMPDEST SWAP1 POP PUSH2 0x1D1D DUP4 DUP10 DUP10 DUP6 DUP6 DUP10 PUSH2 0x1DCF JUMP JUMPDEST POP POP PUSH2 0x1D33 JUMP JUMPDEST PUSH2 0x1D32 DUP2 DUP8 DUP8 DUP8 DUP8 DUP8 PUSH2 0x1F7E JUMP JUMPDEST JUMPDEST POP JUMPDEST POP POP POP POP POP JUMP JUMPDEST PUSH2 0x1D44 PUSH2 0xF07 JUMP JUMPDEST PUSH2 0x1D7A JUMPI PUSH1 0x40 MLOAD PUSH32 0x8DFC202B00000000000000000000000000000000000000000000000000000000 DUP2 MSTORE PUSH1 0x4 ADD PUSH1 0x40 MLOAD DUP1 SWAP2 SUB SWAP1 REVERT JUMPDEST JUMP JUMPDEST PUSH2 0x1D84 PUSH2 0xF07 JUMP JUMPDEST ISZERO PUSH2 0x1DBB JUMPI PUSH1 0x40 MLOAD PUSH32 0xD93C066500000000000000000000000000000000000000000000000000000000 DUP2 MSTORE PUSH1 0x4 ADD PUSH1 0x40 MLOAD DUP1 SWAP2 SUB SWAP1 REVERT JUMPDEST JUMP JUMPDEST PUSH2 0x1DC9 DUP5 DUP5 DUP5 DUP5 PUSH2 0x212D JUMP JUMPDEST POP POP POP POP JUMP JUMPDEST PUSH0 DUP5 PUSH20 0xFFFFFFFFFFFFFFFFFFFFFFFFFFFFFFFFFFFFFFFF AND EXTCODESIZE GT ISZERO PUSH2 0x1F76 JUMPI DUP4 PUSH20 0xFFFFFFFFFFFFFFFFFFFFFFFFFFFFFFFFFFFFFFFF AND PUSH4 0xF23A6E61 DUP8 DUP8 DUP7 DUP7 DUP7 PUSH1 0x40 MLOAD DUP7 PUSH4 0xFFFFFFFF AND PUSH1 0xE0 SHL DUP2 MSTORE PUSH1 0x4 ADD PUSH2 0x1E2F SWAP6 SWAP5 SWAP4 SWAP3 SWAP2 SWAP1 PUSH2 0x3AD9 JUMP JUMPDEST PUSH1 0x20 PUSH1 0x40 MLOAD DUP1 DUP4 SUB DUP2 PUSH0 DUP8 GAS CALL SWAP3 POP POP POP DUP1 ISZERO PUSH2 0x1E6A JUMPI POP PUSH1 0x40 MLOAD RETURNDATASIZE PUSH1 0x1F NOT PUSH1 0x1F DUP3 ADD AND DUP3 ADD DUP1 PUSH1 0x40 MSTORE POP DUP2 ADD SWAP1 PUSH2 0x1E67 SWAP2 SWAP1 PUSH2 0x3B45 JUMP JUMPDEST PUSH1 0x1 JUMPDEST PUSH2 0x1EEB JUMPI RETURNDATASIZE DUP1 PUSH0 DUP2 EQ PUSH2 0x1E98 JUMPI PUSH1 0x40 MLOAD SWAP2 POP PUSH1 0x1F NOT PUSH1 0x3F RETURNDATASIZE ADD AND DUP3 ADD PUSH1 0x40 MSTORE RETURNDATASIZE DUP3 MSTORE RETURNDATASIZE PUSH0 PUSH1 0x20 DUP5 ADD RETURNDATACOPY PUSH2 0x1E9D JUMP JUMPDEST PUSH1 0x60 SWAP2 POP JUMPDEST POP PUSH0 DUP2 MLOAD SUB PUSH2 0x1EE3 JUMPI DUP5 PUSH1 0x40 MLOAD PUSH32 0x57F447CE00000000000000000000000000000000000000000000000000000000 DUP2 MSTORE PUSH1 0x4 ADD PUSH2 0x1EDA SWAP2 SWAP1 PUSH2 0x30E9 JUMP JUMPDEST PUSH1 0x40 MLOAD DUP1 SWAP2 SUB SWAP1 REVERT JUMPDEST DUP1 MLOAD DUP2 PUSH1 0x20 ADD REVERT JUMPDEST PUSH4 0xF23A6E61 PUSH1 0xE0 SHL PUSH28 0xFFFFFFFFFFFFFFFFFFFFFFFFFFFFFFFFFFFFFFFFFFFFFFFFFFFFFFFF NOT AND DUP2 PUSH28 0xFFFFFFFFFFFFFFFFFFFFFFFFFFFFFFFFFFFFFFFFFFFFFFFFFFFFFFFF NOT AND EQ PUSH2 0x1F74 JUMPI DUP5 PUSH1 0x40 MLOAD PUSH32 0x57F447CE00000000000000000000000000000000000000000000000000000000 DUP2 MSTORE PUSH1 0x4 ADD PUSH2 0x1F6B SWAP2 SWAP1 PUSH2 0x30E9 JUMP JUMPDEST PUSH1 0x40 MLOAD DUP1 SWAP2 SUB SWAP1 REVERT JUMPDEST POP JUMPDEST POP POP POP POP POP POP JUMP JUMPDEST PUSH0 DUP5 PUSH20 0xFFFFFFFFFFFFFFFFFFFFFFFFFFFFFFFFFFFFFFFF AND EXTCODESIZE GT ISZERO PUSH2 0x2125 JUMPI DUP4 PUSH20 0xFFFFFFFFFFFFFFFFFFFFFFFFFFFFFFFFFFFFFFFF AND PUSH4 0xBC197C81 DUP8 DUP8 DUP7 DUP7 DUP7 PUSH1 0x40 MLOAD DUP7 PUSH4 0xFFFFFFFF AND PUSH1 0xE0 SHL DUP2 MSTORE PUSH1 0x4 ADD PUSH2 0x1FDE SWAP6 SWAP5 SWAP4 SWAP3 SWAP2 SWAP1 PUSH2 0x3B70 JUMP JUMPDEST PUSH1 0x20 PUSH1 0x40 MLOAD DUP1 DUP4 SUB DUP2 PUSH0 DUP8 GAS CALL SWAP3 POP POP POP DUP1 ISZERO PUSH2 0x2019 JUMPI POP PUSH1 0x40 MLOAD RETURNDATASIZE PUSH1 0x1F NOT PUSH1 0x1F DUP3 ADD AND DUP3 ADD DUP1 PUSH1 0x40 MSTORE POP DUP2 ADD SWAP1 PUSH2 0x2016 SWAP2 SWAP1 PUSH2 0x3B45 JUMP JUMPDEST PUSH1 0x1 JUMPDEST PUSH2 0x209A JUMPI RETURNDATASIZE DUP1 PUSH0 DUP2 EQ PUSH2 0x2047 JUMPI PUSH1 0x40 MLOAD SWAP2 POP PUSH1 0x1F NOT PUSH1 0x3F RETURNDATASIZE ADD AND DUP3 ADD PUSH1 0x40 MSTORE RETURNDATASIZE DUP3 MSTORE RETURNDATASIZE PUSH0 PUSH1 0x20 DUP5 ADD RETURNDATACOPY PUSH2 0x204C JUMP JUMPDEST PUSH1 0x60 SWAP2 POP JUMPDEST POP PUSH0 DUP2 MLOAD SUB PUSH2 0x2092 JUMPI DUP5 PUSH1 0x40 MLOAD PUSH32 0x57F447CE00000000000000000000000000000000000000000000000000000000 DUP2 MSTORE PUSH1 0x4 ADD PUSH2 0x2089 SWAP2 SWAP1 PUSH2 0x30E9 JUMP JUMPDEST PUSH1 0x40 MLOAD DUP1 SWAP2 SUB SWAP1 REVERT JUMPDEST DUP1 MLOAD DUP2 PUSH1 0x20 ADD REVERT JUMPDEST PUSH4 0xBC197C81 PUSH1 0xE0 SHL PUSH28 0xFFFFFFFFFFFFFFFFFFFFFFFFFFFFFFFFFFFFFFFFFFFFFFFFFFFFFFFF NOT AND DUP2 PUSH28 0xFFFFFFFFFFFFFFFFFFFFFFFFFFFFFFFFFFFFFFFFFFFFFFFFFFFFFFFF NOT AND EQ PUSH2 0x2123 JUMPI DUP5 PUSH1 0x40 MLOAD PUSH32 0x57F447CE00000000000000000000000000000000000000000000000000000000 DUP2 MSTORE PUSH1 0x4 ADD PUSH2 0x211A SWAP2 SWAP1 PUSH2 0x30E9 JUMP JUMPDEST PUSH1 0x40 MLOAD DUP1 SWAP2 SUB SWAP1 REVERT JUMPDEST POP JUMPDEST POP POP POP POP POP POP JUMP JUMPDEST PUSH2 0x2139 DUP5 DUP5 DUP5 DUP5 PUSH2 0x22CA JUMP JUMPDEST PUSH0 PUSH20 0xFFFFFFFFFFFFFFFFFFFFFFFFFFFFFFFFFFFFFFFF AND DUP5 PUSH20 0xFFFFFFFFFFFFFFFFFFFFFFFFFFFFFFFFFFFFFFFF AND SUB PUSH2 0x220C JUMPI PUSH0 DUP1 JUMPDEST DUP4 MLOAD DUP2 LT ISZERO PUSH2 0x21F1 JUMPI PUSH0 DUP4 DUP3 DUP2 MLOAD DUP2 LT PUSH2 0x218C JUMPI PUSH2 0x218B PUSH2 0x3764 JUMP JUMPDEST JUMPDEST PUSH1 0x20 MUL PUSH1 0x20 ADD ADD MLOAD SWAP1 POP DUP1 PUSH1 0x4 PUSH0 DUP8 DUP6 DUP2 MLOAD DUP2 LT PUSH2 0x21AD JUMPI PUSH2 0x21AC PUSH2 0x3764 JUMP JUMPDEST JUMPDEST PUSH1 0x20 MUL PUSH1 0x20 ADD ADD MLOAD DUP2 MSTORE PUSH1 0x20 ADD SWAP1 DUP2 MSTORE PUSH1 0x20 ADD PUSH0 KECCAK256 PUSH0 DUP3 DUP3 SLOAD PUSH2 0x21D0 SWAP2 SWAP1 PUSH2 0x34B6 JUMP JUMPDEST SWAP3 POP POP DUP2 SWAP1 SSTORE POP DUP1 DUP4 PUSH2 0x21E3 SWAP2 SWAP1 PUSH2 0x34B6 JUMP JUMPDEST SWAP3 POP POP DUP1 PUSH1 0x1 ADD SWAP1 POP PUSH2 0x216F JUMP JUMPDEST POP DUP1 PUSH1 0x5 PUSH0 DUP3 DUP3 SLOAD PUSH2 0x2203 SWAP2 SWAP1 PUSH2 0x34B6 JUMP JUMPDEST SWAP3 POP POP DUP2 SWAP1 SSTORE POP POP JUMPDEST PUSH0 PUSH20 0xFFFFFFFFFFFFFFFFFFFFFFFFFFFFFFFFFFFFFFFF AND DUP4 PUSH20 0xFFFFFFFFFFFFFFFFFFFFFFFFFFFFFFFFFFFFFFFF AND SUB PUSH2 0x22C4 JUMPI PUSH0 DUP1 JUMPDEST DUP4 MLOAD DUP2 LT ISZERO PUSH2 0x22B2 JUMPI PUSH0 DUP4 DUP3 DUP2 MLOAD DUP2 LT PUSH2 0x225F JUMPI PUSH2 0x225E PUSH2 0x3764 JUMP JUMPDEST JUMPDEST PUSH1 0x20 MUL PUSH1 0x20 ADD ADD MLOAD SWAP1 POP DUP1 PUSH1 0x4 PUSH0 DUP8 DUP6 DUP2 MLOAD DUP2 LT PUSH2 0x2280 JUMPI PUSH2 0x227F PUSH2 0x3764 JUMP JUMPDEST JUMPDEST PUSH1 0x20 MUL PUSH1 0x20 ADD ADD MLOAD DUP2 MSTORE PUSH1 0x20 ADD SWAP1 DUP2 MSTORE PUSH1 0x20 ADD PUSH0 KECCAK256 PUSH0 DUP3 DUP3 SLOAD SUB SWAP3 POP POP DUP2 SWAP1 SSTORE POP DUP1 DUP4 ADD SWAP3 POP POP DUP1 PUSH1 0x1 ADD SWAP1 POP PUSH2 0x2242 JUMP JUMPDEST POP DUP1 PUSH1 0x5 PUSH0 DUP3 DUP3 SLOAD SUB SWAP3 POP POP DUP2 SWAP1 SSTORE POP POP JUMPDEST POP POP POP POP JUMP JUMPDEST PUSH2 0x22D2 PUSH2 0x1D7C JUMP JUMPDEST PUSH2 0x22DE DUP5 DUP5 DUP5 DUP5 PUSH2 0x22E4 JUMP JUMPDEST POP POP POP POP JUMP JUMPDEST DUP1 MLOAD DUP3 MLOAD EQ PUSH2 0x232E JUMPI DUP2 MLOAD DUP2 MLOAD PUSH1 0x40 MLOAD PUSH32 0x5B05999100000000000000000000000000000000000000000000000000000000 DUP2 MSTORE PUSH1 0x4 ADD PUSH2 0x2325 SWAP3 SWAP2 SWAP1 PUSH2 0x373D JUMP JUMPDEST PUSH1 0x40 MLOAD DUP1 SWAP2 SUB SWAP1 REVERT JUMPDEST PUSH0 PUSH2 0x2337 PUSH2 0x15F7 JUMP JUMPDEST SWAP1 POP PUSH0 JUMPDEST DUP4 MLOAD DUP2 LT ISZERO PUSH2 0x2533 JUMPI PUSH0 PUSH2 0x2358 DUP3 DUP7 PUSH2 0x1767 SWAP1 SWAP2 SWAP1 PUSH4 0xFFFFFFFF AND JUMP JUMPDEST SWAP1 POP PUSH0 PUSH2 0x236E DUP4 DUP7 PUSH2 0x1767 SWAP1 SWAP2 SWAP1 PUSH4 0xFFFFFFFF AND JUMP JUMPDEST SWAP1 POP PUSH0 PUSH20 0xFFFFFFFFFFFFFFFFFFFFFFFFFFFFFFFFFFFFFFFF AND DUP9 PUSH20 0xFFFFFFFFFFFFFFFFFFFFFFFFFFFFFFFFFFFFFFFF AND EQ PUSH2 0x2491 JUMPI PUSH0 DUP1 PUSH0 DUP5 DUP2 MSTORE PUSH1 0x20 ADD SWAP1 DUP2 MSTORE PUSH1 0x20 ADD PUSH0 KECCAK256 PUSH0 DUP11 PUSH20 0xFFFFFFFFFFFFFFFFFFFFFFFFFFFFFFFFFFFFFFFF AND PUSH20 0xFFFFFFFFFFFFFFFFFFFFFFFFFFFFFFFFFFFFFFFF AND DUP2 MSTORE PUSH1 0x20 ADD SWAP1 DUP2 MSTORE PUSH1 0x20 ADD PUSH0 KECCAK256 SLOAD SWAP1 POP DUP2 DUP2 LT ISZERO PUSH2 0x243D JUMPI DUP9 DUP2 DUP4 DUP6 PUSH1 0x40 MLOAD PUSH32 0x3DEE4C500000000000000000000000000000000000000000000000000000000 DUP2 MSTORE PUSH1 0x4 ADD PUSH2 0x2434 SWAP5 SWAP4 SWAP3 SWAP2 SWAP1 PUSH2 0x3BD6 JUMP JUMPDEST PUSH1 0x40 MLOAD DUP1 SWAP2 SUB SWAP1 REVERT JUMPDEST DUP2 DUP2 SUB PUSH0 DUP1 DUP6 DUP2 MSTORE PUSH1 0x20 ADD SWAP1 DUP2 MSTORE PUSH1 0x20 ADD PUSH0 KECCAK256 PUSH0 DUP12 PUSH20 0xFFFFFFFFFFFFFFFFFFFFFFFFFFFFFFFFFFFFFFFF AND PUSH20 0xFFFFFFFFFFFFFFFFFFFFFFFFFFFFFFFFFFFFFFFF AND DUP2 MSTORE PUSH1 0x20 ADD SWAP1 DUP2 MSTORE PUSH1 0x20 ADD PUSH0 KECCAK256 DUP2 SWAP1 SSTORE POP POP JUMPDEST PUSH0 PUSH20 0xFFFFFFFFFFFFFFFFFFFFFFFFFFFFFFFFFFFFFFFF AND DUP8 PUSH20 0xFFFFFFFFFFFFFFFFFFFFFFFFFFFFFFFFFFFFFFFF AND EQ PUSH2 0x2526 JUMPI DUP1 PUSH0 DUP1 DUP5 DUP2 MSTORE PUSH1 0x20 ADD SWAP1 DUP2 MSTORE PUSH1 0x20 ADD PUSH0 KECCAK256 PUSH0 DUP10 PUSH20 0xFFFFFFFFFFFFFFFFFFFFFFFFFFFFFFFFFFFFFFFF AND PUSH20 0xFFFFFFFFFFFFFFFFFFFFFFFFFFFFFFFFFFFFFFFF AND DUP2 MSTORE PUSH1 0x20 ADD SWAP1 DUP2 MSTORE PUSH1 0x20 ADD PUSH0 KECCAK256 PUSH0 DUP3 DUP3 SLOAD PUSH2 0x251E SWAP2 SWAP1 PUSH2 0x34B6 JUMP JUMPDEST SWAP3 POP POP DUP2 SWAP1 SSTORE POP JUMPDEST POP POP DUP1 PUSH1 0x1 ADD SWAP1 POP PUSH2 0x233B JUMP JUMPDEST POP PUSH1 0x1 DUP4 MLOAD SUB PUSH2 0x25EE JUMPI PUSH0 PUSH2 0x2551 PUSH0 DUP6 PUSH2 0x1767 SWAP1 SWAP2 SWAP1 PUSH4 0xFFFFFFFF AND JUMP JUMPDEST SWAP1 POP PUSH0 PUSH2 0x2567 PUSH0 DUP6 PUSH2 0x1767 SWAP1 SWAP2 SWAP1 PUSH4 0xFFFFFFFF AND JUMP JUMPDEST SWAP1 POP DUP6 PUSH20 0xFFFFFFFFFFFFFFFFFFFFFFFFFFFFFFFFFFFFFFFF AND DUP8 PUSH20 0xFFFFFFFFFFFFFFFFFFFFFFFFFFFFFFFFFFFFFFFF AND DUP5 PUSH20 0xFFFFFFFFFFFFFFFFFFFFFFFFFFFFFFFFFFFFFFFF AND PUSH32 0xC3D58168C5AE7397731D063D5BBF3D657854427343F4C083240F7AACAA2D0F62 DUP6 DUP6 PUSH1 0x40 MLOAD PUSH2 0x25DF SWAP3 SWAP2 SWAP1 PUSH2 0x373D JUMP JUMPDEST PUSH1 0x40 MLOAD DUP1 SWAP2 SUB SWAP1 LOG4 POP POP PUSH2 0x266D JUMP JUMPDEST DUP4 PUSH20 0xFFFFFFFFFFFFFFFFFFFFFFFFFFFFFFFFFFFFFFFF AND DUP6 PUSH20 0xFFFFFFFFFFFFFFFFFFFFFFFFFFFFFFFFFFFFFFFF AND DUP3 PUSH20 0xFFFFFFFFFFFFFFFFFFFFFFFFFFFFFFFFFFFFFFFF AND PUSH32 0x4A39DC06D4C0DBC64B70AF90FD698A233A518AA5D07E595D983B8C0526C8F7FB DUP7 DUP7 PUSH1 0x40 MLOAD PUSH2 0x2664 SWAP3 SWAP2 SWAP1 PUSH2 0x3C19 JUMP JUMPDEST PUSH1 0x40 MLOAD DUP1 SWAP2 SUB SWAP1 LOG4 JUMPDEST POP POP POP POP POP JUMP JUMPDEST PUSH0 PUSH1 0x40 MLOAD SWAP1 POP SWAP1 JUMP JUMPDEST PUSH0 DUP1 REVERT JUMPDEST PUSH0 DUP1 REVERT JUMPDEST PUSH0 PUSH20 0xFFFFFFFFFFFFFFFFFFFFFFFFFFFFFFFFFFFFFFFF DUP3 AND SWAP1 POP SWAP2 SWAP1 POP JUMP JUMPDEST PUSH0 PUSH2 0x26AE DUP3 PUSH2 0x2685 JUMP JUMPDEST SWAP1 POP SWAP2 SWAP1 POP JUMP JUMPDEST PUSH2 0x26BE DUP2 PUSH2 0x26A4 JUMP JUMPDEST DUP2 EQ PUSH2 0x26C8 JUMPI PUSH0 DUP1 REVERT JUMPDEST POP JUMP JUMPDEST PUSH0 DUP2 CALLDATALOAD SWAP1 POP PUSH2 0x26D9 DUP2 PUSH2 0x26B5 JUMP JUMPDEST SWAP3 SWAP2 POP POP JUMP JUMPDEST PUSH0 DUP2 SWAP1 POP SWAP2 SWAP1 POP JUMP JUMPDEST PUSH2 0x26F1 DUP2 PUSH2 0x26DF JUMP JUMPDEST DUP2 EQ PUSH2 0x26FB JUMPI PUSH0 DUP1 REVERT JUMPDEST POP JUMP JUMPDEST PUSH0 DUP2 CALLDATALOAD SWAP1 POP PUSH2 0x270C DUP2 PUSH2 0x26E8 JUMP JUMPDEST SWAP3 SWAP2 POP POP JUMP JUMPDEST PUSH0 DUP1 PUSH1 0x40 DUP4 DUP6 SUB SLT ISZERO PUSH2 0x2728 JUMPI PUSH2 0x2727 PUSH2 0x267D JUMP JUMPDEST JUMPDEST PUSH0 PUSH2 0x2735 DUP6 DUP3 DUP7 ADD PUSH2 0x26CB JUMP JUMPDEST SWAP3 POP POP PUSH1 0x20 PUSH2 0x2746 DUP6 DUP3 DUP7 ADD PUSH2 0x26FE JUMP JUMPDEST SWAP2 POP POP SWAP3 POP SWAP3 SWAP1 POP JUMP JUMPDEST PUSH2 0x2759 DUP2 PUSH2 0x26DF JUMP JUMPDEST DUP3 MSTORE POP POP JUMP JUMPDEST PUSH0 PUSH1 0x20 DUP3 ADD SWAP1 POP PUSH2 0x2772 PUSH0 DUP4 ADD DUP5 PUSH2 0x2750 JUMP JUMPDEST SWAP3 SWAP2 POP POP JUMP JUMPDEST PUSH0 PUSH32 0xFFFFFFFF00000000000000000000000000000000000000000000000000000000 DUP3 AND SWAP1 POP SWAP2 SWAP1 POP JUMP JUMPDEST PUSH2 0x27AC DUP2 PUSH2 0x2778 JUMP JUMPDEST DUP2 EQ PUSH2 0x27B6 JUMPI PUSH0 DUP1 REVERT JUMPDEST POP JUMP JUMPDEST PUSH0 DUP2 CALLDATALOAD SWAP1 POP PUSH2 0x27C7 DUP2 PUSH2 0x27A3 JUMP JUMPDEST SWAP3 SWAP2 POP POP JUMP JUMPDEST PUSH0 PUSH1 0x20 DUP3 DUP5 SUB SLT ISZERO PUSH2 0x27E2 JUMPI PUSH2 0x27E1 PUSH2 0x267D JUMP JUMPDEST JUMPDEST PUSH0 PUSH2 0x27EF DUP5 DUP3 DUP6 ADD PUSH2 0x27B9 JUMP JUMPDEST SWAP2 POP POP SWAP3 SWAP2 POP POP JUMP JUMPDEST PUSH0 DUP2 ISZERO ISZERO SWAP1 POP SWAP2 SWAP1 POP JUMP JUMPDEST PUSH2 0x280C DUP2 PUSH2 0x27F8 JUMP JUMPDEST DUP3 MSTORE POP POP JUMP JUMPDEST PUSH0 PUSH1 0x20 DUP3 ADD SWAP1 POP PUSH2 0x2825 PUSH0 DUP4 ADD DUP5 PUSH2 0x2803 JUMP JUMPDEST SWAP3 SWAP2 POP POP JUMP JUMPDEST PUSH0 DUP1 REVERT JUMPDEST PUSH0 DUP1 REVERT JUMPDEST PUSH0 PUSH1 0x1F NOT PUSH1 0x1F DUP4 ADD AND SWAP1 POP SWAP2 SWAP1 POP JUMP JUMPDEST PUSH32 0x4E487B7100000000000000000000000000000000000000000000000000000000 PUSH0 MSTORE PUSH1 0x41 PUSH1 0x4 MSTORE PUSH1 0x24 PUSH0 REVERT JUMPDEST PUSH2 0x2879 DUP3 PUSH2 0x2833 JUMP JUMPDEST DUP2 ADD DUP2 DUP2 LT PUSH8 0xFFFFFFFFFFFFFFFF DUP3 GT OR ISZERO PUSH2 0x2898 JUMPI PUSH2 0x2897 PUSH2 0x2843 JUMP JUMPDEST JUMPDEST DUP1 PUSH1 0x40 MSTORE POP POP POP JUMP JUMPDEST PUSH0 PUSH2 0x28AA PUSH2 0x2674 JUMP JUMPDEST SWAP1 POP PUSH2 0x28B6 DUP3 DUP3 PUSH2 0x2870 JUMP JUMPDEST SWAP2 SWAP1 POP JUMP JUMPDEST PUSH0 PUSH8 0xFFFFFFFFFFFFFFFF DUP3 GT ISZERO PUSH2 0x28D5 JUMPI PUSH2 0x28D4 PUSH2 0x2843 JUMP JUMPDEST JUMPDEST PUSH2 0x28DE DUP3 PUSH2 0x2833 JUMP JUMPDEST SWAP1 POP PUSH1 0x20 DUP2 ADD SWAP1 POP SWAP2 SWAP1 POP JUMP JUMPDEST DUP3 DUP2 DUP4 CALLDATACOPY PUSH0 DUP4 DUP4 ADD MSTORE POP POP POP JUMP JUMPDEST PUSH0 PUSH2 0x290B PUSH2 0x2906 DUP5 PUSH2 0x28BB JUMP JUMPDEST PUSH2 0x28A1 JUMP JUMPDEST SWAP1 POP DUP3 DUP2 MSTORE PUSH1 0x20 DUP2 ADD DUP5 DUP5 DUP5 ADD GT ISZERO PUSH2 0x2927 JUMPI PUSH2 0x2926 PUSH2 0x282F JUMP JUMPDEST JUMPDEST PUSH2 0x2932 DUP5 DUP3 DUP6 PUSH2 0x28EB JUMP JUMPDEST POP SWAP4 SWAP3 POP POP POP JUMP JUMPDEST PUSH0 DUP3 PUSH1 0x1F DUP4 ADD SLT PUSH2 0x294E JUMPI PUSH2 0x294D PUSH2 0x282B JUMP JUMPDEST JUMPDEST DUP2 CALLDATALOAD PUSH2 0x295E DUP5 DUP3 PUSH1 0x20 DUP7 ADD PUSH2 0x28F9 JUMP JUMPDEST SWAP2 POP POP SWAP3 SWAP2 POP POP JUMP JUMPDEST PUSH0 PUSH1 0x20 DUP3 DUP5 SUB SLT ISZERO PUSH2 0x297C JUMPI PUSH2 0x297B PUSH2 0x267D JUMP JUMPDEST JUMPDEST PUSH0 DUP3 ADD CALLDATALOAD PUSH8 0xFFFFFFFFFFFFFFFF DUP2 GT ISZERO PUSH2 0x2999 JUMPI PUSH2 0x2998 PUSH2 0x2681 JUMP JUMPDEST JUMPDEST PUSH2 0x29A5 DUP5 DUP3 DUP6 ADD PUSH2 0x293A JUMP JUMPDEST SWAP2 POP POP SWAP3 SWAP2 POP POP JUMP JUMPDEST PUSH0 PUSH1 0x20 DUP3 DUP5 SUB SLT ISZERO PUSH2 0x29C3 JUMPI PUSH2 0x29C2 PUSH2 0x267D JUMP JUMPDEST JUMPDEST PUSH0 PUSH2 0x29D0 DUP5 DUP3 DUP6 ADD PUSH2 0x26FE JUMP JUMPDEST SWAP2 POP POP SWAP3 SWAP2 POP POP JUMP JUMPDEST PUSH0 DUP2 MLOAD SWAP1 POP SWAP2 SWAP1 POP JUMP JUMPDEST PUSH0 DUP3 DUP3 MSTORE PUSH1 0x20 DUP3 ADD SWAP1 POP SWAP3 SWAP2 POP POP JUMP JUMPDEST PUSH0 JUMPDEST DUP4 DUP2 LT ISZERO PUSH2 0x2A10 JUMPI DUP1 DUP3 ADD MLOAD DUP2 DUP5 ADD MSTORE PUSH1 0x20 DUP2 ADD SWAP1 POP PUSH2 0x29F5 JUMP JUMPDEST PUSH0 DUP5 DUP5 ADD MSTORE POP POP POP POP JUMP JUMPDEST PUSH0 PUSH2 0x2A25 DUP3 PUSH2 0x29D9 JUMP JUMPDEST PUSH2 0x2A2F DUP2 DUP6 PUSH2 0x29E3 JUMP JUMPDEST SWAP4 POP PUSH2 0x2A3F DUP2 DUP6 PUSH1 0x20 DUP7 ADD PUSH2 0x29F3 JUMP JUMPDEST PUSH2 0x2A48 DUP2 PUSH2 0x2833 JUMP JUMPDEST DUP5 ADD SWAP2 POP POP SWAP3 SWAP2 POP POP JUMP JUMPDEST PUSH0 PUSH1 0x20 DUP3 ADD SWAP1 POP DUP2 DUP2 SUB PUSH0 DUP4 ADD MSTORE PUSH2 0x2A6B DUP2 DUP5 PUSH2 0x2A1B JUMP JUMPDEST SWAP1 POP SWAP3 SWAP2 POP POP JUMP JUMPDEST PUSH0 DUP1 PUSH1 0x40 DUP4 DUP6 SUB SLT ISZERO PUSH2 0x2A89 JUMPI PUSH2 0x2A88 PUSH2 0x267D JUMP JUMPDEST JUMPDEST PUSH0 PUSH2 0x2A96 DUP6 DUP3 DUP7 ADD PUSH2 0x26FE JUMP JUMPDEST SWAP3 POP POP PUSH1 0x20 PUSH2 0x2AA7 DUP6 DUP3 DUP7 ADD PUSH2 0x26FE JUMP JUMPDEST SWAP2 POP POP SWAP3 POP SWAP3 SWAP1 POP JUMP JUMPDEST PUSH0 PUSH8 0xFFFFFFFFFFFFFFFF DUP3 GT ISZERO PUSH2 0x2ACB JUMPI PUSH2 0x2ACA PUSH2 0x2843 JUMP JUMPDEST JUMPDEST PUSH1 0x20 DUP3 MUL SWAP1 POP PUSH1 0x20 DUP2 ADD SWAP1 POP SWAP2 SWAP1 POP JUMP JUMPDEST PUSH0 DUP1 REVERT JUMPDEST PUSH0 PUSH2 0x2AF2 PUSH2 0x2AED DUP5 PUSH2 0x2AB1 JUMP JUMPDEST PUSH2 0x28A1 JUMP JUMPDEST SWAP1 POP DUP1 DUP4 DUP3 MSTORE PUSH1 0x20 DUP3 ADD SWAP1 POP PUSH1 0x20 DUP5 MUL DUP4 ADD DUP6 DUP2 GT ISZERO PUSH2 0x2B15 JUMPI PUSH2 0x2B14 PUSH2 0x2ADC JUMP JUMPDEST JUMPDEST DUP4 JUMPDEST DUP2 DUP2 LT ISZERO PUSH2 0x2B3E JUMPI DUP1 PUSH2 0x2B2A DUP9 DUP3 PUSH2 0x26FE JUMP JUMPDEST DUP5 MSTORE PUSH1 0x20 DUP5 ADD SWAP4 POP POP PUSH1 0x20 DUP2 ADD SWAP1 POP PUSH2 0x2B17 JUMP JUMPDEST POP POP POP SWAP4 SWAP3 POP POP POP JUMP JUMPDEST PUSH0 DUP3 PUSH1 0x1F DUP4 ADD SLT PUSH2 0x2B5C JUMPI PUSH2 0x2B5B PUSH2 0x282B JUMP JUMPDEST JUMPDEST DUP2 CALLDATALOAD PUSH2 0x2B6C DUP5 DUP3 PUSH1 0x20 DUP7 ADD PUSH2 0x2AE0 JUMP JUMPDEST SWAP2 POP POP SWAP3 SWAP2 POP POP JUMP JUMPDEST PUSH0 PUSH8 0xFFFFFFFFFFFFFFFF DUP3 GT ISZERO PUSH2 0x2B8F JUMPI PUSH2 0x2B8E PUSH2 0x2843 JUMP JUMPDEST JUMPDEST PUSH2 0x2B98 DUP3 PUSH2 0x2833 JUMP JUMPDEST SWAP1 POP PUSH1 0x20 DUP2 ADD SWAP1 POP SWAP2 SWAP1 POP JUMP JUMPDEST PUSH0 PUSH2 0x2BB7 PUSH2 0x2BB2 DUP5 PUSH2 0x2B75 JUMP JUMPDEST PUSH2 0x28A1 JUMP JUMPDEST SWAP1 POP DUP3 DUP2 MSTORE PUSH1 0x20 DUP2 ADD DUP5 DUP5 DUP5 ADD GT ISZERO PUSH2 0x2BD3 JUMPI PUSH2 0x2BD2 PUSH2 0x282F JUMP JUMPDEST JUMPDEST PUSH2 0x2BDE DUP5 DUP3 DUP6 PUSH2 0x28EB JUMP JUMPDEST POP SWAP4 SWAP3 POP POP POP JUMP JUMPDEST PUSH0 DUP3 PUSH1 0x1F DUP4 ADD SLT PUSH2 0x2BFA JUMPI PUSH2 0x2BF9 PUSH2 0x282B JUMP JUMPDEST JUMPDEST DUP2 CALLDATALOAD PUSH2 0x2C0A DUP5 DUP3 PUSH1 0x20 DUP7 ADD PUSH2 0x2BA5 JUMP JUMPDEST SWAP2 POP POP SWAP3 SWAP2 POP POP JUMP JUMPDEST PUSH0 DUP1 PUSH0 DUP1 PUSH1 0x80 DUP6 DUP8 SUB SLT ISZERO PUSH2 0x2C2B JUMPI PUSH2 0x2C2A PUSH2 0x267D JUMP JUMPDEST JUMPDEST PUSH0 PUSH2 0x2C38 DUP8 DUP3 DUP9 ADD PUSH2 0x26CB JUMP JUMPDEST SWAP5 POP POP PUSH1 0x20 DUP6 ADD CALLDATALOAD PUSH8 0xFFFFFFFFFFFFFFFF DUP2 GT ISZERO PUSH2 0x2C59 JUMPI PUSH2 0x2C58 PUSH2 0x2681 JUMP JUMPDEST JUMPDEST PUSH2 0x2C65 DUP8 DUP3 DUP9 ADD PUSH2 0x2B48 JUMP JUMPDEST SWAP4 POP POP PUSH1 0x40 DUP6 ADD CALLDATALOAD PUSH8 0xFFFFFFFFFFFFFFFF DUP2 GT ISZERO PUSH2 0x2C86 JUMPI PUSH2 0x2C85 PUSH2 0x2681 JUMP JUMPDEST JUMPDEST PUSH2 0x2C92 DUP8 DUP3 DUP9 ADD PUSH2 0x2B48 JUMP JUMPDEST SWAP3 POP POP PUSH1 0x60 DUP6 ADD CALLDATALOAD PUSH8 0xFFFFFFFFFFFFFFFF DUP2 GT ISZERO PUSH2 0x2CB3 JUMPI PUSH2 0x2CB2 PUSH2 0x2681 JUMP JUMPDEST JUMPDEST PUSH2 0x2CBF DUP8 DUP3 DUP9 ADD PUSH2 0x2BE6 JUMP JUMPDEST SWAP2 POP POP SWAP3 SWAP6 SWAP2 SWAP5 POP SWAP3 POP JUMP JUMPDEST PUSH0 PUSH1 0x20 DUP3 DUP5 SUB SLT ISZERO PUSH2 0x2CE0 JUMPI PUSH2 0x2CDF PUSH2 0x267D JUMP JUMPDEST JUMPDEST PUSH0 PUSH2 0x2CED DUP5 DUP3 DUP6 ADD PUSH2 0x26CB JUMP JUMPDEST SWAP2 POP POP SWAP3 SWAP2 POP POP JUMP JUMPDEST PUSH0 DUP1 PUSH0 DUP1 PUSH0 PUSH1 0xA0 DUP7 DUP9 SUB SLT ISZERO PUSH2 0x2D0F JUMPI PUSH2 0x2D0E PUSH2 0x267D JUMP JUMPDEST JUMPDEST PUSH0 PUSH2 0x2D1C DUP9 DUP3 DUP10 ADD PUSH2 0x26CB JUMP JUMPDEST SWAP6 POP POP PUSH1 0x20 PUSH2 0x2D2D DUP9 DUP3 DUP10 ADD PUSH2 0x26CB JUMP JUMPDEST SWAP5 POP POP PUSH1 0x40 DUP7 ADD CALLDATALOAD PUSH8 0xFFFFFFFFFFFFFFFF DUP2 GT ISZERO PUSH2 0x2D4E JUMPI PUSH2 0x2D4D PUSH2 0x2681 JUMP JUMPDEST JUMPDEST PUSH2 0x2D5A DUP9 DUP3 DUP10 ADD PUSH2 0x2B48 JUMP JUMPDEST SWAP4 POP POP PUSH1 0x60 DUP7 ADD CALLDATALOAD PUSH8 0xFFFFFFFFFFFFFFFF DUP2 GT ISZERO PUSH2 0x2D7B JUMPI PUSH2 0x2D7A PUSH2 0x2681 JUMP JUMPDEST JUMPDEST PUSH2 0x2D87 DUP9 DUP3 DUP10 ADD PUSH2 0x2B48 JUMP JUMPDEST SWAP3 POP POP PUSH1 0x80 DUP7 ADD CALLDATALOAD PUSH8 0xFFFFFFFFFFFFFFFF DUP2 GT ISZERO PUSH2 0x2DA8 JUMPI PUSH2 0x2DA7 PUSH2 0x2681 JUMP JUMPDEST JUMPDEST PUSH2 0x2DB4 DUP9 DUP3 DUP10 ADD PUSH2 0x2BE6 JUMP JUMPDEST SWAP2 POP POP SWAP3 SWAP6 POP SWAP3 SWAP6 SWAP1 SWAP4 POP JUMP JUMPDEST PUSH2 0x2DCA DUP2 PUSH2 0x27F8 JUMP JUMPDEST DUP2 EQ PUSH2 0x2DD4 JUMPI PUSH0 DUP1 REVERT JUMPDEST POP JUMP JUMPDEST PUSH0 DUP2 CALLDATALOAD SWAP1 POP PUSH2 0x2DE5 DUP2 PUSH2 0x2DC1 JUMP JUMPDEST SWAP3 SWAP2 POP POP JUMP JUMPDEST PUSH0 DUP1 PUSH1 0x40 DUP4 DUP6 SUB SLT ISZERO PUSH2 0x2E01 JUMPI PUSH2 0x2E00 PUSH2 0x267D JUMP JUMPDEST JUMPDEST PUSH0 PUSH2 0x2E0E DUP6 DUP3 DUP7 ADD PUSH2 0x2DD7 JUMP JUMPDEST SWAP3 POP POP PUSH1 0x20 PUSH2 0x2E1F DUP6 DUP3 DUP7 ADD PUSH2 0x2DD7 JUMP JUMPDEST SWAP2 POP POP SWAP3 POP SWAP3 SWAP1 POP JUMP JUMPDEST PUSH0 PUSH8 0xFFFFFFFFFFFFFFFF DUP3 GT ISZERO PUSH2 0x2E43 JUMPI PUSH2 0x2E42 PUSH2 0x2843 JUMP JUMPDEST JUMPDEST PUSH1 0x20 DUP3 MUL SWAP1 POP PUSH1 0x20 DUP2 ADD SWAP1 POP SWAP2 SWAP1 POP JUMP JUMPDEST PUSH0 PUSH2 0x2E66 PUSH2 0x2E61 DUP5 PUSH2 0x2E29 JUMP JUMPDEST PUSH2 0x28A1 JUMP JUMPDEST SWAP1 POP DUP1 DUP4 DUP3 MSTORE PUSH1 0x20 DUP3 ADD SWAP1 POP PUSH1 0x20 DUP5 MUL DUP4 ADD DUP6 DUP2 GT ISZERO PUSH2 0x2E89 JUMPI PUSH2 0x2E88 PUSH2 0x2ADC JUMP JUMPDEST JUMPDEST DUP4 JUMPDEST DUP2 DUP2 LT ISZERO PUSH2 0x2EB2 JUMPI DUP1 PUSH2 0x2E9E DUP9 DUP3 PUSH2 0x26CB JUMP JUMPDEST DUP5 MSTORE PUSH1 0x20 DUP5 ADD SWAP4 POP POP PUSH1 0x20 DUP2 ADD SWAP1 POP PUSH2 0x2E8B JUMP JUMPDEST POP POP POP SWAP4 SWAP3 POP POP POP JUMP JUMPDEST PUSH0 DUP3 PUSH1 0x1F DUP4 ADD SLT PUSH2 0x2ED0 JUMPI PUSH2 0x2ECF PUSH2 0x282B JUMP JUMPDEST JUMPDEST DUP2 CALLDATALOAD PUSH2 0x2EE0 DUP5 DUP3 PUSH1 0x20 DUP7 ADD PUSH2 0x2E54 JUMP JUMPDEST SWAP2 POP POP SWAP3 SWAP2 POP POP JUMP JUMPDEST PUSH0 DUP1 PUSH1 0x40 DUP4 DUP6 SUB SLT ISZERO PUSH2 0x2EFF JUMPI PUSH2 0x2EFE PUSH2 0x267D JUMP JUMPDEST JUMPDEST PUSH0 DUP4 ADD CALLDATALOAD PUSH8 0xFFFFFFFFFFFFFFFF DUP2 GT ISZERO PUSH2 0x2F1C JUMPI PUSH2 0x2F1B PUSH2 0x2681 JUMP JUMPDEST JUMPDEST PUSH2 0x2F28 DUP6 DUP3 DUP7 ADD PUSH2 0x2EBC JUMP JUMPDEST SWAP3 POP POP PUSH1 0x20 DUP4 ADD CALLDATALOAD PUSH8 0xFFFFFFFFFFFFFFFF DUP2 GT ISZERO PUSH2 0x2F49 JUMPI PUSH2 0x2F48 PUSH2 0x2681 JUMP JUMPDEST JUMPDEST PUSH2 0x2F55 DUP6 DUP3 DUP7 ADD PUSH2 0x2B48 JUMP JUMPDEST SWAP2 POP POP SWAP3 POP SWAP3 SWAP1 POP JUMP JUMPDEST PUSH0 DUP2 MLOAD SWAP1 POP SWAP2 SWAP1 POP JUMP JUMPDEST PUSH0 DUP3 DUP3 MSTORE PUSH1 0x20 DUP3 ADD SWAP1 POP SWAP3 SWAP2 POP POP JUMP JUMPDEST PUSH0 DUP2 SWAP1 POP PUSH1 0x20 DUP3 ADD SWAP1 POP SWAP2 SWAP1 POP JUMP JUMPDEST PUSH2 0x2F91 DUP2 PUSH2 0x26DF JUMP JUMPDEST DUP3 MSTORE POP POP JUMP JUMPDEST PUSH0 PUSH2 0x2FA2 DUP4 DUP4 PUSH2 0x2F88 JUMP JUMPDEST PUSH1 0x20 DUP4 ADD SWAP1 POP SWAP3 SWAP2 POP POP JUMP JUMPDEST PUSH0 PUSH1 0x20 DUP3 ADD SWAP1 POP SWAP2 SWAP1 POP JUMP JUMPDEST PUSH0 PUSH2 0x2FC4 DUP3 PUSH2 0x2F5F JUMP JUMPDEST PUSH2 0x2FCE DUP2 DUP6 PUSH2 0x2F69 JUMP JUMPDEST SWAP4 POP PUSH2 0x2FD9 DUP4 PUSH2 0x2F79 JUMP JUMPDEST DUP1 PUSH0 JUMPDEST DUP4 DUP2 LT ISZERO PUSH2 0x3009 JUMPI DUP2 MLOAD PUSH2 0x2FF0 DUP9 DUP3 PUSH2 0x2F97 JUMP JUMPDEST SWAP8 POP PUSH2 0x2FFB DUP4 PUSH2 0x2FAE JUMP JUMPDEST SWAP3 POP POP PUSH1 0x1 DUP2 ADD SWAP1 POP PUSH2 0x2FDC JUMP JUMPDEST POP DUP6 SWAP4 POP POP POP POP SWAP3 SWAP2 POP POP JUMP JUMPDEST PUSH0 PUSH1 0x20 DUP3 ADD SWAP1 POP DUP2 DUP2 SUB PUSH0 DUP4 ADD MSTORE PUSH2 0x302E DUP2 DUP5 PUSH2 0x2FBA JUMP JUMPDEST SWAP1 POP SWAP3 SWAP2 POP POP JUMP JUMPDEST PUSH0 DUP1 REVERT JUMPDEST PUSH0 DUP1 DUP4 PUSH1 0x1F DUP5 ADD SLT PUSH2 0x304F JUMPI PUSH2 0x304E PUSH2 0x282B JUMP JUMPDEST JUMPDEST DUP3 CALLDATALOAD SWAP1 POP PUSH8 0xFFFFFFFFFFFFFFFF DUP2 GT ISZERO PUSH2 0x306C JUMPI PUSH2 0x306B PUSH2 0x3036 JUMP JUMPDEST JUMPDEST PUSH1 0x20 DUP4 ADD SWAP2 POP DUP4 PUSH1 0x20 DUP3 MUL DUP4 ADD GT ISZERO PUSH2 0x3088 JUMPI PUSH2 0x3087 PUSH2 0x2ADC JUMP JUMPDEST JUMPDEST SWAP3 POP SWAP3 SWAP1 POP JUMP JUMPDEST PUSH0 DUP1 PUSH1 0x20 DUP4 DUP6 SUB SLT ISZERO PUSH2 0x30A5 JUMPI PUSH2 0x30A4 PUSH2 0x267D JUMP JUMPDEST JUMPDEST PUSH0 DUP4 ADD CALLDATALOAD PUSH8 0xFFFFFFFFFFFFFFFF DUP2 GT ISZERO PUSH2 0x30C2 JUMPI PUSH2 0x30C1 PUSH2 0x2681 JUMP JUMPDEST JUMPDEST PUSH2 0x30CE DUP6 DUP3 DUP7 ADD PUSH2 0x303A JUMP JUMPDEST SWAP3 POP SWAP3 POP POP SWAP3 POP SWAP3 SWAP1 POP JUMP JUMPDEST PUSH2 0x30E3 DUP2 PUSH2 0x26A4 JUMP JUMPDEST DUP3 MSTORE POP POP JUMP JUMPDEST PUSH0 PUSH1 0x20 DUP3 ADD SWAP1 POP PUSH2 0x30FC PUSH0 DUP4 ADD DUP5 PUSH2 0x30DA JUMP JUMPDEST SWAP3 SWAP2 POP POP JUMP JUMPDEST PUSH0 DUP1 PUSH1 0x40 DUP4 DUP6 SUB SLT ISZERO PUSH2 0x3118 JUMPI PUSH2 0x3117 PUSH2 0x267D JUMP JUMPDEST JUMPDEST PUSH0 PUSH2 0x3125 DUP6 DUP3 DUP7 ADD PUSH2 0x26CB JUMP JUMPDEST SWAP3 POP POP PUSH1 0x20 PUSH2 0x3136 DUP6 DUP3 DUP7 ADD PUSH2 0x2DD7 JUMP JUMPDEST SWAP2 POP POP SWAP3 POP SWAP3 SWAP1 POP JUMP JUMPDEST PUSH0 DUP1 PUSH1 0x40 DUP4 DUP6 SUB SLT ISZERO PUSH2 0x3156 JUMPI PUSH2 0x3155 PUSH2 0x267D JUMP JUMPDEST JUMPDEST PUSH0 PUSH2 0x3163 DUP6 DUP3 DUP7 ADD PUSH2 0x26CB JUMP JUMPDEST SWAP3 POP POP PUSH1 0x20 PUSH2 0x3174 DUP6 DUP3 DUP7 ADD PUSH2 0x26CB JUMP JUMPDEST SWAP2 POP POP SWAP3 POP SWAP3 SWAP1 POP JUMP JUMPDEST PUSH0 DUP1 PUSH0 DUP1 PUSH0 PUSH1 0xA0 DUP7 DUP9 SUB SLT ISZERO PUSH2 0x3197 JUMPI PUSH2 0x3196 PUSH2 0x267D JUMP JUMPDEST JUMPDEST PUSH0 PUSH2 0x31A4 DUP9 DUP3 DUP10 ADD PUSH2 0x26CB JUMP JUMPDEST SWAP6 POP POP PUSH1 0x20 PUSH2 0x31B5 DUP9 DUP3 DUP10 ADD PUSH2 0x26CB JUMP JUMPDEST SWAP5 POP POP PUSH1 0x40 PUSH2 0x31C6 DUP9 DUP3 DUP10 ADD PUSH2 0x26FE JUMP JUMPDEST SWAP4 POP POP PUSH1 0x60 PUSH2 0x31D7 DUP9 DUP3 DUP10 ADD PUSH2 0x26FE JUMP JUMPDEST SWAP3 POP POP PUSH1 0x80 DUP7 ADD CALLDATALOAD PUSH8 0xFFFFFFFFFFFFFFFF DUP2 GT ISZERO PUSH2 0x31F8 JUMPI PUSH2 0x31F7 PUSH2 0x2681 JUMP JUMPDEST JUMPDEST PUSH2 0x3204 DUP9 DUP3 DUP10 ADD PUSH2 0x2BE6 JUMP JUMPDEST SWAP2 POP POP SWAP3 SWAP6 POP SWAP3 SWAP6 SWAP1 SWAP4 POP JUMP JUMPDEST PUSH32 0x555249206572726F722C20746F6B656E20646F6573206E6F7420657869737421 PUSH0 DUP3 ADD MSTORE POP JUMP JUMPDEST PUSH0 PUSH2 0x3245 PUSH1 0x20 DUP4 PUSH2 0x29E3 JUMP JUMPDEST SWAP2 POP PUSH2 0x3250 DUP3 PUSH2 0x3211 JUMP JUMPDEST PUSH1 0x20 DUP3 ADD SWAP1 POP SWAP2 SWAP1 POP JUMP JUMPDEST PUSH0 PUSH1 0x20 DUP3 ADD SWAP1 POP DUP2 DUP2 SUB PUSH0 DUP4 ADD MSTORE PUSH2 0x3272 DUP2 PUSH2 0x3239 JUMP JUMPDEST SWAP1 POP SWAP2 SWAP1 POP JUMP JUMPDEST PUSH0 DUP2 SWAP1 POP SWAP3 SWAP2 POP POP JUMP JUMPDEST PUSH0 PUSH2 0x328D DUP3 PUSH2 0x29D9 JUMP JUMPDEST PUSH2 0x3297 DUP2 DUP6 PUSH2 0x3279 JUMP JUMPDEST SWAP4 POP PUSH2 0x32A7 DUP2 DUP6 PUSH1 0x20 DUP7 ADD PUSH2 0x29F3 JUMP JUMPDEST DUP1 DUP5 ADD SWAP2 POP POP SWAP3 SWAP2 POP POP JUMP JUMPDEST PUSH32 0x2E6A736F6E000000000000000000000000000000000000000000000000000000 PUSH0 DUP3 ADD MSTORE POP JUMP JUMPDEST PUSH0 PUSH2 0x32E7 PUSH1 0x5 DUP4 PUSH2 0x3279 JUMP JUMPDEST SWAP2 POP PUSH2 0x32F2 DUP3 PUSH2 0x32B3 JUMP JUMPDEST PUSH1 0x5 DUP3 ADD SWAP1 POP SWAP2 SWAP1 POP JUMP JUMPDEST PUSH0 PUSH2 0x3308 DUP3 DUP6 PUSH2 0x3283 JUMP JUMPDEST SWAP2 POP PUSH2 0x3314 DUP3 DUP5 PUSH2 0x3283 JUMP JUMPDEST SWAP2 POP PUSH2 0x331F DUP3 PUSH2 0x32DB JUMP JUMPDEST SWAP2 POP DUP2 SWAP1 POP SWAP4 SWAP3 POP POP POP JUMP JUMPDEST PUSH32 0x416C6C6F77206C697374206D696E7420636C6F7365642E000000000000000000 PUSH0 DUP3 ADD MSTORE POP JUMP JUMPDEST PUSH0 PUSH2 0x335F PUSH1 0x17 DUP4 PUSH2 0x29E3 JUMP JUMPDEST SWAP2 POP PUSH2 0x336A DUP3 PUSH2 0x332B JUMP JUMPDEST PUSH1 0x20 DUP3 ADD SWAP1 POP SWAP2 SWAP1 POP JUMP JUMPDEST PUSH0 PUSH1 0x20 DUP3 ADD SWAP1 POP DUP2 DUP2 SUB PUSH0 DUP4 ADD MSTORE PUSH2 0x338C DUP2 PUSH2 0x3353 JUMP JUMPDEST SWAP1 POP SWAP2 SWAP1 POP JUMP JUMPDEST PUSH32 0x596F7520617265206E6F74206F6E2074686520616C6C6F77206C697374210000 PUSH0 DUP3 ADD MSTORE POP JUMP JUMPDEST PUSH0 PUSH2 0x33C7 PUSH1 0x1E DUP4 PUSH2 0x29E3 JUMP JUMPDEST SWAP2 POP PUSH2 0x33D2 DUP3 PUSH2 0x3393 JUMP JUMPDEST PUSH1 0x20 DUP3 ADD SWAP1 POP SWAP2 SWAP1 POP JUMP JUMPDEST PUSH0 PUSH1 0x20 DUP3 ADD SWAP1 POP DUP2 DUP2 SUB PUSH0 DUP4 ADD MSTORE PUSH2 0x33F4 DUP2 PUSH2 0x33BB JUMP JUMPDEST SWAP1 POP SWAP2 SWAP1 POP JUMP JUMPDEST PUSH32 0x4D696E74696E672077726F6E6720746F6B656E206E756D62657220286F6E6C79 PUSH0 DUP3 ADD MSTORE PUSH32 0x20302D313020746F6B656E732900000000000000000000000000000000000000 PUSH1 0x20 DUP3 ADD MSTORE POP JUMP JUMPDEST PUSH0 PUSH2 0x3455 PUSH1 0x2D DUP4 PUSH2 0x29E3 JUMP JUMPDEST SWAP2 POP PUSH2 0x3460 DUP3 PUSH2 0x33FB JUMP JUMPDEST PUSH1 0x40 DUP3 ADD SWAP1 POP SWAP2 SWAP1 POP JUMP JUMPDEST PUSH0 PUSH1 0x20 DUP3 ADD SWAP1 POP DUP2 DUP2 SUB PUSH0 DUP4 ADD MSTORE PUSH2 0x3482 DUP2 PUSH2 0x3449 JUMP JUMPDEST SWAP1 POP SWAP2 SWAP1 POP JUMP JUMPDEST PUSH32 0x4E487B7100000000000000000000000000000000000000000000000000000000 PUSH0 MSTORE PUSH1 0x11 PUSH1 0x4 MSTORE PUSH1 0x24 PUSH0 REVERT JUMPDEST PUSH0 PUSH2 0x34C0 DUP3 PUSH2 0x26DF JUMP JUMPDEST SWAP2 POP PUSH2 0x34CB DUP4 PUSH2 0x26DF JUMP JUMPDEST SWAP3 POP DUP3 DUP3 ADD SWAP1 POP DUP1 DUP3 GT ISZERO PUSH2 0x34E3 JUMPI PUSH2 0x34E2 PUSH2 0x3489 JUMP JUMPDEST JUMPDEST SWAP3 SWAP2 POP POP JUMP JUMPDEST PUSH32 0x4D617820737570706C7920666F7220746F6B656E20726561636865642E000000 PUSH0 DUP3 ADD MSTORE POP JUMP JUMPDEST PUSH0 PUSH2 0x351D PUSH1 0x1D DUP4 PUSH2 0x29E3 JUMP JUMPDEST SWAP2 POP PUSH2 0x3528 DUP3 PUSH2 0x34E9 JUMP JUMPDEST PUSH1 0x20 DUP3 ADD SWAP1 POP SWAP2 SWAP1 POP JUMP JUMPDEST PUSH0 PUSH1 0x20 DUP3 ADD SWAP1 POP DUP2 DUP2 SUB PUSH0 DUP4 ADD MSTORE PUSH2 0x354A DUP2 PUSH2 0x3511 JUMP JUMPDEST SWAP1 POP SWAP2 SWAP1 POP JUMP JUMPDEST PUSH0 PUSH2 0x355B DUP3 PUSH2 0x26DF JUMP JUMPDEST SWAP2 POP PUSH2 0x3566 DUP4 PUSH2 0x26DF JUMP JUMPDEST SWAP3 POP DUP3 DUP3 MUL PUSH2 0x3574 DUP2 PUSH2 0x26DF JUMP JUMPDEST SWAP2 POP DUP3 DUP3 DIV DUP5 EQ DUP4 ISZERO OR PUSH2 0x358B JUMPI PUSH2 0x358A PUSH2 0x3489 JUMP JUMPDEST JUMPDEST POP SWAP3 SWAP2 POP POP JUMP JUMPDEST PUSH32 0x6E6F7420656E6F7567682066756E64732C20302E303031204554482070657220 PUSH0 DUP3 ADD MSTORE PUSH32 0x6D696E7400000000000000000000000000000000000000000000000000000000 PUSH1 0x20 DUP3 ADD MSTORE POP JUMP JUMPDEST PUSH0 PUSH2 0x35EC PUSH1 0x24 DUP4 PUSH2 0x29E3 JUMP JUMPDEST SWAP2 POP PUSH2 0x35F7 DUP3 PUSH2 0x3592 JUMP JUMPDEST PUSH1 0x40 DUP3 ADD SWAP1 POP SWAP2 SWAP1 POP JUMP JUMPDEST PUSH0 PUSH1 0x20 DUP3 ADD SWAP1 POP DUP2 DUP2 SUB PUSH0 DUP4 ADD MSTORE PUSH2 0x3619 DUP2 PUSH2 0x35E0 JUMP JUMPDEST SWAP1 POP SWAP2 SWAP1 POP JUMP JUMPDEST PUSH32 0x5075626C6963206D696E7420697320636C6F7365642E00000000000000000000 PUSH0 DUP3 ADD MSTORE POP JUMP JUMPDEST PUSH0 PUSH2 0x3654 PUSH1 0x16 DUP4 PUSH2 0x29E3 JUMP JUMPDEST SWAP2 POP PUSH2 0x365F DUP3 PUSH2 0x3620 JUMP JUMPDEST PUSH1 0x20 DUP3 ADD SWAP1 POP SWAP2 SWAP1 POP JUMP JUMPDEST PUSH0 PUSH1 0x20 DUP3 ADD SWAP1 POP DUP2 DUP2 SUB PUSH0 DUP4 ADD MSTORE PUSH2 0x3681 DUP2 PUSH2 0x3648 JUMP JUMPDEST SWAP1 POP SWAP2 SWAP1 POP JUMP JUMPDEST PUSH32 0x4E6F7420656E6F7567682066756E64732C20726571756972657320302E303120 PUSH0 DUP3 ADD MSTORE PUSH32 0x4554480000000000000000000000000000000000000000000000000000000000 PUSH1 0x20 DUP3 ADD MSTORE POP JUMP JUMPDEST PUSH0 PUSH2 0x36E2 PUSH1 0x23 DUP4 PUSH2 0x29E3 JUMP JUMPDEST SWAP2 POP PUSH2 0x36ED DUP3 PUSH2 0x3688 JUMP JUMPDEST PUSH1 0x40 DUP3 ADD SWAP1 POP SWAP2 SWAP1 POP JUMP JUMPDEST PUSH0 PUSH1 0x20 DUP3 ADD SWAP1 POP DUP2 DUP2 SUB PUSH0 DUP4 ADD MSTORE PUSH2 0x370F DUP2 PUSH2 0x36D6 JUMP JUMPDEST SWAP1 POP SWAP2 SWAP1 POP JUMP JUMPDEST PUSH0 PUSH1 0x40 DUP3 ADD SWAP1 POP PUSH2 0x3729 PUSH0 DUP4 ADD DUP6 PUSH2 0x30DA JUMP JUMPDEST PUSH2 0x3736 PUSH1 0x20 DUP4 ADD DUP5 PUSH2 0x30DA JUMP JUMPDEST SWAP4 SWAP3 POP POP POP JUMP JUMPDEST PUSH0 PUSH1 0x40 DUP3 ADD SWAP1 POP PUSH2 0x3750 PUSH0 DUP4 ADD DUP6 PUSH2 0x2750 JUMP JUMPDEST PUSH2 0x375D PUSH1 0x20 DUP4 ADD DUP5 PUSH2 0x2750 JUMP JUMPDEST SWAP4 SWAP3 POP POP POP JUMP JUMPDEST PUSH32 0x4E487B7100000000000000000000000000000000000000000000000000000000 PUSH0 MSTORE PUSH1 0x32 PUSH1 0x4 MSTORE PUSH1 0x24 PUSH0 REVERT JUMPDEST PUSH32 0x4E487B7100000000000000000000000000000000000000000000000000000000 PUSH0 MSTORE PUSH1 0x22 PUSH1 0x4 MSTORE PUSH1 0x24 PUSH0 REVERT JUMPDEST PUSH0 PUSH1 0x2 DUP3 DIV SWAP1 POP PUSH1 0x1 DUP3 AND DUP1 PUSH2 0x37D5 JUMPI PUSH1 0x7F DUP3 AND SWAP2 POP JUMPDEST PUSH1 0x20 DUP3 LT DUP2 SUB PUSH2 0x37E8 JUMPI PUSH2 0x37E7 PUSH2 0x3791 JUMP JUMPDEST JUMPDEST POP SWAP2 SWAP1 POP JUMP JUMPDEST PUSH0 DUP2 SWAP1 POP DUP2 PUSH0 MSTORE PUSH1 0x20 PUSH0 KECCAK256 SWAP1 POP SWAP2 SWAP1 POP JUMP JUMPDEST PUSH0 PUSH1 0x20 PUSH1 0x1F DUP4 ADD DIV SWAP1 POP SWAP2 SWAP1 POP JUMP JUMPDEST PUSH0 DUP3 DUP3 SHL SWAP1 POP SWAP3 SWAP2 POP POP JUMP JUMPDEST PUSH0 PUSH1 0x8 DUP4 MUL PUSH2 0x384A PUSH32 0xFFFFFFFFFFFFFFFFFFFFFFFFFFFFFFFFFFFFFFFFFFFFFFFFFFFFFFFFFFFFFFFF DUP3 PUSH2 0x380F JUMP JUMPDEST PUSH2 0x3854 DUP7 DUP4 PUSH2 0x380F JUMP JUMPDEST SWAP6 POP DUP1 NOT DUP5 AND SWAP4 POP DUP1 DUP7 AND DUP5 OR SWAP3 POP POP POP SWAP4 SWAP3 POP POP POP JUMP JUMPDEST PUSH0 DUP2 SWAP1 POP SWAP2 SWAP1 POP JUMP JUMPDEST PUSH0 PUSH2 0x388F PUSH2 0x388A PUSH2 0x3885 DUP5 PUSH2 0x26DF JUMP JUMPDEST PUSH2 0x386C JUMP JUMPDEST PUSH2 0x26DF JUMP JUMPDEST SWAP1 POP SWAP2 SWAP1 POP JUMP JUMPDEST PUSH0 DUP2 SWAP1 POP SWAP2 SWAP1 POP JUMP JUMPDEST PUSH2 0x38A8 DUP4 PUSH2 0x3875 JUMP JUMPDEST PUSH2 0x38BC PUSH2 0x38B4 DUP3 PUSH2 0x3896 JUMP JUMPDEST DUP5 DUP5 SLOAD PUSH2 0x381B JUMP JUMPDEST DUP3 SSTORE POP POP POP POP JUMP JUMPDEST PUSH0 SWAP1 JUMP JUMPDEST PUSH2 0x38D0 PUSH2 0x38C4 JUMP JUMPDEST PUSH2 0x38DB DUP2 DUP5 DUP5 PUSH2 0x389F JUMP JUMPDEST POP POP POP JUMP JUMPDEST JUMPDEST DUP2 DUP2 LT ISZERO PUSH2 0x38FE JUMPI PUSH2 0x38F3 PUSH0 DUP3 PUSH2 0x38C8 JUMP JUMPDEST PUSH1 0x1 DUP2 ADD SWAP1 POP PUSH2 0x38E1 JUMP JUMPDEST POP POP JUMP JUMPDEST PUSH1 0x1F DUP3 GT ISZERO PUSH2 0x3943 JUMPI PUSH2 0x3914 DUP2 PUSH2 0x37EE JUMP JUMPDEST PUSH2 0x391D DUP5 PUSH2 0x3800 JUMP JUMPDEST DUP2 ADD PUSH1 0x20 DUP6 LT ISZERO PUSH2 0x392C JUMPI DUP2 SWAP1 POP JUMPDEST PUSH2 0x3940 PUSH2 0x3938 DUP6 PUSH2 0x3800 JUMP JUMPDEST DUP4 ADD DUP3 PUSH2 0x38E0 JUMP JUMPDEST POP POP JUMPDEST POP POP POP JUMP JUMPDEST PUSH0 DUP3 DUP3 SHR SWAP1 POP SWAP3 SWAP2 POP POP JUMP JUMPDEST PUSH0 PUSH2 0x3963 PUSH0 NOT DUP5 PUSH1 0x8 MUL PUSH2 0x3948 JUMP JUMPDEST NOT DUP1 DUP4 AND SWAP2 POP POP SWAP3 SWAP2 POP POP JUMP JUMPDEST PUSH0 PUSH2 0x397B DUP4 DUP4 PUSH2 0x3954 JUMP JUMPDEST SWAP2 POP DUP3 PUSH1 0x2 MUL DUP3 OR SWAP1 POP SWAP3 SWAP2 POP POP JUMP JUMPDEST PUSH2 0x3994 DUP3 PUSH2 0x29D9 JUMP JUMPDEST PUSH8 0xFFFFFFFFFFFFFFFF DUP2 GT ISZERO PUSH2 0x39AD JUMPI PUSH2 0x39AC PUSH2 0x2843 JUMP JUMPDEST JUMPDEST PUSH2 0x39B7 DUP3 SLOAD PUSH2 0x37BE JUMP JUMPDEST PUSH2 0x39C2 DUP3 DUP3 DUP6 PUSH2 0x3902 JUMP JUMPDEST PUSH0 PUSH1 0x20 SWAP1 POP PUSH1 0x1F DUP4 GT PUSH1 0x1 DUP2 EQ PUSH2 0x39F3 JUMPI PUSH0 DUP5 ISZERO PUSH2 0x39E1 JUMPI DUP3 DUP8 ADD MLOAD SWAP1 POP JUMPDEST PUSH2 0x39EB DUP6 DUP3 PUSH2 0x3970 JUMP JUMPDEST DUP7 SSTORE POP PUSH2 0x3A52 JUMP JUMPDEST PUSH1 0x1F NOT DUP5 AND PUSH2 0x3A01 DUP7 PUSH2 0x37EE JUMP JUMPDEST PUSH0 JUMPDEST DUP3 DUP2 LT ISZERO PUSH2 0x3A28 JUMPI DUP5 DUP10 ADD MLOAD DUP3 SSTORE PUSH1 0x1 DUP3 ADD SWAP2 POP PUSH1 0x20 DUP6 ADD SWAP5 POP PUSH1 0x20 DUP2 ADD SWAP1 POP PUSH2 0x3A03 JUMP JUMPDEST DUP7 DUP4 LT ISZERO PUSH2 0x3A45 JUMPI DUP5 DUP10 ADD MLOAD PUSH2 0x3A41 PUSH1 0x1F DUP10 AND DUP3 PUSH2 0x3954 JUMP JUMPDEST DUP4 SSTORE POP JUMPDEST PUSH1 0x1 PUSH1 0x2 DUP9 MUL ADD DUP9 SSTORE POP POP POP JUMPDEST POP POP POP POP POP POP JUMP JUMPDEST PUSH32 0x4E487B7100000000000000000000000000000000000000000000000000000000 PUSH0 MSTORE PUSH1 0x12 PUSH1 0x4 MSTORE PUSH1 0x24 PUSH0 REVERT JUMPDEST PUSH0 DUP2 MLOAD SWAP1 POP SWAP2 SWAP1 POP JUMP JUMPDEST PUSH0 DUP3 DUP3 MSTORE PUSH1 0x20 DUP3 ADD SWAP1 POP SWAP3 SWAP2 POP POP JUMP JUMPDEST PUSH0 PUSH2 0x3AAB DUP3 PUSH2 0x3A87 JUMP JUMPDEST PUSH2 0x3AB5 DUP2 DUP6 PUSH2 0x3A91 JUMP JUMPDEST SWAP4 POP PUSH2 0x3AC5 DUP2 DUP6 PUSH1 0x20 DUP7 ADD PUSH2 0x29F3 JUMP JUMPDEST PUSH2 0x3ACE DUP2 PUSH2 0x2833 JUMP JUMPDEST DUP5 ADD SWAP2 POP POP SWAP3 SWAP2 POP POP JUMP JUMPDEST PUSH0 PUSH1 0xA0 DUP3 ADD SWAP1 POP PUSH2 0x3AEC PUSH0 DUP4 ADD DUP9 PUSH2 0x30DA JUMP JUMPDEST PUSH2 0x3AF9 PUSH1 0x20 DUP4 ADD DUP8 PUSH2 0x30DA JUMP JUMPDEST PUSH2 0x3B06 PUSH1 0x40 DUP4 ADD DUP7 PUSH2 0x2750 JUMP JUMPDEST PUSH2 0x3B13 PUSH1 0x60 DUP4 ADD DUP6 PUSH2 0x2750 JUMP JUMPDEST DUP2 DUP2 SUB PUSH1 0x80 DUP4 ADD MSTORE PUSH2 0x3B25 DUP2 DUP5 PUSH2 0x3AA1 JUMP JUMPDEST SWAP1 POP SWAP7 SWAP6 POP POP POP POP POP POP JUMP JUMPDEST PUSH0 DUP2 MLOAD SWAP1 POP PUSH2 0x3B3F DUP2 PUSH2 0x27A3 JUMP JUMPDEST SWAP3 SWAP2 POP POP JUMP JUMPDEST PUSH0 PUSH1 0x20 DUP3 DUP5 SUB SLT ISZERO PUSH2 0x3B5A JUMPI PUSH2 0x3B59 PUSH2 0x267D JUMP JUMPDEST JUMPDEST PUSH0 PUSH2 0x3B67 DUP5 DUP3 DUP6 ADD PUSH2 0x3B31 JUMP JUMPDEST SWAP2 POP POP SWAP3 SWAP2 POP POP JUMP JUMPDEST PUSH0 PUSH1 0xA0 DUP3 ADD SWAP1 POP PUSH2 0x3B83 PUSH0 DUP4 ADD DUP9 PUSH2 0x30DA JUMP JUMPDEST PUSH2 0x3B90 PUSH1 0x20 DUP4 ADD DUP8 PUSH2 0x30DA JUMP JUMPDEST DUP2 DUP2 SUB PUSH1 0x40 DUP4 ADD MSTORE PUSH2 0x3BA2 DUP2 DUP7 PUSH2 0x2FBA JUMP JUMPDEST SWAP1 POP DUP2 DUP2 SUB PUSH1 0x60 DUP4 ADD MSTORE PUSH2 0x3BB6 DUP2 DUP6 PUSH2 0x2FBA JUMP JUMPDEST SWAP1 POP DUP2 DUP2 SUB PUSH1 0x80 DUP4 ADD MSTORE PUSH2 0x3BCA DUP2 DUP5 PUSH2 0x3AA1 JUMP JUMPDEST SWAP1 POP SWAP7 SWAP6 POP POP POP POP POP POP JUMP JUMPDEST PUSH0 PUSH1 0x80 DUP3 ADD SWAP1 POP PUSH2 0x3BE9 PUSH0 DUP4 ADD DUP8 PUSH2 0x30DA JUMP JUMPDEST PUSH2 0x3BF6 PUSH1 0x20 DUP4 ADD DUP7 PUSH2 0x2750 JUMP JUMPDEST PUSH2 0x3C03 PUSH1 0x40 DUP4 ADD DUP6 PUSH2 0x2750 JUMP JUMPDEST PUSH2 0x3C10 PUSH1 0x60 DUP4 ADD DUP5 PUSH2 0x2750 JUMP JUMPDEST SWAP6 SWAP5 POP POP POP POP POP JUMP JUMPDEST PUSH0 PUSH1 0x40 DUP3 ADD SWAP1 POP DUP2 DUP2 SUB PUSH0 DUP4 ADD MSTORE PUSH2 0x3C31 DUP2 DUP6 PUSH2 0x2FBA JUMP JUMPDEST SWAP1 POP DUP2 DUP2 SUB PUSH1 0x20 DUP4 ADD MSTORE PUSH2 0x3C45 DUP2 DUP5 PUSH2 0x2FBA JUMP JUMPDEST SWAP1 POP SWAP4 SWAP3 POP POP POP JUMP INVALID LOG2 PUSH5 0x6970667358 0x22 SLT KECCAK256 MUL 0xE DELEGATECALL 0xCB PUSH31 0x6CEDEC9E82A2BC5D3EC1B3056D183AAF89D26043587C9418F3E33064736F6C PUSH4 0x43000816 STOP CALLER PUSH10 0x7066733A2F2F516D5938 PUSH20 0x6E39637034466D7256635165625379686F4E3431 CODECOPY CALLDATASIZE PC PUSH12 0x57644E6D664D53727057566E PUSH25 0x574A4C702F0000000000000000000000000000000000000000 "
		},
		"gasEstimates": {
			"creation": {
				"codeDepositCost": "3098400",
				"executionCost": "infinite",
				"totalCost": "infinite"
			},
			"external": {
				"addAllowList(address,bool)": "infinite",
				"allTokenMaxSupply()": "2537",
				"allowList(address)": "2901",
				"allowListMint(uint256,uint256)": "infinite",
				"allowListMintOpen()": "2630",
				"allowListPrice()": "2470",
				"balanceOf(address,uint256)": "infinite",
				"balanceOfBatch(address[],uint256[])": "infinite",
				"editMintWindows(bool,bool)": "infinite",
				"exists(uint256)": "2912",
				"isApprovedForAll(address,address)": "infinite",
				"mint(uint256,uint256)": "infinite",
				"mintBatch(address,uint256[],uint256[],bytes)": "infinite",
				"oneTokenMaxSupply()": "2515",
				"owner()": "2604",
				"pause()": "infinite",
				"paused()": "2570",
				"publicMintOpen()": "2555",
				"publicPrice()": "2492",
				"renounceOwnership()": "infinite",
				"safeBatchTransferFrom(address,address,uint256[],uint256[],bytes)": "infinite",
				"safeTransferFrom(address,address,uint256,uint256,bytes)": "infinite",
				"setAllowList(address[])": "infinite",
				"setApprovalForAll(address,bool)": "infinite",
				"setURI(string)": "infinite",
				"supportsInterface(bytes4)": "832",
				"totalSupply()": "2522",
				"totalSupply(uint256)": "infinite",
				"transferOwnership(address)": "infinite",
				"unpause()": "infinite",
				"uri(uint256)": "infinite",
				"withdraw(address)": "infinite"
			},
			"internal": {
				"_update(address,address,uint256[] memory,uint256[] memory)": "infinite"
			}
		},
		"methodIdentifiers": {
			"addAllowList(address,bool)": "d75e0293",
			"allTokenMaxSupply()": "69396069",
			"allowList(address)": "2848aeaf",
			"allowListMint(uint256,uint256)": "128ac91b",
			"allowListMintOpen()": "085c9bac",
			"allowListPrice()": "a24e5153",
			"balanceOf(address,uint256)": "00fdd58e",
			"balanceOfBatch(address[],uint256[])": "4e1273f4",
			"editMintWindows(bool,bool)": "2f48de79",
			"exists(uint256)": "4f558e79",
			"isApprovedForAll(address,address)": "e985e9c5",
			"mint(uint256,uint256)": "1b2ef1ca",
			"mintBatch(address,uint256[],uint256[],bytes)": "1f7fdffa",
			"oneTokenMaxSupply()": "665ccfb4",
			"owner()": "8da5cb5b",
			"pause()": "8456cb59",
			"paused()": "5c975abb",
			"publicMintOpen()": "bcc9ca5b",
			"publicPrice()": "a945bf80",
			"renounceOwnership()": "715018a6",
			"safeBatchTransferFrom(address,address,uint256[],uint256[],bytes)": "2eb2c2d6",
			"safeTransferFrom(address,address,uint256,uint256,bytes)": "f242432a",
			"setAllowList(address[])": "6447c35d",
			"setApprovalForAll(address,bool)": "a22cb465",
			"setURI(string)": "02fe5305",
			"supportsInterface(bytes4)": "01ffc9a7",
			"totalSupply()": "18160ddd",
			"totalSupply(uint256)": "bd85b039",
			"transferOwnership(address)": "f2fde38b",
			"unpause()": "3f4ba83a",
			"uri(uint256)": "0e89341c",
			"withdraw(address)": "51cff8d9"
		}
	},
	"abi": [
		{
			"inputs": [
				{
					"internalType": "address",
					"name": "initialOwner",
					"type": "address"
				}
			],
			"stateMutability": "nonpayable",
			"type": "constructor"
		},
		{
			"inputs": [
				{
					"internalType": "address",
					"name": "sender",
					"type": "address"
				},
				{
					"internalType": "uint256",
					"name": "balance",
					"type": "uint256"
				},
				{
					"internalType": "uint256",
					"name": "needed",
					"type": "uint256"
				},
				{
					"internalType": "uint256",
					"name": "tokenId",
					"type": "uint256"
				}
			],
			"name": "ERC1155InsufficientBalance",
			"type": "error"
		},
		{
			"inputs": [
				{
					"internalType": "address",
					"name": "approver",
					"type": "address"
				}
			],
			"name": "ERC1155InvalidApprover",
			"type": "error"
		},
		{
			"inputs": [
				{
					"internalType": "uint256",
					"name": "idsLength",
					"type": "uint256"
				},
				{
					"internalType": "uint256",
					"name": "valuesLength",
					"type": "uint256"
				}
			],
			"name": "ERC1155InvalidArrayLength",
			"type": "error"
		},
		{
			"inputs": [
				{
					"internalType": "address",
					"name": "operator",
					"type": "address"
				}
			],
			"name": "ERC1155InvalidOperator",
			"type": "error"
		},
		{
			"inputs": [
				{
					"internalType": "address",
					"name": "receiver",
					"type": "address"
				}
			],
			"name": "ERC1155InvalidReceiver",
			"type": "error"
		},
		{
			"inputs": [
				{
					"internalType": "address",
					"name": "sender",
					"type": "address"
				}
			],
			"name": "ERC1155InvalidSender",
			"type": "error"
		},
		{
			"inputs": [
				{
					"internalType": "address",
					"name": "operator",
					"type": "address"
				},
				{
					"internalType": "address",
					"name": "owner",
					"type": "address"
				}
			],
			"name": "ERC1155MissingApprovalForAll",
			"type": "error"
		},
		{
			"inputs": [],
			"name": "EnforcedPause",
			"type": "error"
		},
		{
			"inputs": [],
			"name": "ExpectedPause",
			"type": "error"
		},
		{
			"inputs": [
				{
					"internalType": "address",
					"name": "owner",
					"type": "address"
				}
			],
			"name": "OwnableInvalidOwner",
			"type": "error"
		},
		{
			"inputs": [
				{
					"internalType": "address",
					"name": "account",
					"type": "address"
				}
			],
			"name": "OwnableUnauthorizedAccount",
			"type": "error"
		},
		{
			"anonymous": false,
			"inputs": [
				{
					"indexed": true,
					"internalType": "address",
					"name": "account",
					"type": "address"
				},
				{
					"indexed": true,
					"internalType": "address",
					"name": "operator",
					"type": "address"
				},
				{
					"indexed": false,
					"internalType": "bool",
					"name": "approved",
					"type": "bool"
				}
			],
			"name": "ApprovalForAll",
			"type": "event"
		},
		{
			"anonymous": false,
			"inputs": [
				{
					"indexed": true,
					"internalType": "address",
					"name": "previousOwner",
					"type": "address"
				},
				{
					"indexed": true,
					"internalType": "address",
					"name": "newOwner",
					"type": "address"
				}
			],
			"name": "OwnershipTransferred",
			"type": "event"
		},
		{
			"anonymous": false,
			"inputs": [
				{
					"indexed": false,
					"internalType": "address",
					"name": "account",
					"type": "address"
				}
			],
			"name": "Paused",
			"type": "event"
		},
		{
			"anonymous": false,
			"inputs": [
				{
					"indexed": true,
					"internalType": "address",
					"name": "operator",
					"type": "address"
				},
				{
					"indexed": true,
					"internalType": "address",
					"name": "from",
					"type": "address"
				},
				{
					"indexed": true,
					"internalType": "address",
					"name": "to",
					"type": "address"
				},
				{
					"indexed": false,
					"internalType": "uint256[]",
					"name": "ids",
					"type": "uint256[]"
				},
				{
					"indexed": false,
					"internalType": "uint256[]",
					"name": "values",
					"type": "uint256[]"
				}
			],
			"name": "TransferBatch",
			"type": "event"
		},
		{
			"anonymous": false,
			"inputs": [
				{
					"indexed": true,
					"internalType": "address",
					"name": "operator",
					"type": "address"
				},
				{
					"indexed": true,
					"internalType": "address",
					"name": "from",
					"type": "address"
				},
				{
					"indexed": true,
					"internalType": "address",
					"name": "to",
					"type": "address"
				},
				{
					"indexed": false,
					"internalType": "uint256",
					"name": "id",
					"type": "uint256"
				},
				{
					"indexed": false,
					"internalType": "uint256",
					"name": "value",
					"type": "uint256"
				}
			],
			"name": "TransferSingle",
			"type": "event"
		},
		{
			"anonymous": false,
			"inputs": [
				{
					"indexed": false,
					"internalType": "string",
					"name": "value",
					"type": "string"
				},
				{
					"indexed": true,
					"internalType": "uint256",
					"name": "id",
					"type": "uint256"
				}
			],
			"name": "URI",
			"type": "event"
		},
		{
			"anonymous": false,
			"inputs": [
				{
					"indexed": false,
					"internalType": "address",
					"name": "account",
					"type": "address"
				}
			],
			"name": "Unpaused",
			"type": "event"
		},
		{
			"inputs": [
				{
					"internalType": "address",
					"name": "_address",
					"type": "address"
				},
				{
					"internalType": "bool",
					"name": "_allowed",
					"type": "bool"
				}
			],
			"name": "addAllowList",
			"outputs": [],
			"stateMutability": "nonpayable",
			"type": "function"
		},
		{
			"inputs": [],
			"name": "allTokenMaxSupply",
			"outputs": [
				{
					"internalType": "uint256",
					"name": "",
					"type": "uint256"
				}
			],
			"stateMutability": "view",
			"type": "function"
		},
		{
			"inputs": [
				{
					"internalType": "address",
					"name": "",
					"type": "address"
				}
			],
			"name": "allowList",
			"outputs": [
				{
					"internalType": "bool",
					"name": "",
					"type": "bool"
				}
			],
			"stateMutability": "view",
			"type": "function"
		},
		{
			"inputs": [
				{
					"internalType": "uint256",
					"name": "id",
					"type": "uint256"
				},
				{
					"internalType": "uint256",
					"name": "amount",
					"type": "uint256"
				}
			],
			"name": "allowListMint",
			"outputs": [],
			"stateMutability": "payable",
			"type": "function"
		},
		{
			"inputs": [],
			"name": "allowListMintOpen",
			"outputs": [
				{
					"internalType": "bool",
					"name": "",
					"type": "bool"
				}
			],
			"stateMutability": "view",
			"type": "function"
		},
		{
			"inputs": [],
			"name": "allowListPrice",
			"outputs": [
				{
					"internalType": "uint256",
					"name": "",
					"type": "uint256"
				}
			],
			"stateMutability": "view",
			"type": "function"
		},
		{
			"inputs": [
				{
					"internalType": "address",
					"name": "account",
					"type": "address"
				},
				{
					"internalType": "uint256",
					"name": "id",
					"type": "uint256"
				}
			],
			"name": "balanceOf",
			"outputs": [
				{
					"internalType": "uint256",
					"name": "",
					"type": "uint256"
				}
			],
			"stateMutability": "view",
			"type": "function"
		},
		{
			"inputs": [
				{
					"internalType": "address[]",
					"name": "accounts",
					"type": "address[]"
				},
				{
					"internalType": "uint256[]",
					"name": "ids",
					"type": "uint256[]"
				}
			],
			"name": "balanceOfBatch",
			"outputs": [
				{
					"internalType": "uint256[]",
					"name": "",
					"type": "uint256[]"
				}
			],
			"stateMutability": "view",
			"type": "function"
		},
		{
			"inputs": [
				{
					"internalType": "bool",
					"name": "_publicMintOpen",
					"type": "bool"
				},
				{
					"internalType": "bool",
					"name": "_allowListMintOpen",
					"type": "bool"
				}
			],
			"name": "editMintWindows",
			"outputs": [],
			"stateMutability": "nonpayable",
			"type": "function"
		},
		{
			"inputs": [
				{
					"internalType": "uint256",
					"name": "id",
					"type": "uint256"
				}
			],
			"name": "exists",
			"outputs": [
				{
					"internalType": "bool",
					"name": "",
					"type": "bool"
				}
			],
			"stateMutability": "view",
			"type": "function"
		},
		{
			"inputs": [
				{
					"internalType": "address",
					"name": "account",
					"type": "address"
				},
				{
					"internalType": "address",
					"name": "operator",
					"type": "address"
				}
			],
			"name": "isApprovedForAll",
			"outputs": [
				{
					"internalType": "bool",
					"name": "",
					"type": "bool"
				}
			],
			"stateMutability": "view",
			"type": "function"
		},
		{
			"inputs": [
				{
					"internalType": "uint256",
					"name": "id",
					"type": "uint256"
				},
				{
					"internalType": "uint256",
					"name": "amount",
					"type": "uint256"
				}
			],
			"name": "mint",
			"outputs": [],
			"stateMutability": "payable",
			"type": "function"
		},
		{
			"inputs": [
				{
					"internalType": "address",
					"name": "to",
					"type": "address"
				},
				{
					"internalType": "uint256[]",
					"name": "ids",
					"type": "uint256[]"
				},
				{
					"internalType": "uint256[]",
					"name": "amounts",
					"type": "uint256[]"
				},
				{
					"internalType": "bytes",
					"name": "data",
					"type": "bytes"
				}
			],
			"name": "mintBatch",
			"outputs": [],
			"stateMutability": "nonpayable",
			"type": "function"
		},
		{
			"inputs": [],
			"name": "oneTokenMaxSupply",
			"outputs": [
				{
					"internalType": "uint256",
					"name": "",
					"type": "uint256"
				}
			],
			"stateMutability": "view",
			"type": "function"
		},
		{
			"inputs": [],
			"name": "owner",
			"outputs": [
				{
					"internalType": "address",
					"name": "",
					"type": "address"
				}
			],
			"stateMutability": "view",
			"type": "function"
		},
		{
			"inputs": [],
			"name": "pause",
			"outputs": [],
			"stateMutability": "nonpayable",
			"type": "function"
		},
		{
			"inputs": [],
			"name": "paused",
			"outputs": [
				{
					"internalType": "bool",
					"name": "",
					"type": "bool"
				}
			],
			"stateMutability": "view",
			"type": "function"
		},
		{
			"inputs": [],
			"name": "publicMintOpen",
			"outputs": [
				{
					"internalType": "bool",
					"name": "",
					"type": "bool"
				}
			],
			"stateMutability": "view",
			"type": "function"
		},
		{
			"inputs": [],
			"name": "publicPrice",
			"outputs": [
				{
					"internalType": "uint256",
					"name": "",
					"type": "uint256"
				}
			],
			"stateMutability": "view",
			"type": "function"
		},
		{
			"inputs": [],
			"name": "renounceOwnership",
			"outputs": [],
			"stateMutability": "nonpayable",
			"type": "function"
		},
		{
			"inputs": [
				{
					"internalType": "address",
					"name": "from",
					"type": "address"
				},
				{
					"internalType": "address",
					"name": "to",
					"type": "address"
				},
				{
					"internalType": "uint256[]",
					"name": "ids",
					"type": "uint256[]"
				},
				{
					"internalType": "uint256[]",
					"name": "values",
					"type": "uint256[]"
				},
				{
					"internalType": "bytes",
					"name": "data",
					"type": "bytes"
				}
			],
			"name": "safeBatchTransferFrom",
			"outputs": [],
			"stateMutability": "nonpayable",
			"type": "function"
		},
		{
			"inputs": [
				{
					"internalType": "address",
					"name": "from",
					"type": "address"
				},
				{
					"internalType": "address",
					"name": "to",
					"type": "address"
				},
				{
					"internalType": "uint256",
					"name": "id",
					"type": "uint256"
				},
				{
					"internalType": "uint256",
					"name": "value",
					"type": "uint256"
				},
				{
					"internalType": "bytes",
					"name": "data",
					"type": "bytes"
				}
			],
			"name": "safeTransferFrom",
			"outputs": [],
			"stateMutability": "nonpayable",
			"type": "function"
		},
		{
			"inputs": [
				{
					"internalType": "address[]",
					"name": "_addresses",
					"type": "address[]"
				}
			],
			"name": "setAllowList",
			"outputs": [],
			"stateMutability": "nonpayable",
			"type": "function"
		},
		{
			"inputs": [
				{
					"internalType": "address",
					"name": "operator",
					"type": "address"
				},
				{
					"internalType": "bool",
					"name": "approved",
					"type": "bool"
				}
			],
			"name": "setApprovalForAll",
			"outputs": [],
			"stateMutability": "nonpayable",
			"type": "function"
		},
		{
			"inputs": [
				{
					"internalType": "string",
					"name": "newuri",
					"type": "string"
				}
			],
			"name": "setURI",
			"outputs": [],
			"stateMutability": "nonpayable",
			"type": "function"
		},
		{
			"inputs": [
				{
					"internalType": "bytes4",
					"name": "interfaceId",
					"type": "bytes4"
				}
			],
			"name": "supportsInterface",
			"outputs": [
				{
					"internalType": "bool",
					"name": "",
					"type": "bool"
				}
			],
			"stateMutability": "view",
			"type": "function"
		},
		{
			"inputs": [],
			"name": "totalSupply",
			"outputs": [
				{
					"internalType": "uint256",
					"name": "",
					"type": "uint256"
				}
			],
			"stateMutability": "view",
			"type": "function"
		},
		{
			"inputs": [
				{
					"internalType": "uint256",
					"name": "id",
					"type": "uint256"
				}
			],
			"name": "totalSupply",
			"outputs": [
				{
					"internalType": "uint256",
					"name": "",
					"type": "uint256"
				}
			],
			"stateMutability": "view",
			"type": "function"
		},
		{
			"inputs": [
				{
					"internalType": "address",
					"name": "newOwner",
					"type": "address"
				}
			],
			"name": "transferOwnership",
			"outputs": [],
			"stateMutability": "nonpayable",
			"type": "function"
		},
		{
			"inputs": [],
			"name": "unpause",
			"outputs": [],
			"stateMutability": "nonpayable",
			"type": "function"
		},
		{
			"inputs": [
				{
					"internalType": "uint256",
					"name": "_id",
					"type": "uint256"
				}
			],
			"name": "uri",
			"outputs": [
				{
					"internalType": "string",
					"name": "",
					"type": "string"
				}
			],
			"stateMutability": "view",
			"type": "function"
		},
		{
			"inputs": [
				{
					"internalType": "address",
					"name": "_address",
					"type": "address"
				}
			],
			"name": "withdraw",
			"outputs": [],
			"stateMutability": "nonpayable",
			"type": "function"
		}
	]
}