{
	"data": {
		"bytecode": {
			"linkReferences": {},
			"object": "6080604052662386f26fc1000060065566038d7ea4c680006007556002600855600a6009556003600a555f600b5f6101000a81548160ff0219169083151502179055505f600b60016101000a81548160ff02191690831515021790555034801562000068575f80fd5b506040516200444b3803806200444b83398181016040528101906200008e91906200029e565b806040518060600160405280603681526020016200441560369139620000ba816200016160201b60201c565b505f73ffffffffffffffffffffffffffffffffffffffff168173ffffffffffffffffffffffffffffffffffffffff16036200012e575f6040517f1e4fbdf7000000000000000000000000000000000000000000000000000000008152600401620001259190620002df565b60405180910390fd5b6200013f816200017660201b60201c565b505f600360146101000a81548160ff0219169083151502179055505062000642565b80600290816200017291906200055e565b5050565b5f60035f9054906101000a900473ffffffffffffffffffffffffffffffffffffffff1690508160035f6101000a81548173ffffffffffffffffffffffffffffffffffffffff021916908373ffffffffffffffffffffffffffffffffffffffff1602179055508173ffffffffffffffffffffffffffffffffffffffff168173ffffffffffffffffffffffffffffffffffffffff167f8be0079c531659141344cd1fd0a4f28419497f9722a3daafe3b4186f6b6457e060405160405180910390a35050565b5f80fd5b5f73ffffffffffffffffffffffffffffffffffffffff82169050919050565b5f62000268826200023d565b9050919050565b6200027a816200025c565b811462000285575f80fd5b50565b5f8151905062000298816200026f565b92915050565b5f60208284031215620002b657620002b562000239565b5b5f620002c58482850162000288565b91505092915050565b620002d9816200025c565b82525050565b5f602082019050620002f45f830184620002ce565b92915050565b5f81519050919050565b7f4e487b71000000000000000000000000000000000000000000000000000000005f52604160045260245ffd5b7f4e487b71000000000000000000000000000000000000000000000000000000005f52602260045260245ffd5b5f60028204905060018216806200037657607f821691505b6020821081036200038c576200038b62000331565b5b50919050565b5f819050815f5260205f209050919050565b5f6020601f8301049050919050565b5f82821b905092915050565b5f60088302620003f07fffffffffffffffffffffffffffffffffffffffffffffffffffffffffffffffff82620003b3565b620003fc8683620003b3565b95508019841693508086168417925050509392505050565b5f819050919050565b5f819050919050565b5f62000446620004406200043a8462000414565b6200041d565b62000414565b9050919050565b5f819050919050565b620004618362000426565b6200047962000470826200044d565b848454620003bf565b825550505050565b5f90565b6200048f62000481565b6200049c81848462000456565b505050565b5b81811015620004c357620004b75f8262000485565b600181019050620004a2565b5050565b601f8211156200051257620004dc8162000392565b620004e784620003a4565b81016020851015620004f7578190505b6200050f6200050685620003a4565b830182620004a1565b50505b505050565b5f82821c905092915050565b5f620005345f198460080262000517565b1980831691505092915050565b5f6200054e838362000523565b9150826002028217905092915050565b6200056982620002fa565b67ffffffffffffffff81111562000585576200058462000304565b5b6200059182546200035e565b6200059e828285620004c7565b5f60209050601f831160018114620005d4575f8415620005bf578287015190505b620005cb858262000541565b8655506200063a565b601f198416620005e48662000392565b5f5b828110156200060d57848901518255600182019150602085019450602081019050620005e6565b868310156200062d578489015162000629601f89168262000523565b8355505b6001600288020188555050505b505050505050565b613dc580620006505f395ff3fe6080604052600436106101f7575f3560e01c80635c975abb1161010c578063a22cb4651161009f578063bd85b0391161006e578063bd85b039146106d5578063d75e029314610711578063e985e9c514610739578063f242432a14610775578063f2fde38b1461079d576101f7565b8063a22cb4651461062f578063a24e515314610657578063a945bf8014610681578063bcc9ca5b146106ab576101f7565b8063715018a6116100db578063715018a6146105bd5780638456cb59146105d35780638da5cb5b146105e957806398ae99a814610613576101f7565b80635c975abb146105175780636447c35d14610541578063665ccfb4146105695780636939606914610593576101f7565b80632848aeaf1161018f578063453c23101161015e578063453c2310146104115780634e1273f41461043b5780634f558e791461047757806351cff8d9146104b357806351f1f740146104db576101f7565b80632848aeaf1461036f5780632eb2c2d6146103ab5780632f48de79146103d35780633f4ba83a146103fb576101f7565b80630e89341c116101cb5780630e89341c146102c5578063128ac91b1461030157806318160ddd1461031d5780631f7fdffa14610347576101f7565b8062fdd58e146101fb57806301ffc9a71461023757806302fe530514610273578063085c9bac1461029b575b5f80fd5b348015610206575f80fd5b50610221600480360381019061021c91906127eb565b6107c5565b60405161022e9190612838565b60405180910390f35b348015610242575f80fd5b5061025d600480360381019061025891906128a6565b61081a565b60405161026a91906128eb565b60405180910390f35b34801561027e575f80fd5b5061029960048036038101906102949190612a40565b6108fb565b005b3480156102a6575f80fd5b506102af61090f565b6040516102bc91906128eb565b60405180910390f35b3480156102d0575f80fd5b506102eb60048036038101906102e69190612a87565b610922565b6040516102f89190612b2c565b60405180910390f35b61031b60048036038101906103169190612b4c565b6109a5565b005b348015610328575f80fd5b50610331610ada565b60405161033e9190612838565b60405180910390f35b348015610352575f80fd5b5061036d60048036038101906103689190612cec565b610ae3565b005b34801561037a575f80fd5b5061039560048036038101906103909190612da4565b610afd565b6040516103a291906128eb565b60405180910390f35b3480156103b6575f80fd5b506103d160048036038101906103cc9190612dcf565b610b1a565b005b3480156103de575f80fd5b506103f960048036038101906103f49190612ec4565b610bc1565b005b348015610406575f80fd5b5061040f610c00565b005b34801561041c575f80fd5b50610425610c12565b6040516104329190612838565b60405180910390f35b348015610446575f80fd5b50610461600480360381019061045c9190612fc2565b610c18565b60405161046e91906130ef565b60405180910390f35b348015610482575f80fd5b5061049d60048036038101906104989190612a87565b610d1f565b6040516104aa91906128eb565b60405180910390f35b3480156104be575f80fd5b506104d960048036038101906104d49190612da4565b610d32565b005b3480156104e6575f80fd5b5061050160048036038101906104fc9190612da4565b610d86565b60405161050e9190612838565b60405180910390f35b348015610522575f80fd5b5061052b610d9b565b60405161053891906128eb565b60405180910390f35b34801561054c575f80fd5b5061056760048036038101906105629190613168565b610db1565b005b348015610574575f80fd5b5061057d610e54565b60405161058a9190612838565b60405180910390f35b34801561059e575f80fd5b506105a7610e5a565b6040516105b49190612838565b60405180910390f35b3480156105c8575f80fd5b506105d1610e60565b005b3480156105de575f80fd5b506105e7610e73565b005b3480156105f4575f80fd5b506105fd610e85565b60405161060a91906131c2565b60405180910390f35b61062d60048036038101906106289190612b4c565b610ead565b005b34801561063a575f80fd5b50610655600480360381019061065091906131db565b610f58565b005b348015610662575f80fd5b5061066b610f6e565b6040516106789190612838565b60405180910390f35b34801561068c575f80fd5b50610695610f74565b6040516106a29190612838565b60405180910390f35b3480156106b6575f80fd5b506106bf610f7a565b6040516106cc91906128eb565b60405180910390f35b3480156106e0575f80fd5b506106fb60048036038101906106f69190612a87565b610f8c565b6040516107089190612838565b60405180910390f35b34801561071c575f80fd5b50610737600480360381019061073291906131db565b610fa6565b005b348015610744575f80fd5b5061075f600480360381019061075a9190613219565b611006565b60405161076c91906128eb565b60405180910390f35b348015610780575f80fd5b5061079b60048036038101906107969190613257565b611094565b005b3480156107a8575f80fd5b506107c360048036038101906107be9190612da4565b61113b565b005b5f805f8381526020019081526020015f205f8473ffffffffffffffffffffffffffffffffffffffff1673ffffffffffffffffffffffffffffffffffffffff1681526020019081526020015f2054905092915050565b5f7fd9b67a26000000000000000000000000000000000000000000000000000000007bffffffffffffffffffffffffffffffffffffffffffffffffffffffff1916827bffffffffffffffffffffffffffffffffffffffffffffffffffffffff191614806108e457507f0e89341c000000000000000000000000000000000000000000000000000000007bffffffffffffffffffffffffffffffffffffffffffffffffffffffff1916827bffffffffffffffffffffffffffffffffffffffffffffffffffffffff1916145b806108f457506108f3826111bf565b5b9050919050565b610903611228565b61090c816112af565b50565b600b60019054906101000a900460ff1681565b606061092d82610d1f565b61096c576040517f08c379a000000000000000000000000000000000000000000000000000000000815260040161096390613334565b60405180910390fd5b610975826112c2565b61097e83611354565b60405160200161098f9291906133d6565b6040516020818303038152906040529050919050565b600b60019054906101000a900460ff166109f4576040517f08c379a00000000000000000000000000000000000000000000000000000000081526004016109eb9061344e565b60405180910390fd5b600c5f3373ffffffffffffffffffffffffffffffffffffffff1673ffffffffffffffffffffffffffffffffffffffff1681526020019081526020015f205f9054906101000a900460ff16610a7d576040517f08c379a0000000000000000000000000000000000000000000000000000000008152600401610a74906134b6565b60405180910390fd5b80600754610a8b9190613501565b3414610acc576040517f08c379a0000000000000000000000000000000000000000000000000000000008152600401610ac3906135b2565b60405180910390fd5b610ad6828261141e565b5050565b5f600554905090565b610aeb611228565b610af7848484846115b8565b50505050565b600c602052805f5260405f205f915054906101000a900460ff1681565b5f610b2361163b565b90508073ffffffffffffffffffffffffffffffffffffffff168673ffffffffffffffffffffffffffffffffffffffff1614158015610b685750610b668682611006565b155b15610bac5780866040517fe237d922000000000000000000000000000000000000000000000000000000008152600401610ba39291906135d0565b60405180910390fd5b610bb98686868686611642565b505050505050565b610bc9611228565b81600b5f6101000a81548160ff02191690831515021790555080600b60016101000a81548160ff0219169083151502179055505050565b610c08611228565b610c10611736565b565b600a5481565b60608151835114610c6457815183516040517f5b059991000000000000000000000000000000000000000000000000000000008152600401610c5b9291906135f7565b60405180910390fd5b5f835167ffffffffffffffff811115610c8057610c7f61291c565b5b604051908082528060200260200182016040528015610cae5781602001602082028036833780820191505090505b5090505f5b8451811015610d1457610cea610cd2828761179890919063ffffffff16565b610ce583876117ab90919063ffffffff16565b6107c5565b828281518110610cfd57610cfc61361e565b5b602002602001018181525050806001019050610cb3565b508091505092915050565b5f80610d2a83610f8c565b119050919050565b610d3a611228565b5f4790508173ffffffffffffffffffffffffffffffffffffffff166108fc8290811502906040515f60405180830381858888f19350505050158015610d81573d5f803e3d5ffd5b505050565b600d602052805f5260405f205f915090505481565b5f600360149054906101000a900460ff16905090565b610db9611228565b5f5b82829050811015610e4f576001600c5f858585818110610dde57610ddd61361e565b5b9050602002016020810190610df39190612da4565b73ffffffffffffffffffffffffffffffffffffffff1673ffffffffffffffffffffffffffffffffffffffff1681526020019081526020015f205f6101000a81548160ff0219169083151502179055508080600101915050610dbb565b505050565b60085481565b60095481565b610e68611228565b610e715f6117be565b565b610e7b611228565b610e83611881565b565b5f60035f9054906101000a900473ffffffffffffffffffffffffffffffffffffffff16905090565b600b5f9054906101000a900460ff16610efb576040517f08c379a0000000000000000000000000000000000000000000000000000000008152600401610ef290613695565b60405180910390fd5b80600654610f099190613501565b3414610f4a576040517f08c379a0000000000000000000000000000000000000000000000000000000008152600401610f4190613723565b60405180910390fd5b610f54828261141e565b5050565b610f6a610f6361163b565b83836118e4565b5050565b60075481565b60065481565b600b5f9054906101000a900460ff1681565b5f60045f8381526020019081526020015f20549050919050565b610fae611228565b80600c5f8473ffffffffffffffffffffffffffffffffffffffff1673ffffffffffffffffffffffffffffffffffffffff1681526020019081526020015f205f6101000a81548160ff0219169083151502179055505050565b5f60015f8473ffffffffffffffffffffffffffffffffffffffff1673ffffffffffffffffffffffffffffffffffffffff1681526020019081526020015f205f8373ffffffffffffffffffffffffffffffffffffffff1673ffffffffffffffffffffffffffffffffffffffff1681526020019081526020015f205f9054906101000a900460ff16905092915050565b5f61109d61163b565b90508073ffffffffffffffffffffffffffffffffffffffff168673ffffffffffffffffffffffffffffffffffffffff16141580156110e257506110e08682611006565b155b156111265780866040517fe237d92200000000000000000000000000000000000000000000000000000000815260040161111d9291906135d0565b60405180910390fd5b6111338686868686611a4d565b505050505050565b611143611228565b5f73ffffffffffffffffffffffffffffffffffffffff168173ffffffffffffffffffffffffffffffffffffffff16036111b3575f6040517f1e4fbdf70000000000000000000000000000000000000000000000000000000081526004016111aa91906131c2565b60405180910390fd5b6111bc816117be565b50565b5f7f01ffc9a7000000000000000000000000000000000000000000000000000000007bffffffffffffffffffffffffffffffffffffffffffffffffffffffff1916827bffffffffffffffffffffffffffffffffffffffffffffffffffffffff1916149050919050565b61123061163b565b73ffffffffffffffffffffffffffffffffffffffff1661124e610e85565b73ffffffffffffffffffffffffffffffffffffffff16146112ad5761127161163b565b6040517f118cdaa70000000000000000000000000000000000000000000000000000000081526004016112a491906131c2565b60405180910390fd5b565b80600290816112be919061393b565b5050565b6060600280546112d19061376e565b80601f01602080910402602001604051908101604052809291908181526020018280546112fd9061376e565b80156113485780601f1061131f57610100808354040283529160200191611348565b820191905f5260205f20905b81548152906001019060200180831161132b57829003601f168201915b50505050509050919050565b60605f600161136284611b53565b0190505f8167ffffffffffffffff8111156113805761137f61291c565b5b6040519080825280601f01601f1916602001820160405280156113b25781602001600182028036833780820191505090505b5090505f82602001820190505b600115611413578080600190039150507f3031323334353637383961626364656600000000000000000000000000000000600a86061a8153600a858161140857611407613a0a565b5b0494505f85036113bf575b819350505050919050565b600a821115611462576040517f08c379a000000000000000000000000000000000000000000000000000000000815260040161145990613aa7565b60405180910390fd5b6008548161146f84610f8c565b6114799190613ac5565b11156114ba576040517f08c379a00000000000000000000000000000000000000000000000000000000081526004016114b190613b42565b60405180910390fd5b600a5481600d5f3373ffffffffffffffffffffffffffffffffffffffff1673ffffffffffffffffffffffffffffffffffffffff1681526020019081526020015f20546115069190613ac5565b1115611547576040517f08c379a000000000000000000000000000000000000000000000000000000000815260040161153e90613baa565b60405180910390fd5b61156133838360405180602001604052805f815250611ca4565b80600d5f3373ffffffffffffffffffffffffffffffffffffffff1673ffffffffffffffffffffffffffffffffffffffff1681526020019081526020015f205f8282546115ad9190613ac5565b925050819055505050565b5f73ffffffffffffffffffffffffffffffffffffffff168473ffffffffffffffffffffffffffffffffffffffff1603611628575f6040517f57f447ce00000000000000000000000000000000000000000000000000000000815260040161161f91906131c2565b60405180910390fd5b6116355f85858585611d39565b50505050565b5f33905090565b5f73ffffffffffffffffffffffffffffffffffffffff168473ffffffffffffffffffffffffffffffffffffffff16036116b2575f6040517f57f447ce0000000000000000000000000000000000000000000000000000000081526004016116a991906131c2565b60405180910390fd5b5f73ffffffffffffffffffffffffffffffffffffffff168573ffffffffffffffffffffffffffffffffffffffff1603611722575f6040517f01a8351400000000000000000000000000000000000000000000000000000000815260040161171991906131c2565b60405180910390fd5b61172f8585858585611d39565b5050505050565b61173e611de5565b5f600360146101000a81548160ff0219169083151502179055507f5db9ee0a495bf2e6ff9c91a7834c1ba4fdd244a5e8aa4e537bd38aeae4b073aa61178161163b565b60405161178e91906131c2565b60405180910390a1565b5f60208202602084010151905092915050565b5f60208202602084010151905092915050565b5f60035f9054906101000a900473ffffffffffffffffffffffffffffffffffffffff1690508160035f6101000a81548173ffffffffffffffffffffffffffffffffffffffff021916908373ffffffffffffffffffffffffffffffffffffffff1602179055508173ffffffffffffffffffffffffffffffffffffffff168173ffffffffffffffffffffffffffffffffffffffff167f8be0079c531659141344cd1fd0a4f28419497f9722a3daafe3b4186f6b6457e060405160405180910390a35050565b611889611e25565b6001600360146101000a81548160ff0219169083151502179055507f62e78cea01bee320cd4e420270b5ea74000d11b0c9f74754ebdbfc544b05a2586118cd61163b565b6040516118da91906131c2565b60405180910390a1565b5f73ffffffffffffffffffffffffffffffffffffffff168273ffffffffffffffffffffffffffffffffffffffff1603611954575f6040517fced3e10000000000000000000000000000000000000000000000000000000000815260040161194b91906131c2565b60405180910390fd5b8060015f8573ffffffffffffffffffffffffffffffffffffffff1673ffffffffffffffffffffffffffffffffffffffff1681526020019081526020015f205f8473ffffffffffffffffffffffffffffffffffffffff1673ffffffffffffffffffffffffffffffffffffffff1681526020019081526020015f205f6101000a81548160ff0219169083151502179055508173ffffffffffffffffffffffffffffffffffffffff168373ffffffffffffffffffffffffffffffffffffffff167f17307eab39ab6107e8899845ad3d59bd9653f200f220920489ca2b5937696c3183604051611a4091906128eb565b60405180910390a3505050565b5f73ffffffffffffffffffffffffffffffffffffffff168473ffffffffffffffffffffffffffffffffffffffff1603611abd575f6040517f57f447ce000000000000000000000000000000000000000000000000000000008152600401611ab491906131c2565b60405180910390fd5b5f73ffffffffffffffffffffffffffffffffffffffff168573ffffffffffffffffffffffffffffffffffffffff1603611b2d575f6040517f01a83514000000000000000000000000000000000000000000000000000000008152600401611b2491906131c2565b60405180910390fd5b5f80611b398585611e66565b91509150611b4a8787848487611d39565b50505050505050565b5f805f90507a184f03e93ff9f4daa797ed6e38ed64bf6a1f0100000000000000008310611baf577a184f03e93ff9f4daa797ed6e38ed64bf6a1f0100000000000000008381611ba557611ba4613a0a565b5b0492506040810190505b6d04ee2d6d415b85acef81000000008310611bec576d04ee2d6d415b85acef81000000008381611be257611be1613a0a565b5b0492506020810190505b662386f26fc100008310611c1b57662386f26fc100008381611c1157611c10613a0a565b5b0492506010810190505b6305f5e1008310611c44576305f5e1008381611c3a57611c39613a0a565b5b0492506008810190505b6127108310611c69576127108381611c5f57611c5e613a0a565b5b0492506004810190505b60648310611c8c5760648381611c8257611c81613a0a565b5b0492506002810190505b600a8310611c9b576001810190505b80915050919050565b5f73ffffffffffffffffffffffffffffffffffffffff168473ffffffffffffffffffffffffffffffffffffffff1603611d14575f6040517f57f447ce000000000000000000000000000000000000000000000000000000008152600401611d0b91906131c2565b60405180910390fd5b5f80611d208585611e66565b91509150611d315f87848487611d39565b505050505050565b611d4585858585611e96565b5f73ffffffffffffffffffffffffffffffffffffffff168473ffffffffffffffffffffffffffffffffffffffff1614611dde575f611d8161163b565b90506001845103611dcd575f611da05f866117ab90919063ffffffff16565b90505f611db65f866117ab90919063ffffffff16565b9050611dc6838989858589611ea8565b5050611ddc565b611ddb818787878787612057565b5b505b5050505050565b611ded610d9b565b611e23576040517f8dfc202b00000000000000000000000000000000000000000000000000000000815260040160405180910390fd5b565b611e2d610d9b565b15611e64576040517fd93c066500000000000000000000000000000000000000000000000000000000815260040160405180910390fd5b565b60608060405191506001825283602083015260408201905060018152826020820152604081016040529250929050565b611ea284848484612206565b50505050565b5f8473ffffffffffffffffffffffffffffffffffffffff163b111561204f578373ffffffffffffffffffffffffffffffffffffffff1663f23a6e6187878686866040518663ffffffff1660e01b8152600401611f08959493929190613c1a565b6020604051808303815f875af1925050508015611f4357506040513d601f19601f82011682018060405250810190611f409190613c86565b60015b611fc4573d805f8114611f71576040519150601f19603f3d011682016040523d82523d5f602084013e611f76565b606091505b505f815103611fbc57846040517f57f447ce000000000000000000000000000000000000000000000000000000008152600401611fb391906131c2565b60405180910390fd5b805181602001fd5b63f23a6e6160e01b7bffffffffffffffffffffffffffffffffffffffffffffffffffffffff1916817bffffffffffffffffffffffffffffffffffffffffffffffffffffffff19161461204d57846040517f57f447ce00000000000000000000000000000000000000000000000000000000815260040161204491906131c2565b60405180910390fd5b505b505050505050565b5f8473ffffffffffffffffffffffffffffffffffffffff163b11156121fe578373ffffffffffffffffffffffffffffffffffffffff1663bc197c8187878686866040518663ffffffff1660e01b81526004016120b7959493929190613cb1565b6020604051808303815f875af19250505080156120f257506040513d601f19601f820116820180604052508101906120ef9190613c86565b60015b612173573d805f8114612120576040519150601f19603f3d011682016040523d82523d5f602084013e612125565b606091505b505f81510361216b57846040517f57f447ce00000000000000000000000000000000000000000000000000000000815260040161216291906131c2565b60405180910390fd5b805181602001fd5b63bc197c8160e01b7bffffffffffffffffffffffffffffffffffffffffffffffffffffffff1916817bffffffffffffffffffffffffffffffffffffffffffffffffffffffff1916146121fc57846040517f57f447ce0000000000000000000000000000000000000000000000000000000081526004016121f391906131c2565b60405180910390fd5b505b505050505050565b612212848484846123a3565b5f73ffffffffffffffffffffffffffffffffffffffff168473ffffffffffffffffffffffffffffffffffffffff16036122e5575f805b83518110156122ca575f8382815181106122655761226461361e565b5b602002602001015190508060045f8785815181106122865761228561361e565b5b602002602001015181526020019081526020015f205f8282546122a99190613ac5565b9250508190555080836122bc9190613ac5565b925050806001019050612248565b508060055f8282546122dc9190613ac5565b92505081905550505b5f73ffffffffffffffffffffffffffffffffffffffff168373ffffffffffffffffffffffffffffffffffffffff160361239d575f805b835181101561238b575f8382815181106123385761233761361e565b5b602002602001015190508060045f8785815181106123595761235861361e565b5b602002602001015181526020019081526020015f205f828254039250508190555080830192505080600101905061231b565b508060055f8282540392505081905550505b50505050565b6123ab611e25565b6123b7848484846123bd565b50505050565b805182511461240757815181516040517f5b0599910000000000000000000000000000000000000000000000000000000081526004016123fe9291906135f7565b60405180910390fd5b5f61241061163b565b90505f5b835181101561260c575f61243182866117ab90919063ffffffff16565b90505f61244783866117ab90919063ffffffff16565b90505f73ffffffffffffffffffffffffffffffffffffffff168873ffffffffffffffffffffffffffffffffffffffff161461256a575f805f8481526020019081526020015f205f8a73ffffffffffffffffffffffffffffffffffffffff1673ffffffffffffffffffffffffffffffffffffffff1681526020019081526020015f205490508181101561251657888183856040517f03dee4c500000000000000000000000000000000000000000000000000000000815260040161250d9493929190613d17565b60405180910390fd5b8181035f808581526020019081526020015f205f8b73ffffffffffffffffffffffffffffffffffffffff1673ffffffffffffffffffffffffffffffffffffffff1681526020019081526020015f2081905550505b5f73ffffffffffffffffffffffffffffffffffffffff168773ffffffffffffffffffffffffffffffffffffffff16146125ff57805f808481526020019081526020015f205f8973ffffffffffffffffffffffffffffffffffffffff1673ffffffffffffffffffffffffffffffffffffffff1681526020019081526020015f205f8282546125f79190613ac5565b925050819055505b5050806001019050612414565b5060018351036126c7575f61262a5f856117ab90919063ffffffff16565b90505f6126405f856117ab90919063ffffffff16565b90508573ffffffffffffffffffffffffffffffffffffffff168773ffffffffffffffffffffffffffffffffffffffff168473ffffffffffffffffffffffffffffffffffffffff167fc3d58168c5ae7397731d063d5bbf3d657854427343f4c083240f7aacaa2d0f6285856040516126b89291906135f7565b60405180910390a45050612746565b8373ffffffffffffffffffffffffffffffffffffffff168573ffffffffffffffffffffffffffffffffffffffff168273ffffffffffffffffffffffffffffffffffffffff167f4a39dc06d4c0dbc64b70af90fd698a233a518aa5d07e595d983b8c0526c8f7fb868660405161273d929190613d5a565b60405180910390a45b5050505050565b5f604051905090565b5f80fd5b5f80fd5b5f73ffffffffffffffffffffffffffffffffffffffff82169050919050565b5f6127878261275e565b9050919050565b6127978161277d565b81146127a1575f80fd5b50565b5f813590506127b28161278e565b92915050565b5f819050919050565b6127ca816127b8565b81146127d4575f80fd5b50565b5f813590506127e5816127c1565b92915050565b5f806040838503121561280157612800612756565b5b5f61280e858286016127a4565b925050602061281f858286016127d7565b9150509250929050565b612832816127b8565b82525050565b5f60208201905061284b5f830184612829565b92915050565b5f7fffffffff0000000000000000000000000000000000000000000000000000000082169050919050565b61288581612851565b811461288f575f80fd5b50565b5f813590506128a08161287c565b92915050565b5f602082840312156128bb576128ba612756565b5b5f6128c884828501612892565b91505092915050565b5f8115159050919050565b6128e5816128d1565b82525050565b5f6020820190506128fe5f8301846128dc565b92915050565b5f80fd5b5f80fd5b5f601f19601f8301169050919050565b7f4e487b71000000000000000000000000000000000000000000000000000000005f52604160045260245ffd5b6129528261290c565b810181811067ffffffffffffffff821117156129715761297061291c565b5b80604052505050565b5f61298361274d565b905061298f8282612949565b919050565b5f67ffffffffffffffff8211156129ae576129ad61291c565b5b6129b78261290c565b9050602081019050919050565b828183375f83830152505050565b5f6129e46129df84612994565b61297a565b905082815260208101848484011115612a00576129ff612908565b5b612a0b8482856129c4565b509392505050565b5f82601f830112612a2757612a26612904565b5b8135612a378482602086016129d2565b91505092915050565b5f60208284031215612a5557612a54612756565b5b5f82013567ffffffffffffffff811115612a7257612a7161275a565b5b612a7e84828501612a13565b91505092915050565b5f60208284031215612a9c57612a9b612756565b5b5f612aa9848285016127d7565b91505092915050565b5f81519050919050565b5f82825260208201905092915050565b5f5b83811015612ae9578082015181840152602081019050612ace565b5f8484015250505050565b5f612afe82612ab2565b612b088185612abc565b9350612b18818560208601612acc565b612b218161290c565b840191505092915050565b5f6020820190508181035f830152612b448184612af4565b905092915050565b5f8060408385031215612b6257612b61612756565b5b5f612b6f858286016127d7565b9250506020612b80858286016127d7565b9150509250929050565b5f67ffffffffffffffff821115612ba457612ba361291c565b5b602082029050602081019050919050565b5f80fd5b5f612bcb612bc684612b8a565b61297a565b90508083825260208201905060208402830185811115612bee57612bed612bb5565b5b835b81811015612c175780612c0388826127d7565b845260208401935050602081019050612bf0565b5050509392505050565b5f82601f830112612c3557612c34612904565b5b8135612c45848260208601612bb9565b91505092915050565b5f67ffffffffffffffff821115612c6857612c6761291c565b5b612c718261290c565b9050602081019050919050565b5f612c90612c8b84612c4e565b61297a565b905082815260208101848484011115612cac57612cab612908565b5b612cb78482856129c4565b509392505050565b5f82601f830112612cd357612cd2612904565b5b8135612ce3848260208601612c7e565b91505092915050565b5f805f8060808587031215612d0457612d03612756565b5b5f612d11878288016127a4565b945050602085013567ffffffffffffffff811115612d3257612d3161275a565b5b612d3e87828801612c21565b935050604085013567ffffffffffffffff811115612d5f57612d5e61275a565b5b612d6b87828801612c21565b925050606085013567ffffffffffffffff811115612d8c57612d8b61275a565b5b612d9887828801612cbf565b91505092959194509250565b5f60208284031215612db957612db8612756565b5b5f612dc6848285016127a4565b91505092915050565b5f805f805f60a08688031215612de857612de7612756565b5b5f612df5888289016127a4565b9550506020612e06888289016127a4565b945050604086013567ffffffffffffffff811115612e2757612e2661275a565b5b612e3388828901612c21565b935050606086013567ffffffffffffffff811115612e5457612e5361275a565b5b612e6088828901612c21565b925050608086013567ffffffffffffffff811115612e8157612e8061275a565b5b612e8d88828901612cbf565b9150509295509295909350565b612ea3816128d1565b8114612ead575f80fd5b50565b5f81359050612ebe81612e9a565b92915050565b5f8060408385031215612eda57612ed9612756565b5b5f612ee785828601612eb0565b9250506020612ef885828601612eb0565b9150509250929050565b5f67ffffffffffffffff821115612f1c57612f1b61291c565b5b602082029050602081019050919050565b5f612f3f612f3a84612f02565b61297a565b90508083825260208201905060208402830185811115612f6257612f61612bb5565b5b835b81811015612f8b5780612f7788826127a4565b845260208401935050602081019050612f64565b5050509392505050565b5f82601f830112612fa957612fa8612904565b5b8135612fb9848260208601612f2d565b91505092915050565b5f8060408385031215612fd857612fd7612756565b5b5f83013567ffffffffffffffff811115612ff557612ff461275a565b5b61300185828601612f95565b925050602083013567ffffffffffffffff8111156130225761302161275a565b5b61302e85828601612c21565b9150509250929050565b5f81519050919050565b5f82825260208201905092915050565b5f819050602082019050919050565b61306a816127b8565b82525050565b5f61307b8383613061565b60208301905092915050565b5f602082019050919050565b5f61309d82613038565b6130a78185613042565b93506130b283613052565b805f5b838110156130e25781516130c98882613070565b97506130d483613087565b9250506001810190506130b5565b5085935050505092915050565b5f6020820190508181035f8301526131078184613093565b905092915050565b5f80fd5b5f8083601f84011261312857613127612904565b5b8235905067ffffffffffffffff8111156131455761314461310f565b5b60208301915083602082028301111561316157613160612bb5565b5b9250929050565b5f806020838503121561317e5761317d612756565b5b5f83013567ffffffffffffffff81111561319b5761319a61275a565b5b6131a785828601613113565b92509250509250929050565b6131bc8161277d565b82525050565b5f6020820190506131d55f8301846131b3565b92915050565b5f80604083850312156131f1576131f0612756565b5b5f6131fe858286016127a4565b925050602061320f85828601612eb0565b9150509250929050565b5f806040838503121561322f5761322e612756565b5b5f61323c858286016127a4565b925050602061324d858286016127a4565b9150509250929050565b5f805f805f60a086880312156132705761326f612756565b5b5f61327d888289016127a4565b955050602061328e888289016127a4565b945050604061329f888289016127d7565b93505060606132b0888289016127d7565b925050608086013567ffffffffffffffff8111156132d1576132d061275a565b5b6132dd88828901612cbf565b9150509295509295909350565b7f555249206572726f722c20746f6b656e20646f6573206e6f74206578697374215f82015250565b5f61331e602083612abc565b9150613329826132ea565b602082019050919050565b5f6020820190508181035f83015261334b81613312565b9050919050565b5f81905092915050565b5f61336682612ab2565b6133708185613352565b9350613380818560208601612acc565b80840191505092915050565b7f2e6a736f6e0000000000000000000000000000000000000000000000000000005f82015250565b5f6133c0600583613352565b91506133cb8261338c565b600582019050919050565b5f6133e1828561335c565b91506133ed828461335c565b91506133f8826133b4565b91508190509392505050565b7f416c6c6f77206c697374206d696e7420636c6f7365642e0000000000000000005f82015250565b5f613438601783612abc565b915061344382613404565b602082019050919050565b5f6020820190508181035f8301526134658161342c565b9050919050565b7f596f7520617265206e6f74206f6e2074686520616c6c6f77206c6973742100005f82015250565b5f6134a0601e83612abc565b91506134ab8261346c565b602082019050919050565b5f6020820190508181035f8301526134cd81613494565b9050919050565b7f4e487b71000000000000000000000000000000000000000000000000000000005f52601160045260245ffd5b5f61350b826127b8565b9150613516836127b8565b9250828202613524816127b8565b9150828204841483151761353b5761353a6134d4565b5b5092915050565b7f6e6f7420656e6f7567682066756e64732c20302e3030312045544820706572205f8201527f6d696e7400000000000000000000000000000000000000000000000000000000602082015250565b5f61359c602483612abc565b91506135a782613542565b604082019050919050565b5f6020820190508181035f8301526135c981613590565b9050919050565b5f6040820190506135e35f8301856131b3565b6135f060208301846131b3565b9392505050565b5f60408201905061360a5f830185612829565b6136176020830184612829565b9392505050565b7f4e487b71000000000000000000000000000000000000000000000000000000005f52603260045260245ffd5b7f5075626c6963206d696e7420697320636c6f7365642e000000000000000000005f82015250565b5f61367f601683612abc565b915061368a8261364b565b602082019050919050565b5f6020820190508181035f8301526136ac81613673565b9050919050565b7f4e6f7420656e6f7567682066756e64732c20726571756972657320302e3031205f8201527f4554480000000000000000000000000000000000000000000000000000000000602082015250565b5f61370d602383612abc565b9150613718826136b3565b604082019050919050565b5f6020820190508181035f83015261373a81613701565b9050919050565b7f4e487b71000000000000000000000000000000000000000000000000000000005f52602260045260245ffd5b5f600282049050600182168061378557607f821691505b60208210810361379857613797613741565b5b50919050565b5f819050815f5260205f209050919050565b5f6020601f8301049050919050565b5f82821b905092915050565b5f600883026137fa7fffffffffffffffffffffffffffffffffffffffffffffffffffffffffffffffff826137bf565b61380486836137bf565b95508019841693508086168417925050509392505050565b5f819050919050565b5f61383f61383a613835846127b8565b61381c565b6127b8565b9050919050565b5f819050919050565b61385883613825565b61386c61386482613846565b8484546137cb565b825550505050565b5f90565b613880613874565b61388b81848461384f565b505050565b5b818110156138ae576138a35f82613878565b600181019050613891565b5050565b601f8211156138f3576138c48161379e565b6138cd846137b0565b810160208510156138dc578190505b6138f06138e8856137b0565b830182613890565b50505b505050565b5f82821c905092915050565b5f6139135f19846008026138f8565b1980831691505092915050565b5f61392b8383613904565b9150826002028217905092915050565b61394482612ab2565b67ffffffffffffffff81111561395d5761395c61291c565b5b613967825461376e565b6139728282856138b2565b5f60209050601f8311600181146139a3575f8415613991578287015190505b61399b8582613920565b865550613a02565b601f1984166139b18661379e565b5f5b828110156139d8578489015182556001820191506020850194506020810190506139b3565b868310156139f557848901516139f1601f891682613904565b8355505b6001600288020188555050505b505050505050565b7f4e487b71000000000000000000000000000000000000000000000000000000005f52601260045260245ffd5b7f4d696e74696e672077726f6e6720746f6b656e206e756d62657220286f6e6c795f8201527f20302d313020746f6b656e732900000000000000000000000000000000000000602082015250565b5f613a91602d83612abc565b9150613a9c82613a37565b604082019050919050565b5f6020820190508181035f830152613abe81613a85565b9050919050565b5f613acf826127b8565b9150613ada836127b8565b9250828201905080821115613af257613af16134d4565b5b92915050565b7f4d617820737570706c7920666f7220746f6b656e20726561636865642e0000005f82015250565b5f613b2c601d83612abc565b9150613b3782613af8565b602082019050919050565b5f6020820190508181035f830152613b5981613b20565b9050919050565b7f4f6e6c792033204e46547320616c6c6f776564207065722077616c6c657421005f82015250565b5f613b94601f83612abc565b9150613b9f82613b60565b602082019050919050565b5f6020820190508181035f830152613bc181613b88565b9050919050565b5f81519050919050565b5f82825260208201905092915050565b5f613bec82613bc8565b613bf68185613bd2565b9350613c06818560208601612acc565b613c0f8161290c565b840191505092915050565b5f60a082019050613c2d5f8301886131b3565b613c3a60208301876131b3565b613c476040830186612829565b613c546060830185612829565b8181036080830152613c668184613be2565b90509695505050505050565b5f81519050613c808161287c565b92915050565b5f60208284031215613c9b57613c9a612756565b5b5f613ca884828501613c72565b91505092915050565b5f60a082019050613cc45f8301886131b3565b613cd160208301876131b3565b8181036040830152613ce38186613093565b90508181036060830152613cf78185613093565b90508181036080830152613d0b8184613be2565b90509695505050505050565b5f608082019050613d2a5f8301876131b3565b613d376020830186612829565b613d446040830185612829565b613d516060830184612829565b95945050505050565b5f6040820190508181035f830152613d728185613093565b90508181036020830152613d868184613093565b9050939250505056fea264697066735822122069973f78b544ea6dd542f031edcc71d9eee608bdc3619003fb4b3de6bf882fce64736f6c63430008160033697066733a2f2f516d5938736e39637034466d7256635165625379686f4e34313936586b57644e6d664d53727057566e78574a4c702f",
			"opcodes": "PUSH1 0x80 PUSH1 0x40 MSTORE PUSH7 0x2386F26FC10000 PUSH1 0x6 SSTORE PUSH7 0x38D7EA4C68000 PUSH1 0x7 SSTORE PUSH1 0x2 PUSH1 0x8 SSTORE PUSH1 0xA PUSH1 0x9 SSTORE PUSH1 0x3 PUSH1 0xA SSTORE PUSH0 PUSH1 0xB PUSH0 PUSH2 0x100 EXP DUP2 SLOAD DUP2 PUSH1 0xFF MUL NOT AND SWAP1 DUP4 ISZERO ISZERO MUL OR SWAP1 SSTORE POP PUSH0 PUSH1 0xB PUSH1 0x1 PUSH2 0x100 EXP DUP2 SLOAD DUP2 PUSH1 0xFF MUL NOT AND SWAP1 DUP4 ISZERO ISZERO MUL OR SWAP1 SSTORE POP CALLVALUE DUP1 ISZERO PUSH3 0x68 JUMPI PUSH0 DUP1 REVERT JUMPDEST POP PUSH1 0x40 MLOAD PUSH3 0x444B CODESIZE SUB DUP1 PUSH3 0x444B DUP4 CODECOPY DUP2 DUP2 ADD PUSH1 0x40 MSTORE DUP2 ADD SWAP1 PUSH3 0x8E SWAP2 SWAP1 PUSH3 0x29E JUMP JUMPDEST DUP1 PUSH1 0x40 MLOAD DUP1 PUSH1 0x60 ADD PUSH1 0x40 MSTORE DUP1 PUSH1 0x36 DUP2 MSTORE PUSH1 0x20 ADD PUSH3 0x4415 PUSH1 0x36 SWAP2 CODECOPY PUSH3 0xBA DUP2 PUSH3 0x161 PUSH1 0x20 SHL PUSH1 0x20 SHR JUMP JUMPDEST POP PUSH0 PUSH20 0xFFFFFFFFFFFFFFFFFFFFFFFFFFFFFFFFFFFFFFFF AND DUP2 PUSH20 0xFFFFFFFFFFFFFFFFFFFFFFFFFFFFFFFFFFFFFFFF AND SUB PUSH3 0x12E JUMPI PUSH0 PUSH1 0x40 MLOAD PUSH32 0x1E4FBDF700000000000000000000000000000000000000000000000000000000 DUP2 MSTORE PUSH1 0x4 ADD PUSH3 0x125 SWAP2 SWAP1 PUSH3 0x2DF JUMP JUMPDEST PUSH1 0x40 MLOAD DUP1 SWAP2 SUB SWAP1 REVERT JUMPDEST PUSH3 0x13F DUP2 PUSH3 0x176 PUSH1 0x20 SHL PUSH1 0x20 SHR JUMP JUMPDEST POP PUSH0 PUSH1 0x3 PUSH1 0x14 PUSH2 0x100 EXP DUP2 SLOAD DUP2 PUSH1 0xFF MUL NOT AND SWAP1 DUP4 ISZERO ISZERO MUL OR SWAP1 SSTORE POP POP PUSH3 0x642 JUMP JUMPDEST DUP1 PUSH1 0x2 SWAP1 DUP2 PUSH3 0x172 SWAP2 SWAP1 PUSH3 0x55E JUMP JUMPDEST POP POP JUMP JUMPDEST PUSH0 PUSH1 0x3 PUSH0 SWAP1 SLOAD SWAP1 PUSH2 0x100 EXP SWAP1 DIV PUSH20 0xFFFFFFFFFFFFFFFFFFFFFFFFFFFFFFFFFFFFFFFF AND SWAP1 POP DUP2 PUSH1 0x3 PUSH0 PUSH2 0x100 EXP DUP2 SLOAD DUP2 PUSH20 0xFFFFFFFFFFFFFFFFFFFFFFFFFFFFFFFFFFFFFFFF MUL NOT AND SWAP1 DUP4 PUSH20 0xFFFFFFFFFFFFFFFFFFFFFFFFFFFFFFFFFFFFFFFF AND MUL OR SWAP1 SSTORE POP DUP2 PUSH20 0xFFFFFFFFFFFFFFFFFFFFFFFFFFFFFFFFFFFFFFFF AND DUP2 PUSH20 0xFFFFFFFFFFFFFFFFFFFFFFFFFFFFFFFFFFFFFFFF AND PUSH32 0x8BE0079C531659141344CD1FD0A4F28419497F9722A3DAAFE3B4186F6B6457E0 PUSH1 0x40 MLOAD PUSH1 0x40 MLOAD DUP1 SWAP2 SUB SWAP1 LOG3 POP POP JUMP JUMPDEST PUSH0 DUP1 REVERT JUMPDEST PUSH0 PUSH20 0xFFFFFFFFFFFFFFFFFFFFFFFFFFFFFFFFFFFFFFFF DUP3 AND SWAP1 POP SWAP2 SWAP1 POP JUMP JUMPDEST PUSH0 PUSH3 0x268 DUP3 PUSH3 0x23D JUMP JUMPDEST SWAP1 POP SWAP2 SWAP1 POP JUMP JUMPDEST PUSH3 0x27A DUP2 PUSH3 0x25C JUMP JUMPDEST DUP2 EQ PUSH3 0x285 JUMPI PUSH0 DUP1 REVERT JUMPDEST POP JUMP JUMPDEST PUSH0 DUP2 MLOAD SWAP1 POP PUSH3 0x298 DUP2 PUSH3 0x26F JUMP JUMPDEST SWAP3 SWAP2 POP POP JUMP JUMPDEST PUSH0 PUSH1 0x20 DUP3 DUP5 SUB SLT ISZERO PUSH3 0x2B6 JUMPI PUSH3 0x2B5 PUSH3 0x239 JUMP JUMPDEST JUMPDEST PUSH0 PUSH3 0x2C5 DUP5 DUP3 DUP6 ADD PUSH3 0x288 JUMP JUMPDEST SWAP2 POP POP SWAP3 SWAP2 POP POP JUMP JUMPDEST PUSH3 0x2D9 DUP2 PUSH3 0x25C JUMP JUMPDEST DUP3 MSTORE POP POP JUMP JUMPDEST PUSH0 PUSH1 0x20 DUP3 ADD SWAP1 POP PUSH3 0x2F4 PUSH0 DUP4 ADD DUP5 PUSH3 0x2CE JUMP JUMPDEST SWAP3 SWAP2 POP POP JUMP JUMPDEST PUSH0 DUP2 MLOAD SWAP1 POP SWAP2 SWAP1 POP JUMP JUMPDEST PUSH32 0x4E487B7100000000000000000000000000000000000000000000000000000000 PUSH0 MSTORE PUSH1 0x41 PUSH1 0x4 MSTORE PUSH1 0x24 PUSH0 REVERT JUMPDEST PUSH32 0x4E487B7100000000000000000000000000000000000000000000000000000000 PUSH0 MSTORE PUSH1 0x22 PUSH1 0x4 MSTORE PUSH1 0x24 PUSH0 REVERT JUMPDEST PUSH0 PUSH1 0x2 DUP3 DIV SWAP1 POP PUSH1 0x1 DUP3 AND DUP1 PUSH3 0x376 JUMPI PUSH1 0x7F DUP3 AND SWAP2 POP JUMPDEST PUSH1 0x20 DUP3 LT DUP2 SUB PUSH3 0x38C JUMPI PUSH3 0x38B PUSH3 0x331 JUMP JUMPDEST JUMPDEST POP SWAP2 SWAP1 POP JUMP JUMPDEST PUSH0 DUP2 SWAP1 POP DUP2 PUSH0 MSTORE PUSH1 0x20 PUSH0 KECCAK256 SWAP1 POP SWAP2 SWAP1 POP JUMP JUMPDEST PUSH0 PUSH1 0x20 PUSH1 0x1F DUP4 ADD DIV SWAP1 POP SWAP2 SWAP1 POP JUMP JUMPDEST PUSH0 DUP3 DUP3 SHL SWAP1 POP SWAP3 SWAP2 POP POP JUMP JUMPDEST PUSH0 PUSH1 0x8 DUP4 MUL PUSH3 0x3F0 PUSH32 0xFFFFFFFFFFFFFFFFFFFFFFFFFFFFFFFFFFFFFFFFFFFFFFFFFFFFFFFFFFFFFFFF DUP3 PUSH3 0x3B3 JUMP JUMPDEST PUSH3 0x3FC DUP7 DUP4 PUSH3 0x3B3 JUMP JUMPDEST SWAP6 POP DUP1 NOT DUP5 AND SWAP4 POP DUP1 DUP7 AND DUP5 OR SWAP3 POP POP POP SWAP4 SWAP3 POP POP POP JUMP JUMPDEST PUSH0 DUP2 SWAP1 POP SWAP2 SWAP1 POP JUMP JUMPDEST PUSH0 DUP2 SWAP1 POP SWAP2 SWAP1 POP JUMP JUMPDEST PUSH0 PUSH3 0x446 PUSH3 0x440 PUSH3 0x43A DUP5 PUSH3 0x414 JUMP JUMPDEST PUSH3 0x41D JUMP JUMPDEST PUSH3 0x414 JUMP JUMPDEST SWAP1 POP SWAP2 SWAP1 POP JUMP JUMPDEST PUSH0 DUP2 SWAP1 POP SWAP2 SWAP1 POP JUMP JUMPDEST PUSH3 0x461 DUP4 PUSH3 0x426 JUMP JUMPDEST PUSH3 0x479 PUSH3 0x470 DUP3 PUSH3 0x44D JUMP JUMPDEST DUP5 DUP5 SLOAD PUSH3 0x3BF JUMP JUMPDEST DUP3 SSTORE POP POP POP POP JUMP JUMPDEST PUSH0 SWAP1 JUMP JUMPDEST PUSH3 0x48F PUSH3 0x481 JUMP JUMPDEST PUSH3 0x49C DUP2 DUP5 DUP5 PUSH3 0x456 JUMP JUMPDEST POP POP POP JUMP JUMPDEST JUMPDEST DUP2 DUP2 LT ISZERO PUSH3 0x4C3 JUMPI PUSH3 0x4B7 PUSH0 DUP3 PUSH3 0x485 JUMP JUMPDEST PUSH1 0x1 DUP2 ADD SWAP1 POP PUSH3 0x4A2 JUMP JUMPDEST POP POP JUMP JUMPDEST PUSH1 0x1F DUP3 GT ISZERO PUSH3 0x512 JUMPI PUSH3 0x4DC DUP2 PUSH3 0x392 JUMP JUMPDEST PUSH3 0x4E7 DUP5 PUSH3 0x3A4 JUMP JUMPDEST DUP2 ADD PUSH1 0x20 DUP6 LT ISZERO PUSH3 0x4F7 JUMPI DUP2 SWAP1 POP JUMPDEST PUSH3 0x50F PUSH3 0x506 DUP6 PUSH3 0x3A4 JUMP JUMPDEST DUP4 ADD DUP3 PUSH3 0x4A1 JUMP JUMPDEST POP POP JUMPDEST POP POP POP JUMP JUMPDEST PUSH0 DUP3 DUP3 SHR SWAP1 POP SWAP3 SWAP2 POP POP JUMP JUMPDEST PUSH0 PUSH3 0x534 PUSH0 NOT DUP5 PUSH1 0x8 MUL PUSH3 0x517 JUMP JUMPDEST NOT DUP1 DUP4 AND SWAP2 POP POP SWAP3 SWAP2 POP POP JUMP JUMPDEST PUSH0 PUSH3 0x54E DUP4 DUP4 PUSH3 0x523 JUMP JUMPDEST SWAP2 POP DUP3 PUSH1 0x2 MUL DUP3 OR SWAP1 POP SWAP3 SWAP2 POP POP JUMP JUMPDEST PUSH3 0x569 DUP3 PUSH3 0x2FA JUMP JUMPDEST PUSH8 0xFFFFFFFFFFFFFFFF DUP2 GT ISZERO PUSH3 0x585 JUMPI PUSH3 0x584 PUSH3 0x304 JUMP JUMPDEST JUMPDEST PUSH3 0x591 DUP3 SLOAD PUSH3 0x35E JUMP JUMPDEST PUSH3 0x59E DUP3 DUP3 DUP6 PUSH3 0x4C7 JUMP JUMPDEST PUSH0 PUSH1 0x20 SWAP1 POP PUSH1 0x1F DUP4 GT PUSH1 0x1 DUP2 EQ PUSH3 0x5D4 JUMPI PUSH0 DUP5 ISZERO PUSH3 0x5BF JUMPI DUP3 DUP8 ADD MLOAD SWAP1 POP JUMPDEST PUSH3 0x5CB DUP6 DUP3 PUSH3 0x541 JUMP JUMPDEST DUP7 SSTORE POP PUSH3 0x63A JUMP JUMPDEST PUSH1 0x1F NOT DUP5 AND PUSH3 0x5E4 DUP7 PUSH3 0x392 JUMP JUMPDEST PUSH0 JUMPDEST DUP3 DUP2 LT ISZERO PUSH3 0x60D JUMPI DUP5 DUP10 ADD MLOAD DUP3 SSTORE PUSH1 0x1 DUP3 ADD SWAP2 POP PUSH1 0x20 DUP6 ADD SWAP5 POP PUSH1 0x20 DUP2 ADD SWAP1 POP PUSH3 0x5E6 JUMP JUMPDEST DUP7 DUP4 LT ISZERO PUSH3 0x62D JUMPI DUP5 DUP10 ADD MLOAD PUSH3 0x629 PUSH1 0x1F DUP10 AND DUP3 PUSH3 0x523 JUMP JUMPDEST DUP4 SSTORE POP JUMPDEST PUSH1 0x1 PUSH1 0x2 DUP9 MUL ADD DUP9 SSTORE POP POP POP JUMPDEST POP POP POP POP POP POP JUMP JUMPDEST PUSH2 0x3DC5 DUP1 PUSH3 0x650 PUSH0 CODECOPY PUSH0 RETURN INVALID PUSH1 0x80 PUSH1 0x40 MSTORE PUSH1 0x4 CALLDATASIZE LT PUSH2 0x1F7 JUMPI PUSH0 CALLDATALOAD PUSH1 0xE0 SHR DUP1 PUSH4 0x5C975ABB GT PUSH2 0x10C JUMPI DUP1 PUSH4 0xA22CB465 GT PUSH2 0x9F JUMPI DUP1 PUSH4 0xBD85B039 GT PUSH2 0x6E JUMPI DUP1 PUSH4 0xBD85B039 EQ PUSH2 0x6D5 JUMPI DUP1 PUSH4 0xD75E0293 EQ PUSH2 0x711 JUMPI DUP1 PUSH4 0xE985E9C5 EQ PUSH2 0x739 JUMPI DUP1 PUSH4 0xF242432A EQ PUSH2 0x775 JUMPI DUP1 PUSH4 0xF2FDE38B EQ PUSH2 0x79D JUMPI PUSH2 0x1F7 JUMP JUMPDEST DUP1 PUSH4 0xA22CB465 EQ PUSH2 0x62F JUMPI DUP1 PUSH4 0xA24E5153 EQ PUSH2 0x657 JUMPI DUP1 PUSH4 0xA945BF80 EQ PUSH2 0x681 JUMPI DUP1 PUSH4 0xBCC9CA5B EQ PUSH2 0x6AB JUMPI PUSH2 0x1F7 JUMP JUMPDEST DUP1 PUSH4 0x715018A6 GT PUSH2 0xDB JUMPI DUP1 PUSH4 0x715018A6 EQ PUSH2 0x5BD JUMPI DUP1 PUSH4 0x8456CB59 EQ PUSH2 0x5D3 JUMPI DUP1 PUSH4 0x8DA5CB5B EQ PUSH2 0x5E9 JUMPI DUP1 PUSH4 0x98AE99A8 EQ PUSH2 0x613 JUMPI PUSH2 0x1F7 JUMP JUMPDEST DUP1 PUSH4 0x5C975ABB EQ PUSH2 0x517 JUMPI DUP1 PUSH4 0x6447C35D EQ PUSH2 0x541 JUMPI DUP1 PUSH4 0x665CCFB4 EQ PUSH2 0x569 JUMPI DUP1 PUSH4 0x69396069 EQ PUSH2 0x593 JUMPI PUSH2 0x1F7 JUMP JUMPDEST DUP1 PUSH4 0x2848AEAF GT PUSH2 0x18F JUMPI DUP1 PUSH4 0x453C2310 GT PUSH2 0x15E JUMPI DUP1 PUSH4 0x453C2310 EQ PUSH2 0x411 JUMPI DUP1 PUSH4 0x4E1273F4 EQ PUSH2 0x43B JUMPI DUP1 PUSH4 0x4F558E79 EQ PUSH2 0x477 JUMPI DUP1 PUSH4 0x51CFF8D9 EQ PUSH2 0x4B3 JUMPI DUP1 PUSH4 0x51F1F740 EQ PUSH2 0x4DB JUMPI PUSH2 0x1F7 JUMP JUMPDEST DUP1 PUSH4 0x2848AEAF EQ PUSH2 0x36F JUMPI DUP1 PUSH4 0x2EB2C2D6 EQ PUSH2 0x3AB JUMPI DUP1 PUSH4 0x2F48DE79 EQ PUSH2 0x3D3 JUMPI DUP1 PUSH4 0x3F4BA83A EQ PUSH2 0x3FB JUMPI PUSH2 0x1F7 JUMP JUMPDEST DUP1 PUSH4 0xE89341C GT PUSH2 0x1CB JUMPI DUP1 PUSH4 0xE89341C EQ PUSH2 0x2C5 JUMPI DUP1 PUSH4 0x128AC91B EQ PUSH2 0x301 JUMPI DUP1 PUSH4 0x18160DDD EQ PUSH2 0x31D JUMPI DUP1 PUSH4 0x1F7FDFFA EQ PUSH2 0x347 JUMPI PUSH2 0x1F7 JUMP JUMPDEST DUP1 PUSH3 0xFDD58E EQ PUSH2 0x1FB JUMPI DUP1 PUSH4 0x1FFC9A7 EQ PUSH2 0x237 JUMPI DUP1 PUSH4 0x2FE5305 EQ PUSH2 0x273 JUMPI DUP1 PUSH4 0x85C9BAC EQ PUSH2 0x29B JUMPI JUMPDEST PUSH0 DUP1 REVERT JUMPDEST CALLVALUE DUP1 ISZERO PUSH2 0x206 JUMPI PUSH0 DUP1 REVERT JUMPDEST POP PUSH2 0x221 PUSH1 0x4 DUP1 CALLDATASIZE SUB DUP2 ADD SWAP1 PUSH2 0x21C SWAP2 SWAP1 PUSH2 0x27EB JUMP JUMPDEST PUSH2 0x7C5 JUMP JUMPDEST PUSH1 0x40 MLOAD PUSH2 0x22E SWAP2 SWAP1 PUSH2 0x2838 JUMP JUMPDEST PUSH1 0x40 MLOAD DUP1 SWAP2 SUB SWAP1 RETURN JUMPDEST CALLVALUE DUP1 ISZERO PUSH2 0x242 JUMPI PUSH0 DUP1 REVERT JUMPDEST POP PUSH2 0x25D PUSH1 0x4 DUP1 CALLDATASIZE SUB DUP2 ADD SWAP1 PUSH2 0x258 SWAP2 SWAP1 PUSH2 0x28A6 JUMP JUMPDEST PUSH2 0x81A JUMP JUMPDEST PUSH1 0x40 MLOAD PUSH2 0x26A SWAP2 SWAP1 PUSH2 0x28EB JUMP JUMPDEST PUSH1 0x40 MLOAD DUP1 SWAP2 SUB SWAP1 RETURN JUMPDEST CALLVALUE DUP1 ISZERO PUSH2 0x27E JUMPI PUSH0 DUP1 REVERT JUMPDEST POP PUSH2 0x299 PUSH1 0x4 DUP1 CALLDATASIZE SUB DUP2 ADD SWAP1 PUSH2 0x294 SWAP2 SWAP1 PUSH2 0x2A40 JUMP JUMPDEST PUSH2 0x8FB JUMP JUMPDEST STOP JUMPDEST CALLVALUE DUP1 ISZERO PUSH2 0x2A6 JUMPI PUSH0 DUP1 REVERT JUMPDEST POP PUSH2 0x2AF PUSH2 0x90F JUMP JUMPDEST PUSH1 0x40 MLOAD PUSH2 0x2BC SWAP2 SWAP1 PUSH2 0x28EB JUMP JUMPDEST PUSH1 0x40 MLOAD DUP1 SWAP2 SUB SWAP1 RETURN JUMPDEST CALLVALUE DUP1 ISZERO PUSH2 0x2D0 JUMPI PUSH0 DUP1 REVERT JUMPDEST POP PUSH2 0x2EB PUSH1 0x4 DUP1 CALLDATASIZE SUB DUP2 ADD SWAP1 PUSH2 0x2E6 SWAP2 SWAP1 PUSH2 0x2A87 JUMP JUMPDEST PUSH2 0x922 JUMP JUMPDEST PUSH1 0x40 MLOAD PUSH2 0x2F8 SWAP2 SWAP1 PUSH2 0x2B2C JUMP JUMPDEST PUSH1 0x40 MLOAD DUP1 SWAP2 SUB SWAP1 RETURN JUMPDEST PUSH2 0x31B PUSH1 0x4 DUP1 CALLDATASIZE SUB DUP2 ADD SWAP1 PUSH2 0x316 SWAP2 SWAP1 PUSH2 0x2B4C JUMP JUMPDEST PUSH2 0x9A5 JUMP JUMPDEST STOP JUMPDEST CALLVALUE DUP1 ISZERO PUSH2 0x328 JUMPI PUSH0 DUP1 REVERT JUMPDEST POP PUSH2 0x331 PUSH2 0xADA JUMP JUMPDEST PUSH1 0x40 MLOAD PUSH2 0x33E SWAP2 SWAP1 PUSH2 0x2838 JUMP JUMPDEST PUSH1 0x40 MLOAD DUP1 SWAP2 SUB SWAP1 RETURN JUMPDEST CALLVALUE DUP1 ISZERO PUSH2 0x352 JUMPI PUSH0 DUP1 REVERT JUMPDEST POP PUSH2 0x36D PUSH1 0x4 DUP1 CALLDATASIZE SUB DUP2 ADD SWAP1 PUSH2 0x368 SWAP2 SWAP1 PUSH2 0x2CEC JUMP JUMPDEST PUSH2 0xAE3 JUMP JUMPDEST STOP JUMPDEST CALLVALUE DUP1 ISZERO PUSH2 0x37A JUMPI PUSH0 DUP1 REVERT JUMPDEST POP PUSH2 0x395 PUSH1 0x4 DUP1 CALLDATASIZE SUB DUP2 ADD SWAP1 PUSH2 0x390 SWAP2 SWAP1 PUSH2 0x2DA4 JUMP JUMPDEST PUSH2 0xAFD JUMP JUMPDEST PUSH1 0x40 MLOAD PUSH2 0x3A2 SWAP2 SWAP1 PUSH2 0x28EB JUMP JUMPDEST PUSH1 0x40 MLOAD DUP1 SWAP2 SUB SWAP1 RETURN JUMPDEST CALLVALUE DUP1 ISZERO PUSH2 0x3B6 JUMPI PUSH0 DUP1 REVERT JUMPDEST POP PUSH2 0x3D1 PUSH1 0x4 DUP1 CALLDATASIZE SUB DUP2 ADD SWAP1 PUSH2 0x3CC SWAP2 SWAP1 PUSH2 0x2DCF JUMP JUMPDEST PUSH2 0xB1A JUMP JUMPDEST STOP JUMPDEST CALLVALUE DUP1 ISZERO PUSH2 0x3DE JUMPI PUSH0 DUP1 REVERT JUMPDEST POP PUSH2 0x3F9 PUSH1 0x4 DUP1 CALLDATASIZE SUB DUP2 ADD SWAP1 PUSH2 0x3F4 SWAP2 SWAP1 PUSH2 0x2EC4 JUMP JUMPDEST PUSH2 0xBC1 JUMP JUMPDEST STOP JUMPDEST CALLVALUE DUP1 ISZERO PUSH2 0x406 JUMPI PUSH0 DUP1 REVERT JUMPDEST POP PUSH2 0x40F PUSH2 0xC00 JUMP JUMPDEST STOP JUMPDEST CALLVALUE DUP1 ISZERO PUSH2 0x41C JUMPI PUSH0 DUP1 REVERT JUMPDEST POP PUSH2 0x425 PUSH2 0xC12 JUMP JUMPDEST PUSH1 0x40 MLOAD PUSH2 0x432 SWAP2 SWAP1 PUSH2 0x2838 JUMP JUMPDEST PUSH1 0x40 MLOAD DUP1 SWAP2 SUB SWAP1 RETURN JUMPDEST CALLVALUE DUP1 ISZERO PUSH2 0x446 JUMPI PUSH0 DUP1 REVERT JUMPDEST POP PUSH2 0x461 PUSH1 0x4 DUP1 CALLDATASIZE SUB DUP2 ADD SWAP1 PUSH2 0x45C SWAP2 SWAP1 PUSH2 0x2FC2 JUMP JUMPDEST PUSH2 0xC18 JUMP JUMPDEST PUSH1 0x40 MLOAD PUSH2 0x46E SWAP2 SWAP1 PUSH2 0x30EF JUMP JUMPDEST PUSH1 0x40 MLOAD DUP1 SWAP2 SUB SWAP1 RETURN JUMPDEST CALLVALUE DUP1 ISZERO PUSH2 0x482 JUMPI PUSH0 DUP1 REVERT JUMPDEST POP PUSH2 0x49D PUSH1 0x4 DUP1 CALLDATASIZE SUB DUP2 ADD SWAP1 PUSH2 0x498 SWAP2 SWAP1 PUSH2 0x2A87 JUMP JUMPDEST PUSH2 0xD1F JUMP JUMPDEST PUSH1 0x40 MLOAD PUSH2 0x4AA SWAP2 SWAP1 PUSH2 0x28EB JUMP JUMPDEST PUSH1 0x40 MLOAD DUP1 SWAP2 SUB SWAP1 RETURN JUMPDEST CALLVALUE DUP1 ISZERO PUSH2 0x4BE JUMPI PUSH0 DUP1 REVERT JUMPDEST POP PUSH2 0x4D9 PUSH1 0x4 DUP1 CALLDATASIZE SUB DUP2 ADD SWAP1 PUSH2 0x4D4 SWAP2 SWAP1 PUSH2 0x2DA4 JUMP JUMPDEST PUSH2 0xD32 JUMP JUMPDEST STOP JUMPDEST CALLVALUE DUP1 ISZERO PUSH2 0x4E6 JUMPI PUSH0 DUP1 REVERT JUMPDEST POP PUSH2 0x501 PUSH1 0x4 DUP1 CALLDATASIZE SUB DUP2 ADD SWAP1 PUSH2 0x4FC SWAP2 SWAP1 PUSH2 0x2DA4 JUMP JUMPDEST PUSH2 0xD86 JUMP JUMPDEST PUSH1 0x40 MLOAD PUSH2 0x50E SWAP2 SWAP1 PUSH2 0x2838 JUMP JUMPDEST PUSH1 0x40 MLOAD DUP1 SWAP2 SUB SWAP1 RETURN JUMPDEST CALLVALUE DUP1 ISZERO PUSH2 0x522 JUMPI PUSH0 DUP1 REVERT JUMPDEST POP PUSH2 0x52B PUSH2 0xD9B JUMP JUMPDEST PUSH1 0x40 MLOAD PUSH2 0x538 SWAP2 SWAP1 PUSH2 0x28EB JUMP JUMPDEST PUSH1 0x40 MLOAD DUP1 SWAP2 SUB SWAP1 RETURN JUMPDEST CALLVALUE DUP1 ISZERO PUSH2 0x54C JUMPI PUSH0 DUP1 REVERT JUMPDEST POP PUSH2 0x567 PUSH1 0x4 DUP1 CALLDATASIZE SUB DUP2 ADD SWAP1 PUSH2 0x562 SWAP2 SWAP1 PUSH2 0x3168 JUMP JUMPDEST PUSH2 0xDB1 JUMP JUMPDEST STOP JUMPDEST CALLVALUE DUP1 ISZERO PUSH2 0x574 JUMPI PUSH0 DUP1 REVERT JUMPDEST POP PUSH2 0x57D PUSH2 0xE54 JUMP JUMPDEST PUSH1 0x40 MLOAD PUSH2 0x58A SWAP2 SWAP1 PUSH2 0x2838 JUMP JUMPDEST PUSH1 0x40 MLOAD DUP1 SWAP2 SUB SWAP1 RETURN JUMPDEST CALLVALUE DUP1 ISZERO PUSH2 0x59E JUMPI PUSH0 DUP1 REVERT JUMPDEST POP PUSH2 0x5A7 PUSH2 0xE5A JUMP JUMPDEST PUSH1 0x40 MLOAD PUSH2 0x5B4 SWAP2 SWAP1 PUSH2 0x2838 JUMP JUMPDEST PUSH1 0x40 MLOAD DUP1 SWAP2 SUB SWAP1 RETURN JUMPDEST CALLVALUE DUP1 ISZERO PUSH2 0x5C8 JUMPI PUSH0 DUP1 REVERT JUMPDEST POP PUSH2 0x5D1 PUSH2 0xE60 JUMP JUMPDEST STOP JUMPDEST CALLVALUE DUP1 ISZERO PUSH2 0x5DE JUMPI PUSH0 DUP1 REVERT JUMPDEST POP PUSH2 0x5E7 PUSH2 0xE73 JUMP JUMPDEST STOP JUMPDEST CALLVALUE DUP1 ISZERO PUSH2 0x5F4 JUMPI PUSH0 DUP1 REVERT JUMPDEST POP PUSH2 0x5FD PUSH2 0xE85 JUMP JUMPDEST PUSH1 0x40 MLOAD PUSH2 0x60A SWAP2 SWAP1 PUSH2 0x31C2 JUMP JUMPDEST PUSH1 0x40 MLOAD DUP1 SWAP2 SUB SWAP1 RETURN JUMPDEST PUSH2 0x62D PUSH1 0x4 DUP1 CALLDATASIZE SUB DUP2 ADD SWAP1 PUSH2 0x628 SWAP2 SWAP1 PUSH2 0x2B4C JUMP JUMPDEST PUSH2 0xEAD JUMP JUMPDEST STOP JUMPDEST CALLVALUE DUP1 ISZERO PUSH2 0x63A JUMPI PUSH0 DUP1 REVERT JUMPDEST POP PUSH2 0x655 PUSH1 0x4 DUP1 CALLDATASIZE SUB DUP2 ADD SWAP1 PUSH2 0x650 SWAP2 SWAP1 PUSH2 0x31DB JUMP JUMPDEST PUSH2 0xF58 JUMP JUMPDEST STOP JUMPDEST CALLVALUE DUP1 ISZERO PUSH2 0x662 JUMPI PUSH0 DUP1 REVERT JUMPDEST POP PUSH2 0x66B PUSH2 0xF6E JUMP JUMPDEST PUSH1 0x40 MLOAD PUSH2 0x678 SWAP2 SWAP1 PUSH2 0x2838 JUMP JUMPDEST PUSH1 0x40 MLOAD DUP1 SWAP2 SUB SWAP1 RETURN JUMPDEST CALLVALUE DUP1 ISZERO PUSH2 0x68C JUMPI PUSH0 DUP1 REVERT JUMPDEST POP PUSH2 0x695 PUSH2 0xF74 JUMP JUMPDEST PUSH1 0x40 MLOAD PUSH2 0x6A2 SWAP2 SWAP1 PUSH2 0x2838 JUMP JUMPDEST PUSH1 0x40 MLOAD DUP1 SWAP2 SUB SWAP1 RETURN JUMPDEST CALLVALUE DUP1 ISZERO PUSH2 0x6B6 JUMPI PUSH0 DUP1 REVERT JUMPDEST POP PUSH2 0x6BF PUSH2 0xF7A JUMP JUMPDEST PUSH1 0x40 MLOAD PUSH2 0x6CC SWAP2 SWAP1 PUSH2 0x28EB JUMP JUMPDEST PUSH1 0x40 MLOAD DUP1 SWAP2 SUB SWAP1 RETURN JUMPDEST CALLVALUE DUP1 ISZERO PUSH2 0x6E0 JUMPI PUSH0 DUP1 REVERT JUMPDEST POP PUSH2 0x6FB PUSH1 0x4 DUP1 CALLDATASIZE SUB DUP2 ADD SWAP1 PUSH2 0x6F6 SWAP2 SWAP1 PUSH2 0x2A87 JUMP JUMPDEST PUSH2 0xF8C JUMP JUMPDEST PUSH1 0x40 MLOAD PUSH2 0x708 SWAP2 SWAP1 PUSH2 0x2838 JUMP JUMPDEST PUSH1 0x40 MLOAD DUP1 SWAP2 SUB SWAP1 RETURN JUMPDEST CALLVALUE DUP1 ISZERO PUSH2 0x71C JUMPI PUSH0 DUP1 REVERT JUMPDEST POP PUSH2 0x737 PUSH1 0x4 DUP1 CALLDATASIZE SUB DUP2 ADD SWAP1 PUSH2 0x732 SWAP2 SWAP1 PUSH2 0x31DB JUMP JUMPDEST PUSH2 0xFA6 JUMP JUMPDEST STOP JUMPDEST CALLVALUE DUP1 ISZERO PUSH2 0x744 JUMPI PUSH0 DUP1 REVERT JUMPDEST POP PUSH2 0x75F PUSH1 0x4 DUP1 CALLDATASIZE SUB DUP2 ADD SWAP1 PUSH2 0x75A SWAP2 SWAP1 PUSH2 0x3219 JUMP JUMPDEST PUSH2 0x1006 JUMP JUMPDEST PUSH1 0x40 MLOAD PUSH2 0x76C SWAP2 SWAP1 PUSH2 0x28EB JUMP JUMPDEST PUSH1 0x40 MLOAD DUP1 SWAP2 SUB SWAP1 RETURN JUMPDEST CALLVALUE DUP1 ISZERO PUSH2 0x780 JUMPI PUSH0 DUP1 REVERT JUMPDEST POP PUSH2 0x79B PUSH1 0x4 DUP1 CALLDATASIZE SUB DUP2 ADD SWAP1 PUSH2 0x796 SWAP2 SWAP1 PUSH2 0x3257 JUMP JUMPDEST PUSH2 0x1094 JUMP JUMPDEST STOP JUMPDEST CALLVALUE DUP1 ISZERO PUSH2 0x7A8 JUMPI PUSH0 DUP1 REVERT JUMPDEST POP PUSH2 0x7C3 PUSH1 0x4 DUP1 CALLDATASIZE SUB DUP2 ADD SWAP1 PUSH2 0x7BE SWAP2 SWAP1 PUSH2 0x2DA4 JUMP JUMPDEST PUSH2 0x113B JUMP JUMPDEST STOP JUMPDEST PUSH0 DUP1 PUSH0 DUP4 DUP2 MSTORE PUSH1 0x20 ADD SWAP1 DUP2 MSTORE PUSH1 0x20 ADD PUSH0 KECCAK256 PUSH0 DUP5 PUSH20 0xFFFFFFFFFFFFFFFFFFFFFFFFFFFFFFFFFFFFFFFF AND PUSH20 0xFFFFFFFFFFFFFFFFFFFFFFFFFFFFFFFFFFFFFFFF AND DUP2 MSTORE PUSH1 0x20 ADD SWAP1 DUP2 MSTORE PUSH1 0x20 ADD PUSH0 KECCAK256 SLOAD SWAP1 POP SWAP3 SWAP2 POP POP JUMP JUMPDEST PUSH0 PUSH32 0xD9B67A2600000000000000000000000000000000000000000000000000000000 PUSH28 0xFFFFFFFFFFFFFFFFFFFFFFFFFFFFFFFFFFFFFFFFFFFFFFFFFFFFFFFF NOT AND DUP3 PUSH28 0xFFFFFFFFFFFFFFFFFFFFFFFFFFFFFFFFFFFFFFFFFFFFFFFFFFFFFFFF NOT AND EQ DUP1 PUSH2 0x8E4 JUMPI POP PUSH32 0xE89341C00000000000000000000000000000000000000000000000000000000 PUSH28 0xFFFFFFFFFFFFFFFFFFFFFFFFFFFFFFFFFFFFFFFFFFFFFFFFFFFFFFFF NOT AND DUP3 PUSH28 0xFFFFFFFFFFFFFFFFFFFFFFFFFFFFFFFFFFFFFFFFFFFFFFFFFFFFFFFF NOT AND EQ JUMPDEST DUP1 PUSH2 0x8F4 JUMPI POP PUSH2 0x8F3 DUP3 PUSH2 0x11BF JUMP JUMPDEST JUMPDEST SWAP1 POP SWAP2 SWAP1 POP JUMP JUMPDEST PUSH2 0x903 PUSH2 0x1228 JUMP JUMPDEST PUSH2 0x90C DUP2 PUSH2 0x12AF JUMP JUMPDEST POP JUMP JUMPDEST PUSH1 0xB PUSH1 0x1 SWAP1 SLOAD SWAP1 PUSH2 0x100 EXP SWAP1 DIV PUSH1 0xFF AND DUP2 JUMP JUMPDEST PUSH1 0x60 PUSH2 0x92D DUP3 PUSH2 0xD1F JUMP JUMPDEST PUSH2 0x96C JUMPI PUSH1 0x40 MLOAD PUSH32 0x8C379A000000000000000000000000000000000000000000000000000000000 DUP2 MSTORE PUSH1 0x4 ADD PUSH2 0x963 SWAP1 PUSH2 0x3334 JUMP JUMPDEST PUSH1 0x40 MLOAD DUP1 SWAP2 SUB SWAP1 REVERT JUMPDEST PUSH2 0x975 DUP3 PUSH2 0x12C2 JUMP JUMPDEST PUSH2 0x97E DUP4 PUSH2 0x1354 JUMP JUMPDEST PUSH1 0x40 MLOAD PUSH1 0x20 ADD PUSH2 0x98F SWAP3 SWAP2 SWAP1 PUSH2 0x33D6 JUMP JUMPDEST PUSH1 0x40 MLOAD PUSH1 0x20 DUP2 DUP4 SUB SUB DUP2 MSTORE SWAP1 PUSH1 0x40 MSTORE SWAP1 POP SWAP2 SWAP1 POP JUMP JUMPDEST PUSH1 0xB PUSH1 0x1 SWAP1 SLOAD SWAP1 PUSH2 0x100 EXP SWAP1 DIV PUSH1 0xFF AND PUSH2 0x9F4 JUMPI PUSH1 0x40 MLOAD PUSH32 0x8C379A000000000000000000000000000000000000000000000000000000000 DUP2 MSTORE PUSH1 0x4 ADD PUSH2 0x9EB SWAP1 PUSH2 0x344E JUMP JUMPDEST PUSH1 0x40 MLOAD DUP1 SWAP2 SUB SWAP1 REVERT JUMPDEST PUSH1 0xC PUSH0 CALLER PUSH20 0xFFFFFFFFFFFFFFFFFFFFFFFFFFFFFFFFFFFFFFFF AND PUSH20 0xFFFFFFFFFFFFFFFFFFFFFFFFFFFFFFFFFFFFFFFF AND DUP2 MSTORE PUSH1 0x20 ADD SWAP1 DUP2 MSTORE PUSH1 0x20 ADD PUSH0 KECCAK256 PUSH0 SWAP1 SLOAD SWAP1 PUSH2 0x100 EXP SWAP1 DIV PUSH1 0xFF AND PUSH2 0xA7D JUMPI PUSH1 0x40 MLOAD PUSH32 0x8C379A000000000000000000000000000000000000000000000000000000000 DUP2 MSTORE PUSH1 0x4 ADD PUSH2 0xA74 SWAP1 PUSH2 0x34B6 JUMP JUMPDEST PUSH1 0x40 MLOAD DUP1 SWAP2 SUB SWAP1 REVERT JUMPDEST DUP1 PUSH1 0x7 SLOAD PUSH2 0xA8B SWAP2 SWAP1 PUSH2 0x3501 JUMP JUMPDEST CALLVALUE EQ PUSH2 0xACC JUMPI PUSH1 0x40 MLOAD PUSH32 0x8C379A000000000000000000000000000000000000000000000000000000000 DUP2 MSTORE PUSH1 0x4 ADD PUSH2 0xAC3 SWAP1 PUSH2 0x35B2 JUMP JUMPDEST PUSH1 0x40 MLOAD DUP1 SWAP2 SUB SWAP1 REVERT JUMPDEST PUSH2 0xAD6 DUP3 DUP3 PUSH2 0x141E JUMP JUMPDEST POP POP JUMP JUMPDEST PUSH0 PUSH1 0x5 SLOAD SWAP1 POP SWAP1 JUMP JUMPDEST PUSH2 0xAEB PUSH2 0x1228 JUMP JUMPDEST PUSH2 0xAF7 DUP5 DUP5 DUP5 DUP5 PUSH2 0x15B8 JUMP JUMPDEST POP POP POP POP JUMP JUMPDEST PUSH1 0xC PUSH1 0x20 MSTORE DUP1 PUSH0 MSTORE PUSH1 0x40 PUSH0 KECCAK256 PUSH0 SWAP2 POP SLOAD SWAP1 PUSH2 0x100 EXP SWAP1 DIV PUSH1 0xFF AND DUP2 JUMP JUMPDEST PUSH0 PUSH2 0xB23 PUSH2 0x163B JUMP JUMPDEST SWAP1 POP DUP1 PUSH20 0xFFFFFFFFFFFFFFFFFFFFFFFFFFFFFFFFFFFFFFFF AND DUP7 PUSH20 0xFFFFFFFFFFFFFFFFFFFFFFFFFFFFFFFFFFFFFFFF AND EQ ISZERO DUP1 ISZERO PUSH2 0xB68 JUMPI POP PUSH2 0xB66 DUP7 DUP3 PUSH2 0x1006 JUMP JUMPDEST ISZERO JUMPDEST ISZERO PUSH2 0xBAC JUMPI DUP1 DUP7 PUSH1 0x40 MLOAD PUSH32 0xE237D92200000000000000000000000000000000000000000000000000000000 DUP2 MSTORE PUSH1 0x4 ADD PUSH2 0xBA3 SWAP3 SWAP2 SWAP1 PUSH2 0x35D0 JUMP JUMPDEST PUSH1 0x40 MLOAD DUP1 SWAP2 SUB SWAP1 REVERT JUMPDEST PUSH2 0xBB9 DUP7 DUP7 DUP7 DUP7 DUP7 PUSH2 0x1642 JUMP JUMPDEST POP POP POP POP POP POP JUMP JUMPDEST PUSH2 0xBC9 PUSH2 0x1228 JUMP JUMPDEST DUP2 PUSH1 0xB PUSH0 PUSH2 0x100 EXP DUP2 SLOAD DUP2 PUSH1 0xFF MUL NOT AND SWAP1 DUP4 ISZERO ISZERO MUL OR SWAP1 SSTORE POP DUP1 PUSH1 0xB PUSH1 0x1 PUSH2 0x100 EXP DUP2 SLOAD DUP2 PUSH1 0xFF MUL NOT AND SWAP1 DUP4 ISZERO ISZERO MUL OR SWAP1 SSTORE POP POP POP JUMP JUMPDEST PUSH2 0xC08 PUSH2 0x1228 JUMP JUMPDEST PUSH2 0xC10 PUSH2 0x1736 JUMP JUMPDEST JUMP JUMPDEST PUSH1 0xA SLOAD DUP2 JUMP JUMPDEST PUSH1 0x60 DUP2 MLOAD DUP4 MLOAD EQ PUSH2 0xC64 JUMPI DUP2 MLOAD DUP4 MLOAD PUSH1 0x40 MLOAD PUSH32 0x5B05999100000000000000000000000000000000000000000000000000000000 DUP2 MSTORE PUSH1 0x4 ADD PUSH2 0xC5B SWAP3 SWAP2 SWAP1 PUSH2 0x35F7 JUMP JUMPDEST PUSH1 0x40 MLOAD DUP1 SWAP2 SUB SWAP1 REVERT JUMPDEST PUSH0 DUP4 MLOAD PUSH8 0xFFFFFFFFFFFFFFFF DUP2 GT ISZERO PUSH2 0xC80 JUMPI PUSH2 0xC7F PUSH2 0x291C JUMP JUMPDEST JUMPDEST PUSH1 0x40 MLOAD SWAP1 DUP1 DUP3 MSTORE DUP1 PUSH1 0x20 MUL PUSH1 0x20 ADD DUP3 ADD PUSH1 0x40 MSTORE DUP1 ISZERO PUSH2 0xCAE JUMPI DUP2 PUSH1 0x20 ADD PUSH1 0x20 DUP3 MUL DUP1 CALLDATASIZE DUP4 CALLDATACOPY DUP1 DUP3 ADD SWAP2 POP POP SWAP1 POP JUMPDEST POP SWAP1 POP PUSH0 JUMPDEST DUP5 MLOAD DUP2 LT ISZERO PUSH2 0xD14 JUMPI PUSH2 0xCEA PUSH2 0xCD2 DUP3 DUP8 PUSH2 0x1798 SWAP1 SWAP2 SWAP1 PUSH4 0xFFFFFFFF AND JUMP JUMPDEST PUSH2 0xCE5 DUP4 DUP8 PUSH2 0x17AB SWAP1 SWAP2 SWAP1 PUSH4 0xFFFFFFFF AND JUMP JUMPDEST PUSH2 0x7C5 JUMP JUMPDEST DUP3 DUP3 DUP2 MLOAD DUP2 LT PUSH2 0xCFD JUMPI PUSH2 0xCFC PUSH2 0x361E JUMP JUMPDEST JUMPDEST PUSH1 0x20 MUL PUSH1 0x20 ADD ADD DUP2 DUP2 MSTORE POP POP DUP1 PUSH1 0x1 ADD SWAP1 POP PUSH2 0xCB3 JUMP JUMPDEST POP DUP1 SWAP2 POP POP SWAP3 SWAP2 POP POP JUMP JUMPDEST PUSH0 DUP1 PUSH2 0xD2A DUP4 PUSH2 0xF8C JUMP JUMPDEST GT SWAP1 POP SWAP2 SWAP1 POP JUMP JUMPDEST PUSH2 0xD3A PUSH2 0x1228 JUMP JUMPDEST PUSH0 SELFBALANCE SWAP1 POP DUP2 PUSH20 0xFFFFFFFFFFFFFFFFFFFFFFFFFFFFFFFFFFFFFFFF AND PUSH2 0x8FC DUP3 SWAP1 DUP2 ISZERO MUL SWAP1 PUSH1 0x40 MLOAD PUSH0 PUSH1 0x40 MLOAD DUP1 DUP4 SUB DUP2 DUP6 DUP9 DUP9 CALL SWAP4 POP POP POP POP ISZERO DUP1 ISZERO PUSH2 0xD81 JUMPI RETURNDATASIZE PUSH0 DUP1 RETURNDATACOPY RETURNDATASIZE PUSH0 REVERT JUMPDEST POP POP POP JUMP JUMPDEST PUSH1 0xD PUSH1 0x20 MSTORE DUP1 PUSH0 MSTORE PUSH1 0x40 PUSH0 KECCAK256 PUSH0 SWAP2 POP SWAP1 POP SLOAD DUP2 JUMP JUMPDEST PUSH0 PUSH1 0x3 PUSH1 0x14 SWAP1 SLOAD SWAP1 PUSH2 0x100 EXP SWAP1 DIV PUSH1 0xFF AND SWAP1 POP SWAP1 JUMP JUMPDEST PUSH2 0xDB9 PUSH2 0x1228 JUMP JUMPDEST PUSH0 JUMPDEST DUP3 DUP3 SWAP1 POP DUP2 LT ISZERO PUSH2 0xE4F JUMPI PUSH1 0x1 PUSH1 0xC PUSH0 DUP6 DUP6 DUP6 DUP2 DUP2 LT PUSH2 0xDDE JUMPI PUSH2 0xDDD PUSH2 0x361E JUMP JUMPDEST JUMPDEST SWAP1 POP PUSH1 0x20 MUL ADD PUSH1 0x20 DUP2 ADD SWAP1 PUSH2 0xDF3 SWAP2 SWAP1 PUSH2 0x2DA4 JUMP JUMPDEST PUSH20 0xFFFFFFFFFFFFFFFFFFFFFFFFFFFFFFFFFFFFFFFF AND PUSH20 0xFFFFFFFFFFFFFFFFFFFFFFFFFFFFFFFFFFFFFFFF AND DUP2 MSTORE PUSH1 0x20 ADD SWAP1 DUP2 MSTORE PUSH1 0x20 ADD PUSH0 KECCAK256 PUSH0 PUSH2 0x100 EXP DUP2 SLOAD DUP2 PUSH1 0xFF MUL NOT AND SWAP1 DUP4 ISZERO ISZERO MUL OR SWAP1 SSTORE POP DUP1 DUP1 PUSH1 0x1 ADD SWAP2 POP POP PUSH2 0xDBB JUMP JUMPDEST POP POP POP JUMP JUMPDEST PUSH1 0x8 SLOAD DUP2 JUMP JUMPDEST PUSH1 0x9 SLOAD DUP2 JUMP JUMPDEST PUSH2 0xE68 PUSH2 0x1228 JUMP JUMPDEST PUSH2 0xE71 PUSH0 PUSH2 0x17BE JUMP JUMPDEST JUMP JUMPDEST PUSH2 0xE7B PUSH2 0x1228 JUMP JUMPDEST PUSH2 0xE83 PUSH2 0x1881 JUMP JUMPDEST JUMP JUMPDEST PUSH0 PUSH1 0x3 PUSH0 SWAP1 SLOAD SWAP1 PUSH2 0x100 EXP SWAP1 DIV PUSH20 0xFFFFFFFFFFFFFFFFFFFFFFFFFFFFFFFFFFFFFFFF AND SWAP1 POP SWAP1 JUMP JUMPDEST PUSH1 0xB PUSH0 SWAP1 SLOAD SWAP1 PUSH2 0x100 EXP SWAP1 DIV PUSH1 0xFF AND PUSH2 0xEFB JUMPI PUSH1 0x40 MLOAD PUSH32 0x8C379A000000000000000000000000000000000000000000000000000000000 DUP2 MSTORE PUSH1 0x4 ADD PUSH2 0xEF2 SWAP1 PUSH2 0x3695 JUMP JUMPDEST PUSH1 0x40 MLOAD DUP1 SWAP2 SUB SWAP1 REVERT JUMPDEST DUP1 PUSH1 0x6 SLOAD PUSH2 0xF09 SWAP2 SWAP1 PUSH2 0x3501 JUMP JUMPDEST CALLVALUE EQ PUSH2 0xF4A JUMPI PUSH1 0x40 MLOAD PUSH32 0x8C379A000000000000000000000000000000000000000000000000000000000 DUP2 MSTORE PUSH1 0x4 ADD PUSH2 0xF41 SWAP1 PUSH2 0x3723 JUMP JUMPDEST PUSH1 0x40 MLOAD DUP1 SWAP2 SUB SWAP1 REVERT JUMPDEST PUSH2 0xF54 DUP3 DUP3 PUSH2 0x141E JUMP JUMPDEST POP POP JUMP JUMPDEST PUSH2 0xF6A PUSH2 0xF63 PUSH2 0x163B JUMP JUMPDEST DUP4 DUP4 PUSH2 0x18E4 JUMP JUMPDEST POP POP JUMP JUMPDEST PUSH1 0x7 SLOAD DUP2 JUMP JUMPDEST PUSH1 0x6 SLOAD DUP2 JUMP JUMPDEST PUSH1 0xB PUSH0 SWAP1 SLOAD SWAP1 PUSH2 0x100 EXP SWAP1 DIV PUSH1 0xFF AND DUP2 JUMP JUMPDEST PUSH0 PUSH1 0x4 PUSH0 DUP4 DUP2 MSTORE PUSH1 0x20 ADD SWAP1 DUP2 MSTORE PUSH1 0x20 ADD PUSH0 KECCAK256 SLOAD SWAP1 POP SWAP2 SWAP1 POP JUMP JUMPDEST PUSH2 0xFAE PUSH2 0x1228 JUMP JUMPDEST DUP1 PUSH1 0xC PUSH0 DUP5 PUSH20 0xFFFFFFFFFFFFFFFFFFFFFFFFFFFFFFFFFFFFFFFF AND PUSH20 0xFFFFFFFFFFFFFFFFFFFFFFFFFFFFFFFFFFFFFFFF AND DUP2 MSTORE PUSH1 0x20 ADD SWAP1 DUP2 MSTORE PUSH1 0x20 ADD PUSH0 KECCAK256 PUSH0 PUSH2 0x100 EXP DUP2 SLOAD DUP2 PUSH1 0xFF MUL NOT AND SWAP1 DUP4 ISZERO ISZERO MUL OR SWAP1 SSTORE POP POP POP JUMP JUMPDEST PUSH0 PUSH1 0x1 PUSH0 DUP5 PUSH20 0xFFFFFFFFFFFFFFFFFFFFFFFFFFFFFFFFFFFFFFFF AND PUSH20 0xFFFFFFFFFFFFFFFFFFFFFFFFFFFFFFFFFFFFFFFF AND DUP2 MSTORE PUSH1 0x20 ADD SWAP1 DUP2 MSTORE PUSH1 0x20 ADD PUSH0 KECCAK256 PUSH0 DUP4 PUSH20 0xFFFFFFFFFFFFFFFFFFFFFFFFFFFFFFFFFFFFFFFF AND PUSH20 0xFFFFFFFFFFFFFFFFFFFFFFFFFFFFFFFFFFFFFFFF AND DUP2 MSTORE PUSH1 0x20 ADD SWAP1 DUP2 MSTORE PUSH1 0x20 ADD PUSH0 KECCAK256 PUSH0 SWAP1 SLOAD SWAP1 PUSH2 0x100 EXP SWAP1 DIV PUSH1 0xFF AND SWAP1 POP SWAP3 SWAP2 POP POP JUMP JUMPDEST PUSH0 PUSH2 0x109D PUSH2 0x163B JUMP JUMPDEST SWAP1 POP DUP1 PUSH20 0xFFFFFFFFFFFFFFFFFFFFFFFFFFFFFFFFFFFFFFFF AND DUP7 PUSH20 0xFFFFFFFFFFFFFFFFFFFFFFFFFFFFFFFFFFFFFFFF AND EQ ISZERO DUP1 ISZERO PUSH2 0x10E2 JUMPI POP PUSH2 0x10E0 DUP7 DUP3 PUSH2 0x1006 JUMP JUMPDEST ISZERO JUMPDEST ISZERO PUSH2 0x1126 JUMPI DUP1 DUP7 PUSH1 0x40 MLOAD PUSH32 0xE237D92200000000000000000000000000000000000000000000000000000000 DUP2 MSTORE PUSH1 0x4 ADD PUSH2 0x111D SWAP3 SWAP2 SWAP1 PUSH2 0x35D0 JUMP JUMPDEST PUSH1 0x40 MLOAD DUP1 SWAP2 SUB SWAP1 REVERT JUMPDEST PUSH2 0x1133 DUP7 DUP7 DUP7 DUP7 DUP7 PUSH2 0x1A4D JUMP JUMPDEST POP POP POP POP POP POP JUMP JUMPDEST PUSH2 0x1143 PUSH2 0x1228 JUMP JUMPDEST PUSH0 PUSH20 0xFFFFFFFFFFFFFFFFFFFFFFFFFFFFFFFFFFFFFFFF AND DUP2 PUSH20 0xFFFFFFFFFFFFFFFFFFFFFFFFFFFFFFFFFFFFFFFF AND SUB PUSH2 0x11B3 JUMPI PUSH0 PUSH1 0x40 MLOAD PUSH32 0x1E4FBDF700000000000000000000000000000000000000000000000000000000 DUP2 MSTORE PUSH1 0x4 ADD PUSH2 0x11AA SWAP2 SWAP1 PUSH2 0x31C2 JUMP JUMPDEST PUSH1 0x40 MLOAD DUP1 SWAP2 SUB SWAP1 REVERT JUMPDEST PUSH2 0x11BC DUP2 PUSH2 0x17BE JUMP JUMPDEST POP JUMP JUMPDEST PUSH0 PUSH32 0x1FFC9A700000000000000000000000000000000000000000000000000000000 PUSH28 0xFFFFFFFFFFFFFFFFFFFFFFFFFFFFFFFFFFFFFFFFFFFFFFFFFFFFFFFF NOT AND DUP3 PUSH28 0xFFFFFFFFFFFFFFFFFFFFFFFFFFFFFFFFFFFFFFFFFFFFFFFFFFFFFFFF NOT AND EQ SWAP1 POP SWAP2 SWAP1 POP JUMP JUMPDEST PUSH2 0x1230 PUSH2 0x163B JUMP JUMPDEST PUSH20 0xFFFFFFFFFFFFFFFFFFFFFFFFFFFFFFFFFFFFFFFF AND PUSH2 0x124E PUSH2 0xE85 JUMP JUMPDEST PUSH20 0xFFFFFFFFFFFFFFFFFFFFFFFFFFFFFFFFFFFFFFFF AND EQ PUSH2 0x12AD JUMPI PUSH2 0x1271 PUSH2 0x163B JUMP JUMPDEST PUSH1 0x40 MLOAD PUSH32 0x118CDAA700000000000000000000000000000000000000000000000000000000 DUP2 MSTORE PUSH1 0x4 ADD PUSH2 0x12A4 SWAP2 SWAP1 PUSH2 0x31C2 JUMP JUMPDEST PUSH1 0x40 MLOAD DUP1 SWAP2 SUB SWAP1 REVERT JUMPDEST JUMP JUMPDEST DUP1 PUSH1 0x2 SWAP1 DUP2 PUSH2 0x12BE SWAP2 SWAP1 PUSH2 0x393B JUMP JUMPDEST POP POP JUMP JUMPDEST PUSH1 0x60 PUSH1 0x2 DUP1 SLOAD PUSH2 0x12D1 SWAP1 PUSH2 0x376E JUMP JUMPDEST DUP1 PUSH1 0x1F ADD PUSH1 0x20 DUP1 SWAP2 DIV MUL PUSH1 0x20 ADD PUSH1 0x40 MLOAD SWAP1 DUP2 ADD PUSH1 0x40 MSTORE DUP1 SWAP3 SWAP2 SWAP1 DUP2 DUP2 MSTORE PUSH1 0x20 ADD DUP3 DUP1 SLOAD PUSH2 0x12FD SWAP1 PUSH2 0x376E JUMP JUMPDEST DUP1 ISZERO PUSH2 0x1348 JUMPI DUP1 PUSH1 0x1F LT PUSH2 0x131F JUMPI PUSH2 0x100 DUP1 DUP4 SLOAD DIV MUL DUP4 MSTORE SWAP2 PUSH1 0x20 ADD SWAP2 PUSH2 0x1348 JUMP JUMPDEST DUP3 ADD SWAP2 SWAP1 PUSH0 MSTORE PUSH1 0x20 PUSH0 KECCAK256 SWAP1 JUMPDEST DUP2 SLOAD DUP2 MSTORE SWAP1 PUSH1 0x1 ADD SWAP1 PUSH1 0x20 ADD DUP1 DUP4 GT PUSH2 0x132B JUMPI DUP3 SWAP1 SUB PUSH1 0x1F AND DUP3 ADD SWAP2 JUMPDEST POP POP POP POP POP SWAP1 POP SWAP2 SWAP1 POP JUMP JUMPDEST PUSH1 0x60 PUSH0 PUSH1 0x1 PUSH2 0x1362 DUP5 PUSH2 0x1B53 JUMP JUMPDEST ADD SWAP1 POP PUSH0 DUP2 PUSH8 0xFFFFFFFFFFFFFFFF DUP2 GT ISZERO PUSH2 0x1380 JUMPI PUSH2 0x137F PUSH2 0x291C JUMP JUMPDEST JUMPDEST PUSH1 0x40 MLOAD SWAP1 DUP1 DUP3 MSTORE DUP1 PUSH1 0x1F ADD PUSH1 0x1F NOT AND PUSH1 0x20 ADD DUP3 ADD PUSH1 0x40 MSTORE DUP1 ISZERO PUSH2 0x13B2 JUMPI DUP2 PUSH1 0x20 ADD PUSH1 0x1 DUP3 MUL DUP1 CALLDATASIZE DUP4 CALLDATACOPY DUP1 DUP3 ADD SWAP2 POP POP SWAP1 POP JUMPDEST POP SWAP1 POP PUSH0 DUP3 PUSH1 0x20 ADD DUP3 ADD SWAP1 POP JUMPDEST PUSH1 0x1 ISZERO PUSH2 0x1413 JUMPI DUP1 DUP1 PUSH1 0x1 SWAP1 SUB SWAP2 POP POP PUSH32 0x3031323334353637383961626364656600000000000000000000000000000000 PUSH1 0xA DUP7 MOD BYTE DUP2 MSTORE8 PUSH1 0xA DUP6 DUP2 PUSH2 0x1408 JUMPI PUSH2 0x1407 PUSH2 0x3A0A JUMP JUMPDEST JUMPDEST DIV SWAP5 POP PUSH0 DUP6 SUB PUSH2 0x13BF JUMPI JUMPDEST DUP2 SWAP4 POP POP POP POP SWAP2 SWAP1 POP JUMP JUMPDEST PUSH1 0xA DUP3 GT ISZERO PUSH2 0x1462 JUMPI PUSH1 0x40 MLOAD PUSH32 0x8C379A000000000000000000000000000000000000000000000000000000000 DUP2 MSTORE PUSH1 0x4 ADD PUSH2 0x1459 SWAP1 PUSH2 0x3AA7 JUMP JUMPDEST PUSH1 0x40 MLOAD DUP1 SWAP2 SUB SWAP1 REVERT JUMPDEST PUSH1 0x8 SLOAD DUP2 PUSH2 0x146F DUP5 PUSH2 0xF8C JUMP JUMPDEST PUSH2 0x1479 SWAP2 SWAP1 PUSH2 0x3AC5 JUMP JUMPDEST GT ISZERO PUSH2 0x14BA JUMPI PUSH1 0x40 MLOAD PUSH32 0x8C379A000000000000000000000000000000000000000000000000000000000 DUP2 MSTORE PUSH1 0x4 ADD PUSH2 0x14B1 SWAP1 PUSH2 0x3B42 JUMP JUMPDEST PUSH1 0x40 MLOAD DUP1 SWAP2 SUB SWAP1 REVERT JUMPDEST PUSH1 0xA SLOAD DUP2 PUSH1 0xD PUSH0 CALLER PUSH20 0xFFFFFFFFFFFFFFFFFFFFFFFFFFFFFFFFFFFFFFFF AND PUSH20 0xFFFFFFFFFFFFFFFFFFFFFFFFFFFFFFFFFFFFFFFF AND DUP2 MSTORE PUSH1 0x20 ADD SWAP1 DUP2 MSTORE PUSH1 0x20 ADD PUSH0 KECCAK256 SLOAD PUSH2 0x1506 SWAP2 SWAP1 PUSH2 0x3AC5 JUMP JUMPDEST GT ISZERO PUSH2 0x1547 JUMPI PUSH1 0x40 MLOAD PUSH32 0x8C379A000000000000000000000000000000000000000000000000000000000 DUP2 MSTORE PUSH1 0x4 ADD PUSH2 0x153E SWAP1 PUSH2 0x3BAA JUMP JUMPDEST PUSH1 0x40 MLOAD DUP1 SWAP2 SUB SWAP1 REVERT JUMPDEST PUSH2 0x1561 CALLER DUP4 DUP4 PUSH1 0x40 MLOAD DUP1 PUSH1 0x20 ADD PUSH1 0x40 MSTORE DUP1 PUSH0 DUP2 MSTORE POP PUSH2 0x1CA4 JUMP JUMPDEST DUP1 PUSH1 0xD PUSH0 CALLER PUSH20 0xFFFFFFFFFFFFFFFFFFFFFFFFFFFFFFFFFFFFFFFF AND PUSH20 0xFFFFFFFFFFFFFFFFFFFFFFFFFFFFFFFFFFFFFFFF AND DUP2 MSTORE PUSH1 0x20 ADD SWAP1 DUP2 MSTORE PUSH1 0x20 ADD PUSH0 KECCAK256 PUSH0 DUP3 DUP3 SLOAD PUSH2 0x15AD SWAP2 SWAP1 PUSH2 0x3AC5 JUMP JUMPDEST SWAP3 POP POP DUP2 SWAP1 SSTORE POP POP POP JUMP JUMPDEST PUSH0 PUSH20 0xFFFFFFFFFFFFFFFFFFFFFFFFFFFFFFFFFFFFFFFF AND DUP5 PUSH20 0xFFFFFFFFFFFFFFFFFFFFFFFFFFFFFFFFFFFFFFFF AND SUB PUSH2 0x1628 JUMPI PUSH0 PUSH1 0x40 MLOAD PUSH32 0x57F447CE00000000000000000000000000000000000000000000000000000000 DUP2 MSTORE PUSH1 0x4 ADD PUSH2 0x161F SWAP2 SWAP1 PUSH2 0x31C2 JUMP JUMPDEST PUSH1 0x40 MLOAD DUP1 SWAP2 SUB SWAP1 REVERT JUMPDEST PUSH2 0x1635 PUSH0 DUP6 DUP6 DUP6 DUP6 PUSH2 0x1D39 JUMP JUMPDEST POP POP POP POP JUMP JUMPDEST PUSH0 CALLER SWAP1 POP SWAP1 JUMP JUMPDEST PUSH0 PUSH20 0xFFFFFFFFFFFFFFFFFFFFFFFFFFFFFFFFFFFFFFFF AND DUP5 PUSH20 0xFFFFFFFFFFFFFFFFFFFFFFFFFFFFFFFFFFFFFFFF AND SUB PUSH2 0x16B2 JUMPI PUSH0 PUSH1 0x40 MLOAD PUSH32 0x57F447CE00000000000000000000000000000000000000000000000000000000 DUP2 MSTORE PUSH1 0x4 ADD PUSH2 0x16A9 SWAP2 SWAP1 PUSH2 0x31C2 JUMP JUMPDEST PUSH1 0x40 MLOAD DUP1 SWAP2 SUB SWAP1 REVERT JUMPDEST PUSH0 PUSH20 0xFFFFFFFFFFFFFFFFFFFFFFFFFFFFFFFFFFFFFFFF AND DUP6 PUSH20 0xFFFFFFFFFFFFFFFFFFFFFFFFFFFFFFFFFFFFFFFF AND SUB PUSH2 0x1722 JUMPI PUSH0 PUSH1 0x40 MLOAD PUSH32 0x1A8351400000000000000000000000000000000000000000000000000000000 DUP2 MSTORE PUSH1 0x4 ADD PUSH2 0x1719 SWAP2 SWAP1 PUSH2 0x31C2 JUMP JUMPDEST PUSH1 0x40 MLOAD DUP1 SWAP2 SUB SWAP1 REVERT JUMPDEST PUSH2 0x172F DUP6 DUP6 DUP6 DUP6 DUP6 PUSH2 0x1D39 JUMP JUMPDEST POP POP POP POP POP JUMP JUMPDEST PUSH2 0x173E PUSH2 0x1DE5 JUMP JUMPDEST PUSH0 PUSH1 0x3 PUSH1 0x14 PUSH2 0x100 EXP DUP2 SLOAD DUP2 PUSH1 0xFF MUL NOT AND SWAP1 DUP4 ISZERO ISZERO MUL OR SWAP1 SSTORE POP PUSH32 0x5DB9EE0A495BF2E6FF9C91A7834C1BA4FDD244A5E8AA4E537BD38AEAE4B073AA PUSH2 0x1781 PUSH2 0x163B JUMP JUMPDEST PUSH1 0x40 MLOAD PUSH2 0x178E SWAP2 SWAP1 PUSH2 0x31C2 JUMP JUMPDEST PUSH1 0x40 MLOAD DUP1 SWAP2 SUB SWAP1 LOG1 JUMP JUMPDEST PUSH0 PUSH1 0x20 DUP3 MUL PUSH1 0x20 DUP5 ADD ADD MLOAD SWAP1 POP SWAP3 SWAP2 POP POP JUMP JUMPDEST PUSH0 PUSH1 0x20 DUP3 MUL PUSH1 0x20 DUP5 ADD ADD MLOAD SWAP1 POP SWAP3 SWAP2 POP POP JUMP JUMPDEST PUSH0 PUSH1 0x3 PUSH0 SWAP1 SLOAD SWAP1 PUSH2 0x100 EXP SWAP1 DIV PUSH20 0xFFFFFFFFFFFFFFFFFFFFFFFFFFFFFFFFFFFFFFFF AND SWAP1 POP DUP2 PUSH1 0x3 PUSH0 PUSH2 0x100 EXP DUP2 SLOAD DUP2 PUSH20 0xFFFFFFFFFFFFFFFFFFFFFFFFFFFFFFFFFFFFFFFF MUL NOT AND SWAP1 DUP4 PUSH20 0xFFFFFFFFFFFFFFFFFFFFFFFFFFFFFFFFFFFFFFFF AND MUL OR SWAP1 SSTORE POP DUP2 PUSH20 0xFFFFFFFFFFFFFFFFFFFFFFFFFFFFFFFFFFFFFFFF AND DUP2 PUSH20 0xFFFFFFFFFFFFFFFFFFFFFFFFFFFFFFFFFFFFFFFF AND PUSH32 0x8BE0079C531659141344CD1FD0A4F28419497F9722A3DAAFE3B4186F6B6457E0 PUSH1 0x40 MLOAD PUSH1 0x40 MLOAD DUP1 SWAP2 SUB SWAP1 LOG3 POP POP JUMP JUMPDEST PUSH2 0x1889 PUSH2 0x1E25 JUMP JUMPDEST PUSH1 0x1 PUSH1 0x3 PUSH1 0x14 PUSH2 0x100 EXP DUP2 SLOAD DUP2 PUSH1 0xFF MUL NOT AND SWAP1 DUP4 ISZERO ISZERO MUL OR SWAP1 SSTORE POP PUSH32 0x62E78CEA01BEE320CD4E420270B5EA74000D11B0C9F74754EBDBFC544B05A258 PUSH2 0x18CD PUSH2 0x163B JUMP JUMPDEST PUSH1 0x40 MLOAD PUSH2 0x18DA SWAP2 SWAP1 PUSH2 0x31C2 JUMP JUMPDEST PUSH1 0x40 MLOAD DUP1 SWAP2 SUB SWAP1 LOG1 JUMP JUMPDEST PUSH0 PUSH20 0xFFFFFFFFFFFFFFFFFFFFFFFFFFFFFFFFFFFFFFFF AND DUP3 PUSH20 0xFFFFFFFFFFFFFFFFFFFFFFFFFFFFFFFFFFFFFFFF AND SUB PUSH2 0x1954 JUMPI PUSH0 PUSH1 0x40 MLOAD PUSH32 0xCED3E10000000000000000000000000000000000000000000000000000000000 DUP2 MSTORE PUSH1 0x4 ADD PUSH2 0x194B SWAP2 SWAP1 PUSH2 0x31C2 JUMP JUMPDEST PUSH1 0x40 MLOAD DUP1 SWAP2 SUB SWAP1 REVERT JUMPDEST DUP1 PUSH1 0x1 PUSH0 DUP6 PUSH20 0xFFFFFFFFFFFFFFFFFFFFFFFFFFFFFFFFFFFFFFFF AND PUSH20 0xFFFFFFFFFFFFFFFFFFFFFFFFFFFFFFFFFFFFFFFF AND DUP2 MSTORE PUSH1 0x20 ADD SWAP1 DUP2 MSTORE PUSH1 0x20 ADD PUSH0 KECCAK256 PUSH0 DUP5 PUSH20 0xFFFFFFFFFFFFFFFFFFFFFFFFFFFFFFFFFFFFFFFF AND PUSH20 0xFFFFFFFFFFFFFFFFFFFFFFFFFFFFFFFFFFFFFFFF AND DUP2 MSTORE PUSH1 0x20 ADD SWAP1 DUP2 MSTORE PUSH1 0x20 ADD PUSH0 KECCAK256 PUSH0 PUSH2 0x100 EXP DUP2 SLOAD DUP2 PUSH1 0xFF MUL NOT AND SWAP1 DUP4 ISZERO ISZERO MUL OR SWAP1 SSTORE POP DUP2 PUSH20 0xFFFFFFFFFFFFFFFFFFFFFFFFFFFFFFFFFFFFFFFF AND DUP4 PUSH20 0xFFFFFFFFFFFFFFFFFFFFFFFFFFFFFFFFFFFFFFFF AND PUSH32 0x17307EAB39AB6107E8899845AD3D59BD9653F200F220920489CA2B5937696C31 DUP4 PUSH1 0x40 MLOAD PUSH2 0x1A40 SWAP2 SWAP1 PUSH2 0x28EB JUMP JUMPDEST PUSH1 0x40 MLOAD DUP1 SWAP2 SUB SWAP1 LOG3 POP POP POP JUMP JUMPDEST PUSH0 PUSH20 0xFFFFFFFFFFFFFFFFFFFFFFFFFFFFFFFFFFFFFFFF AND DUP5 PUSH20 0xFFFFFFFFFFFFFFFFFFFFFFFFFFFFFFFFFFFFFFFF AND SUB PUSH2 0x1ABD JUMPI PUSH0 PUSH1 0x40 MLOAD PUSH32 0x57F447CE00000000000000000000000000000000000000000000000000000000 DUP2 MSTORE PUSH1 0x4 ADD PUSH2 0x1AB4 SWAP2 SWAP1 PUSH2 0x31C2 JUMP JUMPDEST PUSH1 0x40 MLOAD DUP1 SWAP2 SUB SWAP1 REVERT JUMPDEST PUSH0 PUSH20 0xFFFFFFFFFFFFFFFFFFFFFFFFFFFFFFFFFFFFFFFF AND DUP6 PUSH20 0xFFFFFFFFFFFFFFFFFFFFFFFFFFFFFFFFFFFFFFFF AND SUB PUSH2 0x1B2D JUMPI PUSH0 PUSH1 0x40 MLOAD PUSH32 0x1A8351400000000000000000000000000000000000000000000000000000000 DUP2 MSTORE PUSH1 0x4 ADD PUSH2 0x1B24 SWAP2 SWAP1 PUSH2 0x31C2 JUMP JUMPDEST PUSH1 0x40 MLOAD DUP1 SWAP2 SUB SWAP1 REVERT JUMPDEST PUSH0 DUP1 PUSH2 0x1B39 DUP6 DUP6 PUSH2 0x1E66 JUMP JUMPDEST SWAP2 POP SWAP2 POP PUSH2 0x1B4A DUP8 DUP8 DUP5 DUP5 DUP8 PUSH2 0x1D39 JUMP JUMPDEST POP POP POP POP POP POP POP JUMP JUMPDEST PUSH0 DUP1 PUSH0 SWAP1 POP PUSH27 0x184F03E93FF9F4DAA797ED6E38ED64BF6A1F010000000000000000 DUP4 LT PUSH2 0x1BAF JUMPI PUSH27 0x184F03E93FF9F4DAA797ED6E38ED64BF6A1F010000000000000000 DUP4 DUP2 PUSH2 0x1BA5 JUMPI PUSH2 0x1BA4 PUSH2 0x3A0A JUMP JUMPDEST JUMPDEST DIV SWAP3 POP PUSH1 0x40 DUP2 ADD SWAP1 POP JUMPDEST PUSH14 0x4EE2D6D415B85ACEF8100000000 DUP4 LT PUSH2 0x1BEC JUMPI PUSH14 0x4EE2D6D415B85ACEF8100000000 DUP4 DUP2 PUSH2 0x1BE2 JUMPI PUSH2 0x1BE1 PUSH2 0x3A0A JUMP JUMPDEST JUMPDEST DIV SWAP3 POP PUSH1 0x20 DUP2 ADD SWAP1 POP JUMPDEST PUSH7 0x2386F26FC10000 DUP4 LT PUSH2 0x1C1B JUMPI PUSH7 0x2386F26FC10000 DUP4 DUP2 PUSH2 0x1C11 JUMPI PUSH2 0x1C10 PUSH2 0x3A0A JUMP JUMPDEST JUMPDEST DIV SWAP3 POP PUSH1 0x10 DUP2 ADD SWAP1 POP JUMPDEST PUSH4 0x5F5E100 DUP4 LT PUSH2 0x1C44 JUMPI PUSH4 0x5F5E100 DUP4 DUP2 PUSH2 0x1C3A JUMPI PUSH2 0x1C39 PUSH2 0x3A0A JUMP JUMPDEST JUMPDEST DIV SWAP3 POP PUSH1 0x8 DUP2 ADD SWAP1 POP JUMPDEST PUSH2 0x2710 DUP4 LT PUSH2 0x1C69 JUMPI PUSH2 0x2710 DUP4 DUP2 PUSH2 0x1C5F JUMPI PUSH2 0x1C5E PUSH2 0x3A0A JUMP JUMPDEST JUMPDEST DIV SWAP3 POP PUSH1 0x4 DUP2 ADD SWAP1 POP JUMPDEST PUSH1 0x64 DUP4 LT PUSH2 0x1C8C JUMPI PUSH1 0x64 DUP4 DUP2 PUSH2 0x1C82 JUMPI PUSH2 0x1C81 PUSH2 0x3A0A JUMP JUMPDEST JUMPDEST DIV SWAP3 POP PUSH1 0x2 DUP2 ADD SWAP1 POP JUMPDEST PUSH1 0xA DUP4 LT PUSH2 0x1C9B JUMPI PUSH1 0x1 DUP2 ADD SWAP1 POP JUMPDEST DUP1 SWAP2 POP POP SWAP2 SWAP1 POP JUMP JUMPDEST PUSH0 PUSH20 0xFFFFFFFFFFFFFFFFFFFFFFFFFFFFFFFFFFFFFFFF AND DUP5 PUSH20 0xFFFFFFFFFFFFFFFFFFFFFFFFFFFFFFFFFFFFFFFF AND SUB PUSH2 0x1D14 JUMPI PUSH0 PUSH1 0x40 MLOAD PUSH32 0x57F447CE00000000000000000000000000000000000000000000000000000000 DUP2 MSTORE PUSH1 0x4 ADD PUSH2 0x1D0B SWAP2 SWAP1 PUSH2 0x31C2 JUMP JUMPDEST PUSH1 0x40 MLOAD DUP1 SWAP2 SUB SWAP1 REVERT JUMPDEST PUSH0 DUP1 PUSH2 0x1D20 DUP6 DUP6 PUSH2 0x1E66 JUMP JUMPDEST SWAP2 POP SWAP2 POP PUSH2 0x1D31 PUSH0 DUP8 DUP5 DUP5 DUP8 PUSH2 0x1D39 JUMP JUMPDEST POP POP POP POP POP POP JUMP JUMPDEST PUSH2 0x1D45 DUP6 DUP6 DUP6 DUP6 PUSH2 0x1E96 JUMP JUMPDEST PUSH0 PUSH20 0xFFFFFFFFFFFFFFFFFFFFFFFFFFFFFFFFFFFFFFFF AND DUP5 PUSH20 0xFFFFFFFFFFFFFFFFFFFFFFFFFFFFFFFFFFFFFFFF AND EQ PUSH2 0x1DDE JUMPI PUSH0 PUSH2 0x1D81 PUSH2 0x163B JUMP JUMPDEST SWAP1 POP PUSH1 0x1 DUP5 MLOAD SUB PUSH2 0x1DCD JUMPI PUSH0 PUSH2 0x1DA0 PUSH0 DUP7 PUSH2 0x17AB SWAP1 SWAP2 SWAP1 PUSH4 0xFFFFFFFF AND JUMP JUMPDEST SWAP1 POP PUSH0 PUSH2 0x1DB6 PUSH0 DUP7 PUSH2 0x17AB SWAP1 SWAP2 SWAP1 PUSH4 0xFFFFFFFF AND JUMP JUMPDEST SWAP1 POP PUSH2 0x1DC6 DUP4 DUP10 DUP10 DUP6 DUP6 DUP10 PUSH2 0x1EA8 JUMP JUMPDEST POP POP PUSH2 0x1DDC JUMP JUMPDEST PUSH2 0x1DDB DUP2 DUP8 DUP8 DUP8 DUP8 DUP8 PUSH2 0x2057 JUMP JUMPDEST JUMPDEST POP JUMPDEST POP POP POP POP POP JUMP JUMPDEST PUSH2 0x1DED PUSH2 0xD9B JUMP JUMPDEST PUSH2 0x1E23 JUMPI PUSH1 0x40 MLOAD PUSH32 0x8DFC202B00000000000000000000000000000000000000000000000000000000 DUP2 MSTORE PUSH1 0x4 ADD PUSH1 0x40 MLOAD DUP1 SWAP2 SUB SWAP1 REVERT JUMPDEST JUMP JUMPDEST PUSH2 0x1E2D PUSH2 0xD9B JUMP JUMPDEST ISZERO PUSH2 0x1E64 JUMPI PUSH1 0x40 MLOAD PUSH32 0xD93C066500000000000000000000000000000000000000000000000000000000 DUP2 MSTORE PUSH1 0x4 ADD PUSH1 0x40 MLOAD DUP1 SWAP2 SUB SWAP1 REVERT JUMPDEST JUMP JUMPDEST PUSH1 0x60 DUP1 PUSH1 0x40 MLOAD SWAP2 POP PUSH1 0x1 DUP3 MSTORE DUP4 PUSH1 0x20 DUP4 ADD MSTORE PUSH1 0x40 DUP3 ADD SWAP1 POP PUSH1 0x1 DUP2 MSTORE DUP3 PUSH1 0x20 DUP3 ADD MSTORE PUSH1 0x40 DUP2 ADD PUSH1 0x40 MSTORE SWAP3 POP SWAP3 SWAP1 POP JUMP JUMPDEST PUSH2 0x1EA2 DUP5 DUP5 DUP5 DUP5 PUSH2 0x2206 JUMP JUMPDEST POP POP POP POP JUMP JUMPDEST PUSH0 DUP5 PUSH20 0xFFFFFFFFFFFFFFFFFFFFFFFFFFFFFFFFFFFFFFFF AND EXTCODESIZE GT ISZERO PUSH2 0x204F JUMPI DUP4 PUSH20 0xFFFFFFFFFFFFFFFFFFFFFFFFFFFFFFFFFFFFFFFF AND PUSH4 0xF23A6E61 DUP8 DUP8 DUP7 DUP7 DUP7 PUSH1 0x40 MLOAD DUP7 PUSH4 0xFFFFFFFF AND PUSH1 0xE0 SHL DUP2 MSTORE PUSH1 0x4 ADD PUSH2 0x1F08 SWAP6 SWAP5 SWAP4 SWAP3 SWAP2 SWAP1 PUSH2 0x3C1A JUMP JUMPDEST PUSH1 0x20 PUSH1 0x40 MLOAD DUP1 DUP4 SUB DUP2 PUSH0 DUP8 GAS CALL SWAP3 POP POP POP DUP1 ISZERO PUSH2 0x1F43 JUMPI POP PUSH1 0x40 MLOAD RETURNDATASIZE PUSH1 0x1F NOT PUSH1 0x1F DUP3 ADD AND DUP3 ADD DUP1 PUSH1 0x40 MSTORE POP DUP2 ADD SWAP1 PUSH2 0x1F40 SWAP2 SWAP1 PUSH2 0x3C86 JUMP JUMPDEST PUSH1 0x1 JUMPDEST PUSH2 0x1FC4 JUMPI RETURNDATASIZE DUP1 PUSH0 DUP2 EQ PUSH2 0x1F71 JUMPI PUSH1 0x40 MLOAD SWAP2 POP PUSH1 0x1F NOT PUSH1 0x3F RETURNDATASIZE ADD AND DUP3 ADD PUSH1 0x40 MSTORE RETURNDATASIZE DUP3 MSTORE RETURNDATASIZE PUSH0 PUSH1 0x20 DUP5 ADD RETURNDATACOPY PUSH2 0x1F76 JUMP JUMPDEST PUSH1 0x60 SWAP2 POP JUMPDEST POP PUSH0 DUP2 MLOAD SUB PUSH2 0x1FBC JUMPI DUP5 PUSH1 0x40 MLOAD PUSH32 0x57F447CE00000000000000000000000000000000000000000000000000000000 DUP2 MSTORE PUSH1 0x4 ADD PUSH2 0x1FB3 SWAP2 SWAP1 PUSH2 0x31C2 JUMP JUMPDEST PUSH1 0x40 MLOAD DUP1 SWAP2 SUB SWAP1 REVERT JUMPDEST DUP1 MLOAD DUP2 PUSH1 0x20 ADD REVERT JUMPDEST PUSH4 0xF23A6E61 PUSH1 0xE0 SHL PUSH28 0xFFFFFFFFFFFFFFFFFFFFFFFFFFFFFFFFFFFFFFFFFFFFFFFFFFFFFFFF NOT AND DUP2 PUSH28 0xFFFFFFFFFFFFFFFFFFFFFFFFFFFFFFFFFFFFFFFFFFFFFFFFFFFFFFFF NOT AND EQ PUSH2 0x204D JUMPI DUP5 PUSH1 0x40 MLOAD PUSH32 0x57F447CE00000000000000000000000000000000000000000000000000000000 DUP2 MSTORE PUSH1 0x4 ADD PUSH2 0x2044 SWAP2 SWAP1 PUSH2 0x31C2 JUMP JUMPDEST PUSH1 0x40 MLOAD DUP1 SWAP2 SUB SWAP1 REVERT JUMPDEST POP JUMPDEST POP POP POP POP POP POP JUMP JUMPDEST PUSH0 DUP5 PUSH20 0xFFFFFFFFFFFFFFFFFFFFFFFFFFFFFFFFFFFFFFFF AND EXTCODESIZE GT ISZERO PUSH2 0x21FE JUMPI DUP4 PUSH20 0xFFFFFFFFFFFFFFFFFFFFFFFFFFFFFFFFFFFFFFFF AND PUSH4 0xBC197C81 DUP8 DUP8 DUP7 DUP7 DUP7 PUSH1 0x40 MLOAD DUP7 PUSH4 0xFFFFFFFF AND PUSH1 0xE0 SHL DUP2 MSTORE PUSH1 0x4 ADD PUSH2 0x20B7 SWAP6 SWAP5 SWAP4 SWAP3 SWAP2 SWAP1 PUSH2 0x3CB1 JUMP JUMPDEST PUSH1 0x20 PUSH1 0x40 MLOAD DUP1 DUP4 SUB DUP2 PUSH0 DUP8 GAS CALL SWAP3 POP POP POP DUP1 ISZERO PUSH2 0x20F2 JUMPI POP PUSH1 0x40 MLOAD RETURNDATASIZE PUSH1 0x1F NOT PUSH1 0x1F DUP3 ADD AND DUP3 ADD DUP1 PUSH1 0x40 MSTORE POP DUP2 ADD SWAP1 PUSH2 0x20EF SWAP2 SWAP1 PUSH2 0x3C86 JUMP JUMPDEST PUSH1 0x1 JUMPDEST PUSH2 0x2173 JUMPI RETURNDATASIZE DUP1 PUSH0 DUP2 EQ PUSH2 0x2120 JUMPI PUSH1 0x40 MLOAD SWAP2 POP PUSH1 0x1F NOT PUSH1 0x3F RETURNDATASIZE ADD AND DUP3 ADD PUSH1 0x40 MSTORE RETURNDATASIZE DUP3 MSTORE RETURNDATASIZE PUSH0 PUSH1 0x20 DUP5 ADD RETURNDATACOPY PUSH2 0x2125 JUMP JUMPDEST PUSH1 0x60 SWAP2 POP JUMPDEST POP PUSH0 DUP2 MLOAD SUB PUSH2 0x216B JUMPI DUP5 PUSH1 0x40 MLOAD PUSH32 0x57F447CE00000000000000000000000000000000000000000000000000000000 DUP2 MSTORE PUSH1 0x4 ADD PUSH2 0x2162 SWAP2 SWAP1 PUSH2 0x31C2 JUMP JUMPDEST PUSH1 0x40 MLOAD DUP1 SWAP2 SUB SWAP1 REVERT JUMPDEST DUP1 MLOAD DUP2 PUSH1 0x20 ADD REVERT JUMPDEST PUSH4 0xBC197C81 PUSH1 0xE0 SHL PUSH28 0xFFFFFFFFFFFFFFFFFFFFFFFFFFFFFFFFFFFFFFFFFFFFFFFFFFFFFFFF NOT AND DUP2 PUSH28 0xFFFFFFFFFFFFFFFFFFFFFFFFFFFFFFFFFFFFFFFFFFFFFFFFFFFFFFFF NOT AND EQ PUSH2 0x21FC JUMPI DUP5 PUSH1 0x40 MLOAD PUSH32 0x57F447CE00000000000000000000000000000000000000000000000000000000 DUP2 MSTORE PUSH1 0x4 ADD PUSH2 0x21F3 SWAP2 SWAP1 PUSH2 0x31C2 JUMP JUMPDEST PUSH1 0x40 MLOAD DUP1 SWAP2 SUB SWAP1 REVERT JUMPDEST POP JUMPDEST POP POP POP POP POP POP JUMP JUMPDEST PUSH2 0x2212 DUP5 DUP5 DUP5 DUP5 PUSH2 0x23A3 JUMP JUMPDEST PUSH0 PUSH20 0xFFFFFFFFFFFFFFFFFFFFFFFFFFFFFFFFFFFFFFFF AND DUP5 PUSH20 0xFFFFFFFFFFFFFFFFFFFFFFFFFFFFFFFFFFFFFFFF AND SUB PUSH2 0x22E5 JUMPI PUSH0 DUP1 JUMPDEST DUP4 MLOAD DUP2 LT ISZERO PUSH2 0x22CA JUMPI PUSH0 DUP4 DUP3 DUP2 MLOAD DUP2 LT PUSH2 0x2265 JUMPI PUSH2 0x2264 PUSH2 0x361E JUMP JUMPDEST JUMPDEST PUSH1 0x20 MUL PUSH1 0x20 ADD ADD MLOAD SWAP1 POP DUP1 PUSH1 0x4 PUSH0 DUP8 DUP6 DUP2 MLOAD DUP2 LT PUSH2 0x2286 JUMPI PUSH2 0x2285 PUSH2 0x361E JUMP JUMPDEST JUMPDEST PUSH1 0x20 MUL PUSH1 0x20 ADD ADD MLOAD DUP2 MSTORE PUSH1 0x20 ADD SWAP1 DUP2 MSTORE PUSH1 0x20 ADD PUSH0 KECCAK256 PUSH0 DUP3 DUP3 SLOAD PUSH2 0x22A9 SWAP2 SWAP1 PUSH2 0x3AC5 JUMP JUMPDEST SWAP3 POP POP DUP2 SWAP1 SSTORE POP DUP1 DUP4 PUSH2 0x22BC SWAP2 SWAP1 PUSH2 0x3AC5 JUMP JUMPDEST SWAP3 POP POP DUP1 PUSH1 0x1 ADD SWAP1 POP PUSH2 0x2248 JUMP JUMPDEST POP DUP1 PUSH1 0x5 PUSH0 DUP3 DUP3 SLOAD PUSH2 0x22DC SWAP2 SWAP1 PUSH2 0x3AC5 JUMP JUMPDEST SWAP3 POP POP DUP2 SWAP1 SSTORE POP POP JUMPDEST PUSH0 PUSH20 0xFFFFFFFFFFFFFFFFFFFFFFFFFFFFFFFFFFFFFFFF AND DUP4 PUSH20 0xFFFFFFFFFFFFFFFFFFFFFFFFFFFFFFFFFFFFFFFF AND SUB PUSH2 0x239D JUMPI PUSH0 DUP1 JUMPDEST DUP4 MLOAD DUP2 LT ISZERO PUSH2 0x238B JUMPI PUSH0 DUP4 DUP3 DUP2 MLOAD DUP2 LT PUSH2 0x2338 JUMPI PUSH2 0x2337 PUSH2 0x361E JUMP JUMPDEST JUMPDEST PUSH1 0x20 MUL PUSH1 0x20 ADD ADD MLOAD SWAP1 POP DUP1 PUSH1 0x4 PUSH0 DUP8 DUP6 DUP2 MLOAD DUP2 LT PUSH2 0x2359 JUMPI PUSH2 0x2358 PUSH2 0x361E JUMP JUMPDEST JUMPDEST PUSH1 0x20 MUL PUSH1 0x20 ADD ADD MLOAD DUP2 MSTORE PUSH1 0x20 ADD SWAP1 DUP2 MSTORE PUSH1 0x20 ADD PUSH0 KECCAK256 PUSH0 DUP3 DUP3 SLOAD SUB SWAP3 POP POP DUP2 SWAP1 SSTORE POP DUP1 DUP4 ADD SWAP3 POP POP DUP1 PUSH1 0x1 ADD SWAP1 POP PUSH2 0x231B JUMP JUMPDEST POP DUP1 PUSH1 0x5 PUSH0 DUP3 DUP3 SLOAD SUB SWAP3 POP POP DUP2 SWAP1 SSTORE POP POP JUMPDEST POP POP POP POP JUMP JUMPDEST PUSH2 0x23AB PUSH2 0x1E25 JUMP JUMPDEST PUSH2 0x23B7 DUP5 DUP5 DUP5 DUP5 PUSH2 0x23BD JUMP JUMPDEST POP POP POP POP JUMP JUMPDEST DUP1 MLOAD DUP3 MLOAD EQ PUSH2 0x2407 JUMPI DUP2 MLOAD DUP2 MLOAD PUSH1 0x40 MLOAD PUSH32 0x5B05999100000000000000000000000000000000000000000000000000000000 DUP2 MSTORE PUSH1 0x4 ADD PUSH2 0x23FE SWAP3 SWAP2 SWAP1 PUSH2 0x35F7 JUMP JUMPDEST PUSH1 0x40 MLOAD DUP1 SWAP2 SUB SWAP1 REVERT JUMPDEST PUSH0 PUSH2 0x2410 PUSH2 0x163B JUMP JUMPDEST SWAP1 POP PUSH0 JUMPDEST DUP4 MLOAD DUP2 LT ISZERO PUSH2 0x260C JUMPI PUSH0 PUSH2 0x2431 DUP3 DUP7 PUSH2 0x17AB SWAP1 SWAP2 SWAP1 PUSH4 0xFFFFFFFF AND JUMP JUMPDEST SWAP1 POP PUSH0 PUSH2 0x2447 DUP4 DUP7 PUSH2 0x17AB SWAP1 SWAP2 SWAP1 PUSH4 0xFFFFFFFF AND JUMP JUMPDEST SWAP1 POP PUSH0 PUSH20 0xFFFFFFFFFFFFFFFFFFFFFFFFFFFFFFFFFFFFFFFF AND DUP9 PUSH20 0xFFFFFFFFFFFFFFFFFFFFFFFFFFFFFFFFFFFFFFFF AND EQ PUSH2 0x256A JUMPI PUSH0 DUP1 PUSH0 DUP5 DUP2 MSTORE PUSH1 0x20 ADD SWAP1 DUP2 MSTORE PUSH1 0x20 ADD PUSH0 KECCAK256 PUSH0 DUP11 PUSH20 0xFFFFFFFFFFFFFFFFFFFFFFFFFFFFFFFFFFFFFFFF AND PUSH20 0xFFFFFFFFFFFFFFFFFFFFFFFFFFFFFFFFFFFFFFFF AND DUP2 MSTORE PUSH1 0x20 ADD SWAP1 DUP2 MSTORE PUSH1 0x20 ADD PUSH0 KECCAK256 SLOAD SWAP1 POP DUP2 DUP2 LT ISZERO PUSH2 0x2516 JUMPI DUP9 DUP2 DUP4 DUP6 PUSH1 0x40 MLOAD PUSH32 0x3DEE4C500000000000000000000000000000000000000000000000000000000 DUP2 MSTORE PUSH1 0x4 ADD PUSH2 0x250D SWAP5 SWAP4 SWAP3 SWAP2 SWAP1 PUSH2 0x3D17 JUMP JUMPDEST PUSH1 0x40 MLOAD DUP1 SWAP2 SUB SWAP1 REVERT JUMPDEST DUP2 DUP2 SUB PUSH0 DUP1 DUP6 DUP2 MSTORE PUSH1 0x20 ADD SWAP1 DUP2 MSTORE PUSH1 0x20 ADD PUSH0 KECCAK256 PUSH0 DUP12 PUSH20 0xFFFFFFFFFFFFFFFFFFFFFFFFFFFFFFFFFFFFFFFF AND PUSH20 0xFFFFFFFFFFFFFFFFFFFFFFFFFFFFFFFFFFFFFFFF AND DUP2 MSTORE PUSH1 0x20 ADD SWAP1 DUP2 MSTORE PUSH1 0x20 ADD PUSH0 KECCAK256 DUP2 SWAP1 SSTORE POP POP JUMPDEST PUSH0 PUSH20 0xFFFFFFFFFFFFFFFFFFFFFFFFFFFFFFFFFFFFFFFF AND DUP8 PUSH20 0xFFFFFFFFFFFFFFFFFFFFFFFFFFFFFFFFFFFFFFFF AND EQ PUSH2 0x25FF JUMPI DUP1 PUSH0 DUP1 DUP5 DUP2 MSTORE PUSH1 0x20 ADD SWAP1 DUP2 MSTORE PUSH1 0x20 ADD PUSH0 KECCAK256 PUSH0 DUP10 PUSH20 0xFFFFFFFFFFFFFFFFFFFFFFFFFFFFFFFFFFFFFFFF AND PUSH20 0xFFFFFFFFFFFFFFFFFFFFFFFFFFFFFFFFFFFFFFFF AND DUP2 MSTORE PUSH1 0x20 ADD SWAP1 DUP2 MSTORE PUSH1 0x20 ADD PUSH0 KECCAK256 PUSH0 DUP3 DUP3 SLOAD PUSH2 0x25F7 SWAP2 SWAP1 PUSH2 0x3AC5 JUMP JUMPDEST SWAP3 POP POP DUP2 SWAP1 SSTORE POP JUMPDEST POP POP DUP1 PUSH1 0x1 ADD SWAP1 POP PUSH2 0x2414 JUMP JUMPDEST POP PUSH1 0x1 DUP4 MLOAD SUB PUSH2 0x26C7 JUMPI PUSH0 PUSH2 0x262A PUSH0 DUP6 PUSH2 0x17AB SWAP1 SWAP2 SWAP1 PUSH4 0xFFFFFFFF AND JUMP JUMPDEST SWAP1 POP PUSH0 PUSH2 0x2640 PUSH0 DUP6 PUSH2 0x17AB SWAP1 SWAP2 SWAP1 PUSH4 0xFFFFFFFF AND JUMP JUMPDEST SWAP1 POP DUP6 PUSH20 0xFFFFFFFFFFFFFFFFFFFFFFFFFFFFFFFFFFFFFFFF AND DUP8 PUSH20 0xFFFFFFFFFFFFFFFFFFFFFFFFFFFFFFFFFFFFFFFF AND DUP5 PUSH20 0xFFFFFFFFFFFFFFFFFFFFFFFFFFFFFFFFFFFFFFFF AND PUSH32 0xC3D58168C5AE7397731D063D5BBF3D657854427343F4C083240F7AACAA2D0F62 DUP6 DUP6 PUSH1 0x40 MLOAD PUSH2 0x26B8 SWAP3 SWAP2 SWAP1 PUSH2 0x35F7 JUMP JUMPDEST PUSH1 0x40 MLOAD DUP1 SWAP2 SUB SWAP1 LOG4 POP POP PUSH2 0x2746 JUMP JUMPDEST DUP4 PUSH20 0xFFFFFFFFFFFFFFFFFFFFFFFFFFFFFFFFFFFFFFFF AND DUP6 PUSH20 0xFFFFFFFFFFFFFFFFFFFFFFFFFFFFFFFFFFFFFFFF AND DUP3 PUSH20 0xFFFFFFFFFFFFFFFFFFFFFFFFFFFFFFFFFFFFFFFF AND PUSH32 0x4A39DC06D4C0DBC64B70AF90FD698A233A518AA5D07E595D983B8C0526C8F7FB DUP7 DUP7 PUSH1 0x40 MLOAD PUSH2 0x273D SWAP3 SWAP2 SWAP1 PUSH2 0x3D5A JUMP JUMPDEST PUSH1 0x40 MLOAD DUP1 SWAP2 SUB SWAP1 LOG4 JUMPDEST POP POP POP POP POP JUMP JUMPDEST PUSH0 PUSH1 0x40 MLOAD SWAP1 POP SWAP1 JUMP JUMPDEST PUSH0 DUP1 REVERT JUMPDEST PUSH0 DUP1 REVERT JUMPDEST PUSH0 PUSH20 0xFFFFFFFFFFFFFFFFFFFFFFFFFFFFFFFFFFFFFFFF DUP3 AND SWAP1 POP SWAP2 SWAP1 POP JUMP JUMPDEST PUSH0 PUSH2 0x2787 DUP3 PUSH2 0x275E JUMP JUMPDEST SWAP1 POP SWAP2 SWAP1 POP JUMP JUMPDEST PUSH2 0x2797 DUP2 PUSH2 0x277D JUMP JUMPDEST DUP2 EQ PUSH2 0x27A1 JUMPI PUSH0 DUP1 REVERT JUMPDEST POP JUMP JUMPDEST PUSH0 DUP2 CALLDATALOAD SWAP1 POP PUSH2 0x27B2 DUP2 PUSH2 0x278E JUMP JUMPDEST SWAP3 SWAP2 POP POP JUMP JUMPDEST PUSH0 DUP2 SWAP1 POP SWAP2 SWAP1 POP JUMP JUMPDEST PUSH2 0x27CA DUP2 PUSH2 0x27B8 JUMP JUMPDEST DUP2 EQ PUSH2 0x27D4 JUMPI PUSH0 DUP1 REVERT JUMPDEST POP JUMP JUMPDEST PUSH0 DUP2 CALLDATALOAD SWAP1 POP PUSH2 0x27E5 DUP2 PUSH2 0x27C1 JUMP JUMPDEST SWAP3 SWAP2 POP POP JUMP JUMPDEST PUSH0 DUP1 PUSH1 0x40 DUP4 DUP6 SUB SLT ISZERO PUSH2 0x2801 JUMPI PUSH2 0x2800 PUSH2 0x2756 JUMP JUMPDEST JUMPDEST PUSH0 PUSH2 0x280E DUP6 DUP3 DUP7 ADD PUSH2 0x27A4 JUMP JUMPDEST SWAP3 POP POP PUSH1 0x20 PUSH2 0x281F DUP6 DUP3 DUP7 ADD PUSH2 0x27D7 JUMP JUMPDEST SWAP2 POP POP SWAP3 POP SWAP3 SWAP1 POP JUMP JUMPDEST PUSH2 0x2832 DUP2 PUSH2 0x27B8 JUMP JUMPDEST DUP3 MSTORE POP POP JUMP JUMPDEST PUSH0 PUSH1 0x20 DUP3 ADD SWAP1 POP PUSH2 0x284B PUSH0 DUP4 ADD DUP5 PUSH2 0x2829 JUMP JUMPDEST SWAP3 SWAP2 POP POP JUMP JUMPDEST PUSH0 PUSH32 0xFFFFFFFF00000000000000000000000000000000000000000000000000000000 DUP3 AND SWAP1 POP SWAP2 SWAP1 POP JUMP JUMPDEST PUSH2 0x2885 DUP2 PUSH2 0x2851 JUMP JUMPDEST DUP2 EQ PUSH2 0x288F JUMPI PUSH0 DUP1 REVERT JUMPDEST POP JUMP JUMPDEST PUSH0 DUP2 CALLDATALOAD SWAP1 POP PUSH2 0x28A0 DUP2 PUSH2 0x287C JUMP JUMPDEST SWAP3 SWAP2 POP POP JUMP JUMPDEST PUSH0 PUSH1 0x20 DUP3 DUP5 SUB SLT ISZERO PUSH2 0x28BB JUMPI PUSH2 0x28BA PUSH2 0x2756 JUMP JUMPDEST JUMPDEST PUSH0 PUSH2 0x28C8 DUP5 DUP3 DUP6 ADD PUSH2 0x2892 JUMP JUMPDEST SWAP2 POP POP SWAP3 SWAP2 POP POP JUMP JUMPDEST PUSH0 DUP2 ISZERO ISZERO SWAP1 POP SWAP2 SWAP1 POP JUMP JUMPDEST PUSH2 0x28E5 DUP2 PUSH2 0x28D1 JUMP JUMPDEST DUP3 MSTORE POP POP JUMP JUMPDEST PUSH0 PUSH1 0x20 DUP3 ADD SWAP1 POP PUSH2 0x28FE PUSH0 DUP4 ADD DUP5 PUSH2 0x28DC JUMP JUMPDEST SWAP3 SWAP2 POP POP JUMP JUMPDEST PUSH0 DUP1 REVERT JUMPDEST PUSH0 DUP1 REVERT JUMPDEST PUSH0 PUSH1 0x1F NOT PUSH1 0x1F DUP4 ADD AND SWAP1 POP SWAP2 SWAP1 POP JUMP JUMPDEST PUSH32 0x4E487B7100000000000000000000000000000000000000000000000000000000 PUSH0 MSTORE PUSH1 0x41 PUSH1 0x4 MSTORE PUSH1 0x24 PUSH0 REVERT JUMPDEST PUSH2 0x2952 DUP3 PUSH2 0x290C JUMP JUMPDEST DUP2 ADD DUP2 DUP2 LT PUSH8 0xFFFFFFFFFFFFFFFF DUP3 GT OR ISZERO PUSH2 0x2971 JUMPI PUSH2 0x2970 PUSH2 0x291C JUMP JUMPDEST JUMPDEST DUP1 PUSH1 0x40 MSTORE POP POP POP JUMP JUMPDEST PUSH0 PUSH2 0x2983 PUSH2 0x274D JUMP JUMPDEST SWAP1 POP PUSH2 0x298F DUP3 DUP3 PUSH2 0x2949 JUMP JUMPDEST SWAP2 SWAP1 POP JUMP JUMPDEST PUSH0 PUSH8 0xFFFFFFFFFFFFFFFF DUP3 GT ISZERO PUSH2 0x29AE JUMPI PUSH2 0x29AD PUSH2 0x291C JUMP JUMPDEST JUMPDEST PUSH2 0x29B7 DUP3 PUSH2 0x290C JUMP JUMPDEST SWAP1 POP PUSH1 0x20 DUP2 ADD SWAP1 POP SWAP2 SWAP1 POP JUMP JUMPDEST DUP3 DUP2 DUP4 CALLDATACOPY PUSH0 DUP4 DUP4 ADD MSTORE POP POP POP JUMP JUMPDEST PUSH0 PUSH2 0x29E4 PUSH2 0x29DF DUP5 PUSH2 0x2994 JUMP JUMPDEST PUSH2 0x297A JUMP JUMPDEST SWAP1 POP DUP3 DUP2 MSTORE PUSH1 0x20 DUP2 ADD DUP5 DUP5 DUP5 ADD GT ISZERO PUSH2 0x2A00 JUMPI PUSH2 0x29FF PUSH2 0x2908 JUMP JUMPDEST JUMPDEST PUSH2 0x2A0B DUP5 DUP3 DUP6 PUSH2 0x29C4 JUMP JUMPDEST POP SWAP4 SWAP3 POP POP POP JUMP JUMPDEST PUSH0 DUP3 PUSH1 0x1F DUP4 ADD SLT PUSH2 0x2A27 JUMPI PUSH2 0x2A26 PUSH2 0x2904 JUMP JUMPDEST JUMPDEST DUP2 CALLDATALOAD PUSH2 0x2A37 DUP5 DUP3 PUSH1 0x20 DUP7 ADD PUSH2 0x29D2 JUMP JUMPDEST SWAP2 POP POP SWAP3 SWAP2 POP POP JUMP JUMPDEST PUSH0 PUSH1 0x20 DUP3 DUP5 SUB SLT ISZERO PUSH2 0x2A55 JUMPI PUSH2 0x2A54 PUSH2 0x2756 JUMP JUMPDEST JUMPDEST PUSH0 DUP3 ADD CALLDATALOAD PUSH8 0xFFFFFFFFFFFFFFFF DUP2 GT ISZERO PUSH2 0x2A72 JUMPI PUSH2 0x2A71 PUSH2 0x275A JUMP JUMPDEST JUMPDEST PUSH2 0x2A7E DUP5 DUP3 DUP6 ADD PUSH2 0x2A13 JUMP JUMPDEST SWAP2 POP POP SWAP3 SWAP2 POP POP JUMP JUMPDEST PUSH0 PUSH1 0x20 DUP3 DUP5 SUB SLT ISZERO PUSH2 0x2A9C JUMPI PUSH2 0x2A9B PUSH2 0x2756 JUMP JUMPDEST JUMPDEST PUSH0 PUSH2 0x2AA9 DUP5 DUP3 DUP6 ADD PUSH2 0x27D7 JUMP JUMPDEST SWAP2 POP POP SWAP3 SWAP2 POP POP JUMP JUMPDEST PUSH0 DUP2 MLOAD SWAP1 POP SWAP2 SWAP1 POP JUMP JUMPDEST PUSH0 DUP3 DUP3 MSTORE PUSH1 0x20 DUP3 ADD SWAP1 POP SWAP3 SWAP2 POP POP JUMP JUMPDEST PUSH0 JUMPDEST DUP4 DUP2 LT ISZERO PUSH2 0x2AE9 JUMPI DUP1 DUP3 ADD MLOAD DUP2 DUP5 ADD MSTORE PUSH1 0x20 DUP2 ADD SWAP1 POP PUSH2 0x2ACE JUMP JUMPDEST PUSH0 DUP5 DUP5 ADD MSTORE POP POP POP POP JUMP JUMPDEST PUSH0 PUSH2 0x2AFE DUP3 PUSH2 0x2AB2 JUMP JUMPDEST PUSH2 0x2B08 DUP2 DUP6 PUSH2 0x2ABC JUMP JUMPDEST SWAP4 POP PUSH2 0x2B18 DUP2 DUP6 PUSH1 0x20 DUP7 ADD PUSH2 0x2ACC JUMP JUMPDEST PUSH2 0x2B21 DUP2 PUSH2 0x290C JUMP JUMPDEST DUP5 ADD SWAP2 POP POP SWAP3 SWAP2 POP POP JUMP JUMPDEST PUSH0 PUSH1 0x20 DUP3 ADD SWAP1 POP DUP2 DUP2 SUB PUSH0 DUP4 ADD MSTORE PUSH2 0x2B44 DUP2 DUP5 PUSH2 0x2AF4 JUMP JUMPDEST SWAP1 POP SWAP3 SWAP2 POP POP JUMP JUMPDEST PUSH0 DUP1 PUSH1 0x40 DUP4 DUP6 SUB SLT ISZERO PUSH2 0x2B62 JUMPI PUSH2 0x2B61 PUSH2 0x2756 JUMP JUMPDEST JUMPDEST PUSH0 PUSH2 0x2B6F DUP6 DUP3 DUP7 ADD PUSH2 0x27D7 JUMP JUMPDEST SWAP3 POP POP PUSH1 0x20 PUSH2 0x2B80 DUP6 DUP3 DUP7 ADD PUSH2 0x27D7 JUMP JUMPDEST SWAP2 POP POP SWAP3 POP SWAP3 SWAP1 POP JUMP JUMPDEST PUSH0 PUSH8 0xFFFFFFFFFFFFFFFF DUP3 GT ISZERO PUSH2 0x2BA4 JUMPI PUSH2 0x2BA3 PUSH2 0x291C JUMP JUMPDEST JUMPDEST PUSH1 0x20 DUP3 MUL SWAP1 POP PUSH1 0x20 DUP2 ADD SWAP1 POP SWAP2 SWAP1 POP JUMP JUMPDEST PUSH0 DUP1 REVERT JUMPDEST PUSH0 PUSH2 0x2BCB PUSH2 0x2BC6 DUP5 PUSH2 0x2B8A JUMP JUMPDEST PUSH2 0x297A JUMP JUMPDEST SWAP1 POP DUP1 DUP4 DUP3 MSTORE PUSH1 0x20 DUP3 ADD SWAP1 POP PUSH1 0x20 DUP5 MUL DUP4 ADD DUP6 DUP2 GT ISZERO PUSH2 0x2BEE JUMPI PUSH2 0x2BED PUSH2 0x2BB5 JUMP JUMPDEST JUMPDEST DUP4 JUMPDEST DUP2 DUP2 LT ISZERO PUSH2 0x2C17 JUMPI DUP1 PUSH2 0x2C03 DUP9 DUP3 PUSH2 0x27D7 JUMP JUMPDEST DUP5 MSTORE PUSH1 0x20 DUP5 ADD SWAP4 POP POP PUSH1 0x20 DUP2 ADD SWAP1 POP PUSH2 0x2BF0 JUMP JUMPDEST POP POP POP SWAP4 SWAP3 POP POP POP JUMP JUMPDEST PUSH0 DUP3 PUSH1 0x1F DUP4 ADD SLT PUSH2 0x2C35 JUMPI PUSH2 0x2C34 PUSH2 0x2904 JUMP JUMPDEST JUMPDEST DUP2 CALLDATALOAD PUSH2 0x2C45 DUP5 DUP3 PUSH1 0x20 DUP7 ADD PUSH2 0x2BB9 JUMP JUMPDEST SWAP2 POP POP SWAP3 SWAP2 POP POP JUMP JUMPDEST PUSH0 PUSH8 0xFFFFFFFFFFFFFFFF DUP3 GT ISZERO PUSH2 0x2C68 JUMPI PUSH2 0x2C67 PUSH2 0x291C JUMP JUMPDEST JUMPDEST PUSH2 0x2C71 DUP3 PUSH2 0x290C JUMP JUMPDEST SWAP1 POP PUSH1 0x20 DUP2 ADD SWAP1 POP SWAP2 SWAP1 POP JUMP JUMPDEST PUSH0 PUSH2 0x2C90 PUSH2 0x2C8B DUP5 PUSH2 0x2C4E JUMP JUMPDEST PUSH2 0x297A JUMP JUMPDEST SWAP1 POP DUP3 DUP2 MSTORE PUSH1 0x20 DUP2 ADD DUP5 DUP5 DUP5 ADD GT ISZERO PUSH2 0x2CAC JUMPI PUSH2 0x2CAB PUSH2 0x2908 JUMP JUMPDEST JUMPDEST PUSH2 0x2CB7 DUP5 DUP3 DUP6 PUSH2 0x29C4 JUMP JUMPDEST POP SWAP4 SWAP3 POP POP POP JUMP JUMPDEST PUSH0 DUP3 PUSH1 0x1F DUP4 ADD SLT PUSH2 0x2CD3 JUMPI PUSH2 0x2CD2 PUSH2 0x2904 JUMP JUMPDEST JUMPDEST DUP2 CALLDATALOAD PUSH2 0x2CE3 DUP5 DUP3 PUSH1 0x20 DUP7 ADD PUSH2 0x2C7E JUMP JUMPDEST SWAP2 POP POP SWAP3 SWAP2 POP POP JUMP JUMPDEST PUSH0 DUP1 PUSH0 DUP1 PUSH1 0x80 DUP6 DUP8 SUB SLT ISZERO PUSH2 0x2D04 JUMPI PUSH2 0x2D03 PUSH2 0x2756 JUMP JUMPDEST JUMPDEST PUSH0 PUSH2 0x2D11 DUP8 DUP3 DUP9 ADD PUSH2 0x27A4 JUMP JUMPDEST SWAP5 POP POP PUSH1 0x20 DUP6 ADD CALLDATALOAD PUSH8 0xFFFFFFFFFFFFFFFF DUP2 GT ISZERO PUSH2 0x2D32 JUMPI PUSH2 0x2D31 PUSH2 0x275A JUMP JUMPDEST JUMPDEST PUSH2 0x2D3E DUP8 DUP3 DUP9 ADD PUSH2 0x2C21 JUMP JUMPDEST SWAP4 POP POP PUSH1 0x40 DUP6 ADD CALLDATALOAD PUSH8 0xFFFFFFFFFFFFFFFF DUP2 GT ISZERO PUSH2 0x2D5F JUMPI PUSH2 0x2D5E PUSH2 0x275A JUMP JUMPDEST JUMPDEST PUSH2 0x2D6B DUP8 DUP3 DUP9 ADD PUSH2 0x2C21 JUMP JUMPDEST SWAP3 POP POP PUSH1 0x60 DUP6 ADD CALLDATALOAD PUSH8 0xFFFFFFFFFFFFFFFF DUP2 GT ISZERO PUSH2 0x2D8C JUMPI PUSH2 0x2D8B PUSH2 0x275A JUMP JUMPDEST JUMPDEST PUSH2 0x2D98 DUP8 DUP3 DUP9 ADD PUSH2 0x2CBF JUMP JUMPDEST SWAP2 POP POP SWAP3 SWAP6 SWAP2 SWAP5 POP SWAP3 POP JUMP JUMPDEST PUSH0 PUSH1 0x20 DUP3 DUP5 SUB SLT ISZERO PUSH2 0x2DB9 JUMPI PUSH2 0x2DB8 PUSH2 0x2756 JUMP JUMPDEST JUMPDEST PUSH0 PUSH2 0x2DC6 DUP5 DUP3 DUP6 ADD PUSH2 0x27A4 JUMP JUMPDEST SWAP2 POP POP SWAP3 SWAP2 POP POP JUMP JUMPDEST PUSH0 DUP1 PUSH0 DUP1 PUSH0 PUSH1 0xA0 DUP7 DUP9 SUB SLT ISZERO PUSH2 0x2DE8 JUMPI PUSH2 0x2DE7 PUSH2 0x2756 JUMP JUMPDEST JUMPDEST PUSH0 PUSH2 0x2DF5 DUP9 DUP3 DUP10 ADD PUSH2 0x27A4 JUMP JUMPDEST SWAP6 POP POP PUSH1 0x20 PUSH2 0x2E06 DUP9 DUP3 DUP10 ADD PUSH2 0x27A4 JUMP JUMPDEST SWAP5 POP POP PUSH1 0x40 DUP7 ADD CALLDATALOAD PUSH8 0xFFFFFFFFFFFFFFFF DUP2 GT ISZERO PUSH2 0x2E27 JUMPI PUSH2 0x2E26 PUSH2 0x275A JUMP JUMPDEST JUMPDEST PUSH2 0x2E33 DUP9 DUP3 DUP10 ADD PUSH2 0x2C21 JUMP JUMPDEST SWAP4 POP POP PUSH1 0x60 DUP7 ADD CALLDATALOAD PUSH8 0xFFFFFFFFFFFFFFFF DUP2 GT ISZERO PUSH2 0x2E54 JUMPI PUSH2 0x2E53 PUSH2 0x275A JUMP JUMPDEST JUMPDEST PUSH2 0x2E60 DUP9 DUP3 DUP10 ADD PUSH2 0x2C21 JUMP JUMPDEST SWAP3 POP POP PUSH1 0x80 DUP7 ADD CALLDATALOAD PUSH8 0xFFFFFFFFFFFFFFFF DUP2 GT ISZERO PUSH2 0x2E81 JUMPI PUSH2 0x2E80 PUSH2 0x275A JUMP JUMPDEST JUMPDEST PUSH2 0x2E8D DUP9 DUP3 DUP10 ADD PUSH2 0x2CBF JUMP JUMPDEST SWAP2 POP POP SWAP3 SWAP6 POP SWAP3 SWAP6 SWAP1 SWAP4 POP JUMP JUMPDEST PUSH2 0x2EA3 DUP2 PUSH2 0x28D1 JUMP JUMPDEST DUP2 EQ PUSH2 0x2EAD JUMPI PUSH0 DUP1 REVERT JUMPDEST POP JUMP JUMPDEST PUSH0 DUP2 CALLDATALOAD SWAP1 POP PUSH2 0x2EBE DUP2 PUSH2 0x2E9A JUMP JUMPDEST SWAP3 SWAP2 POP POP JUMP JUMPDEST PUSH0 DUP1 PUSH1 0x40 DUP4 DUP6 SUB SLT ISZERO PUSH2 0x2EDA JUMPI PUSH2 0x2ED9 PUSH2 0x2756 JUMP JUMPDEST JUMPDEST PUSH0 PUSH2 0x2EE7 DUP6 DUP3 DUP7 ADD PUSH2 0x2EB0 JUMP JUMPDEST SWAP3 POP POP PUSH1 0x20 PUSH2 0x2EF8 DUP6 DUP3 DUP7 ADD PUSH2 0x2EB0 JUMP JUMPDEST SWAP2 POP POP SWAP3 POP SWAP3 SWAP1 POP JUMP JUMPDEST PUSH0 PUSH8 0xFFFFFFFFFFFFFFFF DUP3 GT ISZERO PUSH2 0x2F1C JUMPI PUSH2 0x2F1B PUSH2 0x291C JUMP JUMPDEST JUMPDEST PUSH1 0x20 DUP3 MUL SWAP1 POP PUSH1 0x20 DUP2 ADD SWAP1 POP SWAP2 SWAP1 POP JUMP JUMPDEST PUSH0 PUSH2 0x2F3F PUSH2 0x2F3A DUP5 PUSH2 0x2F02 JUMP JUMPDEST PUSH2 0x297A JUMP JUMPDEST SWAP1 POP DUP1 DUP4 DUP3 MSTORE PUSH1 0x20 DUP3 ADD SWAP1 POP PUSH1 0x20 DUP5 MUL DUP4 ADD DUP6 DUP2 GT ISZERO PUSH2 0x2F62 JUMPI PUSH2 0x2F61 PUSH2 0x2BB5 JUMP JUMPDEST JUMPDEST DUP4 JUMPDEST DUP2 DUP2 LT ISZERO PUSH2 0x2F8B JUMPI DUP1 PUSH2 0x2F77 DUP9 DUP3 PUSH2 0x27A4 JUMP JUMPDEST DUP5 MSTORE PUSH1 0x20 DUP5 ADD SWAP4 POP POP PUSH1 0x20 DUP2 ADD SWAP1 POP PUSH2 0x2F64 JUMP JUMPDEST POP POP POP SWAP4 SWAP3 POP POP POP JUMP JUMPDEST PUSH0 DUP3 PUSH1 0x1F DUP4 ADD SLT PUSH2 0x2FA9 JUMPI PUSH2 0x2FA8 PUSH2 0x2904 JUMP JUMPDEST JUMPDEST DUP2 CALLDATALOAD PUSH2 0x2FB9 DUP5 DUP3 PUSH1 0x20 DUP7 ADD PUSH2 0x2F2D JUMP JUMPDEST SWAP2 POP POP SWAP3 SWAP2 POP POP JUMP JUMPDEST PUSH0 DUP1 PUSH1 0x40 DUP4 DUP6 SUB SLT ISZERO PUSH2 0x2FD8 JUMPI PUSH2 0x2FD7 PUSH2 0x2756 JUMP JUMPDEST JUMPDEST PUSH0 DUP4 ADD CALLDATALOAD PUSH8 0xFFFFFFFFFFFFFFFF DUP2 GT ISZERO PUSH2 0x2FF5 JUMPI PUSH2 0x2FF4 PUSH2 0x275A JUMP JUMPDEST JUMPDEST PUSH2 0x3001 DUP6 DUP3 DUP7 ADD PUSH2 0x2F95 JUMP JUMPDEST SWAP3 POP POP PUSH1 0x20 DUP4 ADD CALLDATALOAD PUSH8 0xFFFFFFFFFFFFFFFF DUP2 GT ISZERO PUSH2 0x3022 JUMPI PUSH2 0x3021 PUSH2 0x275A JUMP JUMPDEST JUMPDEST PUSH2 0x302E DUP6 DUP3 DUP7 ADD PUSH2 0x2C21 JUMP JUMPDEST SWAP2 POP POP SWAP3 POP SWAP3 SWAP1 POP JUMP JUMPDEST PUSH0 DUP2 MLOAD SWAP1 POP SWAP2 SWAP1 POP JUMP JUMPDEST PUSH0 DUP3 DUP3 MSTORE PUSH1 0x20 DUP3 ADD SWAP1 POP SWAP3 SWAP2 POP POP JUMP JUMPDEST PUSH0 DUP2 SWAP1 POP PUSH1 0x20 DUP3 ADD SWAP1 POP SWAP2 SWAP1 POP JUMP JUMPDEST PUSH2 0x306A DUP2 PUSH2 0x27B8 JUMP JUMPDEST DUP3 MSTORE POP POP JUMP JUMPDEST PUSH0 PUSH2 0x307B DUP4 DUP4 PUSH2 0x3061 JUMP JUMPDEST PUSH1 0x20 DUP4 ADD SWAP1 POP SWAP3 SWAP2 POP POP JUMP JUMPDEST PUSH0 PUSH1 0x20 DUP3 ADD SWAP1 POP SWAP2 SWAP1 POP JUMP JUMPDEST PUSH0 PUSH2 0x309D DUP3 PUSH2 0x3038 JUMP JUMPDEST PUSH2 0x30A7 DUP2 DUP6 PUSH2 0x3042 JUMP JUMPDEST SWAP4 POP PUSH2 0x30B2 DUP4 PUSH2 0x3052 JUMP JUMPDEST DUP1 PUSH0 JUMPDEST DUP4 DUP2 LT ISZERO PUSH2 0x30E2 JUMPI DUP2 MLOAD PUSH2 0x30C9 DUP9 DUP3 PUSH2 0x3070 JUMP JUMPDEST SWAP8 POP PUSH2 0x30D4 DUP4 PUSH2 0x3087 JUMP JUMPDEST SWAP3 POP POP PUSH1 0x1 DUP2 ADD SWAP1 POP PUSH2 0x30B5 JUMP JUMPDEST POP DUP6 SWAP4 POP POP POP POP SWAP3 SWAP2 POP POP JUMP JUMPDEST PUSH0 PUSH1 0x20 DUP3 ADD SWAP1 POP DUP2 DUP2 SUB PUSH0 DUP4 ADD MSTORE PUSH2 0x3107 DUP2 DUP5 PUSH2 0x3093 JUMP JUMPDEST SWAP1 POP SWAP3 SWAP2 POP POP JUMP JUMPDEST PUSH0 DUP1 REVERT JUMPDEST PUSH0 DUP1 DUP4 PUSH1 0x1F DUP5 ADD SLT PUSH2 0x3128 JUMPI PUSH2 0x3127 PUSH2 0x2904 JUMP JUMPDEST JUMPDEST DUP3 CALLDATALOAD SWAP1 POP PUSH8 0xFFFFFFFFFFFFFFFF DUP2 GT ISZERO PUSH2 0x3145 JUMPI PUSH2 0x3144 PUSH2 0x310F JUMP JUMPDEST JUMPDEST PUSH1 0x20 DUP4 ADD SWAP2 POP DUP4 PUSH1 0x20 DUP3 MUL DUP4 ADD GT ISZERO PUSH2 0x3161 JUMPI PUSH2 0x3160 PUSH2 0x2BB5 JUMP JUMPDEST JUMPDEST SWAP3 POP SWAP3 SWAP1 POP JUMP JUMPDEST PUSH0 DUP1 PUSH1 0x20 DUP4 DUP6 SUB SLT ISZERO PUSH2 0x317E JUMPI PUSH2 0x317D PUSH2 0x2756 JUMP JUMPDEST JUMPDEST PUSH0 DUP4 ADD CALLDATALOAD PUSH8 0xFFFFFFFFFFFFFFFF DUP2 GT ISZERO PUSH2 0x319B JUMPI PUSH2 0x319A PUSH2 0x275A JUMP JUMPDEST JUMPDEST PUSH2 0x31A7 DUP6 DUP3 DUP7 ADD PUSH2 0x3113 JUMP JUMPDEST SWAP3 POP SWAP3 POP POP SWAP3 POP SWAP3 SWAP1 POP JUMP JUMPDEST PUSH2 0x31BC DUP2 PUSH2 0x277D JUMP JUMPDEST DUP3 MSTORE POP POP JUMP JUMPDEST PUSH0 PUSH1 0x20 DUP3 ADD SWAP1 POP PUSH2 0x31D5 PUSH0 DUP4 ADD DUP5 PUSH2 0x31B3 JUMP JUMPDEST SWAP3 SWAP2 POP POP JUMP JUMPDEST PUSH0 DUP1 PUSH1 0x40 DUP4 DUP6 SUB SLT ISZERO PUSH2 0x31F1 JUMPI PUSH2 0x31F0 PUSH2 0x2756 JUMP JUMPDEST JUMPDEST PUSH0 PUSH2 0x31FE DUP6 DUP3 DUP7 ADD PUSH2 0x27A4 JUMP JUMPDEST SWAP3 POP POP PUSH1 0x20 PUSH2 0x320F DUP6 DUP3 DUP7 ADD PUSH2 0x2EB0 JUMP JUMPDEST SWAP2 POP POP SWAP3 POP SWAP3 SWAP1 POP JUMP JUMPDEST PUSH0 DUP1 PUSH1 0x40 DUP4 DUP6 SUB SLT ISZERO PUSH2 0x322F JUMPI PUSH2 0x322E PUSH2 0x2756 JUMP JUMPDEST JUMPDEST PUSH0 PUSH2 0x323C DUP6 DUP3 DUP7 ADD PUSH2 0x27A4 JUMP JUMPDEST SWAP3 POP POP PUSH1 0x20 PUSH2 0x324D DUP6 DUP3 DUP7 ADD PUSH2 0x27A4 JUMP JUMPDEST SWAP2 POP POP SWAP3 POP SWAP3 SWAP1 POP JUMP JUMPDEST PUSH0 DUP1 PUSH0 DUP1 PUSH0 PUSH1 0xA0 DUP7 DUP9 SUB SLT ISZERO PUSH2 0x3270 JUMPI PUSH2 0x326F PUSH2 0x2756 JUMP JUMPDEST JUMPDEST PUSH0 PUSH2 0x327D DUP9 DUP3 DUP10 ADD PUSH2 0x27A4 JUMP JUMPDEST SWAP6 POP POP PUSH1 0x20 PUSH2 0x328E DUP9 DUP3 DUP10 ADD PUSH2 0x27A4 JUMP JUMPDEST SWAP5 POP POP PUSH1 0x40 PUSH2 0x329F DUP9 DUP3 DUP10 ADD PUSH2 0x27D7 JUMP JUMPDEST SWAP4 POP POP PUSH1 0x60 PUSH2 0x32B0 DUP9 DUP3 DUP10 ADD PUSH2 0x27D7 JUMP JUMPDEST SWAP3 POP POP PUSH1 0x80 DUP7 ADD CALLDATALOAD PUSH8 0xFFFFFFFFFFFFFFFF DUP2 GT ISZERO PUSH2 0x32D1 JUMPI PUSH2 0x32D0 PUSH2 0x275A JUMP JUMPDEST JUMPDEST PUSH2 0x32DD DUP9 DUP3 DUP10 ADD PUSH2 0x2CBF JUMP JUMPDEST SWAP2 POP POP SWAP3 SWAP6 POP SWAP3 SWAP6 SWAP1 SWAP4 POP JUMP JUMPDEST PUSH32 0x555249206572726F722C20746F6B656E20646F6573206E6F7420657869737421 PUSH0 DUP3 ADD MSTORE POP JUMP JUMPDEST PUSH0 PUSH2 0x331E PUSH1 0x20 DUP4 PUSH2 0x2ABC JUMP JUMPDEST SWAP2 POP PUSH2 0x3329 DUP3 PUSH2 0x32EA JUMP JUMPDEST PUSH1 0x20 DUP3 ADD SWAP1 POP SWAP2 SWAP1 POP JUMP JUMPDEST PUSH0 PUSH1 0x20 DUP3 ADD SWAP1 POP DUP2 DUP2 SUB PUSH0 DUP4 ADD MSTORE PUSH2 0x334B DUP2 PUSH2 0x3312 JUMP JUMPDEST SWAP1 POP SWAP2 SWAP1 POP JUMP JUMPDEST PUSH0 DUP2 SWAP1 POP SWAP3 SWAP2 POP POP JUMP JUMPDEST PUSH0 PUSH2 0x3366 DUP3 PUSH2 0x2AB2 JUMP JUMPDEST PUSH2 0x3370 DUP2 DUP6 PUSH2 0x3352 JUMP JUMPDEST SWAP4 POP PUSH2 0x3380 DUP2 DUP6 PUSH1 0x20 DUP7 ADD PUSH2 0x2ACC JUMP JUMPDEST DUP1 DUP5 ADD SWAP2 POP POP SWAP3 SWAP2 POP POP JUMP JUMPDEST PUSH32 0x2E6A736F6E000000000000000000000000000000000000000000000000000000 PUSH0 DUP3 ADD MSTORE POP JUMP JUMPDEST PUSH0 PUSH2 0x33C0 PUSH1 0x5 DUP4 PUSH2 0x3352 JUMP JUMPDEST SWAP2 POP PUSH2 0x33CB DUP3 PUSH2 0x338C JUMP JUMPDEST PUSH1 0x5 DUP3 ADD SWAP1 POP SWAP2 SWAP1 POP JUMP JUMPDEST PUSH0 PUSH2 0x33E1 DUP3 DUP6 PUSH2 0x335C JUMP JUMPDEST SWAP2 POP PUSH2 0x33ED DUP3 DUP5 PUSH2 0x335C JUMP JUMPDEST SWAP2 POP PUSH2 0x33F8 DUP3 PUSH2 0x33B4 JUMP JUMPDEST SWAP2 POP DUP2 SWAP1 POP SWAP4 SWAP3 POP POP POP JUMP JUMPDEST PUSH32 0x416C6C6F77206C697374206D696E7420636C6F7365642E000000000000000000 PUSH0 DUP3 ADD MSTORE POP JUMP JUMPDEST PUSH0 PUSH2 0x3438 PUSH1 0x17 DUP4 PUSH2 0x2ABC JUMP JUMPDEST SWAP2 POP PUSH2 0x3443 DUP3 PUSH2 0x3404 JUMP JUMPDEST PUSH1 0x20 DUP3 ADD SWAP1 POP SWAP2 SWAP1 POP JUMP JUMPDEST PUSH0 PUSH1 0x20 DUP3 ADD SWAP1 POP DUP2 DUP2 SUB PUSH0 DUP4 ADD MSTORE PUSH2 0x3465 DUP2 PUSH2 0x342C JUMP JUMPDEST SWAP1 POP SWAP2 SWAP1 POP JUMP JUMPDEST PUSH32 0x596F7520617265206E6F74206F6E2074686520616C6C6F77206C697374210000 PUSH0 DUP3 ADD MSTORE POP JUMP JUMPDEST PUSH0 PUSH2 0x34A0 PUSH1 0x1E DUP4 PUSH2 0x2ABC JUMP JUMPDEST SWAP2 POP PUSH2 0x34AB DUP3 PUSH2 0x346C JUMP JUMPDEST PUSH1 0x20 DUP3 ADD SWAP1 POP SWAP2 SWAP1 POP JUMP JUMPDEST PUSH0 PUSH1 0x20 DUP3 ADD SWAP1 POP DUP2 DUP2 SUB PUSH0 DUP4 ADD MSTORE PUSH2 0x34CD DUP2 PUSH2 0x3494 JUMP JUMPDEST SWAP1 POP SWAP2 SWAP1 POP JUMP JUMPDEST PUSH32 0x4E487B7100000000000000000000000000000000000000000000000000000000 PUSH0 MSTORE PUSH1 0x11 PUSH1 0x4 MSTORE PUSH1 0x24 PUSH0 REVERT JUMPDEST PUSH0 PUSH2 0x350B DUP3 PUSH2 0x27B8 JUMP JUMPDEST SWAP2 POP PUSH2 0x3516 DUP4 PUSH2 0x27B8 JUMP JUMPDEST SWAP3 POP DUP3 DUP3 MUL PUSH2 0x3524 DUP2 PUSH2 0x27B8 JUMP JUMPDEST SWAP2 POP DUP3 DUP3 DIV DUP5 EQ DUP4 ISZERO OR PUSH2 0x353B JUMPI PUSH2 0x353A PUSH2 0x34D4 JUMP JUMPDEST JUMPDEST POP SWAP3 SWAP2 POP POP JUMP JUMPDEST PUSH32 0x6E6F7420656E6F7567682066756E64732C20302E303031204554482070657220 PUSH0 DUP3 ADD MSTORE PUSH32 0x6D696E7400000000000000000000000000000000000000000000000000000000 PUSH1 0x20 DUP3 ADD MSTORE POP JUMP JUMPDEST PUSH0 PUSH2 0x359C PUSH1 0x24 DUP4 PUSH2 0x2ABC JUMP JUMPDEST SWAP2 POP PUSH2 0x35A7 DUP3 PUSH2 0x3542 JUMP JUMPDEST PUSH1 0x40 DUP3 ADD SWAP1 POP SWAP2 SWAP1 POP JUMP JUMPDEST PUSH0 PUSH1 0x20 DUP3 ADD SWAP1 POP DUP2 DUP2 SUB PUSH0 DUP4 ADD MSTORE PUSH2 0x35C9 DUP2 PUSH2 0x3590 JUMP JUMPDEST SWAP1 POP SWAP2 SWAP1 POP JUMP JUMPDEST PUSH0 PUSH1 0x40 DUP3 ADD SWAP1 POP PUSH2 0x35E3 PUSH0 DUP4 ADD DUP6 PUSH2 0x31B3 JUMP JUMPDEST PUSH2 0x35F0 PUSH1 0x20 DUP4 ADD DUP5 PUSH2 0x31B3 JUMP JUMPDEST SWAP4 SWAP3 POP POP POP JUMP JUMPDEST PUSH0 PUSH1 0x40 DUP3 ADD SWAP1 POP PUSH2 0x360A PUSH0 DUP4 ADD DUP6 PUSH2 0x2829 JUMP JUMPDEST PUSH2 0x3617 PUSH1 0x20 DUP4 ADD DUP5 PUSH2 0x2829 JUMP JUMPDEST SWAP4 SWAP3 POP POP POP JUMP JUMPDEST PUSH32 0x4E487B7100000000000000000000000000000000000000000000000000000000 PUSH0 MSTORE PUSH1 0x32 PUSH1 0x4 MSTORE PUSH1 0x24 PUSH0 REVERT JUMPDEST PUSH32 0x5075626C6963206D696E7420697320636C6F7365642E00000000000000000000 PUSH0 DUP3 ADD MSTORE POP JUMP JUMPDEST PUSH0 PUSH2 0x367F PUSH1 0x16 DUP4 PUSH2 0x2ABC JUMP JUMPDEST SWAP2 POP PUSH2 0x368A DUP3 PUSH2 0x364B JUMP JUMPDEST PUSH1 0x20 DUP3 ADD SWAP1 POP SWAP2 SWAP1 POP JUMP JUMPDEST PUSH0 PUSH1 0x20 DUP3 ADD SWAP1 POP DUP2 DUP2 SUB PUSH0 DUP4 ADD MSTORE PUSH2 0x36AC DUP2 PUSH2 0x3673 JUMP JUMPDEST SWAP1 POP SWAP2 SWAP1 POP JUMP JUMPDEST PUSH32 0x4E6F7420656E6F7567682066756E64732C20726571756972657320302E303120 PUSH0 DUP3 ADD MSTORE PUSH32 0x4554480000000000000000000000000000000000000000000000000000000000 PUSH1 0x20 DUP3 ADD MSTORE POP JUMP JUMPDEST PUSH0 PUSH2 0x370D PUSH1 0x23 DUP4 PUSH2 0x2ABC JUMP JUMPDEST SWAP2 POP PUSH2 0x3718 DUP3 PUSH2 0x36B3 JUMP JUMPDEST PUSH1 0x40 DUP3 ADD SWAP1 POP SWAP2 SWAP1 POP JUMP JUMPDEST PUSH0 PUSH1 0x20 DUP3 ADD SWAP1 POP DUP2 DUP2 SUB PUSH0 DUP4 ADD MSTORE PUSH2 0x373A DUP2 PUSH2 0x3701 JUMP JUMPDEST SWAP1 POP SWAP2 SWAP1 POP JUMP JUMPDEST PUSH32 0x4E487B7100000000000000000000000000000000000000000000000000000000 PUSH0 MSTORE PUSH1 0x22 PUSH1 0x4 MSTORE PUSH1 0x24 PUSH0 REVERT JUMPDEST PUSH0 PUSH1 0x2 DUP3 DIV SWAP1 POP PUSH1 0x1 DUP3 AND DUP1 PUSH2 0x3785 JUMPI PUSH1 0x7F DUP3 AND SWAP2 POP JUMPDEST PUSH1 0x20 DUP3 LT DUP2 SUB PUSH2 0x3798 JUMPI PUSH2 0x3797 PUSH2 0x3741 JUMP JUMPDEST JUMPDEST POP SWAP2 SWAP1 POP JUMP JUMPDEST PUSH0 DUP2 SWAP1 POP DUP2 PUSH0 MSTORE PUSH1 0x20 PUSH0 KECCAK256 SWAP1 POP SWAP2 SWAP1 POP JUMP JUMPDEST PUSH0 PUSH1 0x20 PUSH1 0x1F DUP4 ADD DIV SWAP1 POP SWAP2 SWAP1 POP JUMP JUMPDEST PUSH0 DUP3 DUP3 SHL SWAP1 POP SWAP3 SWAP2 POP POP JUMP JUMPDEST PUSH0 PUSH1 0x8 DUP4 MUL PUSH2 0x37FA PUSH32 0xFFFFFFFFFFFFFFFFFFFFFFFFFFFFFFFFFFFFFFFFFFFFFFFFFFFFFFFFFFFFFFFF DUP3 PUSH2 0x37BF JUMP JUMPDEST PUSH2 0x3804 DUP7 DUP4 PUSH2 0x37BF JUMP JUMPDEST SWAP6 POP DUP1 NOT DUP5 AND SWAP4 POP DUP1 DUP7 AND DUP5 OR SWAP3 POP POP POP SWAP4 SWAP3 POP POP POP JUMP JUMPDEST PUSH0 DUP2 SWAP1 POP SWAP2 SWAP1 POP JUMP JUMPDEST PUSH0 PUSH2 0x383F PUSH2 0x383A PUSH2 0x3835 DUP5 PUSH2 0x27B8 JUMP JUMPDEST PUSH2 0x381C JUMP JUMPDEST PUSH2 0x27B8 JUMP JUMPDEST SWAP1 POP SWAP2 SWAP1 POP JUMP JUMPDEST PUSH0 DUP2 SWAP1 POP SWAP2 SWAP1 POP JUMP JUMPDEST PUSH2 0x3858 DUP4 PUSH2 0x3825 JUMP JUMPDEST PUSH2 0x386C PUSH2 0x3864 DUP3 PUSH2 0x3846 JUMP JUMPDEST DUP5 DUP5 SLOAD PUSH2 0x37CB JUMP JUMPDEST DUP3 SSTORE POP POP POP POP JUMP JUMPDEST PUSH0 SWAP1 JUMP JUMPDEST PUSH2 0x3880 PUSH2 0x3874 JUMP JUMPDEST PUSH2 0x388B DUP2 DUP5 DUP5 PUSH2 0x384F JUMP JUMPDEST POP POP POP JUMP JUMPDEST JUMPDEST DUP2 DUP2 LT ISZERO PUSH2 0x38AE JUMPI PUSH2 0x38A3 PUSH0 DUP3 PUSH2 0x3878 JUMP JUMPDEST PUSH1 0x1 DUP2 ADD SWAP1 POP PUSH2 0x3891 JUMP JUMPDEST POP POP JUMP JUMPDEST PUSH1 0x1F DUP3 GT ISZERO PUSH2 0x38F3 JUMPI PUSH2 0x38C4 DUP2 PUSH2 0x379E JUMP JUMPDEST PUSH2 0x38CD DUP5 PUSH2 0x37B0 JUMP JUMPDEST DUP2 ADD PUSH1 0x20 DUP6 LT ISZERO PUSH2 0x38DC JUMPI DUP2 SWAP1 POP JUMPDEST PUSH2 0x38F0 PUSH2 0x38E8 DUP6 PUSH2 0x37B0 JUMP JUMPDEST DUP4 ADD DUP3 PUSH2 0x3890 JUMP JUMPDEST POP POP JUMPDEST POP POP POP JUMP JUMPDEST PUSH0 DUP3 DUP3 SHR SWAP1 POP SWAP3 SWAP2 POP POP JUMP JUMPDEST PUSH0 PUSH2 0x3913 PUSH0 NOT DUP5 PUSH1 0x8 MUL PUSH2 0x38F8 JUMP JUMPDEST NOT DUP1 DUP4 AND SWAP2 POP POP SWAP3 SWAP2 POP POP JUMP JUMPDEST PUSH0 PUSH2 0x392B DUP4 DUP4 PUSH2 0x3904 JUMP JUMPDEST SWAP2 POP DUP3 PUSH1 0x2 MUL DUP3 OR SWAP1 POP SWAP3 SWAP2 POP POP JUMP JUMPDEST PUSH2 0x3944 DUP3 PUSH2 0x2AB2 JUMP JUMPDEST PUSH8 0xFFFFFFFFFFFFFFFF DUP2 GT ISZERO PUSH2 0x395D JUMPI PUSH2 0x395C PUSH2 0x291C JUMP JUMPDEST JUMPDEST PUSH2 0x3967 DUP3 SLOAD PUSH2 0x376E JUMP JUMPDEST PUSH2 0x3972 DUP3 DUP3 DUP6 PUSH2 0x38B2 JUMP JUMPDEST PUSH0 PUSH1 0x20 SWAP1 POP PUSH1 0x1F DUP4 GT PUSH1 0x1 DUP2 EQ PUSH2 0x39A3 JUMPI PUSH0 DUP5 ISZERO PUSH2 0x3991 JUMPI DUP3 DUP8 ADD MLOAD SWAP1 POP JUMPDEST PUSH2 0x399B DUP6 DUP3 PUSH2 0x3920 JUMP JUMPDEST DUP7 SSTORE POP PUSH2 0x3A02 JUMP JUMPDEST PUSH1 0x1F NOT DUP5 AND PUSH2 0x39B1 DUP7 PUSH2 0x379E JUMP JUMPDEST PUSH0 JUMPDEST DUP3 DUP2 LT ISZERO PUSH2 0x39D8 JUMPI DUP5 DUP10 ADD MLOAD DUP3 SSTORE PUSH1 0x1 DUP3 ADD SWAP2 POP PUSH1 0x20 DUP6 ADD SWAP5 POP PUSH1 0x20 DUP2 ADD SWAP1 POP PUSH2 0x39B3 JUMP JUMPDEST DUP7 DUP4 LT ISZERO PUSH2 0x39F5 JUMPI DUP5 DUP10 ADD MLOAD PUSH2 0x39F1 PUSH1 0x1F DUP10 AND DUP3 PUSH2 0x3904 JUMP JUMPDEST DUP4 SSTORE POP JUMPDEST PUSH1 0x1 PUSH1 0x2 DUP9 MUL ADD DUP9 SSTORE POP POP POP JUMPDEST POP POP POP POP POP POP JUMP JUMPDEST PUSH32 0x4E487B7100000000000000000000000000000000000000000000000000000000 PUSH0 MSTORE PUSH1 0x12 PUSH1 0x4 MSTORE PUSH1 0x24 PUSH0 REVERT JUMPDEST PUSH32 0x4D696E74696E672077726F6E6720746F6B656E206E756D62657220286F6E6C79 PUSH0 DUP3 ADD MSTORE PUSH32 0x20302D313020746F6B656E732900000000000000000000000000000000000000 PUSH1 0x20 DUP3 ADD MSTORE POP JUMP JUMPDEST PUSH0 PUSH2 0x3A91 PUSH1 0x2D DUP4 PUSH2 0x2ABC JUMP JUMPDEST SWAP2 POP PUSH2 0x3A9C DUP3 PUSH2 0x3A37 JUMP JUMPDEST PUSH1 0x40 DUP3 ADD SWAP1 POP SWAP2 SWAP1 POP JUMP JUMPDEST PUSH0 PUSH1 0x20 DUP3 ADD SWAP1 POP DUP2 DUP2 SUB PUSH0 DUP4 ADD MSTORE PUSH2 0x3ABE DUP2 PUSH2 0x3A85 JUMP JUMPDEST SWAP1 POP SWAP2 SWAP1 POP JUMP JUMPDEST PUSH0 PUSH2 0x3ACF DUP3 PUSH2 0x27B8 JUMP JUMPDEST SWAP2 POP PUSH2 0x3ADA DUP4 PUSH2 0x27B8 JUMP JUMPDEST SWAP3 POP DUP3 DUP3 ADD SWAP1 POP DUP1 DUP3 GT ISZERO PUSH2 0x3AF2 JUMPI PUSH2 0x3AF1 PUSH2 0x34D4 JUMP JUMPDEST JUMPDEST SWAP3 SWAP2 POP POP JUMP JUMPDEST PUSH32 0x4D617820737570706C7920666F7220746F6B656E20726561636865642E000000 PUSH0 DUP3 ADD MSTORE POP JUMP JUMPDEST PUSH0 PUSH2 0x3B2C PUSH1 0x1D DUP4 PUSH2 0x2ABC JUMP JUMPDEST SWAP2 POP PUSH2 0x3B37 DUP3 PUSH2 0x3AF8 JUMP JUMPDEST PUSH1 0x20 DUP3 ADD SWAP1 POP SWAP2 SWAP1 POP JUMP JUMPDEST PUSH0 PUSH1 0x20 DUP3 ADD SWAP1 POP DUP2 DUP2 SUB PUSH0 DUP4 ADD MSTORE PUSH2 0x3B59 DUP2 PUSH2 0x3B20 JUMP JUMPDEST SWAP1 POP SWAP2 SWAP1 POP JUMP JUMPDEST PUSH32 0x4F6E6C792033204E46547320616C6C6F776564207065722077616C6C65742100 PUSH0 DUP3 ADD MSTORE POP JUMP JUMPDEST PUSH0 PUSH2 0x3B94 PUSH1 0x1F DUP4 PUSH2 0x2ABC JUMP JUMPDEST SWAP2 POP PUSH2 0x3B9F DUP3 PUSH2 0x3B60 JUMP JUMPDEST PUSH1 0x20 DUP3 ADD SWAP1 POP SWAP2 SWAP1 POP JUMP JUMPDEST PUSH0 PUSH1 0x20 DUP3 ADD SWAP1 POP DUP2 DUP2 SUB PUSH0 DUP4 ADD MSTORE PUSH2 0x3BC1 DUP2 PUSH2 0x3B88 JUMP JUMPDEST SWAP1 POP SWAP2 SWAP1 POP JUMP JUMPDEST PUSH0 DUP2 MLOAD SWAP1 POP SWAP2 SWAP1 POP JUMP JUMPDEST PUSH0 DUP3 DUP3 MSTORE PUSH1 0x20 DUP3 ADD SWAP1 POP SWAP3 SWAP2 POP POP JUMP JUMPDEST PUSH0 PUSH2 0x3BEC DUP3 PUSH2 0x3BC8 JUMP JUMPDEST PUSH2 0x3BF6 DUP2 DUP6 PUSH2 0x3BD2 JUMP JUMPDEST SWAP4 POP PUSH2 0x3C06 DUP2 DUP6 PUSH1 0x20 DUP7 ADD PUSH2 0x2ACC JUMP JUMPDEST PUSH2 0x3C0F DUP2 PUSH2 0x290C JUMP JUMPDEST DUP5 ADD SWAP2 POP POP SWAP3 SWAP2 POP POP JUMP JUMPDEST PUSH0 PUSH1 0xA0 DUP3 ADD SWAP1 POP PUSH2 0x3C2D PUSH0 DUP4 ADD DUP9 PUSH2 0x31B3 JUMP JUMPDEST PUSH2 0x3C3A PUSH1 0x20 DUP4 ADD DUP8 PUSH2 0x31B3 JUMP JUMPDEST PUSH2 0x3C47 PUSH1 0x40 DUP4 ADD DUP7 PUSH2 0x2829 JUMP JUMPDEST PUSH2 0x3C54 PUSH1 0x60 DUP4 ADD DUP6 PUSH2 0x2829 JUMP JUMPDEST DUP2 DUP2 SUB PUSH1 0x80 DUP4 ADD MSTORE PUSH2 0x3C66 DUP2 DUP5 PUSH2 0x3BE2 JUMP JUMPDEST SWAP1 POP SWAP7 SWAP6 POP POP POP POP POP POP JUMP JUMPDEST PUSH0 DUP2 MLOAD SWAP1 POP PUSH2 0x3C80 DUP2 PUSH2 0x287C JUMP JUMPDEST SWAP3 SWAP2 POP POP JUMP JUMPDEST PUSH0 PUSH1 0x20 DUP3 DUP5 SUB SLT ISZERO PUSH2 0x3C9B JUMPI PUSH2 0x3C9A PUSH2 0x2756 JUMP JUMPDEST JUMPDEST PUSH0 PUSH2 0x3CA8 DUP5 DUP3 DUP6 ADD PUSH2 0x3C72 JUMP JUMPDEST SWAP2 POP POP SWAP3 SWAP2 POP POP JUMP JUMPDEST PUSH0 PUSH1 0xA0 DUP3 ADD SWAP1 POP PUSH2 0x3CC4 PUSH0 DUP4 ADD DUP9 PUSH2 0x31B3 JUMP JUMPDEST PUSH2 0x3CD1 PUSH1 0x20 DUP4 ADD DUP8 PUSH2 0x31B3 JUMP JUMPDEST DUP2 DUP2 SUB PUSH1 0x40 DUP4 ADD MSTORE PUSH2 0x3CE3 DUP2 DUP7 PUSH2 0x3093 JUMP JUMPDEST SWAP1 POP DUP2 DUP2 SUB PUSH1 0x60 DUP4 ADD MSTORE PUSH2 0x3CF7 DUP2 DUP6 PUSH2 0x3093 JUMP JUMPDEST SWAP1 POP DUP2 DUP2 SUB PUSH1 0x80 DUP4 ADD MSTORE PUSH2 0x3D0B DUP2 DUP5 PUSH2 0x3BE2 JUMP JUMPDEST SWAP1 POP SWAP7 SWAP6 POP POP POP POP POP POP JUMP JUMPDEST PUSH0 PUSH1 0x80 DUP3 ADD SWAP1 POP PUSH2 0x3D2A PUSH0 DUP4 ADD DUP8 PUSH2 0x31B3 JUMP JUMPDEST PUSH2 0x3D37 PUSH1 0x20 DUP4 ADD DUP7 PUSH2 0x2829 JUMP JUMPDEST PUSH2 0x3D44 PUSH1 0x40 DUP4 ADD DUP6 PUSH2 0x2829 JUMP JUMPDEST PUSH2 0x3D51 PUSH1 0x60 DUP4 ADD DUP5 PUSH2 0x2829 JUMP JUMPDEST SWAP6 SWAP5 POP POP POP POP POP JUMP JUMPDEST PUSH0 PUSH1 0x40 DUP3 ADD SWAP1 POP DUP2 DUP2 SUB PUSH0 DUP4 ADD MSTORE PUSH2 0x3D72 DUP2 DUP6 PUSH2 0x3093 JUMP JUMPDEST SWAP1 POP DUP2 DUP2 SUB PUSH1 0x20 DUP4 ADD MSTORE PUSH2 0x3D86 DUP2 DUP5 PUSH2 0x3093 JUMP JUMPDEST SWAP1 POP SWAP4 SWAP3 POP POP POP JUMP INVALID LOG2 PUSH5 0x6970667358 0x22 SLT KECCAK256 PUSH10 0x973F78B544EA6DD542F0 BALANCE 0xED 0xCC PUSH18 0xD9EEE608BDC3619003FB4B3DE6BF882FCE64 PUSH20 0x6F6C63430008160033697066733A2F2F516D5938 PUSH20 0x6E39637034466D7256635165625379686F4E3431 CODECOPY CALLDATASIZE PC PUSH12 0x57644E6D664D53727057566E PUSH25 0x574A4C702F0000000000000000000000000000000000000000 "
		},
		"gasEstimates": {
			"creation": {
				"codeDepositCost": "3162600",
				"executionCost": "infinite",
				"totalCost": "infinite"
			},
			"external": {
				"addAllowList(address,bool)": "infinite",
				"allTokenMaxSupply()": "2537",
				"allowList(address)": "2879",
				"allowListMint(uint256,uint256)": "infinite",
				"allowListMintOpen()": "2630",
				"allowListPrice()": "2492",
				"balanceOf(address,uint256)": "infinite",
				"balanceOfBatch(address[],uint256[])": "infinite",
				"editMintWindows(bool,bool)": "infinite",
				"exists(uint256)": "2912",
				"isApprovedForAll(address,address)": "infinite",
				"maxPerWallet()": "2470",
				"mintBatch(address,uint256[],uint256[],bytes)": "infinite",
				"oneTokenMaxSupply()": "2515",
				"owner()": "2604",
				"pause()": "infinite",
				"paused()": "2570",
				"publicMint(uint256,uint256)": "infinite",
				"publicMintOpen()": "2577",
				"publicPrice()": "2514",
				"renounceOwnership()": "infinite",
				"safeBatchTransferFrom(address,address,uint256[],uint256[],bytes)": "infinite",
				"safeTransferFrom(address,address,uint256,uint256,bytes)": "infinite",
				"setAllowList(address[])": "infinite",
				"setApprovalForAll(address,bool)": "infinite",
				"setURI(string)": "infinite",
				"supportsInterface(bytes4)": "832",
				"totalSupply()": "2522",
				"totalSupply(uint256)": "infinite",
				"transferOwnership(address)": "infinite",
				"unpause()": "infinite",
				"uri(uint256)": "infinite",
				"walletPurchases(address)": "2935",
				"withdraw(address)": "infinite"
			},
			"internal": {
				"_update(address,address,uint256[] memory,uint256[] memory)": "infinite",
				"mint(uint256,uint256)": "infinite"
			}
		},
		"methodIdentifiers": {
			"addAllowList(address,bool)": "d75e0293",
			"allTokenMaxSupply()": "69396069",
			"allowList(address)": "2848aeaf",
			"allowListMint(uint256,uint256)": "128ac91b",
			"allowListMintOpen()": "085c9bac",
			"allowListPrice()": "a24e5153",
			"balanceOf(address,uint256)": "00fdd58e",
			"balanceOfBatch(address[],uint256[])": "4e1273f4",
			"editMintWindows(bool,bool)": "2f48de79",
			"exists(uint256)": "4f558e79",
			"isApprovedForAll(address,address)": "e985e9c5",
			"maxPerWallet()": "453c2310",
			"mintBatch(address,uint256[],uint256[],bytes)": "1f7fdffa",
			"oneTokenMaxSupply()": "665ccfb4",
			"owner()": "8da5cb5b",
			"pause()": "8456cb59",
			"paused()": "5c975abb",
			"publicMint(uint256,uint256)": "98ae99a8",
			"publicMintOpen()": "bcc9ca5b",
			"publicPrice()": "a945bf80",
			"renounceOwnership()": "715018a6",
			"safeBatchTransferFrom(address,address,uint256[],uint256[],bytes)": "2eb2c2d6",
			"safeTransferFrom(address,address,uint256,uint256,bytes)": "f242432a",
			"setAllowList(address[])": "6447c35d",
			"setApprovalForAll(address,bool)": "a22cb465",
			"setURI(string)": "02fe5305",
			"supportsInterface(bytes4)": "01ffc9a7",
			"totalSupply()": "18160ddd",
			"totalSupply(uint256)": "bd85b039",
			"transferOwnership(address)": "f2fde38b",
			"unpause()": "3f4ba83a",
			"uri(uint256)": "0e89341c",
			"walletPurchases(address)": "51f1f740",
			"withdraw(address)": "51cff8d9"
		}
	},
	"abi": [
		{
			"inputs": [
				{
					"internalType": "address",
					"name": "initialOwner",
					"type": "address"
				}
			],
			"stateMutability": "nonpayable",
			"type": "constructor"
		},
		{
			"inputs": [
				{
					"internalType": "address",
					"name": "sender",
					"type": "address"
				},
				{
					"internalType": "uint256",
					"name": "balance",
					"type": "uint256"
				},
				{
					"internalType": "uint256",
					"name": "needed",
					"type": "uint256"
				},
				{
					"internalType": "uint256",
					"name": "tokenId",
					"type": "uint256"
				}
			],
			"name": "ERC1155InsufficientBalance",
			"type": "error"
		},
		{
			"inputs": [
				{
					"internalType": "address",
					"name": "approver",
					"type": "address"
				}
			],
			"name": "ERC1155InvalidApprover",
			"type": "error"
		},
		{
			"inputs": [
				{
					"internalType": "uint256",
					"name": "idsLength",
					"type": "uint256"
				},
				{
					"internalType": "uint256",
					"name": "valuesLength",
					"type": "uint256"
				}
			],
			"name": "ERC1155InvalidArrayLength",
			"type": "error"
		},
		{
			"inputs": [
				{
					"internalType": "address",
					"name": "operator",
					"type": "address"
				}
			],
			"name": "ERC1155InvalidOperator",
			"type": "error"
		},
		{
			"inputs": [
				{
					"internalType": "address",
					"name": "receiver",
					"type": "address"
				}
			],
			"name": "ERC1155InvalidReceiver",
			"type": "error"
		},
		{
			"inputs": [
				{
					"internalType": "address",
					"name": "sender",
					"type": "address"
				}
			],
			"name": "ERC1155InvalidSender",
			"type": "error"
		},
		{
			"inputs": [
				{
					"internalType": "address",
					"name": "operator",
					"type": "address"
				},
				{
					"internalType": "address",
					"name": "owner",
					"type": "address"
				}
			],
			"name": "ERC1155MissingApprovalForAll",
			"type": "error"
		},
		{
			"inputs": [],
			"name": "EnforcedPause",
			"type": "error"
		},
		{
			"inputs": [],
			"name": "ExpectedPause",
			"type": "error"
		},
		{
			"inputs": [
				{
					"internalType": "address",
					"name": "owner",
					"type": "address"
				}
			],
			"name": "OwnableInvalidOwner",
			"type": "error"
		},
		{
			"inputs": [
				{
					"internalType": "address",
					"name": "account",
					"type": "address"
				}
			],
			"name": "OwnableUnauthorizedAccount",
			"type": "error"
		},
		{
			"anonymous": false,
			"inputs": [
				{
					"indexed": true,
					"internalType": "address",
					"name": "account",
					"type": "address"
				},
				{
					"indexed": true,
					"internalType": "address",
					"name": "operator",
					"type": "address"
				},
				{
					"indexed": false,
					"internalType": "bool",
					"name": "approved",
					"type": "bool"
				}
			],
			"name": "ApprovalForAll",
			"type": "event"
		},
		{
			"anonymous": false,
			"inputs": [
				{
					"indexed": true,
					"internalType": "address",
					"name": "previousOwner",
					"type": "address"
				},
				{
					"indexed": true,
					"internalType": "address",
					"name": "newOwner",
					"type": "address"
				}
			],
			"name": "OwnershipTransferred",
			"type": "event"
		},
		{
			"anonymous": false,
			"inputs": [
				{
					"indexed": false,
					"internalType": "address",
					"name": "account",
					"type": "address"
				}
			],
			"name": "Paused",
			"type": "event"
		},
		{
			"anonymous": false,
			"inputs": [
				{
					"indexed": true,
					"internalType": "address",
					"name": "operator",
					"type": "address"
				},
				{
					"indexed": true,
					"internalType": "address",
					"name": "from",
					"type": "address"
				},
				{
					"indexed": true,
					"internalType": "address",
					"name": "to",
					"type": "address"
				},
				{
					"indexed": false,
					"internalType": "uint256[]",
					"name": "ids",
					"type": "uint256[]"
				},
				{
					"indexed": false,
					"internalType": "uint256[]",
					"name": "values",
					"type": "uint256[]"
				}
			],
			"name": "TransferBatch",
			"type": "event"
		},
		{
			"anonymous": false,
			"inputs": [
				{
					"indexed": true,
					"internalType": "address",
					"name": "operator",
					"type": "address"
				},
				{
					"indexed": true,
					"internalType": "address",
					"name": "from",
					"type": "address"
				},
				{
					"indexed": true,
					"internalType": "address",
					"name": "to",
					"type": "address"
				},
				{
					"indexed": false,
					"internalType": "uint256",
					"name": "id",
					"type": "uint256"
				},
				{
					"indexed": false,
					"internalType": "uint256",
					"name": "value",
					"type": "uint256"
				}
			],
			"name": "TransferSingle",
			"type": "event"
		},
		{
			"anonymous": false,
			"inputs": [
				{
					"indexed": false,
					"internalType": "string",
					"name": "value",
					"type": "string"
				},
				{
					"indexed": true,
					"internalType": "uint256",
					"name": "id",
					"type": "uint256"
				}
			],
			"name": "URI",
			"type": "event"
		},
		{
			"anonymous": false,
			"inputs": [
				{
					"indexed": false,
					"internalType": "address",
					"name": "account",
					"type": "address"
				}
			],
			"name": "Unpaused",
			"type": "event"
		},
		{
			"inputs": [
				{
					"internalType": "address",
					"name": "_address",
					"type": "address"
				},
				{
					"internalType": "bool",
					"name": "_allowed",
					"type": "bool"
				}
			],
			"name": "addAllowList",
			"outputs": [],
			"stateMutability": "nonpayable",
			"type": "function"
		},
		{
			"inputs": [],
			"name": "allTokenMaxSupply",
			"outputs": [
				{
					"internalType": "uint256",
					"name": "",
					"type": "uint256"
				}
			],
			"stateMutability": "view",
			"type": "function"
		},
		{
			"inputs": [
				{
					"internalType": "address",
					"name": "",
					"type": "address"
				}
			],
			"name": "allowList",
			"outputs": [
				{
					"internalType": "bool",
					"name": "",
					"type": "bool"
				}
			],
			"stateMutability": "view",
			"type": "function"
		},
		{
			"inputs": [
				{
					"internalType": "uint256",
					"name": "id",
					"type": "uint256"
				},
				{
					"internalType": "uint256",
					"name": "amount",
					"type": "uint256"
				}
			],
			"name": "allowListMint",
			"outputs": [],
			"stateMutability": "payable",
			"type": "function"
		},
		{
			"inputs": [],
			"name": "allowListMintOpen",
			"outputs": [
				{
					"internalType": "bool",
					"name": "",
					"type": "bool"
				}
			],
			"stateMutability": "view",
			"type": "function"
		},
		{
			"inputs": [],
			"name": "allowListPrice",
			"outputs": [
				{
					"internalType": "uint256",
					"name": "",
					"type": "uint256"
				}
			],
			"stateMutability": "view",
			"type": "function"
		},
		{
			"inputs": [
				{
					"internalType": "address",
					"name": "account",
					"type": "address"
				},
				{
					"internalType": "uint256",
					"name": "id",
					"type": "uint256"
				}
			],
			"name": "balanceOf",
			"outputs": [
				{
					"internalType": "uint256",
					"name": "",
					"type": "uint256"
				}
			],
			"stateMutability": "view",
			"type": "function"
		},
		{
			"inputs": [
				{
					"internalType": "address[]",
					"name": "accounts",
					"type": "address[]"
				},
				{
					"internalType": "uint256[]",
					"name": "ids",
					"type": "uint256[]"
				}
			],
			"name": "balanceOfBatch",
			"outputs": [
				{
					"internalType": "uint256[]",
					"name": "",
					"type": "uint256[]"
				}
			],
			"stateMutability": "view",
			"type": "function"
		},
		{
			"inputs": [
				{
					"internalType": "bool",
					"name": "_publicMintOpen",
					"type": "bool"
				},
				{
					"internalType": "bool",
					"name": "_allowListMintOpen",
					"type": "bool"
				}
			],
			"name": "editMintWindows",
			"outputs": [],
			"stateMutability": "nonpayable",
			"type": "function"
		},
		{
			"inputs": [
				{
					"internalType": "uint256",
					"name": "id",
					"type": "uint256"
				}
			],
			"name": "exists",
			"outputs": [
				{
					"internalType": "bool",
					"name": "",
					"type": "bool"
				}
			],
			"stateMutability": "view",
			"type": "function"
		},
		{
			"inputs": [
				{
					"internalType": "address",
					"name": "account",
					"type": "address"
				},
				{
					"internalType": "address",
					"name": "operator",
					"type": "address"
				}
			],
			"name": "isApprovedForAll",
			"outputs": [
				{
					"internalType": "bool",
					"name": "",
					"type": "bool"
				}
			],
			"stateMutability": "view",
			"type": "function"
		},
		{
			"inputs": [],
			"name": "maxPerWallet",
			"outputs": [
				{
					"internalType": "uint256",
					"name": "",
					"type": "uint256"
				}
			],
			"stateMutability": "view",
			"type": "function"
		},
		{
			"inputs": [
				{
					"internalType": "address",
					"name": "to",
					"type": "address"
				},
				{
					"internalType": "uint256[]",
					"name": "ids",
					"type": "uint256[]"
				},
				{
					"internalType": "uint256[]",
					"name": "amounts",
					"type": "uint256[]"
				},
				{
					"internalType": "bytes",
					"name": "data",
					"type": "bytes"
				}
			],
			"name": "mintBatch",
			"outputs": [],
			"stateMutability": "nonpayable",
			"type": "function"
		},
		{
			"inputs": [],
			"name": "oneTokenMaxSupply",
			"outputs": [
				{
					"internalType": "uint256",
					"name": "",
					"type": "uint256"
				}
			],
			"stateMutability": "view",
			"type": "function"
		},
		{
			"inputs": [],
			"name": "owner",
			"outputs": [
				{
					"internalType": "address",
					"name": "",
					"type": "address"
				}
			],
			"stateMutability": "view",
			"type": "function"
		},
		{
			"inputs": [],
			"name": "pause",
			"outputs": [],
			"stateMutability": "nonpayable",
			"type": "function"
		},
		{
			"inputs": [],
			"name": "paused",
			"outputs": [
				{
					"internalType": "bool",
					"name": "",
					"type": "bool"
				}
			],
			"stateMutability": "view",
			"type": "function"
		},
		{
			"inputs": [
				{
					"internalType": "uint256",
					"name": "id",
					"type": "uint256"
				},
				{
					"internalType": "uint256",
					"name": "amount",
					"type": "uint256"
				}
			],
			"name": "publicMint",
			"outputs": [],
			"stateMutability": "payable",
			"type": "function"
		},
		{
			"inputs": [],
			"name": "publicMintOpen",
			"outputs": [
				{
					"internalType": "bool",
					"name": "",
					"type": "bool"
				}
			],
			"stateMutability": "view",
			"type": "function"
		},
		{
			"inputs": [],
			"name": "publicPrice",
			"outputs": [
				{
					"internalType": "uint256",
					"name": "",
					"type": "uint256"
				}
			],
			"stateMutability": "view",
			"type": "function"
		},
		{
			"inputs": [],
			"name": "renounceOwnership",
			"outputs": [],
			"stateMutability": "nonpayable",
			"type": "function"
		},
		{
			"inputs": [
				{
					"internalType": "address",
					"name": "from",
					"type": "address"
				},
				{
					"internalType": "address",
					"name": "to",
					"type": "address"
				},
				{
					"internalType": "uint256[]",
					"name": "ids",
					"type": "uint256[]"
				},
				{
					"internalType": "uint256[]",
					"name": "values",
					"type": "uint256[]"
				},
				{
					"internalType": "bytes",
					"name": "data",
					"type": "bytes"
				}
			],
			"name": "safeBatchTransferFrom",
			"outputs": [],
			"stateMutability": "nonpayable",
			"type": "function"
		},
		{
			"inputs": [
				{
					"internalType": "address",
					"name": "from",
					"type": "address"
				},
				{
					"internalType": "address",
					"name": "to",
					"type": "address"
				},
				{
					"internalType": "uint256",
					"name": "id",
					"type": "uint256"
				},
				{
					"internalType": "uint256",
					"name": "value",
					"type": "uint256"
				},
				{
					"internalType": "bytes",
					"name": "data",
					"type": "bytes"
				}
			],
			"name": "safeTransferFrom",
			"outputs": [],
			"stateMutability": "nonpayable",
			"type": "function"
		},
		{
			"inputs": [
				{
					"internalType": "address[]",
					"name": "_addresses",
					"type": "address[]"
				}
			],
			"name": "setAllowList",
			"outputs": [],
			"stateMutability": "nonpayable",
			"type": "function"
		},
		{
			"inputs": [
				{
					"internalType": "address",
					"name": "operator",
					"type": "address"
				},
				{
					"internalType": "bool",
					"name": "approved",
					"type": "bool"
				}
			],
			"name": "setApprovalForAll",
			"outputs": [],
			"stateMutability": "nonpayable",
			"type": "function"
		},
		{
			"inputs": [
				{
					"internalType": "string",
					"name": "newuri",
					"type": "string"
				}
			],
			"name": "setURI",
			"outputs": [],
			"stateMutability": "nonpayable",
			"type": "function"
		},
		{
			"inputs": [
				{
					"internalType": "bytes4",
					"name": "interfaceId",
					"type": "bytes4"
				}
			],
			"name": "supportsInterface",
			"outputs": [
				{
					"internalType": "bool",
					"name": "",
					"type": "bool"
				}
			],
			"stateMutability": "view",
			"type": "function"
		},
		{
			"inputs": [],
			"name": "totalSupply",
			"outputs": [
				{
					"internalType": "uint256",
					"name": "",
					"type": "uint256"
				}
			],
			"stateMutability": "view",
			"type": "function"
		},
		{
			"inputs": [
				{
					"internalType": "uint256",
					"name": "id",
					"type": "uint256"
				}
			],
			"name": "totalSupply",
			"outputs": [
				{
					"internalType": "uint256",
					"name": "",
					"type": "uint256"
				}
			],
			"stateMutability": "view",
			"type": "function"
		},
		{
			"inputs": [
				{
					"internalType": "address",
					"name": "newOwner",
					"type": "address"
				}
			],
			"name": "transferOwnership",
			"outputs": [],
			"stateMutability": "nonpayable",
			"type": "function"
		},
		{
			"inputs": [],
			"name": "unpause",
			"outputs": [],
			"stateMutability": "nonpayable",
			"type": "function"
		},
		{
			"inputs": [
				{
					"internalType": "uint256",
					"name": "_id",
					"type": "uint256"
				}
			],
			"name": "uri",
			"outputs": [
				{
					"internalType": "string",
					"name": "",
					"type": "string"
				}
			],
			"stateMutability": "view",
			"type": "function"
		},
		{
			"inputs": [
				{
					"internalType": "address",
					"name": "",
					"type": "address"
				}
			],
			"name": "walletPurchases",
			"outputs": [
				{
					"internalType": "uint256",
					"name": "",
					"type": "uint256"
				}
			],
			"stateMutability": "view",
			"type": "function"
		},
		{
			"inputs": [
				{
					"internalType": "address",
					"name": "_address",
					"type": "address"
				}
			],
			"name": "withdraw",
			"outputs": [],
			"stateMutability": "nonpayable",
			"type": "function"
		}
	]
}